:020000040000FA
:060000000214480208B8DA
:03002B00021204BA
:03003300020C3389
:0300430002109A0E
:030053000207EDB4
:03006B00020BEB9A
:03007B00020C1361
:1000830002084C010000000000F8FF07FFFF00001A
:100093000504000000030001FFFFFFFF00451001FE
:1000A300050100000002003A0117001410270000A8
:1000B30090BB0B001000B8AC0E00140000801100C0
:1000C300180070C710002000B89A180030000020F4
:1000D300FD000200002F1C0000000000008F1C0028
:1000E300000000000000000000000000000000000D
:1000F30000000000000000000000000000000006F7
:10010300FFFF1E20FEFFFEFFFEFFFEFFFEFFFEFFC2
:10011300FFFFFF01FFFFFFFEFF01CD20000039219C
:1001230000000000000000000000000000000000CC
:100133000000FF3C003C00450032000100E8030AD8
:10014300000A000A000A000A001E00030104010C51
:10015300000206D1E106DDE10304010701020131DA
:10016300E40206E40404010C00020127E4012DE487
:10017300010400001718000000E8030000FFFF68F7
:10018300180188130000E803000064006400B8014C
:10019300A0BB0D00A0BB0D00020202070401051E57
:1001A30002051E020A0A010108080103B80B0280B6
:1001B3003E0102FEFFE8030A050001FFFF020A14E5
:1001C30001E00100B0423BAAB83F8C906339AA0C0E
:1001D300A33A00941E3C8042633DCFFE753E1572E8
:1001E300313FF304353F8096184B000080BF2292C5
:1001F300D43EDD9B2A3F04000040FFFF7F7FFFFFCB
:100203007FFF010080341872313F020000000503B4
:1002130001010F03000300030003000300030003B5
:10022300000300030005000A00140028004F009E8D
:10023300000000FB3300000000313300000000FF2A
:10024300000000FF001214856046121494603DE91B
:10025300687008F618F618F618F622748067F71215
:10026300027C090909748067F722121494601D1235
:1002730014857005191919801A121323701F12138C
:1002830037C37003E6673319191940071818182282
:1002930008080874FFF618F618F618F62212133732
:1002A300601712150F702192F0121518701950175C
:1002B30020F014080808090909E7F61819E7F618E1
:1002C30019E7F61819E7F62212151860E6E86970BF
:1002D3001F0808E62480F608E436F618547FB47F36
:1002E3000CE654806007F6E418F618F62218182274
:1002F300E9C6CC08C6CD08C6CE08C6CFC0E0E8C064
:10030300E0EAC0E0EBC0E009E9F809E7FA09E7FB36
:10031300E6F918E6F8C3EC98ED99EE9AEBC2E7F527
:10032300F0EFC2E795F0500E600CEBCFFBEACEFA8C
:10033300E9CDF9E8CCF8EAA2E7D2E7FAEB33FB130D
:10034300F5F0EEA2E7D2E7FEEF33FFC5F013A2E725
:1003530030E601B313C5F0C3C0E0C0F07F00C39B18
:10036300FB605E9418600F401D14601AD0E023F9FF
:10037300D0E0F802044E8AF0E9486003D2F0E4AF1B
:10038300F0FAF9F8803BEB30E40D89F0EA6003D230
:10039300F0E4AFF0F9CAF8EB30E30D88F0EF600258
:1003A300D2F0AFF0E4CAC9F8EB54076014FBC3EA18
:1003B30013FAE913F9E813F8EF135002D2E0FFDB65
:1003C300EDD0E0C0E030E739C3E49FFFF5F0EC98EF
:1003D300FC42F0ED99FD42F0EE9AFE42F0D0E0F9D6
:1003E300D0E0F8E5F0607AE923F9EE20E742D8029D
:1003F3008067C3EF33FFEC33FCED33FDEE33FE8058
:10040300EAEC28FCED39FDEE3AFED0E023F9D0E02A
:10041300F84002801BC3EE13FEED13FDEC13FCEF5B
:10042300135002D2E0FF08B800067F7F74FF802ECE
:10043300EF3350178CF020F00260100CBC000C0D51
:10044300BD00080EBE000408E860DFE933E813FFCF
:10045300EE2313FE4F4D4C8008E95480FFE4FEFD6C
:10046300FCEE33EF33F47004FCFD7E80D0E0FBD070
:10047300E0FAD0E0F8D0E0CFC618CEC618CDC61843
:10048300CCC6F92212149470041818182212148579
:10049300700D74FFF61819F61819F61819F622E7F5
:1004A300548066F6121518700F12150F70F014F6BB
:1004B30008F608F608F680D112150F700CF608F648
:1004C30008768008E6447F80EC12133A700C12130E
:1004D3002660BFE65480F6E480BB1213267005192C
:1004E300191980A5E869700C763F18768018F618FC
:1004F300F6E8F922E6CDC0E018ECC0E0E633CD33F0
:10050300CDD313F6E719FCE7191933CC33C3947F22
:10051300400ECD9D502408E65480F6E418F6800F73
:10052300F4043D14501408E6447FF6187680E4186A
:10053300F618F6D0E0FCD0E0FD22CCD313CCFD18A6
:10054300E4C6CBC0E018E4C6CAC0E00808ED08C69C
:1005530033E613F618E433C675F003C3CA97CA0922
:10056300CB97CB199C40047D08802EBD0003020667
:100573003016B6FF050606081618C3CA33CACB33AE
:10058300CB33CA27CA09CB37CB193CC37D08803E7E
:10059300187D0820E75CC633C6CA33CACB33CB33D6
:1005A300DDF1D5F0EB30E77BCA97CA09CB974ACB8D
:1005B300199C406F4B7025E620E0218066187D086A
:1005C300C3CA97CA09CB97CB199CD3C633C6CA33C0
:1005D300CACB33CB3350C9DDE7D5F0E1D3E4C6361C
:1005E300C608C636C608C636C608C636C61818189C
:1005F3008031C3CA97CA09CB97CB199CB34097C61E
:1006030033C6CA33CACB33CB33DD34D5F02EC6A2BF
:10061300E0C640C8CA27CA09CB37194A70BECB3CCB
:10062300B480B90808E63308E633601F181818D0F9
:10063300E0FAD0E0FBD0E0FCD0E0FD22187D08CA50
:1006430027CA09CB37CB193CD3808013F618E4B6FD
:100653007F11F618B6FF0EF618C60470D208087696
:100663008080CAF618F618F680C500121494604FFD
:100673001214856012E7548066F612132370111268
:10068300150F703B090909F4F618F618F618F62247
:10069300121337701512151808080860EAE6447F2C
:1006A300F618768018E4F618F6221215186016125A
:1006B300150F7012E4F608F608F608E65480F609FA
:1006C300090918181822EAC0E0EBC0E0ECC0E0ED1D
:1006D300C0E0E687F0A4FBACF008E687F0A42CFCAE
:1006E300E435F0FA1809E687F0A42C4B6002740194
:1006F300CA35F0FCE433FB09E687F0D2F7A42CCB30
:1007030035F0FC1908E687F0A42BCC35F0FBE43375
:10071300FD0819E687F0D2E7A42C4ACB35F0CD3497
:1007230000FC09E687F0D2E7A42DCC35F0FDE433D5
:10073300FA0918E687F0D2F7A42CCD35F0CA3400B5
:10074300FC08E687F0D2E7D2F7A42ACC35F07A7E0C
:1007530020E70B0ACB33CBCD33CDCC33CC33CB33E8
:1007630050147004ED30E00ED2F1E4CD3DCDCC3C1D
:10077300CC3B5005DA05C2F1EB547FC63308E633B0
:1007830092F0FBE73309E733C39A502D2B70190C12
:100793000D4C4D70151806E608C333700D20F10A91
:1007A300A2F013F6E418800B4024E4F630F002764E
:1007B3008018F618F618F68024D33B14501074FFF3
:1007C300A2F013F6187680E418F618F6800FA2F05C
:1007D30013F618E63303F618ECF618EDF6D0E0FD41
:1007E300D0E0FCD0E0FBD0E0FA22C0E074F1120CC0
:1007F30053A2AFE433F509D2AF85A708AFA1EF55F4
:1008030008FE74105E60061219B375A1EF74085EDA
:1008130060081219B975A1F78024EFA2E092F0E500
:1008230008A2E082F05017906198E0F8900801E088
:10083300C398A2D265D0335002E8F075A1FEE50952
:10084300A2E092AF7F02020CB2C0E074F2120C532A
:10085300A2AFE433FED2AF9061A4E0F8759B00E54C
:100863009158540860087591F7121A078023E5918F
:1008730058541060087591EF121A0D8014E591A277
:10088300E092F0E8A2E082F05007E0C2E0F0121B31
:10089300579061A3E0F8E5E9585404600E121B2D4C
:1008A30075E9FB906193E0A2E640F2EEA2E092AF1D
:1008B3007F01020CB2C0E074F2120C53A2AFE43316
:1008C300FED2AF9061A5E0F8E5BF58540460067509
:1008D300BFFB121B6F80D412092F30F0431209742F
:1008E300803E8A088B098C0A8D0B780812092F2009
:1008F300F01430E72B74FFFCFBFA747F8022E4FCD6
:10090300FBFA7480801AB48008BC00F2BB00EF804D
:100913000F50EBF9E4C39AFAE49BFBE49CFCE499E3
:10092300C6CC18C6CB18C6CA18C6F922E4C9C6086D
:10093300CAC608CBC6D3330308CCC63392F0C394DC
:100943007F402E94184019C9B90704CACBCC225052
:1009530025C309CA33CACB33CBCC33CC33D9F42226
:10096300F4600DC9CCC313CB13CBCA13CAD9F6CCCD
:1009730022E4FCFBFA2214FCFBFA22C3E498F8E419
:1009830099F91209BF8026C3E49AFAE49BFBE92094
:10099300E7E91209BFE498F8E499F922C3E498F867
:1009A300E499F91209BFE498F8E499F9C3E49AFACF
:1009B300E49BFB22EB20E7CFE920E7E0B90010BB83
:1009C3000008E88AF084F8AAF022E4FBC8FA22EBD4
:1009D30070227B10C833C8C933C9335007C39AC3C5
:1009E300DBF280069A50012ADBEAC833F4C8C93324
:1009F300F4C9FA2275F008E4C833C8C933C933C946
:100A03009AC99B5004C92AC93BD5F0ECFBC833F4FF
:100A1300C8E4C9FA22080808EAC0E0EBC0E086F09F
:100A2300E7A4FA180986F0E7A42AFA180986F0E77A
:100A3300A42AFA180986F0E7A42AFA1986F0E7A48B
:100A4300FBE5F02AFA190886F0E7A42BFBE5F03A58
:100A5300FA190886F0E7A42BFBE5F03AFA1818090F
:100A630086F0E7A4C5F02BFBE43AFA1908E7C5F0D2
:100A7300C6A426F6E5F03BFBE43AFA1886F0E7A4B1
:100A8300F6E5F00826F6E43B08F6E43A08F6D0E08B
:100A9300FBD0E0FA22080808E630E7111212FB1235
:100AA3000AB0080808C64480C6181818221818186F
:100AB300E9799EC608CAC608CBC608CCC6C370204F
:100AC3007996CACBCC7019798ECBCC70137986CC3E
:100AD300700EF9802ACA33CACB33CBCC33CC33194B
:100AE30030E7F2CCCBCA3350147004EA30E00DE4A3
:100AF300CA3ACACB3BCBCC3CCC500209C3E913C6A0
:100B0300CC182313C6CB18C6CA18C6F922E4CFC023
:100B1300E0E4CEC0E0E4CDC0E0E4CCC0E075F0207A
:100B2300E626F608E633F608E633F608E633F61863
:100B33001818EC33FCED33FDEE33FEEF33FFC3EC5B
:100B43009709ED9709EE9709EF97191919400FFFC8
:100B5300EC97FC09ED97FD09EE97FE191906D5F000
:100B6300BFECF709EDF709EEF709EFF7191919D0FB
:100B7300E0FCD0E0FDD0E0FED0E0FF222521C582DD
:100B8300C0E0E52234FFC583C0E0E521C39582249C
:100B9300F810AF088583228582218008858322850A
:100BA3008221D2AFCEF0A3E520F0A37808E608F0C7
:100BB300A3DEFAEFF0A3E58124FAF8E608F0A3E652
:100BC30008F0A3E608F0A30808E608F0A3E608F097
:100BD300A315811581D0E0FED0E0F81581158115AC
:100BE30081E8C0E0EEC0E022C0E074F2120C53A230
:100BF300AFE433FED2AFE589A2E4500579011218C0
:100C0300C9758900C2C5EEA2E092AF7F01020CB2A2
:100C1300C0E074F2120C53A2AFE433FED2AFE58A04
:100C2300A2E3500579021218C9758A00C2EB80D677
:100C3300C0E074F2120C53A2AFE433FED2AFE58BE3
:100C4300A2E0500579041218C9758B00C2E880B67A
:100C5300C0D02521C582C0E0E52234FFC583C0E0B2
:100C6300E521C3958224F310AF0885832285822171
:100C73008008858322858221D2AFC8F0A3E9F0A33F
:100C8300EAF0A3EBF0A37908E709F0A3D8FAECF0B4
:100C9300A3EDF0A3EEF0A3EFF0A3D0E0F0A3D0E038
:100CA300F0A3D0E0F0A3E520F0A3E5F0F0A32285C4
:100CB3002283852182E0C0E0A3E0F9A3E0FAA3E068
:100CC300FBA37808E0F608A3DFFAE0FCA3E0FDA3AA
:100CD300E0FEA3E0FFA3E0C0E0A3E0C0E0A3E0F5F3
:100CE300D0A3E0F520A3E0A3F5F010AF088583229D
:100CF3008582218008858322858221D2AFD082D04C
:100D030083D0E0F8D0E0321212FE181818120B103C
:100D13001213F7191919221213F7191919080808C8
:100D2300E618181820E7E0120B101212FE18181814
:100D330022090909E719191920E7DC080808E61848
:100D4300181820E703020B101212FE181818120BC2
:100D5300101212FE1818181213F719191922121467
:100D6300FAB90003020DA0E4900401780579188014
:100D730002F0A3D8FCD9FA7A057B1B90008678C3CE
:100D830079028015E493A3AD82AE838A828B83F0CC
:100D9300A3AA82AB838D828E83D8E9D9E775826D4E
:100DA3007583DE740612117B75825175833074006E
:100DB30012117BE47375F0108E238F2485822885AE
:100DC3008327852182852283E0CEA3E0CF852882F5
:100DD300852783EBC9EAC8EDCBECCAC3E833C8E97E
:100DE30033C9EA33CAEB33CBC3EA9EF526EB9FF54F
:100DF30025B35004AB25AA26EC33CCED33CDD5F087
:100E0300DAAE23AF2422121494601C1214856017E7
:100E1300121518700712150F7001D322C0D01215C6
:100E23000F7006D0D0B322C32233D0D0501430E099
:100E3300F6C3E7960809E7960809E7960809E796CF
:100E4300B32220E0D5E6970809E6970809E6970854
:100E530009E697B322121494601B121485601612CC
:100E63001518700712150F600CB322C0D012150F9E
:100E73007005D0D022C32233D0D0501330E0EBC35F
:100E8300E7960809E7960809E7960809E7962220F6
:100E9300E0E4E6970809E6970809E6970809E69764
:100EA30022D083D082ECC0E0EDC0E0E493A3FCE465
:100EB30093A3FDED4C600D120F7CEC24FFFCED348D
:100EC300FFFD80EFE493A3FCE493A3FDED4C600DE1
:100ED300121045EC24FFFCED34FFFD80EFD0E0FD64
:100EE300D0E0FCE493A3C0E0E493C0E02285228336
:100EF300852182E0A3FEE0A3F5207808E0A3F608AD
:100F0300DFFAE0A3FFE0A3C0E0E0A3C0E0E0A3C0FA
:100F1300E0E0A3C0E0E0A3C0E010AF088582218534
:100F230083228008858221858322D2AFD083D08219
:100F3300021181D083D082E9C0E0E493A3C386F099
:100F4300C5F095F0F908E493A386F0C5F095F07029
:100F53000BE493A3C3994005E9048002A3E475F06D
:100F630002A42582F582E5F03583F583D0E0F9E428
:100F730093A3C0E0E493C0E022C0E0C3E4939608E7
:100F83007401939618400FE49366700808740193F4
:100F9300661870007019A3A3C3E4939608740193B1
:100FA3009618A3A3400DD0E0D0E0D0E0020EE0A35A
:100FB300A3A3A3A3A3D0E02274048004740280003B
:100FC300CCC0E0EDC0E0E521C39CCCAD2250011DB7
:100FD30010AF068C218D2280068C218D22D2AF1278
:100FE30010DFD0E0FDD0E0FC2274028000CCC0E032
:100FF300EDC0E0E521C39CCCAD2250011D10AF062E
:101003008C218D2280068C218D22D2AF1210BDD06F
:10101300E0FDD0E0FC2212149460251214856020B8
:10102300121518700302150F080808E766701018E8
:1010330019E766700A1819E76670041819E766223B
:10104300F422C0E0C0F088F0E493667008087401ED
:101053009366187000A8F0A3A3700BD0F0D0E0D073
:10106300E0D0E0020EE0A3A3D0F0D0E022D083D002
:1010730082CCC0E0E493A360061211001470FAE47A
:1010830093A3600612127D1470FAD0E0FCE493A3DC
:10109300C0E0E493C0E022C0E074F2120C53A2AFAC
:1010A300E433FED2AFC2C0E5D1A2E450031218F379
:1010B300EEA2E092AF7F01020CB2CAC0E0E493A3B8
:1010C300C582CCC582C583CDC583F0A3C582CCC5FB
:1010D30082C583CDC583DAE5D0E0CA22CAC0E0E089
:1010E300A3C582CCC582C583CDC583F0A3C582CCFD
:1010F300C582C583CDC583DAE6D0E0CA22C0E0E469
:1011030093A3D39C5010E493A3C39C400AD0E0D094
:10111300E0D0E002108DA3A3A3D0E0227009080859
:1011230008226016181818C6C333C608C633C60883
:10113300C633C608C633C6D5E0EA22C008C3E09664
:10114300F50808A3E096420808A3E096420808A31E
:10115300E09645087001D3D00822C5822521C582B7
:10116300C583352210AF07F5228582218007F5223A
:10117300858221D2AFC58322C09FF59FE473D09FA0
:1011830022D083D082C09FE493C0E0740193C0E077
:10119300740293F59F222521F58210AF08F52140B3
:1011A3000C15228008F52140021522D2AF85228337
:1011B300227404800A74038006740280027401C0DE
:1011C300E0F404121199D0E01214B02200C0D0252B
:1011D3002110AF08F521500C05228008F52150029B
:1011E3000522D2AFD0D022BB0102E722C082C08346
:1011F30089828A83BB0003E08002E493D083D08298
:1012030022C0E0C0D0E8C0E0A8A8D2AFC2C7E8A21D
:10121300E792AFD0E0F8D0D0D0E0326016080808EB
:10122300C6C313C618C613C618C613C618C613C634
:10123300D5E0EA22C3E0C696F608A3E0C696F60810
:10124300A3E0C696F608A3E0C696F6222521F8E4A5
:101253003522F9222521FAE43522FB222521FCE45B
:101263003522FD22252110AF08F521400C152280DF
:1012730008F52140021522D2AF22C0E0E493A36C0B
:101283007009D0E0D0E0D0E002108DA3A3D0E0221B
:10129300E76670100809E766700A0809E7667004D4
:1012A3000809E76622E066701008A3E066700A0882
:1012B300A3E066700408A3E06622C3E7960809E783
:1012C300960809E7960809E796A2D265D03322C3A8
:1012D300E09608A3E09608A3E09608A3E096A2D2BE
:1012E30065D03322C3E096F008A3E096F008A3E0AC
:1012F30096F008A3E096F022181818E4C396F608AF
:10130300E496F608E496F608E496F622C3E697F622
:101313000809E697F60809E697F60809E697F6221C
:10132300181818E60846087009E626087005E6331B
:10133300F4220822191919E70947097009E727094F
:101343007005E733F4220922C3E4939608740193EA
:10135300960874029396087403939622E627F60878
:1013630009E637F60809E637F60809E637F6227084
:101373000422600D18C6C333C608C633C6D5E0F4CD
:101383001822E657F60809E657F60809E657F6085D
:1013930009E657F622E056F608A3E056F608A3E05E
:1013A30056F608A3E056F622E026F608A3E036F642
:1013B30008A3E036F608A3E036F622E026F008A3F9
:1013C300E036F008A3E036F008A3E036F022E0565A
:1013D300F008A3E056F008A3E056F008A3E056F0A7
:1013E30022E647F60809E647F60809E647F608093C
:1013F300E647F622E4C397F709E497F709E497F77A
:1014030009E497F722600D08C6A2E713C618C613AE
:10141300C6D5E0F322C6F4C608C6F4C608C6F4C6A9
:1014230008C6F4C622C3E09608A3E09608A3E09694
:1014330008A3E09622C3E7960809E7960809E7960A
:101443000809E7962275D00075813F752101752241
:101453000400020D61E6F008A3E6F008A3E6F00835
:10146300A3E6F022600C08C6C313C618C613C6D57C
:10147300E0F422E0F608A3E0F608A3E0F608A3E010
:10148300F622E7094709C3134709336002E733F438
:1014930022E6084608C3134608336002E633F42203
:1014A300800100E9F874FF28F90470F622CAC0E04D
:1014B300E6F0A308DAFAD0E0FA22C5822521C58234
:1014C300C5833522C58322E0F8A3E0F9A3E0FAA39C
:1014D300E0FB22E8F0A3E9F0A3EAF0A3EBF022EAB1
:1014E300F0A3EBF0A3ECF0A3EDF022E0FAA3E0FB12
:1014F300A3E0FCA3E0FD22E5C754F84401F5C77956
:1015030001222521F582E43522F58322E7271947B5
:101513001947194722E62618461846184622C2AF2D
:1015230075D69F02000022C82521C8C93522C922C9
:10153300121184708B04121184EE8B041211842116
:101543008C041211842F8D041211844F8D041211F7
:1015530084A38D041211848B8E041211848D900444
:101563001211842F91041211847F930412118403A6
:1015730094041211840897041211843C99041211E3
:1015830084749904121184D39A04121184DD9A0489
:101593001211842C9B04121184FE9C041211845298
:1015A300E00612118486E006121184D9E0061211B6
:1015B30084DCE1061211843FD8061211849DD806FB
:1015C300121184DFD80612118401D906121184BBCB
:1015D300D906121184FFD90612118434DA061211C6
:1015E3008430B905121184ACB905121184DFB90531
:1015F3001211840DBA051211844BBA051211848697
:10160300BC05121184A5BC05121184EABC05121194
:101613008480BD05121184CCBD0512118460BE0502
:1016230012118438BF0512118494BF05121184F27C
:10163300BF051211846FC005121184A5C0051211D4
:1016430084F0C00512118416C105121184A6C105C8
:101653001211843DC20512118489C205121184BA84
:10166300C205121184F1C20512118477C405121147
:101673008441C50512118411C60512118478DE0553
:1016830012118482DE0512118493DE05121184B4D3
:10169300DE051211841ADF051211844DDF051211C4
:1016A3008468DF051211849DDF05121184C5DF05EF
:1016B300121184FADF0512118429E0051211842620
:1016C300E10512118467E1051211847CE105121111
:1016D300840DE2051211845CE20512118484E20593
:1016E300121184BAE30512118472E50512118415EF
:1016F300E8051211842FE80512118446E80512113A
:10170300849DE8051211840080051211843E800532
:10171300121184E08005121184CA810512118447D5
:101723008305121184B284051211841986051211DE
:1017330084828705121184A087051211848B880582
:10174300121184FA88051211840F89051211842855
:1017530089051211843989051211844A89051211E8
:1017630084788905121184FB89051211840E8A0578
:101773001211841F8A05121184548A05121184A23E
:101783008B05121184078C05121184198C05121113
:10179300845E8D05121184FC8D05121184738E05F0
:1017A300121184BE8F05121184049005121184470F
:1017B3009005121184289105121184C0910512110C
:1017C30084FD920512118443940512118459C506B0
:1017D30012118485C506121184A5C506121184CC85
:1017E300C50612118413C70612118434C7061211D9
:1017F30084F2C70612118489C806121184ABF3065A
:10180300121184B0F306121184E3F306121184CD8E
:10181300D30612118494D406121184A6D40612118D
:1018230084F8D4061211841C7F001211842D7F00CA
:10183300121184CB7F00121184D67F00121184EE23
:101843007F00121184FDFF01121184D5F4061211D9
:1018530084E2F006121184F2F00612118407F106F5
:101863001211846DF1061211845FEC06121184E2E9
:10187300EC0612118448ED0612118463DC06121182
:101883008477DC06121184DEDC0612118427DD0660
:101893001211844FDD0612118473DD061211849632
:1018A300DD06121184CEDD06121184F6DD06121157
:1018B3008431DE0612118453EF06121184A0EF0661
:1018C300121184B5EF06121184FAEF06121184EA9D
:1018D300F406121184FAF40612118435F406121177
:1018E3008457CE06121184C4CE0612118453D00637
:1018F300121184BCD00612118407D106121184156B
:10190300D106121184EAC605121184F8C605121114
:101913008417C805121184CEC905121184EACA05B9
:1019230012118478CC0512118477CD05121184C667
:10193300CE0512118413D00512118494D00512110F
:101943008466D10512118434D305121184219B06B8
:101953001211844D9B06121184919D06121184D19C
:101963009D06121184119E06121184259E061211E2
:10197300843E9E06121184309F06121184D59F0661
:10198300121184E99F06121184E3E30612118407FE
:10199300E40612118420E40612118452E4061211A3
:1019A3008482E406121184AFE40612118411E50661
:1019B30012118420E5061211842AE50612118437D8
:1019C300E50612118428D10612118448D10612119A
:1019D3008487D106121184A2D106121184C1D106C3
:1019E30012118427D20612118430D2061211848D6B
:1019F300D2061211849CD206121184C0D20612118F
:101A03008481D3061211848ED3061211849FD306C8
:101A13001211846DFF03121184B5FF03121184E1C7
:101A2300FF031211848FA906121184E9AA06121169
:101A330084F7AA061211840AAB061211841FAB069F
:101A430012118434AB0612118447AB06121184BB06
:101A5300AB0612118420AC06121184C2AC0612111B
:101A63008486AD0612118496AD06121184A5AD06C7
:101A730012118449F0061211846DF0061211849537
:101A8300F006121184BDF0061211846FFD041211C9
:101A93008496FD04121184B4FD0412118427FE04FC
:101AA3001211848ECB06121184A7CB06121184B3B4
:101AB300CB06121184C7CB06121184E5CB06121193
:101AC30084EFCB06121184F9CB061211840CCC06D9
:101AD30012118492CC0612118407CD06121184369A
:101AE300CD0612118484CD06121184D3CD061211B2
:101AF30084EECD06121184F8CD0612118409CE06A8
:101B03001211844CCE0612118458F306121184006C
:101B130080061211842A800612118447800612114E
:101B2300845A8006121184708006121184CE8006B6
:101B3300121184068106121184FA84061211843F5D
:101B43008606121184728606121184D58606121136
:101B5300843588061211845D880612118472880602
:101B6300121184828806121184C6880612118421F8
:101B730089061211843189061211840DE9061211A6
:101B83008427E9061211844FE90612118468E906D5
:101B93001211848CE906121184AAE906121184C178
:101BA300E906121184EFE9061211840AEA061211FA
:101BB30084F1F3061211846EBE061211847EBE06F2
:101BC30012118483BF06121184B5BF06121184E576
:101BD300BF0612118408C0061211841FC006121119
:101BE3008459C006121184BEC00612118400C106B6
:101BF3001211843FC10612118470C1061211849B15
:101C0300C106121184DBE706121184F9E7061211EB
:101C13008459E806121184F8E80612118461EE066D
:101C230012118497E606121184BBE706121184E5AC
:101C3300E8051211844CEC051211843DEE051211D6
:101C43008473EF0512118454F005121184D0F10549
:101C53001211849CF205121184F0F20512118436DC
:101C6300E20612118457E2061211847CE306121174
:101C730084A6E306121184C0FF04121184D0FF046A
:101C8300121184DAFF04121184F1A705121184F4EE
:101C9300A7051211848CAF0512118498B005121197
:101CA3008417B205121184D9B205121184BFB3058A
:101CB300121184B6B405121184A4B50512118461FE
:101CC300B60512118491B60512118442B80512119A
:101CD3008441E50612118453E50612118467E60672
:101CE3001211846AE6061211845BEB0612118491C9
:101CF300EB06121184A7EB06121184E9EB0612110D
:101D030084F9EB061211843DEC0612118447EC06AC
:101D1300121184618906121184A48906121184099F
:101D23008A06121184268A061211843F8A0612112A
:101D330084E18A06121184EA8A061211842F8B0623
:101D4300121184588B06121184658B06121184E0DC
:101D53008B061211846B8C06121184B08C0612113F
:101D630084FB8C06121184608D06121184838D0608
:101D7300121184F48D06121184498E061211848483
:101D83008E06121184B98E06121184CB8E0612119F
:101D930084DD8E06121184FC8E06121184058F06D3
:101DA300121184B38F06121184F68F061211843434
:101DB30090061211848FFF02121184B0A40612112F
:101DC30084F0A50612118413A60612118424A60614
:101DD300121184F6A70612118416A806121184099B
:101DE300D6061211843FD60612118487D606121125
:101DF30084E0D7061211845E940512118477950549
:101E0300121184B195051211845F97051211848D07
:101E13009705121184F39905121184339A0512114F
:101E230084D79B05121184679C05121184BB9C0502
:101E33001211845D9D051211849F9D05121184E189
:101E43009D051211843E9F051211848CA005121169
:101E530084C3A205121184F1A20512118418A305EB
:101E630012118421A30512118478A305121184137E
:101E7300A4051211841BA705121184A2A705121130
:101E830084E4FF031211847FB60612118495B6060B
:101E930012118439B70612118478B706121184958A
:101EA300B706121184C6B70612118413B8061211AD
:101EB3008446B80612118481B80612118476BA06D4
:101EC30012118461ED06121184C0ED06121184FE15
:101ED300ED061211843FEE0612118405A0061211BD
:101EE3008490A1061211843BA2061211846CA206EF
:101EF3001211849BA2061211840EA3061211842CC4
:101F0300A30612118464A3061211849DA306121161
:101F13008408A40612118486A4061211844DF206C5
:101F23001211846090061211843F91061211847479
:101F33009106121184A49106121184F292061211D1
:101F430084B89406121184ED95061211840080035F
:101F53001211840C80031211846E80031211847891
:101F63008003121184098103121184458103121124
:101F7300842E82031211844182031211848E820300
:101F83001211841D8303121184538303121184CE0F
:101F930083031211849D8503121184978703121101
:101FA30084758803121184938903121184D98B03D6
:101FB3001211841C8D03121184CB8D031211846BB7
:101FC30092031211845F9303121184039403121179
:101FD30084289403121184C49403121184D99403A2
:101FE300121184FD94031211846B950312118488DA
:101FF3009503121184B295031211844897031211A9
:10200300846997031211840F98031211845798035C
:10201300121184AC98031211844C9903121184B0E9
:1020230099031211840E9A03121184BB9A0312119D
:1020330084299B031211845C9B03121184CA9B03A2
:102043001211841B9D03121184719D031211840EBE
:102053009E0312118468A003121184D1A0031211EC
:102063008447A20312118471A2031211848DA40365
:1020730012118438A70312118461A803121184BDBD
:10208300CC02121184C1CE02121184A9D3021211FF
:10209300843FD4021211847CD40212118424D50209
:1020A300121184FBDA0212118419DC02121184F278
:1020B300DC0212118404DD021211843ADD021211D2
:1020C30084BEDD02121184BDDE0212118438DF02E8
:1020D3001211844BDF021211846DDF02121184D1BD
:1020E300DF0212118435E0021211842FE102121172
:1020F3008446E1021211843BE4021211840CE502CE
:1021030012118480E70212118409E90212118492E8
:10211300EB021211849DEC02121184D1EF02121111
:102123008421F30212118456F6021211848BF902F0
:1021330012118484FA021211846FFB021211849229
:10214300FB021211845AFF02121184FCF2061211CF
:10215300840596061211849296061211840C970632
:102163001211842D97061211840998061211847690
:10217300990612118499E704121184CBE704121112
:102183008443E80412118446E904121184A2E90489
:1021930012118419EB0412118435EB041211848794
:1021A300EB04121184C5EB04121184D8EB04121151
:1021B300842AEC0412118483EC041211843EED048E
:1021C300121184B8ED0412118457FC051211841AFC
:1021D300EE041211848CEF0412118465F0041211C1
:1021E30084B4F10412118487F2041211840FF304EE
:1021F30012118459F30412118473F304121184BA73
:10220300F304121184DAF30412118470F40412112A
:1022130084EAF404121184F5F4041211844AF504D7
:10222300121184A4F504121184F5F50412118486A5
:10223300F804121184A9F904121184E5F9041211A6
:1022430084D7FA04121184FFFA0412118402FB04E6
:102253001211849F88041211841FFB041211849E9F
:10226300FB04121184D4FB0412118400FC04121128
:1022730084D68A041211844BFC04121184BCFC041E
:10228300121184CAFC04121184E0FC0412118401AB
:10229300FD041211842FFD0412118445FD04121153
:1022A300845DFD0412118477F10612118483F10613
:1022B300121184B7F106121184FD7F001211843EBE
:1022C300E40112118461E401121184A7E5011211E2
:1022D30084F0E50112118458E601121184B2E6017B
:1022E300121184B5E60112118401E70112118474FD
:1022F300E701121184FCE701121184FFE7011211B7
:102303008489E801121184CAE8011211849FEC0147
:1023130012118437EE0112118471EE01121184D867
:10232300EE0112118426F201121184B1F20112118D
:10233300849CF301121184DAF401121184F7F5017C
:10234300121184BAF60112118425F801121184C105
:10235300F801121184CEF901121184BAFB01121192
:1023630084F3FC0112118437FE0112118404B904B1
:10237300121184AEB90412118414BA041211842DFB
:10238300BA04121184A9BA04121184EDBA04121109
:102393008408BC0412118444BC04121184C4BC0418
:1023A3001211840FBD0412118476BD04121184F13D
:1023B300BE041211841FC004121184A4C00412119C
:1023C30084AAC20412118453C304121184F7C304F0
:1023D30012118456C404121184CBC4041211842331
:1023E300C604121184EBC60412118435C7041211FA
:1023F3008451C704121184F7C70412118443C8041B
:10240300121184CFC8041211841FCA04121184D17B
:10241300CB0412118493CD0412118444CE041211FF
:1024230084AECE04121184CECF04121184939E0481
:10243300121184079F041211844F9F041211849375
:102443009F04121184DC9F0412118426A00412112C
:10245300845EA004121184DCA00412118436A1044A
:102463001211848AA2041211841BA304121184730F
:10247300A3041211848DA304121184B5A3041211B1
:10248300840DA4041211847CA6041211849BA60457
:102493001211847FA704121184AFA8041211842C93
:1024A300A9041211847BA904121184DCA90412115A
:1024B3008482AA0412118450AC0412118450AD0416
:1024C300121184CEAE04121184AFB004121184151C
:1024D300B304121184C5B40412118495B504121106
:1024E3008403B6041211841AB60412118412B704B9
:1024F30012118402B8041211846DB804121184F30A
:10250300C1061211843FC306121184FCC3061211C3
:102513008460C406121184D4C406121184D5FC0548
:10252300121184F0FC0512118434FD051211845A32
:10253300FD0512118480FD0512118498FD05121109
:1025430084FBFD0512118410FE0512118433FF056F
:102553001211843CFF0512118445FF051211844EAC
:10256300FF0512118458FF05121184DEAD06121106
:1025730084DDB106121184E2B106121184E4B106BE
:10258300121184DFDE06121184B7F406121184B827
:10259300C8061211843DEA06121184ECF1061211E9
:1025A3008454DA061211846DF40612118483BA0678
:1025B300121184A5F206121184B5F2061211844B8E
:1025C300B20612118499F406121184C8D8031211A9
:1025D30084FBD80312118467D90312118402DA032E
:1025E3001211849FDA03121184E4DA0312118406B0
:1025F300DB031211841FDB0312118445DB03121169
:102603008467DB03121184A5DB03121184E9DB0366
:102613001211840BDC031211846DDC031211843458
:10262300DD03121184EBDD031211845DDE0312114D
:102633008428DF031211847BDF03121184E1DF039B
:102643001211841BE0031211846DE003121184DB69
:10265300E00312118446E10312118449E1031211CC
:1026630084CAE10312118461E203121184C2E203FA
:10267300121184B2E303121184D1E30312118435DE
:10268300E50312118442E5031211844EE60312118D
:10269300845BE60312118464E6031211843CE803AD
:1026A30012118456E903121184CFE90312118441F4
:1026B300EA0312118463EA03121184F7EA03121185
:1026C30084CBEC03121184A2F003121184B6F0033D
:1026D300121184C6F003121184D0F003121184D9AD
:1026E300F003121184E2F003121184ECF0031211CF
:1026F3008419F10312118442F1031211844DF10381
:1027030012118471F10312118495F103121184FFE4
:10271300F10312118445F20312118462F2031211C0
:1027230084DFF20312118416F30312118455F303A9
:10273300121184A2F30312118428F403121184F6F4
:10274300F5031211848BF6031211846FF703121130
:1027530084D6F9031211842FFA0312118479FA0330
:10276300121184D4FB0312118412FC03121184642A
:10277300FC0312118419FD03121184C8FD03121105
:102783008405FE031211849AFE0312118406FF03CB
:1027930012118400800212118432800212118460AB
:1027A30080021211843682021211841683021211DE
:1027B300846E8302121184A98402121184F58402A7
:1027C3001211841E8802121184118B02121184616A
:1027D3008C02121184F78C02121184038D021211E0
:1027E30084358D02121184B88E021211846990020D
:1027F300121184FD9002121184409102121184BEC1
:102803009102121184DB91021211840B92021211B4
:1028130084409202121184109302121184B993021C
:102823001211843F96021211845F97021211844A97
:102833009802121184CC9802121184009D02121185
:10284300843D9D02121184959D02121184C89D023C
:10285300121184329E02121184689E02121184F3B3
:102863009E021211844B9F0212118422A0021211A4
:1028730084DBA00212118476A1021211847EA402C9
:102883001211849AA5021211843DA90212118431F6
:10289300AA0212118434AA0212118463AA02121129
:1028A3008469AC0212118442AD0212118485AD0217
:1028B300121184DBAE021211841AAF02121184A327
:1028C300AF02121184D7AF021211849CB00212110D
:1028D30084B4B20212118425B30212118465B302C7
:1028E300121184F3B30212118415B502121184D7A5
:1028F300B502121184DEB702121184F6B702121167
:10290300840AB80212118442B80212118470B80208
:10291300121184EFB90212118414BB0212118471D3
:10292300BB0212118423BC021211844ABC0212118D
:102933008411BD02121184A9BD02121184CFBF02FA
:1029430012118404C00212118467C002121184960A
:10295300C1021211843EC2021211846FC20212110B
:102963008487C20212118416C302121184CAC502DB
:10297300121184A2C702121184BEC702121184DA93
:10298300C702121184A8C8021211849BCC0212112F
:1029930084103700121184423700121184313B0036
:1029A3001211847D3B00121184C33B001211846514
:1029B3003C00121184C13C00121184063D00121127
:1029C300844D3E00121184613F0012118450430074
:1029D300121184D44300121184E144001211843D86
:1029E30045001211842D4700121184A247001211D1
:1029F30084AC4700121184B94700121184E44700E4
:102A0300121184CB4800121184754900121184F30A
:102A13004900121184134A001211843C4A00121116
:102A2300845E4A00121184BE4C00121184844D004E
:102A3300121184C94D00121184464E00121184F7FD
:102A43004E00121184294F001211846F4F0012118E
:102A530084AB4F00121184FB4F001211844F5000BE
:102A6300121184A55000121184F150001211845EDA
:102A73005100121184D95100121184A45300121170
:102A830084A45400121184C95500121184085900FA
:102A93001211841B5C00121184D85C001211841C77
:102AA3005D00121184CC5E00121184E05E001211ED
:102AB30084EA5E00121184F45E00121184005F0048
:102AC3001211841C5F00121184C75F001211840667
:102AD30060001211841060001211841A6000121138
:102AE300848A6000121184D56000121184EA6100A7
:102AF300121184466200121184C762001211848687
:102B030063001211848F6400121184C365001211D3
:102B130084B16600121184C966001211842467000F
:102B23001211844267001211848A6700121184B162
:102B330067001211844C680012118412690012118B
:102B430084A469001211841E6A00121184386B0078
:102B5300121184E56B001211840D6D001211845D56
:102B63006D00121184C16D00121184236E001211C5
:102B730084516E00121184756E00121184AA6E00C6
:102B8300121184DB6E001211840E6F001211842E59
:102B93006F00121184966F001211848A7000121153
:102BA30084E570001211840E710012118496710075
:102BB30012118419720012118444720012118429B3
:102BC30073001211840774001211843F74001211F0
:102BD30084607400121184A27400121184047500BD
:102BE3001211840E75001211841E7500121184597E
:102BF3007500121184397900121184267B00121199
:102C0300840C7D00121184A37D00121184457E0083
:102C1300121184B7AD0312118435AE0312118491DE
:102C2300AE03121184DCAE03121184F7AE0312114A
:102C33008422AF031211843FAF031211844BAF03FD
:102C4300121184E2B003121184FBB00312118480C9
:102C5300B10312118493B103121184B2B10312119F
:102C63008456B203121184D7B3031211848AB503B5
:102C730012118420B60312118423B6031211849314
:102C8300B603121184B1B60312118448B7031211AB
:102C93008490B70312118493B70312118459B803B4
:102CA300121184C6B803121184ECB803121184778D
:102CB300B90312118495B903121184DBB9031211FC
:102CC300848FBA03121184D9BA0312118408BB0387
:102CD30012118465BB031211849ABB03121184C6BB
:102CE300BB03121184D4BB0312118421BC03121140
:102CF3008491BC03121184DABC0312118426BD0330
:102D030012118452BD031211845DBD031211847B21
:102D1300BD0312118466BE0312118470BE03121127
:102D230084ABBE03121184BBBE03121184C4BE0361
:102D330012118418BF031211842CBF031211845B78
:102D4300C00312118470C003121184FEC003121158
:102D53008443C103121184CFC103121184DAC10366
:102D63001211841CC30312118437C3031211848309
:102D7300C303121184F2C3031211842BC40312116F
:102D83008445C40312118487C40312118457C703F3
:102D930012118404C80312118471C803121184B17F
:102DA300CA03121184C9CA03121184CCCA031211B3
:102DB30084D8CA03121184ECCA03121184F4CA031F
:102DC30012118427CB0312118429CC03121184B06E
:102DD300CC0312118420CD03121184A2CD0312114E
:102DE3008463CE0312118482CE0312118423CF0392
:102DF30012118480CF0312118483CF03121184F73D
:102E0300CF0312118446D1031211844CD203121141
:102E130084D7D203121184F2D303121184BAD403D8
:102E2300121184EBD4031211840ED50312118417EB
:102E3300D50312118446D503121184D6D50312117A
:102E4300848CD60312118401D703121184A8D703EB
:102E53001211841DD80312118454D80312118492C1
:102E6300D803121184928A0412118400FC051211F2
:102E73008469FA05121184ABF9051211840EF90560
:102E830012118404F905121184AEF8051211849A03
:102E9300F805121184F9F705121184FDF6051211D4
:102EA3008427F60512118430F4051211842F8A0445
:102EB30012118474890412118483F3051211841589
:102EC300F305121184728804121184DB8704121132
:102ED3008469E7041211845FE704121184F4E604A1
:102EE30012118448E50412118406E50412118426A4
:102EF300E40412118410E404121184D1E3041211C6
:102F0300842CE30412118426E00412118414DE04D9
:102F1300121184E1DD041211847CDD041211840F8B
:102F2300DD04121184CEDC0412118407DC041211B7
:102F330084A2DB041211844DDB04121184F0DA0441
:102F4300121184C7D90412118464D904121184AEF6
:102F5300D804121184A9D8041211849DD804121123
:102F6300847C8504121184358204121184768104D1
:102F7300121184D380041211849280041211847379
:102F8300800412118440800412118450D50412115C
:102F9300842AD504121184CFD4041211847AD40460
:102FA3001211842B80041211843BD404121184283F
:102FB300D4041211841DD404121184F9D304121100
:102FC3008408D20412118427FC0412118487D104CB
:102FD300121184008004121184EC88041211840CF1
:102FE300FB0412118443D10412118417D10412116A
:102FF300841ADE05121184DCDD05121184AFDD05B0
:103003001211847BDD051211841ADD05121184026D
:10301300DD05121184DEDC05121184A7D905121116
:103023008473D7051211845AD505121184E9D40586
:1030330012118498D405121184BBD3051211845242
:10304300D4051211848FFC05121184E2ED040000F3
:103053000080FB000022870001003F1C35000400B4
:10306300081C250002000C1C260002000E1C270071
:103073000200101C280001001A1C290001001B1C5F
:1030830084000400F31886000100131B2A000100CA
:103093001C1C2B0001001D1C2C000100211C2D00F9
:1030A3000800FF182E000100221C2F000100231C22
:1030B30030000100241C31000100251C32000100F6
:1030C300071933000100081934000100261C3600DB
:1030D3000100091938000100271C39000100201CD8
:1030E300830002003D1C6300010015196400010008
:1030F3001E1C650001001F1C6D00010016197100E4
:103103000800F718660001003C1C430001002D1C59
:10311300440002002E1C45000100301C4600020042
:10312300311C470008000D1948000100331C4B00F7
:103133000100341C04000100401CA1000100431CD9
:1031430037000100421C88000100411C3C000100C3
:103153000A193D000100281C49000200351C6700C4
:10316300010017194D000200371C4E000100391CE5
:103173004F0002003A1C3E0001002C1C51000100CC
:103183000B19520001002A1C530001002B1C540090
:1031930001000C19000000000000000000002001E5
:1031A3003BE400000100200139E40000020020019B
:1031B3003CE400000300200138E400000400420165
:1031C300FEE1000005004201CBE0000006004201E1
:1031D300BAE00000070030013AE400000040420179
:1031E300BAE00000FDFF21012FE4010020002005CB
:1031F3001B1B0100210020051C1B010003F02127DC
:10320300CB1B060000001005DD170A000000E227B3
:10321300D7170A0007002327D717040204F0202733
:10322300CD1B020400002905CF17020401F021275A
:10323300BB1B020402F02127C31B03040000290562
:10324300D117030410002905D3170304140028051C
:10325300B41B030401F02127BD1B030402F0212743
:10326300C51B050400002105D517050401F021271E
:10327300BF1B050402F02127C71B000136360101DD
:103283000001020100010301000104010606050219
:103293000000070100340801000F090401010D01BA
:1032A30000FF0E08000017020000190100FF1A01B9
:1032B30000011B0100FE1C0100081D0200001F018C
:1032C300000120010001210200002301000F24025C
:1032D30000002601000127010008280200FF2A013F
:1032E30000072B0102402C0100002D0100012E01DB
:1032F30000012F0100FF30010B1D310800003A01CE
:1033030000083B01000F3C0100013D0100FF3E04AA
:10331300000042040000460400004A0400004E047A
:10332300000052040000560400005A040000010388
:1033330071030103010301030103010322030203D8
:103343000103100300030003000300030003000351
:1033530000034203000324030603000300030403E2
:103363001203250323032503230304030403000398
:103373000003000344030003000323030003650366
:103383002100350381030003050300030003000349
:1033930000032503230303027102300160021102BB
:1033A30070020102020202028002100261023A006C
:1033B30041006302730272026202430200021302BB
:1033C300380000020002040212020002000200029E
:1033D300000204020402370037003C0244020002E8
:1033E3003900000200026502000235028102000278
:1033F30005028202830200020300710030016000B3
:10340300110070003102200350048000100061009D
:1034130000001400630073007200620043000000A8
:10342300130006000000000004001200000000006A
:103433000000000004000400370037003C02440091
:10344300000000000000000065000000350081005E
:10345300000005000000830000000101710101016B
:10346300010111010101310101010101800110017B
:1034730061013B00140063017301720162014301A6
:103483000001130106013D01350004011201000191
:1034930000010001000104010401330133013C0177
:1034A30044013201360000010001650100013500CD
:1034B3008101000105018201830100013600010041
:1034C300060000000F0000000000000000000000E4
:1034D300000003FFFF00000403FFFF0000FFFF0FD6
:1034E300F4010005C4040320000100000B000000E8
:1034F300000000000003010F0000000000000000B6
:1035030000000000000000000000000000000000B8
:1035130000000000000000000000372067203D206D
:103523006B1F43206D204320792049206B1F4320CC
:103533006D204F206B1F0000000055206B1F000003
:1035430000005B206B1F61206B1F00000000000068
:103553000000000000000000000000000000000068
:103563000000000000000000000000000000000058
:103573000000000000000000A9230100A9230200AD
:10358300E3220280DD220300E9220400EF2204800B
:10359300F5220500FB220600072330002523310016
:1035A3001F23330031233400372311003D2314003C
:1035B300432315001923FFFF000003000300040049
:1035C300080010001F003E007B00F600EC01D7034B
:1035D300AF075D0FB91E713D00000600000010012A
:1035E300DD17060400001805DE1706041000212766
:1035F300B51B060411002127B71B00040000210599
:10360300DB17000401F02127C11B000400F0212770
:10361300B91B000402F02127C91B07ECFDFDFDECDB
:10362300DCDCCCBCACAC9C9C8C7C7C6C6C5C5C5C57
:103633004C4C3C3C2C2C1C1C03EAF5E5D5D5C5B5FC
:10364300A595958585757565655555454535352527
:10365300251515050A092A02D32905DF2907D929C2
:103663000CBB290DC729FF000000160F00000B1526
:103673000B020002220F3300000E0F5A69674265E6
:1036830065416C6C69616E63653039D0D1D2D3D436
:10369300D5D6D7D8D9DADBDCDDDEDF303017181921
:1036A30021301B1D1F3000034D4C4651181A2505B0
:1036B30002000119161816161823030030301618C5
:1036C3001920231A1C1E30003C40423A3F3F392F39
:1036D30047300C0E020B040B0A0708000F0204020A
:1036E300010101010902E803000000BE040A010010
:1036F30024000300E803FF04091C0404031E1E0343
:103703000A0C04100828020C0508150F0674F7129A
:103713000B7FE99019EAF090199FE4F0121CD19005
:103723001A02E4F0A3F09019EBF0A3F0122B591254
:103733001CD7901927E4F0A3F012254D025076749C
:10374300F0120B7F74D3121267126AD25480606630
:103753009019EAE0F9121D4F8A088B09AF09EA4F65
:10376300604C7C0080010CEC75F003A4F8A9F074A4
:103773005728F582743639F583E493F46029E4938A
:10378300F88A828B83E06870DDEC75F003A4F8742B
:103793005828F582743639F583E493C0E0740193B5
:1037A300F583D082120DB6AA08EFFB121D3D1272EB
:1037B300046480023B11852182852283A3E0542087
:1037C300601F122A6F8A088B09AF09EA4F600A1239
:1037D30029C7AA08EFFB121D3D1272046420023BA5
:1037E30011852182852283E0A2E050429019A4E052
:1037F300640F702E900AE812720F900AE8C3E094E7
:10380300E9A3E09403400A7A007B809018171251D1
:1038130058790012299DE96009901C081214EE12D0
:1038230029B5852182852283E06401023AF654207A
:103833007003023AFB7A207B009019EAE0F9121E2A
:10384300B1EA4B4C4D701A9019FE1214CAE8494A5A
:103853004B700E750801750900750A00750B008021
:103863006D750C00750D00750E00750F00121EBDF1
:103873008A088B098C0A8D0B9019FE1214CAE84929
:103883004A4B60319019FE780812113E400E750CB8
:10389300FF750DFF750EFF750F7F801985080C8569
:1038A300090D8C0E8D0F9019FE780C1212377401CE
:1038B300780C12121E850C08850D09850E0A850FDA
:1038C3000BE5084509450A450B7003023A557C0090
:1038D30079047A007B00122A458A0C8B0DAE0CAF5B
:1038E3000D023999740212150574FFF07403121551
:1038F3000574FFF0740412150574FF1251CB12699D
:103903008C740712125F126C42E96401706A123BF5
:103913001D4480F8A3E0F97428121505E8F0A3E923
:10392300126ED6E0C0E0742A121505D0E01251B829
:10393300540860167428121505A3E04401123B2AAB
:10394300C0E0742C121505D0E0F0126B156011E87D
:10395300240B124310F87416121505E8F0A3E4F0D3
:1039630090E39E120FBB740612125F740B12125770
:103973001226C174041211CF8E828F83A3A3A3A333
:10398300A3A3A3A3A37406123B2AF9122A2774053F
:10399300121505126C99EE4F7003023A557C0079AB
:1039A30004EEFAEFFB122A457405121505EAF0A39B
:1039B300EB124EE2E0F50CA3E0F50DE4F50EF50F86
:1039C3007808790C1214384023EE2404F8E43FF904
:1039D30085080C85090D8882F583C3E0950CF0A357
:1039E300E0950D1272F9E84970A4800C8E828F83E2
:1039F300A3A3A3A3E4F0A3F08E828F83A3A3A3A323
:103A0300A3A3A3A3A3A3E064018E828F83A3A3A391
:103A1300A3A3A37020E0540460030238E78E828FCF
:103A230083A3A3A3A3A3A3A3A3A37406F07AB712A8
:103A33003C50023991A3A3A3A3E060030238E78EAD
:103A4300828F83A3A3A3A3A3A3A3A3A37401F002BD
:103A53003991122A157C0079017A007B00122A45DC
:103A6300EA4B60031251517C0079047A007B001207
:103A73002A45EA4B701380448A828B83A3A3A3A3B2
:103A8300126CB1EE98EF99400B8A828B83A3A3A3A8
:103A9300A3126C997C007904122A458B0BA90BEABB
:103AA3004970D5C3E5089EE5099F500DC3EE9508FF
:103AB300FEEF9509FFEE4F700D1251519019FE1252
:103AC3003B23A3F08024EE2EFEEF338E08F509E4AA
:103AD300F50AF50B78081211B47A20123CF9121189
:103AE300CF121EBD9019FE1214E285218285228316
:103AF300E06420FAA3E08016A3E054046013126389
:103B030069122F9D79011244D71272046404FB8059
:103B1300047A007B00742D026AF1EE126AFFE02240
:103B2300E4F0A3F0A3F0221251BDA3A3E022C082CC
:103B3300C08374EA1212677C167D007900AA21AB58
:103B430022121D1F74081215057402F090199312A6
:103B530065A5123B7174091215051265BD74131224
:103B63001505E412623C1225417416025487E8F0ED
:103B7300A3E9F090199D126C812274F7120B7F74E4
:103B8300DA121267EAFEEBFFEA4F602DAC21AD2299
:103B9300122A8D7406121505E0601E74171215059E
:103BA300E0FD7401121505E0FCEEFAEFFB7900125B
:103BB3002973E9600479A4800279007426025073A2
:103BC30074F7120B7FEAFEEBFF8A82F583A3A3A3AC
:103BD300A3A3A3E0544060178A828B83126AB212B4
:103BE300539660067AFF7BFF8015126AAE800390BE
:103BF300199312698C74FE6A700374FF6B6041122F
:103C03006AAE126AD8122B23E98E828F83600B125D
:103C1300669B1272C4E4F0A380031272B3F07CA318
:103C23007D298E828F83124A0CE9F5087015EE4FB9
:103C330060097901EEFAEFFB122A21A908025076F6
:103C43007508CDAA08123C50E960E380EE8E828F9E
:103C53008312669F240CF582E438F583E0F9122978
:103C6300AF2274F6120B7FE9FEEAFF7A0F7B001294
:103C73001D37EA4B601A8A828B83740CF0EEA3A380
:103C8300F0EF8A828B83124E3112629A7900802B75
:103C9300EEF9122A4B8B09A909EA49601C8A828B27
:103CA30083A3A3A3A3A3A3A3A3A37406124E3AE0DF
:103CB300F9122763EEF9122A27791002608574F44A
:103CC300120B7F8A088B098C0A8D0B9019A4E06470
:103CD3000F701EEA4B4C4D601890199FE06408600A
:103CE30005E06404700B78081211B4123CF712114A
:103CF300CF023F5C7A017B009019EAE0F9121E9F24
:103D030074042274F4120B7F74FC121267EAFEEB44
:103D1300FF8A82F583A3A3E0F9122A4B8A088B0951
:103D2300EA4B7003023E3F8E828F83A3A882A9834E
:103D3300E0C0E0EA126290D0E0124CA064F1602887
:103D43008E828F83A3E064CD601E8E828F83A3E077
:103D5300641A60148E828F83A3E064E9600A8E8202
:103D63008F83A3E064E170337900122A21E9602B89
:103D7300E5082404F50AE43509F50B85088285096D
:103D830083A3A3A3A3A3A3124D76124C7E121CE319
:103D9300850A82850B83126AD880708E828F83A3F3
:103DA300E0C0E07402121505D0E01254951255B824
:103DB300124726C0E07403121505D0E0F0E508129F
:103DC3006F811243CFE0AA21AB2270051226BB807C
:103DD30003122B0B7402121505E064E9702D85089C
:103DE30082850983124535750A01780A1211C07557
:103DF3000AE9780A1211C0124C521246F3FCA3E0EE
:103E0300FD8A828B8312471D1211CF850882850993
:103E130083A3A3A3A3A3A3A3A3A3E0640270128514
:103E23000882850983A3A3A3A3A3A3A3A3A37406BF
:103E3300F08E828F83A3A3E0F9122A27122A15900A
:103E43001C0E1243417404023F5974F4120B7FEAAF
:103E5300FEEBFF7508008A82F583A3A3A3A3A3E067
:103E6300603875080812697F79FF1227F3EA4B60FF
:103E73001075082C8E828F83A3A3A3A3A3E0D2E0A3
:103E8300F08E828F83A3A3A3A3A3E05403640160F2
:103E930003023F48430811023F48EA241812587EA0
:103EA3006036EA241A12587E6003F47013126C61B0
:103EB3007003A3E0696003023F48750822023F488C
:103EC300EA241B123F4C241A12587EFAEE241912CC
:103ED300587EF9122751806D8A828B83A3A3A3A3F3
:103EE300A3A3A3A3A312432C70037508018E828F8F
:103EF30083126C657003A3E0697006E508D2E1F5EF
:103F030008E50860158E828F83A3A3E07006E50899
:103F1300D2E58004E508D2E6F508125389640170FE
:103F230006E508D2E0F5088E828F83A3A3E060152F
:103F3300EE241D125B9DF9122B11E964016006E565
:103F430008C2E0F508A9088010F582E43FF5831262
:103F5300731CEA2274091211CF7F04020EF074F06D
:103F6300120B7F74D7121267EAFEEBFF8A82F58386
:103F7300A3A3A3A3E0600E901C0C126B1C6006901D
:103F83001C0C124341740312125F8E828F83A3A30E
:103F9300A312646812698A122A8DE970030240F23F
:103FA30078017405121505E0C39402400278007489
:103FB30007121505E0C3940240027800740C121531
:103FC30005E064F87003A3E0F470030240F2740C9C
:103FD300121505E064F97003A3E0F470030240F2E4
:103FE300740C121505E064FA7003A3E0F470030285
:103FF30040F2740C121505E064FB7003A3E0F47047
:10400300030240F27406121505E0F990198DE06978
:1040130060030240F2E8A2E040030240F274271278
:104023001505E060030240F2EE2413126C7774224C
:10403300121505126472241C126C77741012150584
:104043001265BD7409121505E0601D741A12150579
:10405300E0FD7404121505E0FC8E828F8312698AD9
:104063007901122973E9703B74031212571229C1A3
:10407300E9F50C7409121505E0702C901987E060BE
:10408300267422596422601F744259644270147466
:1040930020121505124326600E74201215051243D3
:1040A3001F60047ACF804AE9A2E6504D74201215AE
:1040B30005125BA324FD600F14600C24FD6008242B
:1040C300FD600424FE702874201215051243187035
:1040D3000E74201215051261C9A3E0640D601A74F1
:1040E30003121257122B3BE96401700D0243087A45
:1040F300D37B001222B9024308EE242DF582E43F5C
:10410300F58312452C7003A3E069701D75080078D0
:10411300081211C078081211C0EE242F12587EF92C
:1041230012433212471D1211CF7409121505E070A4
:10413300030241D012433212698C122B898A0E8BEF
:104143000FEA4B70030242617404121505E0F88E06
:10415300828F83A3A3E028F8A3E03400F9E8240DB9
:10416300124310F88A828B83A3A3A3E068600EE84E
:104173008A828B83A3A3A3124E2A123B247904E9D8
:1041830012150512589DA3E02AF8A3E03400888293
:10419300F583A3AA82AB83121D2B8A088B098C0A91
:1041A3008D0B850E82850F83A3A3A3A37808121119
:1041B3003E400302430890E35678081213AB850E82
:1041C30082850F83A3A3127322A31255C190199F53
:1041D300E064046008E064096003024308E50CA29C
:1041E300E5400302429BEE242F125886F0EE243062
:1041F30012587EC0E07401121505D0E0F0EE2431B0
:1042030012587EC0E07402121505D0E0F074141247
:104213001505E064017026740E121505124C7924FD
:104223001312587E687003A3E0697011740C1215A1
:104233000512432C70077414121505E4F0EE2425BF
:10424300F582E43FF583120FBB740412125F740707
:104253001212571226C174041211CF024308901987
:10426300E4E0640160030241D07420121505124397
:10427300267009E50CA2E650030241D07410121512
:1042830005E0F47003A3E0F4607BEEFCEFFD740340
:104293001212571229CD806DA2E6506974201215AF
:1042A300051266AB7016741A121505E06402705598
:1042B30074031212577900122B05804974201215CA
:1042C3000512431F7014741A121505E06404703547
:1042D3007403121257122AF9802B74201215051237
:1042E3004318700C79007403121257122B47801570
:1042F30074201215051261C9E0640C70087403126E
:104303001257122B537429026AF1E82406F582E44A
:1043130039F583E022126AB8E0640322126AB8E036
:10432300640722125BA764062212539A640222EEE8
:10433300242BF582E43F12731AEE12536F22E0F539
:1043430008A3E0AA08FBE4FCFD1229B52274F412C9
:104353000B7FEAFEEBFF8C088D09901907E0600FD5
:10436300126C617003A3E069700512273F805379D3
:104373000012697F12276F8A828B83E582458360EF
:104383002CA3A3A3A3A3A3E054186021E508241C32
:104393001243CC120FBF1243C8120FBFEE241812E0
:1043A3004704125E64126C391211CF801579008EA6
:1043B300828F83A3A3A3126691125E6412698C1287
:1043C3002745023F5CE5082413F582E43509F583AC
:1043D3002274F7120B7F74F7121267EAFEEBFF9059
:1043E300199FE06403600DE064016008E064096004
:1043F300030244D28A828B83A3E060030244A07C3D
:10440300007D007A027B00121CDD126CDE8A8212B0
:104413006C7B9019901265BD795312252F90199FCB
:10442300E06409600990199D12698C122B83852120
:104433008285228374011261E190199F7404F074E0
:1044430001121257794A122529740112125F7A95C3
:104453007B19121ED590181AE0640B70057406F0D0
:10446300800579001244D79019901266977A037BDE
:1044730000121CDD9019931266977A047B00121CBC
:10448300DD90198AE0A2E35004D2F08002C2F01258
:1044930061CE901C081214EE1229B5802FFC7D000A
:1044A3007A037B10121CDD90181AE0640B700374FE
:1044B3000AF090190BE4F0FA7B40125FBE8E828FF4
:1044C30083A3E0F91244D790199FE4F01229F774FB
:1044D3000902507390199D1269901226D322C0824B
:1044E300C083901927126B1C701790199FE024FB4F
:1044F3006005146007800A90192D801F90192F8082
:104503001AE849600712430D6401700C8A828B8399
:10451300A3E0F91226C7800E901A19126B1C6006CD
:104523001261CA120DB6025D15126C8190199DE0DD
:104533006822126C81E8FAE9FB2274F5120B7F748E
:10454300D81212678A088B098A828B83A3A3A3A339
:10455300A3A3A3A3E0C3940F50030246EE8A828B66
:1045630083A3A3A3126C99741512125F8A828B839F
:10457300A3A3A3A3A3A3A3A31246F3FAA3E0FB124B
:104583002A037415121505E0702E850882850983A8
:10459300A3A3A3A3A3A3A3A3E0C3940B401A8E8254
:1045A3008F83A3A3A3A3A3A3A3A3E064027009EE31
:1045B300240B12587EF460030246EE74171215059D
:1045C300E06007640260030246EE90199FE0640214
:1045D300601CE064066017901927126B1C700302BD
:1045E30046EE12430D640160030246EE80259019E6
:1045F30027126B1C701D75080078081211C078080B
:104603001211C0EE24101247048E828F8312471DAD
:104613001211CF8E828F831272F1124CA9126C7D0C
:104623007402121505126472123B1EC0E074041268
:104633001505D0E0124726F508A3E0F509740F78B5
:10464300081214677405121505E508F0741912159C
:1046530005E0C0E07406121505D0E0F0741B1215D6
:1046630005E0C0E07407121505D0E0F074161215CA
:1046730005E0C0E07409121505D0E0F074171215B7
:1046830005E0C0E07408121505D0E0F0EE24101226
:10469300587EC0E0740A121505D0E0F0741A1215A2
:1046A30005E0C0E0740B121505D0E0F07427121575
:1046B30005E0C0E0740C121505D0E0F0741C12156F
:1046C30005A982AA8389088A09750A007808121144
:1046D300B87C087D007410121505AA82AB831258AA
:1046E300751211CFAA21AB221226CD74280251D103
:1046F300E0F98A828B83A3A3A3A3A3A3A3A3A3E029
:1047030022F582E43FF583E0F98E828F83A3A3A38E
:10471300A3A3A3A3A3A312731C22126990122AC3F7
:10472300740222F0EE125E69E02274F2120B7F74BF
:10473300F81212678A0A8B0B8C0C8D0D890890E294
:104743007AAC21AD2274081210DFC200AC0AAD0BA3
:10475300AA21AB2212690D7002D2009019EB8013CB
:10476300AC0AAD0BEE240BFAE43FFB12690D701B90
:10477300125360124FF3601EA20040E48E828F83B7
:10478300E0650C7004A3E0650D70E58E828F83A352
:10479300A3E0650870DAEEFAEFFB7408024CB6C0CA
:1047A30082C0839019EB025D12C082C0839019EB23
:1047B300E4F0A3024A0874F7120B7F9019EB12720C
:1047C3000A800FEA2414F582E4126C96121DF1EEAE
:1047D300FAEFFBEA4B70EC9019EBE4F0A3F0025014
:1047E3007674F2120B7F8A0C8B0DEDFF890B8A8294
:1047F3008B83E08C828D83F0A3A882A9838A828B2A
:10480300831248AD124E24E0C454F0FA888289839F
:10481300E04AF0EC2402F8E43FF9850C828B83A391
:10482300A31248AD1248C0E0333354FC1248B4E03D
:1048330033333354F81248B4A3E0A2E0E433131340
:10484300FA88828983E04AF0EC2403FE50010FE5E5
:104853000C2407F508E4350DF509750A00780812EC
:1048630011B87C087D00EEFAEF1258741211CFEEE6
:104873002408FE50010FE50C240FF508E4350DF56F
:104883000978081211B87C037D00EEFAEF12587410
:104893001211CFE50BC3940F400DE50C2412F582E2
:1048A300E4350D125E78F0024CB9A3E08882898367
:1048B30022FA88828983E04A1248C0A322F0850C39
:1048C300828B83A3A3A3A32274F2120B7FEBFF8C2F
:1048D3000C8D0D8A82F583E08C828D831272DBA3AB
:1048E300A882A983E0125CBD124C9FC4125CB7F08E
:1048F300EA1272E5125CC4124C9DA2E2E4338C828C
:104903008D83124C9C131313541F125CBDA3124CC2
:104913009CA2E7E4338C828D83A3A3A3A3A3A3F078
:10492300EA2403FE50010FF5088F09750A00780881
:104933001211B87C087D00E50C240712587012117F
:10494300CFEE2408FE50010FF5088F0978081211E5
:10495300B87C037D00E50C240F1258701211CF8E22
:10496300828F83A3A3A3E0C0E0127301D0E0F0021F
:104973004CB974F6120B7FEAFEEBFF8A82F583A330
:10498300858208858309E0F91226EB85088285096B
:1049930083E064EB601E8E828F83A3E064E1601486
:1049A3008E828F83A3E064F1600A8E828F83A3E0FB
:1049B300641A70078E828F83A3E4F0901C0812148C
:1049C300EE1229B575080178081211C08E828F8303
:1049D300A3E0F50878081211C0790090199D1266BA
:1049E3009790199312471D1211CF122A1502608551
:1049F300C082C083E99019FD7003E48002740180D2
:104A030004EAF0A3EBF0025D151269901225472228
:104A130074F6120B7F9019FDE0701B7C0079017A0C
:104A2300007B00122A45EA4B600C8A828B83126B4F
:104A33001C60031229A9026085C082C083124ED371
:104A4300401079FF122A3FE9F890370AE493C3989C
:104A53005004790180027900025D1574F2120B7F14
:104A63008A0A8B0B8909C2008A828B83A3A3A3A31F
:104A7300A3A3A3A3E0F9122A4B8A0C8B0DAE0CAFB0
:104A83000D750801EA4F6003024B3F850A82850BCF
:104A930083126691850A82850B83A3A3A3A3A3A391
:104AA300A3124C7E122A338A0C8B0DAE0CAF0DEA87
:104AB3004F7003024C4B8A828B83A3A3A3A3E4F01E
:104AC300A3F0E50A240CFAE4350BFB8A82F583E0B4
:104AD300C0E0124C52D0E0F0E50A240D124C7224CF
:104AE3000D1265B7122B29125378126AD8E50A24DE
:104AF30011124C7224111265B7E50A2413126CA823
:104B0300C0E012536AD0E0F0D200EE2406F8E43F8E
:104B1300F9124C65124CA054046003024BB1901C73
:104B23001AE0F50A750B007407780A1213728E8265
:104B33008F83A3A3A3A3A3A3124C5CF08E828F83C2
:104B4300A3A3A3A3A3A3E0F50AA3E0F50B7407783B
:104B53000A121467E50A5407FCE50960618E828F27
:104B630083A3A3A3A3A3A3A3A3A374021251CB124E
:104B73004F68600B90198B1258FEA3A31265BDEC0E
:104B83007003024C22EE2406F8E43FF9E8FAE91236
:104B93004C65F0EC24FFF50AE434FFF50B74077859
:104BA3000A1213728A828983124C5CF080718E829E
:104BB3008F83A3A3A3A3A3A3E04480024B3EEC7083
:104BC3000575080080598E828F83A3A3A3A3A3A393
:104BD300E05420600C121D31EA547F7900245F8079
:104BE300198E828F83A3A3A3A3A3A3E05410601AF7
:104BF300121D31EA540F7900240A5001098E828F65
:104C030083A3A3A3A3F0A3E9800D8E828F83A3A321
:104C1300A3A37401F0A3E4124CA97404124EE9A2F5
:104C23000050288E828F83A3A3A3A3126996F9EE63
:104C3300FAEFFB122A39E96012126B156003124C6A
:104C43008BEEFAEFFB121DF1750800A9088067EEE1
:104C5300240CF582E43FF58322E0450AF0A3E04506
:104C63000B228882F583E0547FF0A3E054FC22F505
:104C730082E4350BF583126C81EE22A3E0F9850AF9
:104C830082850B8312699022124C921250E822EE15
:104C9300240FF582E43FF58322A3A3A3A3124CA41C
:104CA30022126CC4E022124CAD221251C1A3A3A361
:104CB3002274031211CF7F06020EF074F4120B7FDD
:104CC30074F71212677E00122A4BEA4B7003024DEF
:104CD300718A828B83A3A3A3A3A3A3A3A3A3E06447
:104CE300066003024D718A828B83A3A3A3A3A3A3AC
:104CF300A3E0FF8A828B831272A3E0C0E0740812E0
:104D03001505D0E01250991265AA1265BD122A5DED
:104D1300EF540860578521828522831266977A00B3
:104D23007B00122A2DEA4B704312730C7C007D002A
:104D33007A007B0080228E828F83125BA3F4700340
:104D4300A3E0F4602790199D124D7612507B601CEE
:104D53007C007D00EEFAEFFB122A2D8A0A8B0BAE44
:104D63000AAF0BEE4F70CF790012255F7E01EEF98B
:104D7300023F57124D7A22E0FCA3E0FD8E828F831F
:104D830022C082C0838A828B83E582458370099027
:104D93001A0280068A828B83A3A3124F9C60208A07
:104DA300828B83A3A3A3A3A3A3A3E0540860E5EC8E
:104DB3004D6010124FA27003A3E06D70D780047A88
:104DC300007B00025D1574F2120B7F8A088B098940
:104DD3000AECFEEDFF7A147B00121DEBEA4B603701
:104DE3008A828B83A3A3A3A3A3A3A3A3A3E4124EA7
:104DF3003AE50A125085EEF0A3EF124E2A1250A0A4
:104E0300124E318A828B83127324124E1D126A133F
:104E1300A3124E24F0A3F0024CB9EA240FF582E466
:104E2300221272DFA3A32212508BE4F0A322A3F079
:104E330012729C126A1322124E3E2212508FA3A3A7
:104E4300A3A32274F5120B7FEAFEEBFF890A8C08F9
:104E53008D09EA4F607574016970127901122A3F56
:104E6300E9F890370CE493C3985015800A740469E9
:104E73007009124ED3500979118052740269704B34
:104E83008E828F83A3A3A3A3A3A3A3A3A3E50A1241
:104E93004EE21255B8126B9DA3E4F0A3F0901A02F0
:104EA300126B1C60188003126C7D88828983A3A314
:104EB300124F9C88828983A3A370EC8003901A020B
:104EC300EEF0A3EF124EE97900800279C10251D4CA
:104ED3007904122A3FE9F890370BE493C39822121E
:104EE3006BA1A3A3A322F07A207B009019EAE0F937
:104EF300121D7922C082C083E9F87900901A0280DA
:104F03001D8A828B83A3A3A3A3A3A3A3A3A3E06864
:104F1300600574FF687001098A828B83A3A3124F13
:104F23009C70DE025D1574F7120B7FEA4B700590DF
:104F33001A0280068A828B83A3A3124F9C601F8A66
:104F4300828B83A3A3A3A3A3A3A3A3A3E06970E476
:104F5300EC600F8A828B83124F6870D880047A00CA
:104F63007B000250761272BCE0540422C082C083DC
:104F7300901A0280068A828B83A3A3124F9C60122D
:104F83008A828B83A3A3A3A3A3A3A3A3E06970E54E
:104F930080047A007B00025D15126990EA4B228A35
:104FA300828B83125BA76C2274F2120B7F8A0A8BAB
:104FB3000B8C0C8D0D750800750900EA4B602A9067
:104FC3001A0280068E828F83A3A3124FF3601AAC5A
:104FD3000CAD0DEEFAEFFB850A82850B83120DB63D
:104FE300E9640170DF8E088F09AA08AB09024CB986
:104FF300E0FEA3E0FFEE4F2274F7120B7F901A023C
:10500300126C7D7C007D00800DE8FCE9FD888289BF
:1050130083A3A3126C7DE8496030EA687002EB69F0
:1050230070E7901A0212698CE86A7002E96B888251
:105033008983A3A37008126C7D901A028009126CF5
:105043007D8C828D83A3A31265BD802774F7120B19
:105053007FEAFEEBFFEA4F6015122A571250D41273
:105063006B156003124C8BEEFAEFFB121DF18003FC
:105073001211CF7F01020EF0126990122553E964D9
:105083001A2212508BA3A32212508F22F08A828BF2
:1050930083A3A3A3A3221272DF125BA722124E3EA5
:1050A300A32274F6120B7F901A02126C99801412C9
:1050B3006CB61250D4124C8BEEFAEFFB121DF1AE0C
:1050C30008AF09EE4F70E8901A02E4F0A3F0026013
:1050D300858E828F83127290F5831250E88E828FB1
:1050E300831250E822E0FAA3E0FB121DF122C082F2
:1050F300C083EAFCEBFDEA4D6017EA24FBF582EB83
:1051030034FF126B1A7007125146E0F46007121D48
:105113003D7905802B9019EAE0C0E0125146D0E0BA
:10512300F0903703E493F97A047B1A121D73E96450
:1051330001700B7A007B20125155790080027904AB
:10514300025D15EA24FFF582EB34FFF583227A2012
:105153007B009019EAE0F9121D792274F4120B7F97
:10516300A2AFE433F508C2AF901A04124FF36038CC
:10517300EE24FBF582EF34FF126B1A7A007B20904A
:1051830019EA60051251588005E0F9121D7FE4F514
:105193000AF50B780A1211BCEEFCEFFD7A047B1AB8
:1051A300121D6D74021211CFE508A2E092AFEEFA60
:1051B300EFFB023F5C1251BDE0221251C12212519A
:1051C300CBA3A3A3A3A3A322F08E828F83221211C6
:1051D300CF7F03020EF074F2120B7F74FA12126780
:1051E300EAFEEBFF7508FE7509FF122A1BE960054D
:1051F300791102535B12587B603C901C34E0C4333A
:1052030054E0F8E0333354FC48C0E0EE12628A3FC6
:10521300F583D0E0126CD8FAA3E0FB79FF1227F3F1
:10522300EA4B60127508FFEE240F12587E4404F017
:1052330012587BD2E0F08E828F831253946006EE75
:105243002412126CF0EE241312587E700D90370165
:10525300E493C0E012536AD0E0F08E828F83E0A221
:10526300E7500454038019EE241412587E701290F0
:10527300197CE0C0E0125360D0E0F090197CE004A8
:10528300F0EE241112587E64017016901C1EE0602B
:105293000D901987E0700A8E828F83E07003126C81
:1052A300ED8E828F83E064017013EE240B125B9DFD
:1052B30064027009EE240F12587E4440F0AC21AD15
:1052C30022EEFAEFFB122A878A0A8B0B74FE65081B
:1052D300700374FFF47003126CB6EA4B60768E822F
:1052E3008F83E0C0E07401121505D0E0F07404125E
:1052F3001505EEF0A3EFF0EE241E126C7774021284
:1053030015051265BD740112124F880C890D780CB6
:105313001211BCEE242012537D1211C012537812C5
:105323000FBFEE240E12537D1211C0901990120F6D
:10533300BF7408121505E0F9AC08AD09122A81748F
:10534300081211CFE9FE74106E700BAA0AAB0B1290
:105353001DF180027E10EEF97406024CB6EE2414A1
:10536300F582E43FF58322EE12536F222413F58274
:10537300E43FF58322EE124C9322F582E43FF5835A
:10538300E0F50C780C228E828F83A3A3A3A3A3A39F
:10539300A3A3A312539A22E0FAA3E0FB122B23E95F
:1053A30022C082C08374D712126790DAF474031296
:1053B300125F74261210DF8A828B83A3A3A3A31226
:1053C3006C7D740E121505126B22126C7D740C1217
:1053D300150512549D240D12548DC0E0741A121534
:1053E30005D0E0F0126A19126C7B742012150512B5
:1053F300549D241512548DC0E07408121505D0E095
:10540300F0EA241CF582E43B126C7B74121215053E
:1054130012549D241112548DC0E07409121505D045
:10542300E0F0EA241212548DC0E07407121505D07F
:10543300E0F0EA241EF582E43B126C7B742412151F
:105443000512549D242012548DC0E07426121505B4
:10545300D0E012549574FFF0740112150574FFF037
:10546300740212150574FFF090E39E120FBB7404CF
:1054730012125F74071212571226C174041211CF4D
:10548300790074291211CF025D15F582E43BF5838F
:10549300E022F085218285228322E8F0A3E9F0EA65
:1054A3002274F4120B7F74EC1212678A0A8B0B8C32
:1054B300088D09E9FF7E107A217B00121DEB8521FF
:1054C30082852283EAF0A3EB126B2CE84970030276
:1054D30055B17C217D007900852182852283E0FA04
:1054E300121D1F90199D12698C85218285228312BA
:1054F300669B2409F582E438F583126AD874201276
:105503001505126C7D7411121505E8125C0C126AF4
:10551300DE38F5837402125C0F1272AA7402125BF6
:10552300F91255B8125C0F127287EFF0742212153C
:1055330005125BBAF9A3E0C9126F8139F583E8124A
:1055430058CFA3E0C9241FF582E4391255BF742351
:1055530012150512698C7406121505126AD874089F
:10556300121505E8F07426121505126AB2C082C03E
:1055730083740C121505AC82AD83D083D08274057D
:105583001210DF7425121505E0C0E074131215051F
:10559300D0E0F07900AA21AB22122A21E96401703C
:1055A300047E008009852182852283124C8EEEF9C8
:1055B3007414023F59E508F0A3E50922F583E50ACF
:1055C300F0A3E50BF02274F0120B7F74FF12126745
:1055D300EAFEEBFF8C088D098A82F583A37408F039
:1055E300EA241612587E60088A828B83A37410F013
:1055F300EA241712587E60098A828B83A3E0240869
:10560300F0EA12587C60088A828B83A3E004F08A54
:10561300828B83A3A3A3A3A3A3E060198A828B83B2
:10562300A3A3A3A3A3A3A3E0C3332402F88A828B77
:1056330083A3E028F0EA24111258866004740E80D4
:1056430001E4F0901C2CE0640170168A828B83E0E5
:105653006401600D90190BE06007125866740180B5
:1056630004125866E41258CF8A828B83A3E0F8EAC7
:10567300123B1E28298C828D83F0EA241112587E56
:105683006005125EA729F0850882850983E0C3942B
:10569300754009750C00750D0002585DE0FA7B003A
:1056A300121DEB8A0C8B0DEA4B700302585D8E8240
:1056B3008F83E0FA90198D1258C874027808121378
:1056C30072EA4508FAAB09EE24121258C27406783E
:1056D30008121372A808EA48FCEBFD12587B600419
:1056E300780180027800EE2416FAE43FFBE4C8F95F
:1056F300ED49FDEE241112587EF5088809740978E6
:1057030008121372ED4509FD8A828B831258C874FF
:105713000B7808121372ED4509FDEE24171258C2D7
:10572300740C7808121372ED4509FD8E828F83A3E2
:10573300A3A3A3A3A31258C8740A7808121372ED83
:105743004509FDEE24231258C2740D780812137212
:10575300ED4509F9EC850C82850D83F0E9A3F0EEA4
:1057630024021258A51258E4F0EE24041258A5A3FB
:10577300A31258E4A3A3F0EE24131258B5F0EE24B9
:10578300141258B5A3F0750B088A828B83E0601559
:10579300126B8E126697E50C2408FAE4350DFB12A2
:1057A3001ED5750B10EE241712587E601912671A56
:1057B300126697A80BE50C28FAE4350DFB121ED5EB
:1057C3007408250BF50B8E828F83A3A3A3A3A3A336
:1057D300E0604EEE2407F50EE43FF50F850E82F5EB
:1057E30083E0C0E0125894D0E01258D4E0C0E0083F
:1057F300125896D0E01258D4A3126B081211B88530
:105803000E82850F83E0125B6EA80BE50C281258FD
:10581300701211CF850E82850F83E0C333250BF5FC
:105823000B12587B6008C0E0125894D0E0F0125E6F
:1058330064126B081211B8123B1DFC7D0074031235
:10584300150512589DE0F8E50C28F8E4350DF9E844
:105853002AFAE4391258741211CFAA0CAB0D740151
:10586300026AF1EA2423F582E43FF58322FAE43560
:105873000DFB121D13740322EE2415F582E43FF58C
:1058830083E022F582E43FF583E08521828522834C
:1058930022A80BE50C28125B8122E0FA8E828F830B
:1058A300A322F8E43FF98882F583E0850C82850D15
:1058B3008322F582E43FF5831258EEA3A3A322F5D6
:1058C30082E43FF583E0F508750900221272CDF9F1
:1058D30022F0050B8E828F83A3A3A3A3A3A3A3A369
:1058E30022A3A3126CC4A31258EE22E0850C828576
:1058F3000D83A3A3A3227403023F59126C818E82EA
:105903008F83A3A32274F0120B7F74FD121267120C
:105913006AD27402121505E9F08C0C8D0D750B011A
:105923007C267D007900AA0CAB0D121D1F74021298
:105933001505E0C394085003025AF71258ADF0ACB2
:105943000CAD0D852182852283125BA3FA8521820A
:105953008522831261C9125EA0E96003750B00857D
:105963002182852283126AB2125BC4E0F9EA850CB4
:1059730082850D83A3A3A3A3A3A3A3A3A3F0A3E956
:10598300125BF9A3A3125BC4A3A3E0F9E50C126BAA
:1059930031EA125C0C126687C0E0E50C2411127325
:1059A30005D0E0125C0F2407F582E438F583E0C0EC
:1059B300E0127301D0E0126AC57408125BF0A3E031
:1059C3006026852182852283E02408F8A3E0340041
:1059D300F9E50C2413F582E4350D1265BB850C82C1
:1059E300850D83A3E02408F0850C82850D83A3A392
:1059F300A3A3A3A3A3A3E0602A850C82850D83A39D
:105A030085820E85830F125BB1F8A3E03400F9E5BC
:105A13000C12628A350D1265BB850E82850F83E0F9
:105A23002408F0125B75E4F0125B89E4F0A3126AB8
:105A3300C5A3A3A3A3E06011125BD5850C82850DDA
:105A430083A3A3A3A3A3125C01E50C125B96E070EE
:105A530003025AE3125BD5FA125B75EA125C01F892
:105A6300852182852283E028FBA3E034008B82F525
:105A730083E0F8E50C241A127305E8125C01E8C30D
:105A83009AE50C5056125B91F8903704E493C3984F
:105A930050047E0C8006E50C125B91FE850C82851A
:105AA3000D83125BB0F508A3E03400F509750A0015
:105AB30078081211B8EE125B6E7A5E7B0C12587581
:105AC3001211CF125B89745EF0A3740CF0EEC33332
:105AD300F8850E82850F83E0288004125B96E4F03C
:105AE300850C82850D83A3E0F8850C82850D83E008
:105AF300C398500479008070125BB0FAA3E03400BD
:105B0300FBE50C126CE7127308126AD8850C8285C8
:105B13000D83E0C398C0E0E50C2417127305D0E0B1
:105B2300125BF0E06040E50C2417FEE4350DFF8EB8
