:020000040000FA
:060000000214480208B8DA
:03002B00021204BA
:03003300020C3389
:0300430002109A0E
:030053000207EDB4
:03006B00020BEB9A
:03007B00020C1361
:1000830002084C010000000000F8FF07FFFF00001A
:100093000504000000030001FFFFFFFF00451001FE
:1000A300050100000002003A0117001410270000A8
:1000B30090BB0B001000B8AC0E00140000801100C0
:1000C300180070C710002000B89A180030000020F4
:1000D300FD00020000651C000000000000C51C00BC
:1000E300000000000000000000000000000000000D
:1000F30000000000000000000000000000000006F7
:10010300FFFF1E20FEFFFEFFFEFFFEFFFEFFFEFFC2
:10011300FFFFFF01FFFFFFFEFF0103210000752129
:1001230000000000000000000000000000000000CC
:100133000000FF3C003C00450032000100E8030AD8
:10014300000A000A000A000A001E00030104010C51
:10015300000206D5E506C9E50304010701020120F3
:10016300E802F5E70404010C00020116E8011CE8AB
:10017300010400001918000000E8030000FFFF6AF3
:10018300180188130000E803000064006400B8014C
:10019300A0BB0D00A0BB0D00020202070401051E57
:1001A30002051E020A0A010108080103B80B0280B6
:1001B3003E0102FEFFE8030A050001FFFF020A14E5
:1001C30001E00100B0423BAAB83F8C906339AA0C0E
:1001D300A33A00941E3C8042633DCFFE753E1572E8
:1001E300313FF304353F8096184B000080BF2292C5
:1001F300D43EDD9B2A3F04000040FFFF7F7FFFFFCB
:100203007FFF010080341872313F020000000503B4
:1002130001010F03000300030003000300030003B5
:10022300000300030005000A00140028004F009E8D
:100233000000003734000000006D3300000000FFB1
:10024300000000FF001214856046121494603DE91B
:10025300687008F618F618F618F622748067F71215
:10026300027C090909748067F722121494601D1235
:1002730014857005191919801A121323701F12138C
:1002830037C37003E6673319191940071818182282
:1002930008080874FFF618F618F618F62212133732
:1002A300601712150F702192F0121518701950175C
:1002B30020F014080808090909E7F61819E7F618E1
:1002C30019E7F61819E7F62212151860E6E86970BF
:1002D3001F0808E62480F608E436F618547FB47F36
:1002E3000CE654806007F6E418F618F62218182274
:1002F300E9C6CC08C6CD08C6CE08C6CFC0E0E8C064
:10030300E0EAC0E0EBC0E009E9F809E7FA09E7FB36
:10031300E6F918E6F8C3EC98ED99EE9AEBC2E7F527
:10032300F0EFC2E795F0500E600CEBCFFBEACEFA8C
:10033300E9CDF9E8CCF8EAA2E7D2E7FAEB33FB130D
:10034300F5F0EEA2E7D2E7FEEF33FFC5F013A2E725
:1003530030E601B313C5F0C3C0E0C0F07F00C39B18
:10036300FB605E9418600F401D14601AD0E023F9FF
:10037300D0E0F802044E8AF0E9486003D2F0E4AF1B
:10038300F0FAF9F8803BEB30E40D89F0EA6003D230
:10039300F0E4AFF0F9CAF8EB30E30D88F0EF600258
:1003A300D2F0AFF0E4CAC9F8EB54076014FBC3EA18
:1003B30013FAE913F9E813F8EF135002D2E0FFDB65
:1003C300EDD0E0C0E030E739C3E49FFFF5F0EC98EF
:1003D300FC42F0ED99FD42F0EE9AFE42F0D0E0F9D6
:1003E300D0E0F8E5F0607AE923F9EE20E742D8029D
:1003F3008067C3EF33FFEC33FCED33FDEE33FE8058
:10040300EAEC28FCED39FDEE3AFED0E023F9D0E02A
:10041300F84002801BC3EE13FEED13FDEC13FCEF5B
:10042300135002D2E0FF08B800067F7F74FF802ECE
:10043300EF3350178CF020F00260100CBC000C0D51
:10044300BD00080EBE000408E860DFE933E813FFCF
:10045300EE2313FE4F4D4C8008E95480FFE4FEFD6C
:10046300FCEE33EF33F47004FCFD7E80D0E0FBD070
:10047300E0FAD0E0F8D0E0CFC618CEC618CDC61843
:10048300CCC6F92212149470041818182212148579
:10049300700D74FFF61819F61819F61819F622E7F5
:1004A300548066F6121518700F12150F70F014F6BB
:1004B30008F608F608F680D112150F700CF608F648
:1004C30008768008E6447F80EC12133A700C12130E
:1004D3002660BFE65480F6E480BB1213267005192C
:1004E300191980A5E869700C763F18768018F618FC
:1004F300F6E8F922E6CDC0E018ECC0E0E633CD33F0
:10050300CDD313F6E719FCE7191933CC33C3947F22
:10051300400ECD9D502408E65480F6E418F6800F73
:10052300F4043D14501408E6447FF6187680E4186A
:10053300F618F6D0E0FCD0E0FD22CCD313CCFD18A6
:10054300E4C6CBC0E018E4C6CAC0E00808ED08C69C
:1005530033E613F618E433C675F003C3CA97CA0922
:10056300CB97CB199C40047D08802EBD0003020667
:100573003016B6FF050606081618C3CA33CACB33AE
:10058300CB33CA27CA09CB37CB193CC37D08803E7E
:10059300187D0820E75CC633C6CA33CACB33CB33D6
:1005A300DDF1D5F0EB30E77BCA97CA09CB974ACB8D
:1005B300199C406F4B7025E620E0218066187D086A
:1005C300C3CA97CA09CB97CB199CD3C633C6CA33C0
:1005D300CACB33CB3350C9DDE7D5F0E1D3E4C6361C
:1005E300C608C636C608C636C608C636C61818189C
:1005F3008031C3CA97CA09CB97CB199CB34097C61E
:1006030033C6CA33CACB33CB33DD34D5F02EC6A2BF
:10061300E0C640C8CA27CA09CB37194A70BECB3CCB
:10062300B480B90808E63308E633601F181818D0F9
:10063300E0FAD0E0FBD0E0FCD0E0FD22187D08CA50
:1006430027CA09CB37CB193CD3808013F618E4B6FD
:100653007F11F618B6FF0EF618C60470D208087696
:100663008080CAF618F618F680C500121494604FFD
:100673001214856012E7548066F612132370111268
:10068300150F703B090909F4F618F618F618F62247
:10069300121337701512151808080860EAE6447F2C
:1006A300F618768018E4F618F6221215186016125A
:1006B300150F7012E4F608F608F608E65480F609FA
:1006C300090918181822EAC0E0EBC0E0ECC0E0ED1D
:1006D300C0E0E687F0A4FBACF008E687F0A42CFCAE
:1006E300E435F0FA1809E687F0A42C4B6002740194
:1006F300CA35F0FCE433FB09E687F0D2F7A42CCB30
:1007030035F0FC1908E687F0A42BCC35F0FBE43375
:10071300FD0819E687F0D2E7A42C4ACB35F0CD3497
:1007230000FC09E687F0D2E7A42DCC35F0FDE433D5
:10073300FA0918E687F0D2F7A42CCD35F0CA3400B5
:10074300FC08E687F0D2E7D2F7A42ACC35F07A7E0C
:1007530020E70B0ACB33CBCD33CDCC33CC33CB33E8
:1007630050147004ED30E00ED2F1E4CD3DCDCC3C1D
:10077300CC3B5005DA05C2F1EB547FC63308E633B0
:1007830092F0FBE73309E733C39A502D2B70190C12
:100793000D4C4D70151806E608C333700D20F10A91
:1007A300A2F013F6E418800B4024E4F630F002764E
:1007B3008018F618F618F68024D33B14501074FFF3
:1007C300A2F013F6187680E418F618F6800FA2F05C
:1007D30013F618E63303F618ECF618EDF6D0E0FD41
:1007E300D0E0FCD0E0FBD0E0FA22C0E074F1120CC0
:1007F30053A2AFE433F509D2AF85A708AFA1EF55F4
:1008030008FE74105E60061219E975A1EF74085EA4
:1008130060081219EF75A1F78024EFA2E092F0E5CA
:1008230008A2E082F05017906198E0F8900807E082
:10083300C398A2D265D0335002E8F075A1FEE50952
:10084300A2E092AF7F02020CB2C0E074F2120C532A
:10085300A2AFE433FED2AF9061A4E0F8759B00E54C
:100863009158540860087591F7121A3D8023E59159
:1008730058541060087591EF121A438014E591A241
:10088300E092F0E8A2E082F05007E0C2E0F0121B31
:100893008D9061A3E0F8E5E9585404600E121B63E0
:1008A30075E9FB906193E0A2E640F2EEA2E092AF1D
:1008B3007F01020CB2C0E074F2120C53A2AFE43316
:1008C300FED2AF9061A5E0F8E5BF58540460067509
:1008D300BFFB121BA580D412092F30F043120974F9
:1008E300803E8A088B098C0A8D0B780812092F2009
:1008F300F01430E72B74FFFCFBFA747F8022E4FCD6
:10090300FBFA7480801AB48008BC00F2BB00EF804D
:100913000F50EBF9E4C39AFAE49BFBE49CFCE499E3
:10092300C6CC18C6CB18C6CA18C6F922E4C9C6086D
:10093300CAC608CBC6D3330308CCC63392F0C394DC
:100943007F402E94184019C9B90704CACBCC225052
:1009530025C309CA33CACB33CBCC33CC33D9F42226
:10096300F4600DC9CCC313CB13CBCA13CAD9F6CCCD
:1009730022E4FCFBFA2214FCFBFA22C3E498F8E419
:1009830099F91209BF8026C3E49AFAE49BFBE92094
:10099300E7E91209BFE498F8E499F922C3E498F867
:1009A300E499F91209BFE498F8E499F9C3E49AFACF
:1009B300E49BFB22EB20E7CFE920E7E0B90010BB83
:1009C3000008E88AF084F8AAF022E4FBC8FA22EBD4
:1009D30070227B10C833C8C933C9335007C39AC3C5
:1009E300DBF280069A50012ADBEAC833F4C8C93324
:1009F300F4C9FA2275F008E4C833C8C933C933C946
:100A03009AC99B5004C92AC93BD5F0ECFBC833F4FF
:100A1300C8E4C9FA22080808EAC0E0EBC0E086F09F
:100A2300E7A4FA180986F0E7A42AFA180986F0E77A
:100A3300A42AFA180986F0E7A42AFA1986F0E7A48B
:100A4300FBE5F02AFA190886F0E7A42BFBE5F03A58
:100A5300FA190886F0E7A42BFBE5F03AFA1818090F
:100A630086F0E7A4C5F02BFBE43AFA1908E7C5F0D2
:100A7300C6A426F6E5F03BFBE43AFA1886F0E7A4B1
:100A8300F6E5F00826F6E43B08F6E43A08F6D0E08B
:100A9300FBD0E0FA22080808E630E7111212FB1235
:100AA3000AB0080808C64480C6181818221818186F
:100AB300E9799EC608CAC608CBC608CCC6C370204F
:100AC3007996CACBCC7019798ECBCC70137986CC3E
:100AD300700EF9802ACA33CACB33CBCC33CC33194B
:100AE30030E7F2CCCBCA3350147004EA30E00DE4A3
:100AF300CA3ACACB3BCBCC3CCC500209C3E913C6A0
:100B0300CC182313C6CB18C6CA18C6F922E4CFC023
:100B1300E0E4CEC0E0E4CDC0E0E4CCC0E075F0207A
:100B2300E626F608E633F608E633F608E633F61863
:100B33001818EC33FCED33FDEE33FEEF33FFC3EC5B
:100B43009709ED9709EE9709EF97191919400FFFC8
:100B5300EC97FC09ED97FD09EE97FE191906D5F000
:100B6300BFECF709EDF709EEF709EFF7191919D0FB
:100B7300E0FCD0E0FDD0E0FED0E0FF222521C582DD
:100B8300C0E0E52234FFC583C0E0E521C39582249C
:100B9300F810AF088583228582218008858322850A
:100BA3008221D2AFCEF0A3E520F0A37808E608F0C7
:100BB300A3DEFAEFF0A3E58124FAF8E608F0A3E652
:100BC30008F0A3E608F0A30808E608F0A3E608F097
:100BD300A315811581D0E0FED0E0F81581158115AC
:100BE30081E8C0E0EEC0E022C0E074F2120C53A230
:100BF300AFE433FED2AFE589A2E4500579011218C0
:100C0300F9758900C2C5EEA2E092AF7F01020CB272
:100C1300C0E074F2120C53A2AFE433FED2AFE58A04
:100C2300A2E3500579021218F9758A00C2EB80D647
:100C3300C0E074F2120C53A2AFE433FED2AFE58BE3
:100C4300A2E0500579041218F9758B00C2E880B64A
:100C5300C0D02521C582C0E0E52234FFC583C0E0B2
:100C6300E521C3958224F310AF0885832285822171
:100C73008008858322858221D2AFC8F0A3E9F0A33F
:100C8300EAF0A3EBF0A37908E709F0A3D8FAECF0B4
:100C9300A3EDF0A3EEF0A3EFF0A3D0E0F0A3D0E038
:100CA300F0A3D0E0F0A3E520F0A3E5F0F0A32285C4
:100CB3002283852182E0C0E0A3E0F9A3E0FAA3E068
:100CC300FBA37808E0F608A3DFFAE0FCA3E0FDA3AA
:100CD300E0FEA3E0FFA3E0C0E0A3E0C0E0A3E0F5F3
:100CE300D0A3E0F520A3E0A3F5F010AF088583229D
:100CF3008582218008858322858221D2AFD082D04C
:100D030083D0E0F8D0E0321212FE181818120B103C
:100D13001213F7191919221213F7191919080808C8
:100D2300E618181820E7E0120B101212FE18181814
:100D330022090909E719191920E7DC080808E61848
:100D4300181820E703020B101212FE181818120BC2
:100D5300101212FE1818181213F719191922121467
:100D6300FAB90003020DA0E4900401780779188012
:100D730002F0A3D8FCD9FA7A077B1B90008678C3CC
:100D830079028015E493A3AD82AE838A828B83F0CC
:100D9300A3AA82AB838D828E83D8E9D9E7758215A6
:100DA3007583FE740412117B75828D758330740014
:100DB30012117BE47375F0108E238F2485822885AE
:100DC3008327852182852283E0CEA3E0CF852882F5
:100DD300852783EBC9EAC8EDCBECCAC3E833C8E97E
:100DE30033C9EA33CAEB33CBC3EA9EF526EB9FF54F
:100DF30025B35004AB25AA26EC33CCED33CDD5F087
:100E0300DAAE23AF2422121494601C1214856017E7
:100E1300121518700712150F7001D322C0D01215C6
:100E23000F7006D0D0B322C32233D0D0501430E099
:100E3300F6C3E7960809E7960809E7960809E796CF
:100E4300B32220E0D5E6970809E6970809E6970854
:100E530009E697B322121494601B121485601612CC
:100E63001518700712150F600CB322C0D012150F9E
:100E73007005D0D022C32233D0D0501330E0EBC35F
:100E8300E7960809E7960809E7960809E7962220F6
:100E9300E0E4E6970809E6970809E6970809E69764
:100EA30022D083D082ECC0E0EDC0E0E493A3FCE465
:100EB30093A3FDED4C600D120F7CEC24FFFCED348D
:100EC300FFFD80EFE493A3FCE493A3FDED4C600DE1
:100ED300121045EC24FFFCED34FFFD80EFD0E0FD64
:100EE300D0E0FCE493A3C0E0E493C0E02285228336
:100EF300852182E0A3FEE0A3F5207808E0A3F608AD
:100F0300DFFAE0A3FFE0A3C0E0E0A3C0E0E0A3C0FA
:100F1300E0E0A3C0E0E0A3C0E010AF088582218534
:100F230083228008858221858322D2AFD083D08219
:100F3300021181D083D082E9C0E0E493A3C386F099
:100F4300C5F095F0F908E493A386F0C5F095F07029
:100F53000BE493A3C3994005E9048002A3E475F06D
:100F630002A42582F582E5F03583F583D0E0F9E428
:100F730093A3C0E0E493C0E022C0E0C3E4939608E7
:100F83007401939618400FE49366700808740193F4
:100F9300661870007019A3A3C3E4939608740193B1
:100FA3009618A3A3400DD0E0D0E0D0E0020EE0A35A
:100FB300A3A3A3A3A3D0E02274048004740280003B
:100FC300CCC0E0EDC0E0E521C39CCCAD2250011DB7
:100FD30010AF068C218D2280068C218D22D2AF1278
:100FE30010DFD0E0FDD0E0FC2274028000CCC0E032
:100FF300EDC0E0E521C39CCCAD2250011D10AF062E
:101003008C218D2280068C218D22D2AF1210BDD06F
:10101300E0FDD0E0FC2212149460251214856020B8
:10102300121518700302150F080808E766701018E8
:1010330019E766700A1819E76670041819E766223B
:10104300F422C0E0C0F088F0E493667008087401ED
:101053009366187000A8F0A3A3700BD0F0D0E0D073
:10106300E0D0E0020EE0A3A3D0F0D0E022D083D002
:1010730082CCC0E0E493A360061211001470FAE47A
:1010830093A3600612127D1470FAD0E0FCE493A3DC
:10109300C0E0E493C0E022C0E074F2120C53A2AFAC
:1010A300E433FED2AFC2C0E5D1A2E4500312192348
:1010B300EEA2E092AF7F01020CB2CAC0E0E493A3B8
:1010C300C582CCC582C583CDC583F0A3C582CCC5FB
:1010D30082C583CDC583DAE5D0E0CA22CAC0E0E089
:1010E300A3C582CCC582C583CDC583F0A3C582CCFD
:1010F300C582C583CDC583DAE6D0E0CA22C0E0E469
:1011030093A3D39C5010E493A3C39C400AD0E0D094
:10111300E0D0E002108DA3A3A3D0E0227009080859
:1011230008226016181818C6C333C608C633C60883
:10113300C633C608C633C6D5E0EA22C008C3E09664
:10114300F50808A3E096420808A3E096420808A31E
:10115300E09645087001D3D00822C5822521C582B7
:10116300C583352210AF07F5228582218007F5223A
:10117300858221D2AFC58322C09FF59FE473D09FA0
:1011830022D083D082C09FE493C0E0740193C0E077
:10119300740293F59F222521F58210AF08F52140B3
:1011A3000C15228008F52140021522D2AF85228337
:1011B300227404800A74038006740280027401C0DE
:1011C300E0F404121199D0E01214B02200C0D0252B
:1011D3002110AF08F521500C05228008F52150029B
:1011E3000522D2AFD0D022BB0102E722C082C08346
:1011F30089828A83BB0003E08002E493D083D08298
:1012030022C0E0C0D0E8C0E0A8A8D2AFC2C7E8A21D
:10121300E792AFD0E0F8D0D0D0E0326016080808EB
:10122300C6C313C618C613C618C613C618C613C634
:10123300D5E0EA22C3E0C696F608A3E0C696F60810
:10124300A3E0C696F608A3E0C696F6222521F8E4A5
:101253003522F9222521FAE43522FB222521FCE45B
:101263003522FD22252110AF08F521400C152280DF
:1012730008F52140021522D2AF22C0E0E493A36C0B
:101283007009D0E0D0E0D0E002108DA3A3D0E0221B
:10129300E76670100809E766700A0809E7667004D4
:1012A3000809E76622E066701008A3E066700A0882
:1012B300A3E066700408A3E06622C3E7960809E783
:1012C300960809E7960809E796A2D265D03322C3A8
:1012D300E09608A3E09608A3E09608A3E096A2D2BE
:1012E30065D03322C3E096F008A3E096F008A3E0AC
:1012F30096F008A3E096F022181818E4C396F608AF
:10130300E496F608E496F608E496F622C3E697F622
:101313000809E697F60809E697F60809E697F6221C
:10132300181818E60846087009E626087005E6331B
:10133300F4220822191919E70947097009E727094F
:101343007005E733F4220922C3E4939608740193EA
:10135300960874029396087403939622E627F60878
:1013630009E637F60809E637F60809E637F6227084
:101373000422600D18C6C333C608C633C6D5E0F4CD
:101383001822E657F60809E657F60809E657F6085D
:1013930009E657F622E056F608A3E056F608A3E05E
:1013A30056F608A3E056F622E026F608A3E036F642
:1013B30008A3E036F608A3E036F622E026F008A3F9
:1013C300E036F008A3E036F008A3E036F022E0565A
:1013D300F008A3E056F008A3E056F008A3E056F0A7
:1013E30022E647F60809E647F60809E647F608093C
:1013F300E647F622E4C397F709E497F709E497F77A
:1014030009E497F722600D08C6A2E713C618C613AE
:10141300C6D5E0F322C6F4C608C6F4C608C6F4C6A9
:1014230008C6F4C622C3E09608A3E09608A3E09694
:1014330008A3E09622C3E7960809E7960809E7960A
:101443000809E7962275D00075813F752101752241
:101453000400020D61E6F008A3E6F008A3E6F00835
:10146300A3E6F022600C08C6C313C618C613C6D57C
:10147300E0F422E0F608A3E0F608A3E0F608A3E010
:10148300F622E7094709C3134709336002E733F438
:1014930022E6084608C3134608336002E633F42203
:1014A300800100E9F874FF28F90470F622CAC0E04D
:1014B300E6F0A308DAFAD0E0FA22C5822521C58234
:1014C300C5833522C58322E0F8A3E0F9A3E0FAA39C
:1014D300E0FB22E8F0A3E9F0A3EAF0A3EBF022EAB1
:1014E300F0A3EBF0A3ECF0A3EDF022E0FAA3E0FB12
:1014F300A3E0FCA3E0FD22E5C754F84401F5C77956
:1015030001222521F582E43522F58322E7271947B5
:101513001947194722E62618461846184622C2AF2D
:1015230075D69F02000022C82521C8C93522C922C9
:10153300121184708B04121184EE8B041211842116
:101543008C041211842F8D041211844F8D041211F7
:1015530084A38D041211848B8E041211848D900444
:101563001211842F91041211847F930412118403A6
:1015730094041211840897041211843C99041211E3
:1015830084749904121184D39A04121184DD9A0489
:101593001211842C9B04121184FE9C0412118414D6
:1015A300E00612118432E006121184A8E00612113B
:1015B30084AEE00612118404E10612118424E106CC
:1015C3001211844DE10612118430DE061211846477
:1015D300DE06121184B7DE06121184BADF06121179
:1015E3008402D80612118460D806121184A2D80688
:1015F300121184C4D8061211847ED906121184C232
:10160300D906121184F7D9061211847CCD05121163
:1016130084F8CD051211842BCE0512118459CE0501
:1016230012118497CE05121184D2D005121184F1C0
:10163300D00512118436D105121184CCD1051211B3
:101643008418D205121184ACD20512118484D305F7
:10165300121184E0D3051211843ED405121184BB08
:10166300D405121184F1D4051211843CD50512114D
:101673008462D505121184F2D50512118489D60529
:10168300121184D5D60512118406D7051211843D93
:10169300D705121184C3D8051211848DD9051211EF
:1016A300845DDA05121184F3E505121184FDE50565
:1016B3001211840EE6051211842FE605121184958A
:1016C300E605121184C8E605121184E3E60512113A
:1016D3008418E70512118440E70512118475E705A4
:1016E300121184A4E705121184A1E805121184E202
:1016F300E805121184F7E80512118488E90512112F
:1017030084D7E905121184FFE90512118435EB052D
:10171300121184EDEC0512118490EF05121184AAC5
:10172300EF05121184C1EF0512118418F00512118F
:10173300840080051211843E8005121184E3800524
:10174300121184378205121184B783051211842282
:101753008505121184898605121184F287051211F9
:10176300841888051211841A890512118489890540
:101773001211849E8905121184B78905121184C838
:101783008905121184D98905121184078A0512115A
:1017930084898A051211849C8A05121184AD8A05F5
:1017A300121184E28A05121184C08C051211842956
:1017B3008D051211843B8D05121184848E0512113F
:1017C30084258F05121184AE8F051211845F900555
:1017D300121184AA9005121184ED9005121184BD93
:1017E30092051211845493051211849194051211D8
:1017F30084D79505121184F29505121184A5BF06AD
:10180300121184D1BF06121184F1BF06121184187C
:10181300C0061211845FC10612118480C106121121
:10182300843EC206121184D5C206121184D0F10679
:10183300121184D5F10612118408F2061211849054
:10184300D30612118457D40612118469D4061211D7
:1018530084BBD4061211849CED06121184ADED06EF
:101863001211844BEE0612118456EE061211846E89
:10187300EE06121184FB7F001211842DF306121160
:10188300847DEE061211848DEE06121184A2EE06FB
:1018930012118408EF06121184B9E9061211843C6F
:1018A300EA06121184A2EA0612118426DC0612113A
:1018B300843ADC06121184A1DC06121184EADC06E8
:1018C30012118412DD0612118436DD0612118459B9
:1018D300DD0612118491DD06121184B9DD061211A1
:1018E30084F4DD06121184ADEC06121184FAEC06C1
:1018F3001211840FED0612118454ED061211844265
:10190300F30612118452F30612118495F206121192
:1019130084C9CB0612118436CC06121184C5CD06B8
:101923001211842ECE0612118479CE0612118487E9
:10193300CE0612118480BF051211848EBF051211C9
:1019430084A8C0051211845FC20512118488C305DF
:1019530012118416C50512118415C6051211843897
:10196300C70512118487C805121184D4C905121141
:101973008455CA0512118427CB05121184F5CC05B1
:10198300121184209A061211844C9A061211849023
:101993009C06121184D09C06121184109D0612110C
:1019A30084249D061211843D9D061211842F9E06E8
:1019B300121184D49E06121184E89E0612118485A6
:1019C300E306121184A9E306121184C2E30612117D
:1019D30084F4E30612118424E40612118451E4060C
:1019E300121184B3E406121184C2E406121184CCEA
:1019F300E406121184D9E4061211849ACE06121158
:101A030084BACE06121184F9CE0612118414CF06BD
:101A130012118433CF0612118499CF06121184A2B6
:101A2300CF06121184FFCF061211840ED0061211B5
:101A33008432D006121184F3D00612118400D10629
:101A430012118411D10612118412EF061211845A55
:101A5300EF0612118486EF06121184DBA30612111E
:101A63008435A50612118443A50612118456A506D2
:101A73001211846BA50612118480A506121184939A
:101A8300A50612118407A6061211846CA60612116C
:101A9300840EA706121184D2A706121184E2A706A8
:101AA300121184F1A7061211845F7F00121184833F
:101AB3007F00121184AB7F00121184D37F001211B7
:101AC300843FD10612118466D10612118484D10693
:101AD300121184F7D10612118400C9061211841958
:101AE300C90612118425C90612118439C9061211B7
:101AF3008457C90612118461C9061211846BC90681
:101B03001211847EC90612118404CA061211847943
:101B1300CA06121184A8CA06121184F6CA06121143
:101B23008445CB0612118460CB061211846ACB065E
:101B33001211847BCB06121184BECB061211847D55
:101B4300F106121184C08906121184EA8906121162
:101B530084078A061211841A8A06121184308A06AF
:101B63001211848E8A06121184C68A06121184BA4F
:101B73008E06121184FF8F06121184329006121101
:101B830084959006121184F591061211841D920614
:101B93001211843292061211844292061211848623
:101BA3009206121184E19206121184F19206121127
:101BB300846BE70612118485E706121184ADE706EC
:101BC300121184C6E706121184EAE706121184088B
:101BD300E8061211841FE8061211844DE80612115B
:101BE3008468E80612118416F206121184BAB80644
:101BF300121184CAB806121184CFB90612118401D6
:101C0300BA0612118431BA0612118454BA0612119B
:101C1300846BBA06121184A5BA061211840ABB0694
:101C23001211844CBB061211848BBB06121184BCA7
:101C3300BB06121184E7BB0612118439E6061211A2
:101C43008457E606121184B7E60612118456E70696
:101C5300121184BBEB06121184AFFE01121184D35F
:101C6300FF0112118460F005121184C7F3051211EC
:101C730084B8F505121184EEF605121184CFF70529
:101C83001211844BF90512118417FA051211846B92
:101C9300FA05121184D8E106121184F9E106121132
:101CA300841EE30612118448E3061211845AF206D5
:101CB3001211846AF20612118474F206121184D688
:101CC300EC04121184D9EC0412118471F40412117E
:101CD300847DF504121184FCF604121184BEF7040A
:101CE300121184A4F8041211849BF904121184893B
:101CF300FA0412118446FB0412118476FB041211B8
:101D03008427FD04121184E3E406121184F5E4062A
:101D130012118409E6061211840CE606121184F5E9
:101D2300FE021211842BFF0212118441FF021211D1
:101D33008483FF0212118493FF02121184D7FF02DE
:101D4300121184E1FF02121184219306121184649B
:101D53009306121184C99306121184E69306121195
:101D630084FF9306121184A19406121184AA940687
:101D7300121184EF9406121184189506121184250A
:101D83009506121184A095061211842B9606121142
:101D930084709606121184BB96061211842097064E
:101DA300121184439706121184B497061211840901
:101DB3009806121184449806121184799806121118
:101DC300848B98061211849D9806121184BC980680
:101DD300121184C59806121184739906121184B6E0
:101DE3009906121184F49906121184FEEF0612115A
:101DF30084FC9E061211843CA0061211845FA00687
:101E030012118470A00612118442A2061211846278
:101E1300A206121184CCD50612118402D606121121
:101E2300844AD606121184A3D706121184EDAB059A
:101E330012118406AD0512118440AD05121184EE12
:101E4300AE051211841CAF0512118482B105121163
:101E530084C2B10512118466B305121184F6B30569
:101E63001211844AB405121184ECB4051211842EA4
:101E7300B50512118470B505121184CDB605121182
:101E8300841BB80512118452BA0512118480BA0555
:101E9300121184A7BA05121184B0BA05121184076E
:101EA300BB05121184A2BB05121184AABE0512112F
:101EB3008431BF0512118417F306121184CBB006C7
:101EC300121184E1B00612118485B106121184C483
:101ED300B106121184E1B10612118412B206121175
:101EE300845FB20612118492B206121184CDB20637
:101EF300121184C2B406121184BBEA061211841AA9
:101F0300EB0612118458EB0612118499EB06121199
:101F13008435FB03121184C0FC031211846BFD038F
:101F23001211849CFD03121184CBFD031211843E14
:101F3300FE031211845CFE0312118494FE0312113A
:101F430084CDFE0312118438FF03121184B6FF03FC
:101F5300121184C6F00612118450F9021211842F53
:101F6300FA0212118464FA0212118494FA02121111
:101F730084E2FB02121184A8FD02121184DDFE0229
:101F8300121184BDCC02121184C9CC021211842B0C
:101F9300CD0212118435CD02121184C6CD02121165
:101FA3008402CE02121184EBCE02121184FECE0201
:101FB3001211844BCF02121184DACF021211841052
:101FC300D0021211848BD0021211845AD202121140
:101FD3008454D40212118432D50212118450D602D1
:101FE30012118496D802121184D9D902121184884D
:101FF300DA0212118428DF021211841CE00212118A
:1020030084C0E002121184E5E00212118481E1022E
:1020130012118496E102121184BAE102121184288A
:10202300E20212118445E2021211846FE2021211DC
:102033008405E40212118426E402121184CCE40222
:1020430012118414E50212118469E5021211840944
:10205300E6021211846DE602121184CBE60212111C
:102063008478E702121184E6E70212118419E80268
:1020730012118487E802121184D8E9021211842E06
:10208300EA02121184CBEA0212118425ED02121125
:10209300848EED0212118404EF021211842EEF02DA
:1020A3001211844AF102121184F5F3021211841EF3
:1020B300F50212118435AC0312118439AE031211E7
:1020C3008417B303121184ADB303121184EAB3036B
:1020D30012118492B40312118496BA03121184B9B3
:1020E300BB0312118492BC03121184A4BC0312110A
:1020F30084DABC031211845EBD031211845DBE0336
:10210300121184D8BE03121184EBBE031211840D85
:10211300BF0312118471BF03121184D5BF031211BF
:1021230084CFC003121184E6C003121184DFC303FA
:10213300121184A0C4031211841CC703121184B1A9
:10214300C80312118450CB031211844BCC03121118
:102153008460CC031211844CCE0312118460CE032D
:1021630012118477CE031211848BCE031211848251
:10217300CF031211846DD0031211848ED003121178
:102183008456D403121184ACFF0512118490FA050E
:102193001211841DFB0512118497FB05121184B8DB
:1021A300FB0512118494FC0512118401FE05121122
:1021B30084179605121184499605121184C1960558
:1021C300121184C497051211842098051211849763
:1021D3009905121184B39905121184059A051211F8
:1021E30084439A05121184428906121184A89A0520
:1021F300121184019B05121184BC9B0512118436B4
:102203009C05121184609C05121184989C0512117F
:10221300840A9E05121184E39E0512118432A005DF
:1022230012118405A1051211848DA105121184D701
:10223300A105121184F1A10512118438A20512110E
:102243008458A205121184EEA20512118468A30515
:1022530012118473A305121184C8A30512118422D9
:10226300A40512118473A40512118404A705121185
:10227300849F880412118463A80512118455A9054B
:102283001211847DA90512118480A905121184D627
:102293008A041211849DA9051211841CAA05121126
:1022A3008452AA051211847EAA05121184A5AA05D7
:1022B300121184C9AA051211843AAB05121184487C
:1022C300AB051211845EAB051211847FAB051211AD
:1022D30084ADAB05121184C3AB05121184DBAB05CE
:1022E30012118489EF0612118495EF06121184C925
:1022F300EF06121184F87F00121184939E041211C9
:1023030084B69E04121184FC9F0412118445A00418
:10231300121184ADA00412118407A1041211840ABE
:10232300A10412118456A104121184C9A10412112B
:102333008451A20412118454A204121184DEA20453
:102343001211841FA304121184F4A6041211848CA5
:10235300A804121184C6A8041211842DA904121111
:10236300847BAC0412118406AD04121184F1AD0414
:102373001211842FAF041211844CB0041211840F74
:10238300B1041211847AB20412118416B304121127
:102393008423B4041211840FB60412118448B704C1
:1023A3001211848CB804121184C3D4041211846DE5
:1023B300D504121184D3D504121184ECD50412115F
:1023C3008468D604121184ACD604121184C7D704CE
:1023D30012118403D80412118483D804121184CEF9
:1023E300D80412118435D904121184B0DA041211FD
:1023F30084DEDB0412118463DC0412118469DE04BD
:1024030012118412DF04121184B6DF041211841531
:10241300E0041211848AE004121184E2E10412112F
:1024230084AAE204121184F4E20412118410E30476
:10243300121184B6E30412118402E4041211848E8F
:10244300E404121184DEE50412118490E7041211EE
:102453008452E90412118403EA041211846DEA041C
:102463001211848DEB0412118452BA04121184C622
:10247300BA041211840EBB0412118452BB0412114C
:10248300849BBB04121184E5BB041211841DBC049C
:102493001211849BBC04121184F5BC0412118449EB
:1024A300BE04121184DABE0412118432BF04121165
:1024B300844CBF0412118474BF04121184CCBF0472
:1024C3001211843BC2041211845AC2041211843EB5
:1024D300C3041211846EC404121184EBC4041211D8
:1024E300843AC5041211849BC50412118441C604A5
:1024F3001211840FC8041211840FC9041211848DA0
:10250300CA041211846ECC04121184D4CE041211A5
:102513008484D00412118454D104121184C2D104CE
:10252300121184D9D104121184D1D204121184C19D
:10253300D3041211842CD4041211843FBC0612114B
:10254300848BBD0612118448BE06121184ACBE06EC
:1025530012118420BF0612118404C3061211841FB2
:10256300C30612118463C30612118489C3061211B0
:1025730084AFC306121184C7C3061211842AC4068A
:102583001211843FC40612118462C5061211846BB2
:10259300C50612118474C5061211847DC506121175
:1025A3008487C5061211842AA80612118429AC0651
:1025B3001211842EAC0612118430AC0612118487DA
:1025C300FE04121184F9F2061211842AC6061211AE
:1025D300849BE80612118465F00612118417DA064B
:1025E300121184CDF206121184CFB4061211841E87
:1025F300F1061211842EF10612118497AC06121102
:1026030084E0FF0312118488D403121184BBD40322
:1026130012118427D503121184C2D5031211845FCA
:10262300D603121184A4D603121184C6D603121141
:1026330084DFD60312118405D70312118427D7032D
:1026430012118465D703121184A9D703121184CB05
:10265300D7031211842DD803121184F4D803121155
:1026630084ABD9031211841DDA03121184E8DA034F
:102673001211843BDB03121184A1DB03121184DBEF
:10268300DB031211842DDC031211849BDC03121172
:102693008406DD0312118409DD031211848ADD032C
:1026A30012118421DE0312118482DE03121184725B
:1026B300DF0312118491DF03121184F5E003121179
:1026C3008402E1031211840EE2031211841BE2035C
:1026D30012118424E203121184FCE3031211841601
:1026E300E5031211848FE50312118401E60312112D
:1026F3008423E603121184B7E6031211848BE803E3
:1027030012118462EC0312118476EC031211848695
:10271300EC0312118490EC0312118499EC0312114F
:1027230084A2EC03121184ACEC03121184D9EC03E0
:1027330012118402ED031211840DED031211843181
:10274300ED0312118455ED03121184BFED03121131
:102753008405EE0312118422EE031211849FEE030B
:10276300121184D6EE0312118415EF031211846241
:10277300EF03121184E8EF03121184B6F10312116F
:10278300844BF2031211842FF30312118496F50381
:10279300121184EFF50312118439F6031211849494
:1027A300F703121184D2F70312118424F8031211D0
:1027B30084D9F80312118488F903121184C5F9032B
:1027C3001211845AFA03121184C6FA0312118400F7
:1027D300800212118432800212118460800212116D
:1027E300843682021211841683021211846E8302CC
:1027F300121184A98402121184F584021211841E19
:102803008802121184118B02121184618C0212113D
:1028130084F78C02121184038D02121184358D0208
:10282300121184B88E02121184699002121184FD70
:102833009002121184409102121184BE910212116E
:1028430084DB91021211840B9202121184409202D2
:10285300121184109302121184B993021211843F4E
:1028630096021211845F97021211844A9802121180
:1028730084CC9802121184009D021211843D9D02A2
:10288300121184959D02121184C89D021211843283
:102893009E02121184689E02121184F39E02121189
:1028A300844B9F0212118422A002121184DBA00226
:1028B30012118476A1021211847EA4021211849A49
:1028C300A5021211843DA90212118431AA02121128
:1028D3008434AA0212118463AA0212118469AC021D
:1028E30012118442AD0212118485AD02121184DBF0
:1028F300AE021211841AAF02121184A3AF02121195
:1029030084D7AF021211849CB002121184B4B202B4
:1029130012118425B30212118465B302121184F3D8
:10292300B30212118415B502121184D7B502121124
:1029330084DEB702121184F6B7021211840AB802B8
:1029430012118442B80212118470B802121184EF7A
:10295300B90212118414BB0212118471BB02121149
:102963008423BC021211844ABC0212118411BD02D9
:10297300121184A9BD02121184CFBF021211840463
:10298300C00212118467C00212118496C10212118F
:10299300843EC2021211846FC20212118487C202E2
:1029A30012118416C302121184CAC502121184A221
:1029B300C702121184BEC702121184DAC7021211B0
:1029C30084A8C8021211849BCC021211844C3700D4
:1029D3001211847E37001211846D3B00121184B9E9
:1029E3003B00121184FF3B00121184A13C00121121
:1029F30084FD3C00121184423D00121184893E0083
:102A03001211849D3F001211848C43001211841013
:102A130044001211841D45001211847945001211DE
:102A230084694700121184DE4700121184E84700CD
:102A3300121184F5470012118420480012118407F3
:102A43004900121184B149001211842F4A00121156
:102A5300844F4A00121184784A001211849A4A0062
:102A6300121184FA4C00121184C04D001211840516
:102A73004E00121184824E00121184334F00121142
:102A830084654F00121184AB4F00121184E74F008D
:102A93001211843750001211848B5000121184E1FB
:102AA30050001211842D51001211849A51001211F9
:102AB30084155200121184E05300121184E0540073
:102AC30012118405560012118444590012118457BF
:102AD3005C00121184145D00121184585D00121100
:102AE30084085F001211841C5F00121184265F00AA
:102AF300121184305F001211843C5F00121184585C
:102B03005F001211840360001211844260001211ED
:102B1300844C6000121184566000121184C6600058
:102B23001211841161001211842662001211848231
:102B33006200121184036300121184C26300121134
:102B430084CB6400121184FF6500121184ED6600CA
:102B53001211840567001211846067001211847ECC
:102B63006700121184C66700121184ED6700121109
:102B7300848868001211844E6900121184E0690090
:102B83001211845A6A00121184746B001211842189
:102B93006C00121184496D00121184996D00121199
:102BA30084FD6D001211845F6E001211848D6E001E
:102BB300121184B16E00121184E66E001211841793
:102BC3006F001211844A6F001211846A6F00121190
:102BD30084D26F00121184C6700012118421710017
:102BE3001211844A7100121184D27100121184559A
:102BF3007200121184807200121184657300121125
:102C0300844374001211847B74001211849C740039
:102C1300121184DE74001211844075001211844A6B
:102C230075001211845A75001211849575001211E2
:102C330084757900121184627B00121184487D002F
:102C4300121184DF7D00121184817E00121184240D
:102C53008103121184A28103121184FE81031211D4
:102C6300844982031211846482031211848F8203C4
:102C7300121184AC8203121184B882031211844F9F
:102C83008403121184688403121184ED84031211E6
:102C9300840085031211841F8503121184C38503E5
:102CA300121184448703121184F788031211848D4F
:102CB3008903121184908903121184008A0312116B
:102CC300841E8A03121184B58A03121184FD8A03B8
:102CD300121184008B03121184C68B0312118433E7
:102CE3008C03121184598C03121184E48C03121186
:102CF30084028D03121184488D03121184FC8D0309
:102D0300121184468E03121184758E03121184D21C
:102D13008E03121184078F03121184338F03121150
:102D230084418F031211848E8F03121184FE8F034B
:102D3300121184479003121184939003121184BFDC
:102D43009003121184CA9003121184E890031211A4
:102D530084D39103121184DD910312118418920319
:102D63001211842892031211843192031211848563
:102D73009203121184999203121184C893031211BE
:102D830084DD93031211846B9403121184B09403B2
:102D93001211843C950312118447950312118489FF
:102DA3009603121184A49603121184F09603121150
:102DB300845F9703121184989703121184B29703C7
:102DC300121184F49703121184C49A0312118471AB
:102DD3009B03121184DE9B031211841E9E031211A6
:102DE30084369E03121184399E03121184459E0377
:102DF300121184599E03121184619E03121184944B
:102E03009E03121184969F031211841DA0031211B5
:102E1300848DA0031211840FA103121184D0A10386
:102E2300121184EFA10312118490A203121184EDF5
:102E3300A203121184F0A20312118464A3031211DA
:102E430084B3A403121184B9A50312118444A60305
:102E53001211845FA70312118427A8031211845847
:102E6300A8031211847BA80312118484A8031211EE
:102E730084B3A80312118443A903121184F9A9038B
:102E83001211846EAA0312118415AB031211848AE2
:102E9300AB03121184C1AB03121184FFAB031211F4
:102EA30084928A04121184EB8806121184548706D3
:102EB300121184968606121184F98506121184EF85
:102EC30085061211849985061211848585061211CF
:102ED30084E48406121184E88306121184128306A3
:102EE3001211841B81061211842F8A041211847417
:102EF30089041211846E8006121184008006121157
:102F030084728804121184DB87041211847FFE010A
:102F130012118475FE011211840AFE011211845EDE
:102F2300FC011211841CFC011211843CFB011211DF
:102F33008426FB01121184E7FA0112118442FA017B
:102F43001211843CF7011211842AF501121184F73E
:102F5300F40112118492F40112118425F401121167
:102F630084E4F3011211841DF301121184B8F201F8
:102F730012118463F20112118406F201121184DD2D
:102F8300F0011211847AF001121184C4EF011211BD
:102F930084BFEF01121184B3EF011211847C850405
:102FA300121184358204121184768104121184D3A0
:102FB300800412118492800412118473800412110C
:102FC3008440800412118466EC0112118440EC01E8
:102FD300121184E5EB0112118490EB011211842B81
:102FE300800412118451EB011211843EEB01121182
:102FF3008433EB011211840FEB011211841EE901DA
:103003001211848AA9051211849DE801121184000A
:103013008004121184EC880412118427A80512116C
:103023008459E8011211842DE80112118495E505F4
:1030330012118457E5051211842AE505121184F64D
:10304300E40512118495E4051211847DE40512113F
:103053008459E40512118422E105121184EEDE0580
:10306300121184D5DC0512118464DC05121184135A
:10307300DC0512118436DB05121184CDDB05121138
:10308300847A8906121184569A0500000080FB0099
:10309300002287000100411C350004000A1C2500A2
:1030A30002000E1C26000200101C27000200121C46
:1030B300280001001C1C290001001D1C84000400C1
:1030C300F51886000100151B2A0001001E1C2B00A9
:1030D30001001F1C2C000100231C2D0008000119F6
:1030E3002E000100241C2F000100251C30000100CC
:1030F300261C31000100271C32000100091933008E
:1031030001000A1934000100281C360001000B19C4
:1031130038000100291C39000100221C8300020031
:103123003F1C63000100171964000100201C6500A7
:103133000100211C6D000100181971000800F91825
:10314300660001003E1C430001002F1C44000200E6
:10315300301C45000100321C46000200331C4700AE
:1031630008000F1948000100351C4B000100361CF4
:1031730004000100421CA1000100451C37000100AE
:10318300441C88000100431C3C0001000C193D0055
:1031930001002A1C49000200371C670001001919AD
:1031A3004D000200391C4E0001003B1C4F00020081
:1031B3003C1C3E0001002E1C510001000D19520061
:1031C30001002C1C530001002D1C540001000E199A
:1031D3000000000000000000000020012AE80000B9
:1031E3000100200128E80000020020012BE8000074
:1031F3000300200127E800000400420102E600006A
:103203000500420102E5000006004201CFE4000090
:103213000700300129E8000000404201CFE400002C
:10322300FDFF21011EE80100200020051D1B0100F8
:10323300210020051E1B010003F02127CD1B0600E2
:1032430000001005DF170A000000E227D9170A0063
:1032530007002327D917040204F02027CF1B0204F9
:1032630000002905D117020401F02127BD1B020428
:1032730002F02127C51B030400002905D31703040B
:1032830010002905D517030414002805B61B0304F1
:1032930001F02127BF1B030402F02127C71B0504EC
:1032A30000002105D717050401F02127C11B0504E0
:1032B30002F02127C91B000136360101000102017A
:1032C30000010301000104010606050200000701D5
:1032D30000340801000F090401010D0100FF0E086D
:1032E300000017020000190100FF1A0100011B0171
:1032F30000FE1C0100081D0200001F010001200147
:103303000001210200002301000F24020000260116
:10331300000127010008280200FF2A0100072B01F2
:1033230002402C0100002D0100012E0100012F019C
:1033330000FF30010B1D310800003A0100083B017A
:10334300000F3C0100013D0100FF3E040000420468
:103353000000460400004A0400004E04000052042A
:103363000000560400005A04000001037103010326
:1033730001030103010301032203020301031003F9
:1033830000030003000300030003000300034203E0
:1033930000032403060300030003040312032503AD
:1033A300230325032303040304030003000300038F
:1033B30044030003000323030003650321003503D3
:1033C3008103000305030003000300030003250337
:1033D3002303030271023001600211027002010231
:1033E300020202028002100261023A0041006302FB
:1033F30073027202620243020002130238000002E7
:10340300000204021202000200020002000204028F
:103413000402370037003C02440200023900000274
:1034230000026502000235028102000205028202E7
:10343300830200020300710030016000110070007C
:1034430031022003500480001000610000001400CA
:103453006300730072006200430000001300060063
:103463000000000004001200000000000000000043
:1034730004000400370037003C0244000000000051
:103483000000000065000000350081000000050019
:10349300000083000000010171010101010111011C
:1034A30001013101010101018001100161013B00B2
:1034B30014006301730172016201430100011301EE
:1034C30006013D0135000401120100010001000164
:1034D300000104010401330133013C0144013201C1
:1034E3003600000100016501000135008101000182
:1034F300050182018301000136000100060000007E
:103503000F0000000000000000000000000003FFA7
:10351300FF00000403FFFF0000FFFF0FF40100059D
:10352300C4040320000100000B00000000000000A1
:103533000003010F00000000000000000000000075
:103543000000000000000000000000000000000078
:103553000000000000006D209D207320A11F792032
:10356300A3207920AF207F20A11F7920A3208520CD
:10357300A11F000000008B20A11F0000000091206C
:10358300A11F9720A11F0000000000000000000001
:103593000000000000000000000000000000000028
:1035A3000000000000000000000000000000000018
:1035B30000000000E5230100E52302001F23028031
:1035C30019230300252304002B2304803123050042
:1035D3003723060043233000612331005B2333008C
:1035E3006D23340073231100792314007F23150006
:1035F3005523FFFF00000300030004000800100030
:103603001F003E007B00F600EC01D703AF075D0F00
:10361300B91E713D0000060000001001DF1706040B
:1036230000001805E017060410002127B71B060445
:1036330011002127B91B000400002105DD17000438
:1036430001F02127C31B000400F02127BB1B00044A
:1036530002F02127CB1B07ECFDFDFDECDCDCCCBC31
:10366300ACAC9C9C8C7C7C6C6C5C5C5C4C4C3C3C47
:103673002C2C1C1C03EAF5E5D5D5C5B5A595958578
:1036830085757565655555454535352525151505E7
:103693000A452A020F2A051B2A07152A0CF7290DAA
:1036A300032AFF000000160F00000B150B02000297
:1036B300220F3300000E0F5A6967426565416C6C37
:1036C30069616E63653039D0D1D2D3D4D5D6D7D81A
:1036D300D9DADBDCDDDEDF303017181921301B1DB2
:1036E3001F3000034D4C4651181A250502000119DD
:1036F3001618161618230300303016181920231A2B
:103703001C1E30003C40423A3F3F392F47300C0EDD
:10371300020B040B0A0708000F0204020101010156
:103723000902E803000000BE040A010024000300AC
:10373300E803FF04091C0404031E1E030A0C0410FF
:103743000828020C0508150F0674F7120B7FE99081
:1037530019ECF09019A1E4F0121D07901A04E4F09B
:10376300A3F09019EDF0A3F0122B95121D0D9019F3
:1037730029E4F0A3F01225890250B274F0120B7FF2
:1037830074D3121267126B0E548060669019ECE0CA
:10379300F9121D858A088B09AF09EA4F604C7C003A
:1037A30080010CEC75F003A4F8A9F0749328F5825A
:1037B300743639F583E493F46029E493F88A828BB1
:1037C30083E06870DDEC75F003A4F8749428F58247
:1037D300743639F583E493C0E0740193F583D082A2
:1037E300120DB6AA08EFFB121D7312724064800219
:1037F3003B4D852182852283A3E05420601F122A3A
:10380300AB8A088B09AF09EA4F600A122A03AA0898
:10381300EFFB121D731272406420023B4D8521821F
:10382300852283E0A2E050429019A6E0640F702E37
:10383300900AEE12724B900AEEC3E094E9A3E0946F
:1038430003400A7A007B8090181912519479001270
:1038530029D9E96009901C0A1214EE1229F1852175
:1038630082852283E06401023B3254207003023BD1
:10387300377A207B009019ECE0F9121EE7EA4B4CF3
:103883004D701A901A001214CAE8494A4B700E750B
:103893000801750900750A00750B00806D750C0031
:1038A300750D00750E00750F00121EF38A088B0943
:1038B3008C0A8D0B901A001214CAE8494A4B6031E6
:1038C300901A00780812113E400E750CFF750DFF1B
:1038D300750EFF750F7F801985080C85090D8C0EF9
:1038E3008D0F901A00780C1212377401780C121293
:1038F3001E850C08850D09850E0A850F0BE5084505
:1039030009450A450B7003023A917C0079047A0059
:103913007B00122A818A0C8B0DAE0CAF0D0239D5B8
:10392300740212150574FFF0740312150574FFF089
:10393300740412150574FF1252071269C874071232
:10394300125F126C7EE96401706A123B594480F87D
:10395300A3E0F97428121505E8F0A3E9126F12E049
:10396300C0E0742A121505D0E01251F45408601611
:103973007428121505A3E04401123B66C0E0742CC1
:10398300121505D0E0F0126B516011E8240B1243BD
:103993004CF87416121505E8F0A3E4F090E79912B9
:1039A3000FBB740612125F740B1212571226FD74AA
:1039B300041211CF8E828F83A3A3A3A3A3A3A3A3D4
:1039C300A37406123B66F9122A63740512150512D5
:1039D3006CD5EE4F7003023A917C007904EEFAEF56
:1039E300FB122A817405121505EAF0A3EB124F1E90
:1039F300E0F50CA3E0F50DE4F50EF50F7808790C6E
:103A03001214384023EE2404F8E43FF985080C85AA
:103A1300090D8882F583C3E0950CF0A3E0950D12A0
:103A23007335E84970A4800C8E828F83A3A3A3A36C
:103A3300E4F0A3F08E828F83A3A3A3A3A3A3A3A3E2
:103A4300A3A3E064018E828F83A3A3A3A3A3A37084
:103A530020E0540460030239238E828F83A3A3A33F
:103A6300A3A3A3A3A3A37406F07AB7123C8C0239D1
:103A7300CDA3A3A3A3E060030239238E828F83A384
:103A8300A3A3A3A3A3A3A3A37401F00239CD122A72
:103A9300517C0079017A007B00122A81EA4B600392
:103AA30012518D7C0079047A007B00122A81EA4B43
:103AB300701380448A828B83A3A3A3A3126CEDEEBD
:103AC30098EF99400B8A828B83A3A3A3A3126CD58F
:103AD3007C007904122A818B0BA90BEA4970D5C3A8
:103AE300E5089EE5099F500DC3EE9508FEEF950985
:103AF300FFEE4F700D12518D901A00123B5FA3F031
:103B03008024EE2EFEEF338E08F509E4F50AF50B5B
:103B130078081211B47A20123D351211CF121EF318
:103B2300901A001214E2852182852283E06420FA30
:103B3300A3E08016A3E0540460131263A5122FD9E7
:103B430079011245131272406404FB80047A007BEE
:103B530000742D026B2DEE126B3BE022E4F0A3F018
:103B6300A3F0221251F9A3A3E022C082C08374EA16
:103B73001212677C167D007900AA21AB22121D5513
:103B830074081215057402F09019951265E1123B41
:103B9300AD74091215051265F97413121505E412B3
:103BA300627812257D74160254C3E8F0A3E9F090FD
:103BB300199F126CBD2274F7120B7F74DA1212670D
:103BC300EAFEEBFFEA4F602DAC21AD22122AC97445
:103BD30006121505E0601E7417121505E0FD740149
:103BE300121505E0FCEEFAEFFB79001229AFE9604C
:103BF3000479A48002790074260250AF74F7120B83
:103C03007FEAFEEBFF8A82F583A3A3A3A3A3A3E02A
:103C1300544060178A828B83126AEE1253D2600675
:103C23007AFF7BFF8015126AEA8003901995126967
:103C3300C874FE6A700374FF6B6041126AEA126B08
:103C430014122B5FE98E828F83600B1266D7127377
:103C530000E4F0A380031272EFF07CDF7D298E82F3
:103C63008F83124A48E9F5087015EE4F6009790110
:103C7300EEFAEFFB122A5DA9080250B27508CDAA2D
:103C830008123C8CE960E380EE8E828F831266DB40
:103C9300240CF582E438F583E0F91229EB2274F65B
:103CA300120B7FE9FEEAFF7A0F7B00121D6DEA4BD0
:103CB300601A8A828B83740CF0EEA3A3F0EF8A82DE
:103CC3008B83124E6D1262D67900802BEEF9122A85
:103CD300878B09A909EA49601C8A828B83A3A3A362
:103CE300A3A3A3A3A3A37406124E76E0F912279FFE
:103CF300EEF9122A6379100260C174F4120B7F8A01
:103D0300088B098C0A8D0B9019A6E0640F701EEACC
:103D13004B4C4D60189019A1E064086005E0640401
:103D2300700B78081211B4123D331211CF023F9871
:103D33007A017B009019ECE0F9121ED57404227409
:103D4300F4120B7F74FC121267EAFEEBFF8A82F512
:103D530083A3A3E0F9122A878A088B09EA4B70032D
:103D6300023E7B8E828F83A3A882A983E0C0E0EA10
:103D73001262CCD0E0124CDC64F160288E828F8317
:103D8300A3E064CD601E8E828F83A3E0641A601467
:103D93008E828F83A3E064E9600A8E828F83A3E01F
:103DA30064E170337900122A5DE9602BE50824048D
:103DB300F50AE43509F50B850882850983A3A3A3D6
:103DC300A3A3A3124DB2124CBA121D19850A828500
:103DD3000B83126B1480708E828F83A3E0C0E07418
:103DE30002121505D0E01254D11255F4124762C0E5
:103DF300E07403121505D0E0F0E508126FBD12441C
:103E03000BE0AA21AB2270051226F78003122B4781
:103E13007402121505E064E9702D85088285098313
:103E2300124571750A01780A1211C0750AE9780AF8
:103E33001211C0124C8E12472FFCA3E0FD8A828B15
:103E4300831247591211CF850882850983A3A3A33F
:103E5300A3A3A3A3A3A3E064027012850882850928
:103E630083A3A3A3A3A3A3A3A3A37406F08E828F08
:103E730083A3A3E0F9122A63122A51901C10124360
:103E83007D7404023F9574F4120B7FEAFEEBFF7519
:103E930008008A82F583A3A3A3A3A3E0603875086F
:103EA300081269BB79FF12282FEA4B601075082CA2
:103EB3008E828F83A3A3A3A3A3E0D2E0F08E828F8D
:103EC30083A3A3A3A3A3E0540364016003023F8479
:103ED300430811023F84EA24181258BA6036EA24D0
:103EE3001A1258BA6003F47013126C9D7003A3E0A6
:103EF300696003023F84750822023F84EA241B128F
:103F03003F88241A1258BAFAEE24191258BAF91231
:103F1300278D806D8A828B83A3A3A3A3A3A3A3A3CB
:103F2300A312436870037508018E828F83126CA1FC
:103F33007003A3E0697006E508D2E1F508E50860BF
:103F4300158E828F83A3A3E07006E508D2E5800473
:103F5300E508D2E6F5081253C564017006E508D2F8
:103F6300E0F5088E828F83A3A3E06015EE241D1273
:103F73005BD9F9122B4DE964016006E508C2E0F54F
:103F830008A9088010F582E43FF583127358EA22EA
:103F930074091211CF7F04020EF074F0120B7F74B8
:103FA300D7121267EAFEEBFF8A82F583A3A3A3A3CA
:103FB300E0600E901C0E126B586006901C0E1243AC
:103FC3007D740312125F8E828F83A3A3A31264A452
:103FD3001269C6122AC9E9700302412E78017405D9
:103FE300121505E0C3940240027800740712150508
:103FF300E0C3940240027800740C121505E064F8E3
:104003007003A3E0F4700302412E740C121505E053
:1040130064F97003A3E0F4700302412E740C1215CB
:1040230005E064FA7003A3E0F4700302412E740CFC
:10403300121505E064FB7003A3E0F4700302412E44
:104043007406121505E0F990198FE06960030241C7
:104053002EE8A2E0400302412E7427121505E0600A
:104063000302412EEE2413126CB3742212150512AF
:1040730064AE241C126CB374101215051265F97426
:1040830009121505E0601D741A121505E0FD74048C
:10409300121505E0FC8E828F831269C679011229FD
:1040A300AFE9703B74031212571229FDE9F50C7442
:1040B30009121505E0702C901989E06026742259C5
:1040C3006422601F744259644270147420121505EF
:1040D300124362600E742012150512435B60047A6A
:1040E300CF804AE9A2E6504D7420121505125BDF1A
:1040F30024FD600F14600C24FD600824FD6004247B
:10410300FE70287420121505124354700E74201289
:104113001505126205A3E0640D601A7403121257A9
:10412300122B77E96401700D0243447AD37B0012AA
:1041330022F5024344EE242DF582E43FF583124534
:10414300687003A3E069701D75080078081211C038
:1041530078081211C0EE242F1258BAF912436E12C6
:1041630047591211CF7409121505E0700302420C6E
:1041730012436E1269C8122BC58A0E8B0FEA4B705D
:104183000302429D7404121505E0F88E828F83A307
:10419300A3E028F8A3E03400F9E8240D12434CF817
:1041A3008A828B83A3A3A3E068600EE88A828B8351
:1041B300A3A3A3124E66123B607904E912150512FC
:1041C30058D9A3E02AF8A3E034008882F583A3AA90
:1041D30082AB83121D618A088B098C0A8D0B850EB5
:1041E30082850F83A3A3A3A3780812113E40030281
:1041F300434490E79D78081213AB850E82850F83A5
:10420300A3A312735EA31255FD9019A1E064046089
:1042130008E064096003024344E50CA2E54003029D
:1042230042D7EE242F1258C2F0EE24301258BAC0EF
:10423300E07401121505D0E0F0EE24311258BAC033
:10424300E07402121505D0E0F07414121505E06451
:10425300017026740E121505124CB524131258BAA8
:10426300687003A3E0697011740C1215051243689A
:1042730070077414121505E4F0EE2425F582E43F6B
:10428300F583120FBB740412125F740712125712D4
:1042930026FD74041211CF0243449019E6E0640131
:1042A300600302420C74201215051243627009E583
:1042B3000CA2E6500302420C7410121505E0F470D0
:1042C30003A3E0F4607BEEFCEFFD740312125712BC
:1042D3002A09806DA2E6506974201215051266E75B
:1042E3007016741A121505E06402705574031212E5
:1042F300577900122B418049742012150512435B34
:104303007014741A121505E06404703574031212E4
:1043130057122B35802B7420121505124354700C41
:1043230079007403121257122B838015742012150F
:1043330005126205E0640C70087403121257122B05
:104343008F7429026B2DE82406F582E439F583E0A6
:1043530022126AF4E0640322126AF4E06407221270
:104363005BE36406221253D6640222EE242BF58209
:10437300E43F127356EE1253AB22E0F508A3E0AA12
:1043830008FBE4FCFD1229F12274F4120B7FEAFE10
:10439300EBFF8C088D09901909E0600F126C9D707A
:1043A30003A3E069700512277B805379001269BB70
:1043B3001227AB8A828B83E5824583602CA3A3A358
:1043C300A3A3A3E054186021E508241C1244081297
:1043D3000FBF124404120FBFEE2418124740125E9F
:1043E300A0126C751211CF801579008E828F83A372
:1043F300A3A31266CD125EA01269C8122781023FE1
:1044030098E5082413F582E43509F5832274F7123D
:104413000B7F74F7121267EAFEEBFF9019A1E064B9
:1044230003600DE064016008E06409600302450E67
:104433008A828B83A3E060030244DC7C007D007AE4
:10444300027B00121D13126D1A8A82126CB7901927
:10445300921265F9795312256B9019A1E0640960F2
:104463000990199F1269C8122BBF85218285228367
:10447300740112621D9019A17404F0740112125791
:10448300794A122565740112125F7A977B19121FFC
:104493000B90181CE0640B70057406F0800579001E
:1044A3001245139019921266D37A037B00121D13DF
:1044B3009019951266D37A047B00121D1390198C00
:1044C300E0A2E35004D2F08002C2F012620A901C10
:1044D3000A1214EE1229F1802FFC7D007A037B105F
:1044E300121D1390181CE0640B7003740AF09019EA
:1044F3000DE4F0FA7B40125FFA8E828F83A3E0F91A
:104503001245139019A1E4F0122A3374090250AF33
:1045130090199F1269CC12270F22C082C083901971
:1045230029126B5870179019A1E024FB60051460E1
:1045330007800A90192F801F901931801AE849606B
:10454300071243496401700C8A828B83A3E0F9123A
:104553002703800E901A1B126B5860061262061214
:104563000DB6025D51126CBD90199FE06822126C6A
:10457300BDE8FAE9FB2274F5120B7F74D8121267B7
:104583008A088B098A828B83A3A3A3A3A3A3A3A3D0
:10459300E0C3940F500302472A8A828B83A3A3A309
:1045A300126CD5741512125F8A828B83A3A3A3A303
:1045B300A3A3A3A312472FFAA3E0FB122A3F741568
:1045C300121505E0702E850882850983A3A3A3A392
:1045D300A3A3A3A3E0C3940B401A8E828F83A3A348
:1045E300A3A3A3A3A3A3E064027009EE240B1258B0
:1045F300BAF4600302472A7417121505E0600764D2
:1046030002600302472A9019A1E06402601CE0647F
:10461300066017901929126B58700302472A124338
:10462300496401600302472A8025901929126B58B7
:10463300701D75080078081211C078081211C0EEB9
:1046430024101247408E828F831247591211CF8E46
:10465300828F8312732D124CE5126CB974021215FA
:10466300051264AE123B5AC0E07404121505D0E083
:10467300124762F508A3E0F509740F78081214676E
:104683007405121505E508F07419121505E0C0E06C
:104693007406121505D0E0F0741B121505E0C0E096
:1046A3007407121505D0E0F07416121505E0C0E08A
:1046B3007409121505D0E0F07417121505E0C0E077
:1046C3007408121505D0E0F0EE24101258BAC0E0B9
:1046D300740A121505D0E0F0741A121505E0C0E053
:1046E300740B121505D0E0F07427121505E0C0E035
:1046F300740C121505D0E0F0741C121505A982AADA
:104703008389088A09750A0078081211B87C087D24
:10471300007410121505AA82AB831258B11211CF7F
:10472300AA21AB22122709742802520DE0F98A82CA
:104733008B83A3A3A3A3A3A3A3A3A3E022F582E450
:104743003FF583E0F98E828F83A3A3A3A3A3A3A33F
:10475300A3A3127358221269CC122AFF740222F007
:10476300EE125EA5E02274F2120B7F74F812126748
:104773008A0A8B0B8C0C8D0D890890E696AC21ADC3
:104783002274081210DFC200AC0AAD0BAA21AB22BF
:104793001269497002D2009019ED8013AC0AAD0B77
:1047A300EE240BFAE43FFB126949701B12539C126F
:1047B300502F601EA20040E48E828F83E0650C7050
:1047C30004A3E0650D70E58E828F83A3A3E06508E3
:1047D30070DAEEFAEFFB7408024CF2C082C08390E9
:1047E30019ED025D4EC082C0839019EDE4F0A3027F
:1047F3004A4474F7120B7F9019ED127246800FEA48
:104803002414F582E4126CD2121E27EEFAEFFBEAAF
:104813004B70EC9019EDE4F0A3F00250B274F21275
:104823000B7F8A0C8B0DEDFF890B8A828B83E08CC7
:10483300828D83F0A3A882A9838A828B831248E99D
:10484300124E60E0C454F0FA88828983E04AF0ECA7
:104853002402F8E43FF9850C828B83A3A31248E971
:104863001248FCE0333354FC1248F0E03333335442
:10487300F81248F0A3E0A2E0E4331313FA88828924
:1048830083E04AF0EC2403FE50010FE50C2407F506
:1048930008E4350DF509750A0078081211B87C088B
:1048A3007D00EEFAEF1258B01211CFEE2408FE503D
:1048B300010FE50C240FF508E4350DF5097808120E
:1048C30011B87C037D00EEFAEF1258B01211CFE558
:1048D3000BC3940F400DE50C2412F582E4350D1241
:1048E3005EB4F0024CF5A3E08882898322FA8882C1
:1048F3008983E04A1248FCA322F0850C828B83A3B0
:10490300A3A3A32274F2120B7FEBFF8C0C8D0D8AF1
:1049130082F583E08C828D83127317A3A882A98307
:10492300E0125CF9124CDBC4125CF3F0EA1273215F
:10493300125D00124CD9A2E2E4338C828D83124CB7
:10494300D8131313541F125CF9A3124CD8A2E7E433
:10495300338C828D83A3A3A3A3A3A3F0EA2403FE32
:1049630050010FF5088F09750A0078081211B87CF9
:10497300087D00E50C24071258AC1211CFEE240871
:10498300FE50010FF5088F0978081211B87C037DDA
:1049930000E50C240F1258AC1211CF8E828F83A323
:1049A300A3A3E0C0E012733DD0E0F0024CF574F62F
:1049B300120B7FEAFEEBFF8A82F583A385820885CB
:1049C3008309E0F9122727850882850983E064EBD0
:1049D300601E8E828F83A3E064E160148E828F83D6
:1049E300A3E064F1600A8E828F83A3E0641A7007E8
:1049F3008E828F83A3E4F0901C0A1214EE1229F125
:104A030075080178081211C08E828F83A3E0F50820
:104A130078081211C0790090199F1266D3901995E6
:104A23001247591211CF122A510260C1C082C083AA
:104A3300E99019FF7003E4800274018004EAF0A393
:104A4300EBF0025D511269CC1225832274F6120B2E
:104A53007F9019FFE0701B7C0079017A007B0012C4
:104A63002A81EA4B600C8A828B83126B5860031293
:104A730029E50260C1C082C083124F0F401079FF45
:104A8300122A7BE9F8903746E493C39850047901DE
:104A930080027900025D5174F2120B7F8A0A8B0B3C
:104AA3008909C2008A828B83A3A3A3A3A3A3A3A37D
:104AB300E0F9122A878A0C8B0DAE0CAF0D75080135
:104AC300EA4F6003024B7B850A82850B831266CD16
:104AD300850A82850B83A3A3A3A3A3A3A3124CBA22
:104AE300122A6F8A0C8B0DAE0CAF0DEA4F700302C6
:104AF3004C878A828B83A3A3A3A3E4F0A3F0E50AE4
:104B0300240CFAE4350BFB8A82F583E0C0E0124CF7
:104B13008ED0E0F0E50A240D124CAE240D1265F39D
:104B2300122B651253B4126B14E50A2411124CAE06
:104B330024111265F3E50A2413126CE4C0E0125346
:104B4300A6D0E0F0D200EE2406F8E43FF9124CA11F
:104B5300124CDC54046003024BED901C1CE0F50A7C
:104B6300750B007407780A1213728E828F83A3A3C6
:104B7300A3A3A3A3124C98F08E828F83A3A3A3A312
:104B8300A3A3E0F50AA3E0F50B7407780A121467F0
:104B9300E50A5407FCE50960618E828F83A3A3A312
:104BA300A3A3A3A3A3A37402125207124FA4600BDF
:104BB30090198D12593AA3A31265F9EC7003024CB4
:104BC3005EEE2406F8E43FF9E8FAE9124CA1F0ECB2
:104BD30024FFF50AE434FFF50B7407780A12137205
:104BE3008A828983124C98F080718E828F83A3A36B
:104BF300A3A3A3A3E04480024B7AEC7005750800DD
:104C030080598E828F83A3A3A3A3A3A3E054206020
:104C13000C121D67EA547F7900245F80198E828FFE
:104C230083A3A3A3A3A3A3E05410601A121D67EAEE
:104C3300540F7900240A5001098E828F83A3A3A302
:104C4300A3F0A3E9800D8E828F83A3A3A3A3740192
:104C5300F0A3E4124CE57404124F25A20050288EF1
:104C6300828F83A3A3A3A31269D2F9EEFAEFFB12F7
:104C73002A75E96012126B516003124CC7EEFAEF0A
:104C8300FB121E27750800A9088067EE240CF58225
:104C9300E43FF58322E0450AF0A3E0450B22888236
:104CA300F583E0547FF0A3E054FC22F582E4350B56
:104CB300F583126CBDEE22A3E0F9850A82850B838E
:104CC3001269CC22124CCE12512422EE240FF5820B
:104CD300E43FF58322A3A3A3A3124CE022126D00A9
:104CE300E022124CE9221251FDA3A3A32274031262
:104CF30011CF7F06020EF074F4120B7F74F71212B9
:104D0300677E00122A87EA4B7003024DAD8A828BBD
:104D130083A3A3A3A3A3A3A3A3A3E06406600302A3
:104D23004DAD8A828B83A3A3A3A3A3A3A3E0FF8A8E
:104D3300828B831272DFE0C0E07408121505D0E0A5
:104D43001250D51265E61265F9122A99EF540860DC
:104D5300578521828522831266D37A007B00122A2B
:104D630069EA4B70431273487C007D007A007B0034
:104D730080228E828F83125BDFF47003A3E0F460E2
:104D83002790199F124DB21250B7601C7C007D0012
:104D9300EEFAEFFB122A698A0A8B0BAE0AAF0BEE0F
:104DA3004F70CF790012259B7E01EEF9023F9312DB
:104DB3004DB622E0FCA3E0FD8E828F8322C082C029
:104DC300838A828B83E58245837009901A04800667
:104DD3008A828B83A3A3124FD860208A828B83A3FA
:104DE300A3A3A3A3A3A3E0540860E5EC4D601012B2
:104DF3004FDE7003A3E06D70D780047A007B00025E
:104E03005D5174F2120B7F8A088B09890AECFEED5F
:104E1300FF7A147B00121E21EA4B60378A828B8350
:104E2300A3A3A3A3A3A3A3A3A3E4124E76E50A1209
:104E330050C1EEF0A3EF124E661250DC124E6D8A93
:104E4300828B83127360124E59126A4FA3124E6003
:104E5300F0A3F0024CF5EA240FF582E42212731B4F
:104E6300A3A3221250C7E4F0A322A3F01272D81214
:104E73006A4F22124E7A221250CBA3A3A3A3227409
:104E8300F5120B7FEAFEEBFF890A8C088D09EA4FC6
:104E9300607574016970127901122A7BE9F8903701
:104EA30048E493C3985015800A7404697009124F3B
:104EB3000F500979118052740269704B8E828F836F
:104EC300A3A3A3A3A3A3A3A3A3E50A124F1E12554F
:104ED300F4126BD9A3E4F0A3F0901A04126B586098
:104EE300188003126CB988828983A3A3124FD888D0
:104EF300828983A3A370EC8003901A04EEF0A3EFDE
:104F0300124F257900800279C10252107904122AC6
:104F13007BE9F8903747E493C39822126BDDA3A390
:104F2300A322F07A207B009019ECE0F9121DAF2246
:104F3300C082C083E9F87900901A04801D8A828BAD
:104F430083A3A3A3A3A3A3A3A3A3E068600574FF00
:104F5300687001098A828B83A3A3124FD870DE0283
:104F63005D5174F7120B7FEA4B7005901A048006AB
:104F73008A828B83A3A3124FD8601F8A828B83A359
:104F8300A3A3A3A3A3A3A3A3E06970E4EC600F8A84
:104F9300828B83124FA470D880047A007B00025066
:104FA300B21272F8E0540422C082C083901A0480C3
:104FB300068A828B83A3A3124FD860128A828B83C3
:104FC300A3A3A3A3A3A3A3A3E06970E580047A002A
:104FD3007B00025D511269CCEA4B228A828B8312D9
:104FE3005BE36C2274F2120B7F8A0A8B0B8C0C8DA1
:104FF3000D750800750900EA4B602A901A048006B3
:105003008E828F83A3A312502F601AAC0CAD0DEECA
:10501300FAEFFB850A82850B83120DB6E9640170F2
:10502300DF8E088F09AA08AB09024CF5E0FEA3E066
:10503300FFEE4F2274F7120B7F901A04126CB97CA7
:10504300007D00800DE8FCE9FD88828983A3A3121B
:105053006CB9E8496030EA687002EB6970E7901A4E
:10506300041269C8E86A7002E96B88828983A3A382
:105073007008126CB9901A048009126CB98C828D75
:1050830083A3A31265F9802774F7120B7FEAFEEB63
:10509300FFEA4F6015122A93125110126B516003ED
:1050A300124CC7EEFAEFFB121E2780031211CF7FBB
:1050B30001020EF01269CC12258FE9641A221250F4
:1050C300C7A3A3221250CB22F08A828B83A3A3A36C
:1050D300A32212731B125BE322124E7AA32274F6ED
:1050E300120B7F901A04126CD58014126CF21251B9
:1050F30010124CC7EEFAEFFB121E27AE08AF09EEF3
:105103004F70E8901A04E4F0A3F00260C18E828F1E
:10511300831272CCF5831251248E828F8312512411
:1051230022E0FAA3E0FB121E2722C082C083EAFC1E
:10513300EBFDEA4D6017EA24FBF582EB34FF126BBB
:10514300567007125182E0F46007121D73790580CF
:105153002B9019ECE0C0E0125182D0E0F090373F81
:10516300E493F97A067B1A121DA9E96401700B7A9C
:10517300007B20125191790080027904025D51EA8B
:1051830024FFF582EB34FFF583227A207B0090190C
:10519300ECE0F9121DAF2274F4120B7FA2AFE433DB
:1051A300F508C2AF901A0612502F6038EE24FBF5B3
:1051B30082EF34FF126B567A007B209019EC600566
:1051C3001251948005E0F9121DB5E4F50AF50B7848
:1051D3000A1211BCEEFCEFFD7A067B1A121DA374B2
:1051E300021211CFE508A2E092AFEEFAEFFB023F05
:1051F300981251F9E0221251FD22125207A3A3A3E0
:10520300A3A3A322F08E828F83221211CF7F0302E6
:105213000EF074F2120B7F74FA121267EAFEEBFFC0
:105223007508FE7509FF122A57E9600579110253C3
:10523300971258B7603C901C36E0C43354E0F8E052
:10524300333354FC48C0E0EE1262C63FF583D0E02E
:10525300126D14FAA3E0FB79FF12282FEA4B6012B8
:105263007508FFEE240F1258BA4404F01258B7D24F
:10527300E0F08E828F831253D06006EE2412126DFB
:105283002CEE24131258BA700D90373DE493C0E00E
:105293001253A6D0E0F08E828F83E0A2E75004542D
:1052A300038019EE24141258BA701290197EE0C0CC
:1052B300E012539CD0E0F090197EE004F0EE24114C
:1052C3001258BA64017016901C20E0600D90198981
:1052D300E0700A8E828F83E07003126D298E828FB5
:1052E30083E064017013EE240B125BD9640270092E
:1052F300EE240F1258BA4440F0AC21AD22EEFAEF7F
:10530300FB122AC38A0A8B0B74FE6508700374FFB1
:10531300F47003126CF2EA4B60768E828F83E0C0E6
:10532300E07401121505D0E0F07404121505EEF0D7
:10533300A3EFF0EE241E126CB3740212150512656E
:10534300F9740112124F880C890D780C1211BCEEFE
:1053530024201253B91211C01253B4120FBFEE24FA
:105363000E1253B91211C0901992120FBF74081282
:105373001505E0F9AC08AD09122ABD74081211CF66
:10538300E9FE74106E700BAA0AAB0B121E27800283
:105393007E10EEF97406024CF2EE2414F582E43F1B
:1053A300F58322EE1253AB222413F582E43FF583F7
:1053B30022EE124CCF22F582E43FF583E0F50C7820
:1053C3000C228E828F83A3A3A3A3A3A3A3A3A312BD
:1053D30053D622E0FAA3E0FB122B5FE922C082C07E
:1053E3008374D712126790DEF6740312125F742669
:1053F3001210DF8A828B83A3A3A3A3126CB9740E4A
:10540300121505126B5E126CB9740C121505125449
:10541300D9240D1254C9C0E0741A121505D0E0F056
:10542300126A55126CB774201215051254D924153B
:105433001254C9C0E07408121505D0E0F0EA241C28
:10544300F582E43B126CB774121215051254D92479
:10545300111254C9C0E07409121505D0E0F0EA2412
:10546300121254C9C0E07407121505D0E0F0EA2403
:105473001EF582E43B126CB774241215051254D93D
:1054830024201254C9C0E07426121505D0E012542A
:10549300D174FFF0740112150574FFF07402121534
:1054A3000574FFF090E799120FBB740412125F7436
:1054B300071212571226FD74041211CF79007429B2
:1054C3001211CF025D51F582E43BF583E022F085B2
:1054D300218285228322E8F0A3E9F0EA2274F41200
:1054E3000B7F74EC1212678A0A8B0B8C088D09E907
:1054F300FF7E107A217B00121E2185218285228363
:10550300EAF0A3EB126B68E84970030255ED7C21C6
:105513007D007900852182852283E0FA121D559052
:10552300199F1269C88521828522831266D72409AF
:10553300F582E438F583126B147420121505126C8E
:10554300B97411121505E8125C48126B1A38F58309
:105553007402125C4B1272E67402125C351255F43B
:10556300125C4B1272C3EFF07422121505125BF634
:10557300F9A3E0C9126FBD39F583E812590BA3E013
:10558300C9241FF582E4391255FB74231215051241
:1055930069C87406121505126B147408121505E810
:1055A300F07426121505126AEEC082C083740C12C1
:1055B3001505AC82AD83D083D08274051210DF74DD
:1055C30025121505E0C0E07413121505D0E0F0793B
:1055D30000AA21AB22122A5DE9640170047E0080D7
:1055E30009852182852283124CCAEEF97414023F85
:1055F30095E508F0A3E50922F583E50AF0A3E50B99
:10560300F02274F0120B7F74FF121267EAFEEBFFB5
:105613008C088D098A82F583A37408F0EA24161294
:1056230058BA60088A828B83A37410F0EA24171295
:1056330058BA60098A828B83A3E02408F0EA1258DF
:10564300B860088A828B83A3E004F08A828B83A3E9
:10565300A3A3A3A3A3E060198A828B83A3A3A3A319
:10566300A3A3A3E0C3332402F88A828B83A3E02895
:10567300F0EA24111258C26004740E8001E4F09021
:105683001C2EE0640170168A828B83E06401600D36
:1056930090190DE060071258A2740180041258A2F9
:1056A300E412590B8A828B83A3E0F8EA123B5A284F
:1056B300298C828D83F0EA24111258BA6005125E98
:1056C300E329F0850882850983E0C3947540097551
:1056D3000C00750D00025899E0FA7B00121E218A16
:1056E3000C8B0DEA4B70030258998E828F83E0FA7C
:1056F30090198F12590474027808121372EA45083C
:10570300FAAB09EE24121258FE74067808121372CB
:10571300A808EA48FCEBFD1258B760047801800240
:105723007800EE2416FAE43FFBE4C8F9ED49FDEEF8
:1057330024111258BAF508880974097808121372EB
:10574300ED4509FD8A828B83125904740B78081284
:105753001372ED4509FDEE24171258FE740C7808F8
:10576300121372ED4509FD8E828F83A3A3A3A3A316
:10577300A3125904740A7808121372ED4509FDEE59
:1057830024231258FE740D7808121372ED4509F99B
:10579300EC850C82850D83F0E9A3F0EE2402125808
:1057A300E1125920F0EE24041258E1A3A312592068
:1057B300A3A3F0EE24131258F1F0EE24141258F1BF
:1057C300A3F0750B088A828B83E06015126BCA12F3
:1057D30066D3E50C2408FAE4350DFB121F0B750B99
:1057E30010EE24171258BA60191267561266D3A81E
:1057F3000BE50C28FAE4350DFB121F0B7408250B7F
:10580300F50B8E828F83A3A3A3A3A3A3E0604EEE25
:105813002407F50EE43FF50F850E82F583E0C0E023
:105823001258D0D0E0125910E0C0E0081258D2D07C
:10583300E0125910A3126B441211B8850E82850F22
:1058430083E0125BAAA80BE50C281258AC1211CF07
:10585300850E82850F83E0C333250BF50B1258B7F2
:105863006008C0E01258D0D0E0F0125EA0126B4482
:105873001211B8123B59FC7D00740312150512581E
:10588300D9E0F8E50C28F8E4350DF9E82AFAE4390B
:105893001258B01211CFAA0CAB0D7401026B2DEA92
:1058A3002423F582E43FF58322FAE4350DFB121D30
:1058B30049740322EE2415F582E43FF583E022F5D3
:1058C30082E43FF583E085218285228322A80BE5CC
:1058D3000C28125BBD22E0FA8E828F83A322F8E4A8
:1058E3003FF98882F583E0850C82850D8322F5825A
:1058F300E43FF58312592AA3A3A322F582E43FF5DB
:1059030083E0F50875090022127309F922F0050BEB
:105913008E828F83A3A3A3A3A3A3A3A322A3A312D0
:105923006D00A312592A22E0850C82850D83A3A35F
:10593300A3227403023F95126CBD8E828F83A3A3AF
:105943002274F0120B7F74FD121267126B0E740235
:10595300121505E9F08C0C8D0D750B017C267D006D
:105963007900AA0CAB0D121D557402121505E0C384
:1059730094085003025B331258E9F0AC0CAD0D856B
:105983002182852283125BDFFA852182852283129D
:105993006205125EDCE96003750B008521828522B6
:1059A30083126AEE125C00E0F9EA850C82850D83AE
:1059B300A3A3A3A3A3A3A3A3A3F0A3E9125C35A367
:1059C300A3125C00A3A3E0F9E50C126B6DEA125C71
:1059D300481266C3C0E0E50C2411127341D0E012F3
:1059E3005C4B2407F582E438F583E0C0E012733D95
:1059F300D0E0126B017408125C2CA3E060268521B1
:105A030082852283E02408F8A3E03400F9E50C241E
:105A130013F582E4350D1265F7850C82850D83A39A
:105A2300E02408F0850C82850D83A3A3A3A3A3A37D
:105A3300A3A3E0602A850C82850D83A385820E854E
:105A4300830F125BEDF8A3E03400F9E50C1262C694
:105A5300350D1265F7850E82850F83E02408F01259
:105A63005BB1E4F0125BC5E4F0A3126B01A3A3A343
:105A7300A3E06011125C11850C82850D83A3A3A39F
:105A8300A3A3125C3DE50C125BD2E07003025B1F23
:105A9300125C11FA125BB1EA125C3DF88521828532
:105AA3002283E028FBA3E034008B82F583E0F8E552
:105AB3000C241A127341E8125C3DE8C39AE50C50BA
:105AC30056125BCDF8903740E493C39850047E0C94
:105AD3008006E50C125BCDFE850C82850D83125B7F
:105AE300ECF508A3E03400F509750A0078081211F3
:105AF300B8EE125BAA7A647B0C1258B11211CF1262
:105B03005BC57464F0A3740CF0EEC333F8850E82A6
:105B1300850F83E0288004125BD2E4F0850C828534
:105B23000D83A3E0F8850C82850D83E0C3985004B0
