:020000040000FA
:060000000213A902089F93
:03002B0002115C63
:03003300020C1AA2
:0300430002102A7E
:030053000207D4CD
:03006B00020BD2B3
:03007B00020BFA7B
:10008300020833010000000000F8FF07FFFF000033
:100093000504000000030001FFFFFFFF00451014EB
:1000A3001027000000920B001000E09D10002000BC
:1000B3000080180030000020FD00020000CC1A0070
:1000C30000000000002C1B000000000000000000E6
:1000D300000000000000000000000000000000001D
:1000E3000000000000000006FFFF1E20FEFFFEFFD1
:1000F300FEFFFEFFFEFFFEFFFFFFFF01FFFFFFFE10
:10010300FF401F0000AC1F000000000000000000C3
:10011300000000000000000000FF3C003C00450020
:1001230032000100E8030A000A000A000A000A007C
:100133001E00030104010C00020652B6065EB6035C
:100143000401070102017CB8025BB80404010C003E
:1001530002017AB80176B8010400003717000000E5
:10016300E8030000FFFF88170188130000E803007D
:100173000064006400B801A0BB0D00A0BB0D000229
:100183000202070401051E02051E020A0A010108F4
:10019300080103B80B02803E0102FEFFE8030A05D3
:1001A3000001FFFF020A1401E00100B0423BAAB8BC
:1001B3003F8C906339AA0CA33A00941E3C8042639F
:1001C3003DCFFE753E1572313FF304353F809618DF
:1001D3004B000080BF2292D43EDD9B2A3F040000E7
:1001E30040FFFF7F7FFFFF7FFF01008034187231E4
:1001F3003F02000000050301010F03000300030099
:1002030003000300030003000300030005000A00CA
:10021300140028004F009E00000047320000000039
:100223007D3100000000FF000000FF001213D760C3
:10023300461213F5603DE9687008F618F618F618CB
:10024300F622748067F7120263090909748067F75D
:10025300221213F5601D1213D77005191919801A8C
:10026300121295701F1212A9C37003E6673319198E
:100273001940071818182208080874FFF618F6180A
:10028300F618F6221212A96017121463702192F065
:1002930012146C7019501720F01408080809090982
:1002A300E7F61819E7F61819E7F61819E7F6221210
:1002B300146C60E6E869701F0808E62480F608E419
:1002C30036F618547FB47F0CE654806007F6E418C2
:1002D300F618F622181822E9C6CC08C6CD08C6CEF1
:1002E30008C6CFC0E0E8C0E0EAC0E0EBC0E009E93F
:1002F300F809E7FA09E7FBE6F918E6F8C3EC98ED25
:1003030099EE9AEBC2E7F5F0EFC2E795F0500E6075
:100313000CEBCFFBEACEFAE9CDF9E8CCF8EAA2E799
:10032300D2E7FAEB33FB13F5F0EEA2E7D2E7FEEFE9
:1003330033FFC5F013A2E730E601B313C5F0C3C022
:10034300E0C0F07F00C39BFB605E9418600F401D0C
:1003530014601AD0E023F9D0E0F80204358AF0E9FA
:10036300486003D2F0E4AFF0FAF9F8803BEB30E4F5
:100373000D89F0EA6003D2F0E4AFF0F9CAF8EB308C
:10038300E30D88F0EF6002D2F0AFF0E4CAC9F8EBF6
:1003930054076014FBC3EA13FAE913F9E813F8EFFF
:1003A300135002D2E0FFDBEDD0E0C0E030E739C309
:1003B300E49FFFF5F0EC98FC42F0ED99FD42F0EE7E
:1003C3009AFE42F0D0E0F9D0E0F8E5F0607AE92354
:1003D300F9EE20E742D8028067C3EF33FFEC33FC2A
:1003E300ED33FDEE33FE80EAEC28FCED39FDEE3A09
:1003F300FED0E023F9D0E0F84002801BC3EE13FEE9
:10040300ED13FDEC13FCEF135002D2E0FF08B8002C
:10041300067F7F74FF802EEF3350178CF020F0029D
:1004230060100CBC000C0DBD00080EBE000408E8F3
:1004330060DFE933E813FFEE2313FE4F4D4C8008D2
:10044300E95480FFE4FEFDFCEE33EF33F47004FC6B
:10045300FD7E80D0E0FBD0E0FAD0E0F8D0E0CFC65C
:1004630018CEC618CDC618CCC6F9221213F57004DF
:10047300181818221213D7700D74FFF61819F618EE
:1004830019F61819F622E7548066F612146C700FE9
:1004930012146370F014F608F608F608F680D11209
:1004A3001463700CF608F608768008E6447F80EC47
:1004B3001212AC700C12129860BFE65480F6E480FE
:1004C300BB121298700519191980A5E869700C768A
:1004D3003F18768018F618F6E8F922E6CDC0E01842
:1004E300ECC0E0E633CD33CDD313F6E719FCE719BF
:1004F3001933CC33C3947F400ECD9D502408E6546A
:1005030080F6E418F6800FF4043D14501408E64412
:100513007FF6187680E418F618F6D0E0FCD0E0FDFC
:1005230022CCD313CCFD18E4C6CBC0E018E4C6CA72
:10053300C0E00808ED08C633E613F618E433C675C1
:10054300F003C3CA97CA09CB97CB199C40047D0813
:10055300802EBD000302061716B6FF050606081611
:1005630018C3CA33CACB33CB33CA27CA09CB37CB59
:10057300193CC37D08803E187D0820E75CC633C65E
:10058300CA33CACB33CB33DDF1D5F0EB30E77BCACB
:1005930097CA09CB974ACB199C406F4B7025E6202D
:1005A300E0218066187D08C3CA97CA09CB97CB1987
:1005B3009CD3C633C6CA33CACB33CB3350C9DDE76A
:1005C300D5F0E1D3E4C636C608C636C608C636C675
:1005D30008C636C61818188031C3CA97CA09CB97FC
:1005E300CB199CB34097C633C6CA33CACB33CB337C
:1005F300DD34D5F02EC6A2E0C640C8CA27CA09CB4F
:1006030037194A70BECB3CB480B90808E63308E614
:1006130033601F181818D0E0FAD0E0FBD0E0FCD00C
:10062300E0FD22187D08CA27CA09CB37CB193CD372
:10063300808013F618E4B67F11F618B6FF0EF6188D
:10064300C60470D20808768080CAF618F618F680B9
:10065300C5001213F5604F1213D76012E75480667A
:10066300F61212957011121463703B090909F4F61E
:1006730018F618F618F6221212A9701512146C083F
:10068300080860EAE6447FF618768018E4F618F660
:100693002212146C60161214637012E4F608F60842
:1006A300F608E65480F609090918181822EAC0E08A
:1006B300EBC0E0ECC0E0EDC0E0E687F0A4FBACF0FB
:1006C30008E687F0A42CFCE435F0FA1809E687F075
:1006D300A42C4B60027401CA35F0FCE433FB09E639
:1006E30087F0D2F7A42CCB35F0FC1908E687F0A4E9
:1006F3002BCC35F0FBE433FD0819E687F0D2E7A4F1
:100703002C4ACB35F0CD3400FC09E687F0D2E7A4C0
:100713002DCC35F0FDE433FA0918E687F0D2F7A4BF
:100723002CCD35F0CA3400FC08E687F0D2E7D2F7C7
:10073300A42ACC35F07A7E20E70B0ACB33CBCD331A
:10074300CDCC33CC33CB3350147004ED30E00ED228
:10075300F1E4CD3DCDCC3CCC3B5005DA05C2F1EB09
:10076300547FC63308E63392F0FBE73309E733C31C
:100773009A502D2B70190C0D4C4D70151806E60868
:10078300C333700D20F10AA2F013F6E418800B4076
:1007930024E4F630F002768018F618F618F6802472
:1007A300D33B14501074FFA2F013F6187680E418AC
:1007B300F618F6800FA2F013F618E63303F618ECDA
:1007C300F618EDF6D0E0FDD0E0FCD0E0FBD0E0FA87
:1007D30022C0E074F1120C3AA2AFE433F509D2AFB0
:1007E30085A708AFA1EF5508FE74105E60061218C6
:1007F3005075A1EF74085E600812185675A1F78052
:1008030024EFA2E092F0E508A2E082F05017906195
:1008130098E0F890073FE0C398A2D265D033500226
:10082300E8F075A1FEE509A2E092AF7F02020C9900
:10083300C0E074F2120C3AA2AFE433FED2AF90617F
:10084300A4E0F8759B00E59158540860087591F78A
:100853001218A48023E59158541060087591EF1283
:1008630018AA8014E591A2E092F0E8A2E082F05089
:1008730007E0C2E0F01219F49061A3E0F8E5E9584B
:100883005404600E1219CA75E9FB906193E0A2E665
:1008930040F2EEA2E092AF7F01020C99C0E074F245
:1008A300120C3AA2AFE433FED2AF9061A5E0F8E5B3
:1008B300BF585404600675BFFB121A0C80D412098A
:1008C3001630F04312095B803E8A088B098C0A8D2F
:1008D3000B780812091620F01430E72B74FFFCFB89
:1008E300FA747F8022E4FCFBFA7480801AB48008D7
:1008F300BC00F2BB00EF800F50EBF9E4C39AFAE4BB
:100903009BFBE49CFCE499C6CC18C6CB18C6CA185A
:10091300C6F922E4C9C608CAC608CBC6D33303083E
:10092300CCC63392F0C3947F402E94184019C9B9B2
:100933000704CACBCC225025C309CA33CACB33CB55
:10094300CC33CC33D9F422F4600DC9CCC313CB130D
:10095300CBCA13CAD9F6CC22E4FCFBFA2214FCFB63
:10096300FA22C3E498F8E499F91209A68026C3E4AD
:100973009AFAE49BFBE920E7E91209A6E498F8E474
:1009830099F922C3E498F8E499F91209A6E498F8CE
:10099300E499F9C3E49AFAE49BFB22EB20E7CFE95D
:1009A30020E7E0B90010BB0008E88AF084F8AAF059
:1009B30022E4FBC8FA22EB70227B10C833C8C93388
:1009C300C9335007C39AC3DBF280069A50012ADB6E
:1009D300EAC833F4C8C933F4C9FA2275F008E4C885
:1009E30033C8C933C933C99AC99B5004C92AC93BFF
:1009F300D5F0ECFBC833F4C8E4C9FA22080808EAC6
:100A0300C0E0EBC0E086F0E7A4FA180986F0E7A49B
:100A13002AFA180986F0E7A42AFA180986F0E7A447
:100A23002AFA1986F0E7A4FBE5F02AFA190886F0FA
:100A3300E7A42BFBE5F03AFA190886F0E7A42BFBB1
:100A4300E5F03AFA18180986F0E7A4C5F02BFBE4A1
:100A53003AFA1908E7C5F0C6A426F6E5F03BFBE42D
:100A63003AFA1886F0E7A4F6E5F00826F6E43B0820
:100A7300F6E43A08F6D0E0FBD0E0FA22080808E6EC
:100A830030E711121259120A97080808C64480C6A3
:100A930018181822181818E9799EC608CAC608CB70
:100AA300C608CCC6C370207996CACBCC7019798E90
:100AB300CBCC70137986CC700EF9802ACA33CACB9B
:100AC30033CBCC33CC331930E7F2CCCBCA3350140D
:100AD3007004EA30E00DE4CA3ACACB3BCBCC3CCC41
:100AE300500209C3E913C6CC182313C6CB18C6CAD0
:100AF30018C6F922E4CFC0E0E4CEC0E0E4CDC0E004
:100B0300E4CCC0E075F020E626F608E633F608E606
:100B130033F608E633F6181818EC33FCED33FDEE24
:100B230033FEEF33FFC3EC9709ED9709EE9709EF17
:100B330097191919400FFFEC97FC09ED97FD09EE82
:100B430097FE191906D5F0BFECF709EDF709EEF793
:100B530009EFF7191919D0E0FCD0E0FDD0E0FED081
:100B6300E0FF222521C582C0E0E52234FFC583C012
:100B7300E0E521C3958224F810AF0885832285829E
:100B8300218008858322858221D2AFCEF0A3E52080
:100B9300F0A37808E608F0A3DEFAEFF0A3E58124DA
:100BA300FAF8E608F0A3E608F0A3E608F0A30808BD
:100BB300E608F0A3E608F0A315811581D0E0FED086
:100BC300E0F8158115811581E8C0E0EEC0E022C090
:100BD300E074F2120C3AA2AFE433FED2AFE589A27D
:100BE300E45005790112176C758900C2C5EEA2E0C5
:100BF30092AF7F01020C99C0E074F2120C3AA2AFDB
:100C0300E433FED2AFE58AA2E35005790212176CF2
:100C1300758A00C2EB80D6C0E074F2120C3AA2AF20
:100C2300E433FED2AFE58BA2E05005790412176CD2
:100C3300758B00C2E880B6C0D02521C582C0E0E52F
:100C43002234FFC583C0E0E521C3958224F310AFAE
:100C5300088583228582218008858322858221D28B
:100C6300AFC8F0A3E9F0A3EAF0A3EBF0A37908E798
:100C730009F0A3D8FAECF0A3EDF0A3EEF0A3EFF0A4
:100C8300A3D0E0F0A3D0E0F0A3D0E0F0A3E520F000
:100C9300A3E5F0F0A322852283852182E0C0E0A3AF
:100CA300E0F9A3E0FAA3E0FBA37808E0F608A3DFEA
:100CB300FAE0FCA3E0FDA3E0FEA3E0FFA3E0C0E0B5
:100CC300A3E0C0E0A3E0F5D0A3E0F520A3E0A3F503
:100CD300F010AF08858322858221800885832285D1
:100CE3008221D2AFD082D083D0E0F8D0E032121488
:100CF3004EB90003020D30E4900401782579178082
:100D030002F0A3D8FCD9FA7A257B1A90008678AA38
:100D130079028015E493A3AD82AE838A828B83F03C
:100D2300A3AA82AB838D828E83D8E9D9E775821417
:100D330075839474061210ED7582A075832E74006A
:100D43001210EDE47375F0108E238F2485822885AD
:100D53008327852182852283E0CEA3E0CF85288265
:100D6300852783EBC9EAC8EDCBECCAC3E833C8E9EE
:100D730033C9EA33CAEB33CBC3EA9EF526EB9FF5BF
:100D830025B35004AB25AA26EC33CCED33CDD5F0F7
:100D9300DAAE23AF24221213F5601C1213D76017A7
:100DA30012146C70071214637001D322C0D0121492
:100DB300637006D0D0B322C32233D0D0501430E0B6
:100DC300F6C3E7960809E7960809E7960809E79640
:100DD300B32220E0D5E6970809E6970809E69708C5
:100DE30009E697B3221213F5601B1213D76016128C
:100DF300146C7007121463600CB322C0D012146316
:100E03007005D0D022C32233D0D0501330E0EBC3CF
:100E1300E7960809E7960809E7960809E796222066
:100E2300E0E4E6970809E6970809E6970809E697D4
:100E330022D083D082ECC0E0EDC0E0E493A3FCE4D5
:100E430093A3FDED4C600D120F0CEC24FFFCED346D
:100E5300FFFD80EFE493A3FCE493A3FDED4C600D51
:100E6300120FD5EC24FFFCED34FFFD80EFD0E0FD45
:100E7300D0E0FCE493A3C0E0E493C0E022852283A6
:100E8300852182E0A3FEE0A3F5207808E0A3F6081D
:100E9300DFFAE0A3FFE0A3C0E0E0A3C0E0E0A3C06B
:100EA300E0E0A3C0E0E0A3C0E010AF0885822185A5
:100EB30083228008858221858322D2AFD083D0828A
:100EC3000210F3D083D082E9C0E0E493A3C386F099
:100ED300C5F095F0F908E493A386F0C5F095F0709A
:100EE3000BE493A3C3994005E9048002A3E475F0DE
:100EF30002A42582F582E5F03583F583D0E0F9E499
:100F030093A3C0E0E493C0E022C0E0C3E493960857
:100F13007401939618400FE4936670080874019364
:100F2300661870007019A3A3C3E493960874019321
:100F33009618A3A3400DD0E0D0E0D0E0020E70A33A
:100F4300A3A3A3A3A3D0E0227404800474028000AB
:100F5300CCC0E0EDC0E0E521C39CCCAD2250011D27
:100F630010AF068C218D2280068C218D22D2AF12E8
:100F7300106FD0E0FDD0E0FC2274028000CCC0E012
:100F8300EDC0E0E521C39CCCAD2250011D10AF069E
:100F93008C218D2280068C218D22D2AF12104DD050
:100FA300E0FDD0E0FC221213F560251213D7602078
:100FB30012146C7003021463080808E766701018B3
:100FC30019E766700A1819E76670041819E76622AC
:100FD300F422C0E0C0F088F0E4936670080874015E
:100FE3009366187000A8F0A3A3700BD0F0D0E0D0E4
:100FF300E0D0E0020E70A3A3D0F0D0E022D083D0E3
:1010030082CCC0E0E493A360061210AF1470FAE43C
:1010130093A360061211EF1470FAD0E0FCE493A3DB
:10102300C0E0E493C0E022C0E074F2120C3AA2AF35
:10103300E433FED2AFC2C0E5D1A2E450031217A23B
:10104300EEA2E092AF7F01020C99CAC0E0E493A341
:10105300C582CCC582C583CDC583F0A3C582CCC56B
:1010630082C583CDC583DAE5D0E0CA22CAC0E0E0F9
:10107300A3C582CCC582C583CDC583F0A3C582CC6D
:10108300C582C583CDC583DAE6D0E0CA22700908DC
:101093000808226016181818C6C333C608C633C614
:1010A30008C633C608C633C6D5E0EA22C0E0E493D7
:1010B300A3D39C5010E493A3C39C400AD0E0D0E098
:1010C300D0E002101DA3A3A3D0E022C008C3E09682
:1010D300F50808A3E096420808A3E096420808A38F
:1010E300E09645087001D3D00822C09FF59FE473B2
:1010F300D09F22D083D082C09FE493C0E074019339
:10110300C0E0740293F59F222521F58210AF08F504
:1011130021400C15228008F52140021522D2AF850B
:101123002283227404800A7403800674028002748A
:1011330001C0E0F40412110BD0E01214112200C01C
:10114300D0252110AF08F521500C05228008F52188
:1011530050020522D2AFD0D022C0E0C0D0E8C0E018
:10116300A8A8D2AFC2C7E8A2E792AFD0E0F8D0D028
:10117300D0E032BB0102E722C082C08389828A8326
:10118300BB0003E08002E493D083D0822260160880
:101193000808C6C313C618C613C618C613C618C68E
:1011A30013C6D5E0EA22C3E0C696F608A3E0C696C6
:1011B300F608A3E0C696F608A3E0C696F622252114
:1011C300F8E43522F9222521FAE43522FB222521F0
:1011D300FCE43522FD22252110AF08F521400C1532
:1011E300228008F52140021522D2AF22C0E0E49309
:1011F300A36C7009D0E0D0E0D0E002101DA3A3D00F
:10120300E022C3E7960809E7960809E7960809E785
:1012130096A2D265D03322C3E09608A3E09608A332
:10122300E09608A3E096A2D265D03322E766701059
:101233000809E766700A0809E76670040809E766A3
:1012430022E066701008A3E066700A08A3E06670E7
:101253000408A3E06622181818E4C396F608E49677
:10126300F608E496F608E496F622C3E096F008A39F
:10127300E096F008A3E096F008A3E096F022C3E618
:1012830097F60809E697F60809E697F60809E69738
:10129300F622181818E60846087009E626087005AD
:1012A300E633F4220822191919E70947097009E7F7
:1012B30027097005E733F4220922C3E493960874DF
:1012C3000193960874029396087403939622E62773
:1012D300F60809E637F60809E637F60809E637F6A9
:1012E30022700422600D18C6C333C608C633C6D5A0
:1012F300E0F41822E657F60809E657F60809E65718
:10130300F60809E657F622E026F608A3E036F608C3
:10131300A3E036F608A3E036F622E026F008A3E0C1
:1013230036F008A3E036F008A3E036F022E056F0EA
:1013330008A3E056F008A3E056F008A3E056F02215
:10134300E647F60809E647F60809E647F60809E618
:1013530047F622E056F608A3E056F608A3E056F651
:1013630008A3E056F622600D08C6A2E713C618C606
:1013730013C6D5E0F322C6F4C608C6F4C608C6F4FD
:10138300C608C6F4C622C3E09608A3E09608A3E005
:101393009608A3E09622C3E7960809E7960809E7AB
:1013A300960809E7962275D00075813F752101756E
:1013B300220400020CF1600C08C6C313C618C6133E
:1013C300C6D5E0F422E6F008A3E6F008A3E6F008A9
:1013D300A3E6F022E7094709C3134709336002E78D
:1013E30033F422E0F608A3E0F608A3E0F608A3E04E
:1013F300F622E6084608C3134608336002E633F4D0
:1014030022800100E9F874FF28F90470F622CAC0AB
:10141300E0E6F0A308DAFAD0E0FA22E0F8A3E0F974
:10142300A3E0FAA3E0FB22E8F0A3E9F0A3EAF0A328
:10143300EBF022EAF0A3EBF0A3ECF0A3EDF022E053
:10144300FAA3E0FBA3E0FCA3E0FD22E5C754F844C4
:1014530001F5C77901222521F582E43522F583229E
:10146300E72719471947194722E626184618461849
:101473004622C2AF75D69F020000221210F6C6DBC9
:10148300031210F64EDC031210F609DD031210F6F8
:101493006CDD031210F6B0DD031210F64ADE031200
:1014A30010F6C8DE031210F6FBDE031210F609E095
:1014B300031210F629E0031210F67DE0031210F672
:1014C30065E1031210F667E3031210F609E4031251
:1014D30010F659E6031210F6DDE6031210F6E2E900
:1014E300031210F616EC031210F64EEC031210F66C
:1014F300ADED031210F6B7ED031210F606EE03126C
:1015030010F6D8EF031210F6F995061210F62D9681
:10151300061210F68096061210F68397061210F63E
:10152300D1FD011210F62FFE011210F671FE011209
:1015330010F693FE011210F64DFF011210F691FF03
:10154300011210F6C6FF011210F66DF1031210F628
:10155300E9F1031210F61CF2031210F64AF2031219
:1015630010F688F2031210F6C3F4031210F6E2F435
:10157300031210F627F5031210F6BDF5031210F649
:1015830009F6031210F69DF6031210F675F703120F
:1015930010F6D1F7031210F62FF8031210F6ACF879
:1015A300031210F6E2F8031210F62DF9031210F6E7
:1015B30053F9031210F6E3F9031210F67AFA031241
:1015C30010F6C6FA031210F6F7FA031210F62EFB02
:1015D300031210F6B4FC031210F67EFD031210F68C
:1015E3004EFE031210F62CA6051210F636A60512AF
:1015F30010F647A6051210F668A6051210F6CEA639
:10160300051210F609A7051210F624A7051210F605
:1016130059A7051210F681A7051210F6B6A70512F1
:1016230010F6E5A7051210F6E2A8051210F623A995
:10163300051210F638A9051210F6C9A9051210F6FD
:1016430018AA051210F640AA051210F676AB051279
:1016530010F62EAD051210F6D1AF051210F6EBAF52
:10166300051210F602B0051210F6FEFB051210F675
:101673002AFC051210F64AFC051210F671FC05123D
:1016830010F6B8FD051210F6D9FD051210F697FEF7
:10169300051210F62EFF051210F6C0A0061210F662
:1016A30003A1061210F680A1061210F6A2A10612DB
:1016B30010F6687D001210F62F7E001210F6417EA0
:1016C300001210F6BC7E001210F6BEA5061210F62C
:1016D300CFA5061210F66DA6061210F678A606120E
:1016E30010F690A6061210F6FC7F001210F6E8FF23
:1016F300021210F65DFF051210F66DFF051210F6CB
:1017030082FF051210F6E8FF051210F6CAA20612B0
:1017130010F64DA3061210F6B3A3061210F60A92A2
:10172300061210F61E92061210F68592061210F695
:10173300CE92061210F6F692061210F61A930612BD
:1017430010F63D93061210F67593061210F69D934C
:10175300061210F6D893061210F6A49F061210F67E
:101763002BA0061210F640A0061210F678A006125F
:1017730010F6E5A9061210F6F5A9061210F6C7FF32
:10178300031210F658D2051210F6C5D2051210F640
:101793007DD3051210F690D4051210F61BD6051250
:1017A30010F684D6051210F6D3D6051210F6DCD641
:1017B300051210F6F0D6051210F603D7051210F62F
:1017C3007AC3051210F688C3051210F6ABC40512CE
:1017D30010F666C6051210F682C7051210F628C960
:1017E300051210F642CA051210F69BFA041210F6FF
:1017F300C7FA041210F60BFD041210F64BFD041287
:1018030010F68BFD041210F69FFD041210F6B8FDBE
:10181300041210F6AAFE041210F64FFF041210F67B
:1018230063FF041210F66CFE021210F690FE021211
:1018330010F6A9FE021210F6DBFE021210F60BFFE1
:10184300021210F638FF021210F69AFF021210F677
:10185300A9FF021210F6B3FF021210F6C0FF021224
:1018630010F6CF88061210F6EF88061210F62E89AE
:10187300061210F64989061210F66889061210F648
:10188300CE89061210F6D789061210F6348A06128C
:1018930010F6438A061210F6678A061210F6288B92
:1018A300061210F6358B061210F6468B061210F64A
:1018B3009FA6061210F6E7A6061210F613A7061245
:1018C30010F6EBDB051210F645DD051210F653DDBD
:1018D300051210F666DD051210F67BDD051210F613
:1018E30090DD051210F6A3DD051210F617DE0512C2
:1018F30010F67CDE051210F61EDF051210F6E2DF8D
:10190300051210F6F2DF051210F601E0051210F6CB
:101913002EFF031210F652FF031210F67AFF031282
:1019230010F6A2FF031210F6748B061210F69B8BAF
:10193300061210F6B98B061210F62C8C061210F64E
:10194300FC85061210F61586061210F6218606127D
:1019530010F63586061210F65386061210F65D86CB
:10196300061210F66786061210F67A86061210F62D
:101973000087061210F67587061210F6A487061262
:1019830010F6F287061210F64188061210F65C88EC
:10199300061210F66688061210F67788061210F6FD
:1019A300BA88061210F6FDA8061210F619BA051227
:1019B30010F643BA051210F660BA051210F673BAA0
:1019C300051210F689BA051210F6E7BA051210F6D9
:1019D3001FBB051210F613BF051210F658C00512EF
:1019E30010F68BC0051210F6EEC0051210F64EC2AB
:1019F300051210F676C2051210F68BC2051210F608
:101A03009BC2051210F6DFC2051210F63AC3051287
:101A130010F64AC3051210F6569D061210F6709D75
:101A2300061210F6989D061210F6B19D061210F6D6
:101A3300D59D061210F6F39D061210F60A9E0612A5
:101A430010F6389E061210F6539E061210F648A999
:101A5300061210F613F5051210F623F5051210F60B
:101A630028F6051210F65AF6051210F68AF6051234
:101A730010F6ADF6051210F6C4F6051210F6FEF6D2
:101A8300051210F663F7051210F6A5F7051210F606
:101A9300E4F7051210F615F8051210F640F80512D2
:101AA30010F6249C061210F6429C061210F6A29C15
:101AB300061210F6419D061210F6CCA4061210F67B
:101AC300E09A061210F6049C061210F6FC9B05120F
:101AD30010F6639F051210F654A1051210F68AA2A0
:101AE300051210F66BA3051210F6E7A4051210F603
:101AF300B3A5051210F607A6051210F6DD97061218
:101B030010F6FE97061210F62399061210F64D9959
:101B1300061210F68CA9061210F69CA9061210F6EE
:101B2300A6A9061210F60080051210F6038005120E
:101B330010F69B87051210F6A788051210F6268A61
:101B4300051210F6E88A051210F6CE8B051210F670
:101B5300C58C051210F6B38D051210F6708E0512A2
:101B630010F6A08E051210F65190051210F68A9900
:101B7300061210F69C99061210F6B09A061210F689
:101B8300B39A061210F6C6A1061210F6FCA10612AD
:101B930010F612A2061210F654A2061210F664A250
:101BA300061210F6A8A2061210F6B2A2061210F63A
:101BB3004FCB051210F659CB051210F69CCB05122C
:101BC30010F601CC051210F61ECC051210F637CC18
:101BD300051210F6D9CC051210F6E2CC051210F658
:101BE30027CD051210F650CD051210F65DCD051266
:101BF30010F6D8CD051210F663CE051210F6A8CE56
:101C0300051210F6F3CE051210F658CF051210F692
:101C13007BCF051210F6ECCF051210F641D005125A
:101C230010F67CD0051210F6B1D0051210F6C3D011
:101C3300051210F6D5D0051210F6F4D0051210F6E1
:101C4300FDD0051210F6ABD1051210F6EED1051238
:101C530010F62CD2051210F6ECA7061210F60CD7CC
:101C6300051210F64CD8051210F66FD8051210F6AF
:101C730080D8051210F652DA051210F672DA051240
:101C830010F6C58D061210F6FB8D061210F6438E64
:101C9300061210F69C8F061210F63EEA011210F699
:101CA30057EB011210F691EB011210F63FED011202
:101CB30010F66DED011210F6D3EF011210F613F0CA
:101CC300011210F6B7F1011210F647F2011210F6E5
:101CD3009BF2011210F63DF3011210F67FF301128D
:101CE30010F6C1F3011210F61EF5011210F66CF690
:101CF300011210F6A3F8011210F6D1F8011210F632
:101D0300F8F8011210F601F9011210F658F9011250
:101D130010F6F3F9011210F6FBFC011210F682FD26
:101D2300011210F6E6FF011210F624ED051210F66B
:101D33003AED051210F6DEED051210F61DEE051252
:101D430010F63AEE051210F66BEE051210F6B8EE29
:101D5300051210F6EBEE051210F626EF051210F63B
:101D63001BF1051210F6CCA3061210F62BA40612D3
:101D730010F669A4061210F6AAA4061210F6AFE430
:101D8300051210F63AE6051210F6E5E6051210F60E
:101D930016E7051210F645E7051210F6B8E7051227
:101DA30010F6D6E7051210F60EE8051210F647E80E
:101DB300051210F6C6E8051210F649A8061210F629
:101DC300BDCC021210F6C9CC021210F62BCD0212B2
:101DD30010F635CD021210F6C6CD021210F602CE61
:101DE300021210F6EBCE021210F6FECE021210F61D
:101DF3004BCF021210F6DACF021210F610D00212F5
:101E030010F68BD0021210F65AD2021210F654D4E6
:101E1300021210F632D5021210F650D6021210F644
:101E230096D8021210F6D9D9021210F688DA0212E5
:101E330010F628DF021210F61CE0021210F6C0E0C2
:101E4300021210F6E5E0021210F681E1021210F61A
:101E530096E1021210F6BAE1021210F628E202121B
:101E630010F645E2021210F66FE2021210F605E4D4
:101E7300021210F626E4021210F6CCE4021210F657
:101E830014E5021210F669E5021210F609E60212D1
:101E930010F66DE6021210F6CBE6021210F678E7A2
:101EA300021210F6E6E7021210F619E8021210F613
:101EB30087E8021210F6D8E9021210F62EEA02128F
:101EC30010F6CBEA021210F625ED021210F68EED93
:101ED300021210F604EF021210F62EEF021210F6A1
:101EE3004AF1021210F6F5F3021210F61EF5021271
:101EF30010F689B8011210F675BA011210F641BF37
:101F0300011210F6D7BF011210F614C0011210F619
:101F1300BCC0011210F607C6011210F64BC701121E
:101F230010F63FC8011210F651C8011210F687C807
:101F3300011210F60BC9011210F60ECA011210F6A7
:101F430086CA011210F699CA011210F6BBCA011211
:101F530010F619CB011210F67DCB011210F677CCD7
:101F6300011210F68ECC011210F6B3CC011210F64A
:101F7300A5CF011210F61FD2011210F6A0D3011241
:101F830010F61BD6011210F616D7011210F65ADA04
:101F9300011210F6AEDD011210F6D8E0011210F6B0
:101FA3000DE4011210F6D3E5011210F6C0E601129A
:101FB30010F6E6E6011210F6A1A8061210F650F983
:101FC300021210F6DDF9021210F657FA021210F699
:101FD30078FA021210F654FB021210F6C1FC021238
:101FE30010F6C5E4041210F6F7E4041210F66FE5D8
:101FF300041210F672E6041210F6CEE6041210F67E
:1020030045E8041210F661E8041210F6B3E804126E
:1020130010F6F1E8041210F604E9041210F656E97A
:10202300041210F6AFE9041210F66AEA041210F66D
:10203300E4EA041210F60EEB041210F646EB041257
:1020430010F6B8EC041210F691ED041210F6E0EE5F
:10205300041210F6B3EF041210F63BF0041210F65C
:1020630085F0041210F69FF0041210F6E6F0041245
:1020730010F606F1041210F69CF1041210F616F293
:10208300041210F621F2041210F676F2041210F67E
:10209300D0F2041210F621F3041210F6B2F5041272
:1020A30010F6EFB6051210F611F7041210F603F846
:1020B300041210F62BF8041210F62EF8041210F680
:1020C30038F8041210F64BF8041210F6CAF804128A
:1020D30010F600F9041210F62CF9041210F653F955
:1020E300041210F677F9041210F6E8F9041210F648
:1020F300F6F9041210F60CFA041210F62DFA041273
:1021030010F65BFA041210F671FA041210F689FA4B
:10211300041210F616A7061210F622A7061210F6DE
:1021230056A7061210F6F97F001210F6008004126B
:1021330010F62380041210F66981041210F6B2819E
:10214300041210F679DB031210F67482041210F6EF
:102153000FD5031210F6C382041210F6368304124D
:1021630010F6BE83041210F6C183041210F64B84DA
:10217300041210F68C84041210F66188041210F60F
:10218300F989041210F6338A041210F69A8A04129B
:1021930010F6E88D041210F6738E041210F65E8F9B
:1021A300041210F69C90041210F6B991041210F662
:1021B3007C92041210F6E793041210F6839404122F
:1021C30010F69095041210F67C97041210F6B59849
:1021D300041210F6F999041210F630B6041210F630
:1021E300DAB6041210F640B7041210F659B7041207
:1021F30010F6D5B7041210F619B8041210F634B954
:10220300041210F670B9041210F6F0B9041210F6A5
:102213003BBA041210F6A2BA041210F61DBC041243
:1022230010F64BBD041210F6D0BD041210F6D6BF43
:10223300041210F67FC0041210F623C1041210F624
:1022430082C1041210F6F7C1041210F64FC3041230
:1022530010F617C4041210F661C4041210F67DC4FC
:10226300041210F623C5041210F66FC5041210F6FB
:10227300FBC5041210F64BC7041210F6FDC8041276
:1022830010F6BFCA041210F670CB041210F6DACBA4
:10229300041210F6FACC041210F6BF9B041210F6C7
:1022A300339C041210F67B9C041210F6BF9C04129C
:1022B30010F6089D041210F6529D041210F68A9D22
:1022C300041210F6089E041210F6629E041210F611
:1022D300B69F041210F647A0041210F69FA0041232
:1022E30010F6B9A0041210F6E1A0041210F639A1F9
:1022F300041210F6A8A3041210F6C7A3041210F6D2
:10230300ABA4041210F6DBA5041210F658A60412AF
:1023130010F6A7A6041210F608A7041210F6AEA72B
:10232300041210F67CA9041210F67CAA041210F60B
:10233300FAAB041210F6DBAD041210F641B004122E
:1023430010F6F1B1041210F6C1B2041210F62FB355
:10235300041210F646B3041210F63EB4041210F63B
:102363002EB5041210F699B5041210F698F805125A
:1023730010F6E4F9051210F6A1FA051210F605FBA2
:10238300051210F679FB051210F60080061210F6FE
:102393001B80061210F65F80061210F68580061267
:1023A30010F6AB80061210F6C380061210F62681D3
:1023B300061210F63B81061210F65E82061210F624
:1023C3006782061210F67082061210F679820612E0
:1023D30010F68382061210F63AE0051210F639E47D
:1023E300051210F63EE4051210F640E4051210F64D
:1023F3008694061210F6CAFF021210F626830612FE
:1024030010F6869E061210F68BA7061210F6FB8FA7
:10241300061210F6CD7F001210F628F1051210F601
:10242300F0E8051210F6C7A9061210F677FF04129A
:1024330010F6A1FF041210F635AC031210F668ACC7
:10244300031210F6D4AC031210F66FAD031210F69C
:102453000CAE031210F651AE031210F673AE031254
:1024630010F68CAE031210F6B2AE031210F6D4AE11
:10247300031210F612AF031210F656AF031210F642
:1024830078AF031210F6DAAF031210F6A1B00312FD
:1024930010F658B1031210F6CAB1031210F695B232
:1024A300031210F6E8B2031210F64EB3031210F63D
:1024B30088B3031210F6DAB3031210F648B403120A
:1024C30010F6B3B4031210F6B6B4031210F637B510
:1024D300031210F6CEB5031210F62FB6031210F640
:1024E3001FB7031210F63EB7031210F6A2B8031279
:1024F30010F6AFB8031210F6BBB9031210F6C8B941
:10250300031210F6D1B9031210F6A9BB031210F689
:10251300C3BC031210F63CBD031210F6AEBD03128A
:1025230010F6D0BD031210F664BE031210F638C0C5
:10253300031210F60FC4031210F623C4031210F68D
:1025430033C4031210F63DC4031210F646C403123B
:1025530010F64FC4031210F659C4031210F686C4C2
:10256300031210F6AFC4031210F6BAC4031210F626
:10257300DEC4031210F602C5031210F66CC5031273
:1025830010F6B2C5031210F6CFC5031210F64CC6EF
:10259300031210F683C6031210F6C2C6031210F616
:1025A3000FC7031210F695C7031210F663C903127F
:1025B30010F6F8C9031210F6DCCA031210F643CD65
:1025C300031210F69CCD031210F6E6CD031210F69B
:1025D30041CF031210F67FCF031210F6D1CF0312AF
:1025E30010F686D0031210F635D1031210F672D10D
:1025F300031210F607D2031210F673D2031210F669
:102603000080021210F63280021210F6608002126D
:1026130010F63682021210F61683021210F66E833B
:10262300021210F6A984021210F6F584021210F6B3
:102633001E88021210F6118B021210F6618C021220
:1026430010F6F78C021210F6038D021210F6358D78
:10265300021210F6B88E021210F66990021210F6EA
:10266300FD90021210F64091021210F6BE91021272
:1026730010F6DB91021210F60B92021210F6409242
:10268300021210F61093021210F6B993021210F60A
:102693003F96021210F65F97021210F64A98021242
:1026A30010F6CC98021210F6009D021210F63D9D12
:1026B300021210F6959D021210F6C89D021210F632
:1026C300329E021210F6689E021210F6F39E021258
:1026D30010F64B9F021210F622A0021210F6DBA096
:1026E300021210F676A1021210F67EA4021210F660
:1026F3009AA5021210F63DA9021210F631AA02128F
:1027030010F634AA021210F663AA021210F669AC8C
:10271300021210F642AD021210F685AD021210F647
:10272300DBAE021210F61AAF021210F6A3AF0212BA
:1027330010F6D7AF021210F69CB0021210F6B4B224
:10274300021210F625B3021210F665B3021210F648
:10275300F3B3021210F615B5021210F6D7B5021232
:1027630010F6DEB7021210F6F6B7021210F60AB828
:10277300021210F642B8021210F670B8021210F6E6
:10278300EFB9021210F614BB021210F671BB02125B
:1027930010F623BC021210F64ABC021210F611BD49
:1027A300021210F6A9BD021210F6CFBF021210F6E4
:1027B30004C0021210F667C0021210F696C102128C
:1027C30010F63EC2021210F66FC2021210F687C252
:1027D300021210F616C3021210F6CAC5021210F640
:1027E300A2C7021210F6BEC7021210F6DAC702120F
:1027F30010F6A8C8021210F69BCC021210F65C3534
:10280300001210F68E35001210F67D39001210F604
:10281300C939001210F60F3A001210F6B13A00123D
:1028230010F60D3B001210F6523B001210F6993CC5
:10283300001210F6AD3D001210F69C41001210F686
:102843002042001210F62D43001210F689430012A5
:1028530010F67945001210F6EE45001210F6F84511
:10286300001210F60546001210F63046001210F65C
:102873001747001210F6C147001210F63F48001226
:1028830010F65F48001210F68848001210F6AA48A6
:10289300001210F60A4B001210F6D04B001210F67D
:1028A300154C001210F6924C001210F6434D001214
:1028B30010F6754D001210F6BB4D001210F6F74DD1
:1028C300001210F6474E001210F69B4E001210F63F
:1028D300F14E001210F63D4F001210F6AA4F0012EF
:1028E30010F62550001210F6F051001210F6F052B7
:1028F300001210F61554001210F65457001210F679
:10290300675A001210F6245B001210F6685B00127F
:1029130010F6185D001210F62C5D001210F6365DED
:10292300001210F6405D001210F64C5D001210F616
:10293300685D001210F6135E001210F6525E00126C
:1029430010F65C5E001210F6665E001210F6D65E9C
:10295300001210F6215F001210F63660001210F616
:102963009260001210F61361001210F6D261001289
:1029730010F6DB62001210F60F64001210F6FD640D
:10298300001210F61565001210F67065001210F6AD
:102993008E65001210F6D665001210F6FD65001262
:1029A30010F69866001210F65E67001210F6F067D4
:1029B300001210F66A68001210F68469001210F60D
:1029C300316A001210F6596B001210F6A96B00124F
:1029D30010F60D6C001210F66F6C001210F69D6C61
:1029E300001210F6C16C001210F6F66C001210F60D
:1029F300276D001210F65A6D001210F67A6D001250
:102A030010F6E26D001210F6D66E001210F6316F5A
:102A1300001210F65A6F001210F6E26F001210F651
:102A23006570001210F69070001210F675710012A6
:102A330010F65372001210F68B72001210F6AC727D
:102A4300001210F6EE72001210F65073001210F618
:102A53005A73001210F66A73001210F6A57300126F
:102A630010F68577001210F67279001210F6587B73
:102A7300001210F6EF7B001210F6917C001210F694
:102A83002481031210F6A281031210F6FE810312B1
:102A930010F64982031210F66482031210F68F8235
:102AA300031210F6AC82031210F6B882031210F66A
:102AB3004F84031210F66884031210F6ED84031298
:102AC30010F60085031210F61F85031210F6C38556
:102AD300031210F64487031210F6F788031210F658
:102AE3008D89031210F69089031210F6008A0312DF
:102AF30010F61E8A031210F6B58A031210F6FD8A29
:102B0300031210F6008B031210F6C68B031210F695
:102B1300338C031210F6598C031210F6E48C031253
:102B230010F6028D031210F6488D031210F6FC8D79
:102B3300031210F6468E031210F6758E031210F66A
:102B4300D28E031210F6078F031210F6338F03127F
:102B530010F6418F031210F68E8F031210F6FE8FBC
:102B6300031210F64790031210F69390031210F617
:102B7300BF90031210F6CA90031210F6E8900312E6
:102B830010F6D391031210F6DD91031210F618928A
:102B9300031210F62892031210F63192031210F664
:102BA3008592031210F69992031210F6C89303123A
:102BB30010F6DD93031210F66B94031210F6B09423
:102BC300031210F63C95031210F64795031210F604
:102BD3008996031210F6A496031210F6F0960312C8
:102BE30010F65F97031210F69897031210F6B29738
:102BF300031210F6F497031210F6C49A031210F698
:102C0300719B031210F6DE9B031210F61E9E031235
:102C130010F6369E031210F6399E031210F6459EE7
:102C2300031210F6599E031210F6619E031210F65A
:102C3300949E031210F6969F031210F61DA0031222
:102C430010F68DA0031210F60FA1031210F6D0A1F7
:102C5300031210F6EFA1031210F690A2031210F65E
:102C6300EDA2031210F6F0A2031210F664A30312EE
:102C730010F6B3A4031210F6B9A5031210F644A676
:102C8300031210F65FA7031210F627A8031210F61B
:102C930058A8031210F67BA8031210F684A8031297
:102CA30010F6B3A8031210F643A9031210F6F9A9FC
:102CB300031210F66EAA031210F615AB031210F6E8
:102CC3008AAB031210F6C1AB031210F6FFAB03126B
:102CD30010F652B6051210F648B6051210F6F2B504
:102CE300051210F6DEB5051210F63DB5051210F605
:102CF30041B4051210F66BB3051210F674B1051248
:102D030010F6C7B0051210F659B0051210F695E487
:102D1300041210F64CDB031210F6B5DA031210F6A8
:102D23008BE4041210F620E4041210F650D40312BC
:102D330010F6ADD3031210F674E2041210F632E269
:102D4300041210F652E1041210F63CE1041210F6DC
:102D5300FDE0041210F658E0041210F652DD0412DE
:102D630010F640DB041210F60DDB041210F6A8DA9D
:102D7300041210F63BDA041210F6FAD9041210F614
:102D830033D9041210F6CED8041210F679D80412EF
:102D930010F61CD8041210F6F3D6041210F690D6CF
:102DA300041210F6DAD5041210F6D5D5041210F673
:102DB300C9D5041210F67CD2041210F66CD3031298
:102DC30010F64DD3031210F61AD3031210F605D3DF
:102DD300031210F6DAD2031210F6D3B9051210F665
:102DE3009BB9051210F656D2041210F6FBD1041249
:102DF30010F6A6D1041210F667D1041210F644B9E6
:102E0300051210F654D1041210F649D1041210F62B
:102E130025D1041210F634CF041210F61A820412CC
:102E230010F6B3CE041210F656D8031210F66FCE76
:102E3300041210F643CE041210F69E9B051210F6F0
:102E4300609B051210F6339B051210F6FF9A0512CC
:102E530010F69E9A051210F6869A051210F6629ADB
:102E6300051210F62B97051210F6F794051210F6BB
:102E7300DE92051210F66D92051210F61C920512E1
:102E830010F67782041210F6D691051210F6ADB73C
:102E9300051210F63F91051210F6D5F60400000056
:102EA30080FB87000100461B350004000F1B250033
:102EB3000200131B26000200151B27000200171B2C
:102EC30028000100211B29000100221B84000400AB
:102ED300131886000100331A2A000100231B2B005C
:102EE3000100241B2C000100281B2D0008001F18C3
:102EF3002E000100291B2F0001002A1B30000100B6
:102F03002B1B310001002C1B32000100271833005A
:102F130001002818340001002D1B36000100291878
:102F2300380001002E1B39000100271B830002001B
:102F3300441B63000100351864000100251B650074
:102F43000100261B6D0001003618710008001718D8
:102F530066000100431B43000100341B44000200D0
:102F6300351B45000100371B46000200381B470094
:102F730008002D18480001003A1B4B0001003B1BC1
:102F830004000100471BA10001004A1B3700010098
:102F9300491B88000100481B3C0001002A183D0022
:102FA30001002F1B490002003C1B6700010037187A
:102FB3004D0002003E1B4E000100401B4F0002006B
:102FC300411B3E000100331B510001002B1852002E
:102FD3000100311B53000100321B540001002C1867
:102FE30000000000000000000000200187B800007E
:102FF3000100200182B800000200200183B8000014
:103003000300200188B800000400420197B60000C5
:103013000500420195B500000600420173B50000AA
:103023000700300186B800000040420173B500007C
:10303300FDFF21017EB80100200020053B1A01009D
:10304300210020053C1A010003F02127D21A0600B3
:1030530000001005FD160A000000E227F7160A001B
:1030630007002327F716040204F02027D41A0204CA
:1030730000002905EF16020401F02127C21A0204F9
:1030830002F02127CA1A030400002905F1160304DC
:1030930010002905F316030414002805BB1A0304C2
:1030A30001F02127C41A030402F02127CC1A0504D6
:1030B30000002105F516050401F02127C61A0504B1
:1030C30002F02127CE1A0001363601010001020168
:1030D30000010301000104010606050200000701C7
:1030E30000340801000F090401010D0100FF0E085F
:1030F300000017020000190100FF1A0100011B0163
:1031030000FE1C0100081D0200001F010001200138
:103113000001210200002301000F24020000260108
:10312300000127010008280200FF2A0100072B01E4
:1031330002402C0100002D0100012E0100012F018E
:1031430000FF30010B1D310800003A0100083B016C
:10315300000F3C0100013D0100FF3E04000042045A
:103163000000460400004A0400004E04000052041C
:103173000000560400005A04000001037103010318
:1031830001030103010301032203020301031003EB
:1031930000030003000300030003000300034203D2
:1031A300000324030603000300030403120325039F
:1031B3002303250323030403040300030003000381
:1031C30044030003000323030003650321003503C5
:1031D3008103000305030003000300030003250329
:1031E3002303030271023001600211027002010223
:1031F300020202028002100261023A0041006302ED
:1032030073027202620243020002130238000002D8
:103213000002040212020002000200020002040281
:103223000402370037003C02440200023900000266
:1032330000026502000235028102000205028202D9
:10324300830200020300710030016000110070006E
:1032530031022003500480001000610000001400BC
:103263006300730072006200430000001300060055
:103273000000000004001200000000000000000035
:1032830004000400370037003C0244000000000043
:10329300000000006500000035008100000005000B
:1032A300000083000000010171010101010111010E
:1032B30001013101010101018001100161013B00A4
:1032C30014006301730172016201430100011301E0
:1032D30006013D0135000401120100010001000156
:1032E300000104010401330133013C0144013201B3
:1032F3003600000100016501000135008101000174
:10330300050182018301000136000100060000006F
:103313000F0000000000000000000000000003FF99
:10332300FF00000403FFFF0000FFFF0FF40100058F
:10333300C4040320000100000B0000000000000093
:103343000003010F00000000000000000000000067
:10335300000000000000000000000000000000006A
:10336300000000000000AA1EDA1EB01EDE1DB61EFD
:10337300E01EB61EEC1EBC1EDE1DB61EE01EC21EE7
:10338300DE1D00000000C81EDE1D00000000CE1E72
:10339300DE1DD41EDE1D0000000000000000000042
:1033A300000000000000000000000000000000001A
:1033B300000000000000000000000000000000000A
:1033C300000000001622010016220200822E028055
:1033D3004A210300562104005C2104806221050078
:1033E3006821060074213000922131008C213300C2
:1033F3009E213400A4211100AA211400B02115003C
:103403008621FFFF000003000300040008001000F2
:103413001F003E007B00F600EC01D703AF075D0FF2
:10342300B91E713D0000060000001001FD160604E0
:1034330000001805FE16060410002127BC1A060416
:1034430011002127BE1A000400002105FB16000409
:1034530001F02127C81A000400F02127C01A000434
:1034630002F02127D01A07ECFDFDFDECDCDCCCBC1F
:10347300ACAC9C9C8C7C7C6C6C5C5C5C4C4C3C3C39
:103483002C2C1C1C03EAF5E5D5D5C5B5A59595856A
:1034930085757565655555454535352525151505D9
:1034A3000A7628024028054C280746280C28280DB0
:1034B3003428FF000000160F00000B150B0200025A
:1034C300220F3300000E0F5A6967426565416C6C29
:1034D30069616E63653039D0D1D2D3D4D5D6D7D80C
:1034E300D9DADBDCDDDEDF303017181921301B1DA4
:1034F3001F3000034D4C4651181A250502000119CF
:103503001618161618230300303016181920231A1C
:103513001C1E30003C40423A3F3F392F47300C0ECF
:10352300020B040B0A0708000F0204020101010148
:103533000902E803000000BE040A0100240003009E
:10354300E803FF04091C0404031E1E030A0C0410F1
:103553000828020C0508150F0674F7120B66E9908C
:10356300190AF09018BFE4F0121B6E901922E4F0D0
:10357300A3F090190BF0A3F01229C6121B74901834
:1035830047E4F0A3F01223BA024EC274F0120B66A2
:1035930074D31211D912691E5480606690190AE01F
:1035A300F9121BF28A088B09AF09EA4F604C7C00C1
:1035B30080010CEC75F003A4F8A9F074A328F5823C
:1035C300743439F583E493F46029E493F88A828BA5
:1035D30083E06870DDEC75F003A4F874A428F58229
:1035E300743439F583E493C0E0740193F583D08296
:1035F300120D46AA08EFFB121BE012705064800202
:10360300395D852182852283A3E05420601F12281F
:10361300DC8A088B09AF09EA4F600A122834AA082A
:10362300EFFB121BE0127050642002395D8521828A
:10363300852283E0A2E050429018C4E0640F702E0C
:10364300900A2612705B900A26C3E094E9A3E094E3
:1036530003400A7A007B80901737124FA479001237
:10366300280AE96009901B0F1214421228228521AF
:1036730082852283E06401023942542070030239B7
:10368300477A207B0090190AE0F9121D54EA4B4C4B
:103693004D701A90191E12141EE8494A4B700E758C
:1036A3000801750900750A00750B00806D750C0023
:1036B300750D00750E00750F00121D608A088B09C9
:1036C3008C0A8D0B90191E12141EE8494A4B603167
:1036D30090191E78081210CE400E750CFF750DFF61
:1036E300750EFF750F7F801985080C85090D8C0EEB
:1036F3008D0F90191E780C1211A97401780C1211F8
:1037030090850C08850D09850E0A850F0BE5084584
:1037130009450A450B70030238A17C0079047A003D
:103723007B001228B28A0C8B0DAE0CAF0D0237E56D
:10373300740212145974FFF0740312145974FFF0D5
:10374300740412145974FF1250171267D8740712B5
:1037530011D1126A8EE96401706A1239694480F8E2
:10376300A3E0F97428121459E8F0A3E9126D22E0DA
:10377300C0E0742A121459D0E012500454086016A1
:103783007428121459A3E04401123976C0E0742C52
:10379300121459D0E0F01269616011E8240B124150
:1037A3005CF87416121459E8F0A3E4F090B82F12E1
:1037B3000F4B74061211D1740B1211C912252E74FA
:1037C300041211418E828F83A3A3A3A3A3A3A3A354
:1037D300A37406123976F912289474051214591237
:1037E3006AE5EE4F70030238A17C007904EEFAEF2C
:1037F300FB1228B27405121459EAF0A3EB124D2EF2
:10380300E0F50CA3E0F50DE4F50EF50F7808790C5F
:103813001213994023EE2404F8E43FF985080C853C
:10382300090D8882F583C3E0950CF0A3E0950D1292
:103833007145E84970A4800C8E828F83A3A3A3A350
:10384300E4F0A3F08E828F83A3A3A3A3A3A3A3A3D4
:10385300A3A3E064018E828F83A3A3A3A3A3A37076
:1038630020E0540460030237338E828F83A3A3A323
:10387300A3A3A3A3A3A37406F07AB7123A9C0237B7
:10388300DDA3A3A3A3E060030237338E828F83A358
:10389300A3A3A3A3A3A3A3A37401F00237DD122858
:1038A300827C0079017A007B001228B2EA4B600324
:1038B300124F9D7C0079047A007B001228B2EA4BF8
:1038C300701380448A828B83A3A3A3A3126AFDEEA1
:1038D30098EF99400B8A828B83A3A3A3A3126AE573
:1038E3007C0079041228B28B0BA90BEA4970D5C36B
:1038F300E5089EE5099F500DC3EE9508FEEF950977
:10390300FFEE4F700D124F9D90191E12396FA3F0E9
:103913008024EE2EFEEF338E08F509E4F50AF50B4D
:1039230078081211267A20123B45121141121D60AC
:1039330090191E121436852182852283E06420FAB1
:10394300A3E08016A3E0540460131261B5122DF2B4
:1039530079011243231270506404FB80047A007BC4
:1039630000742D02693DEE12694BE022E4F0A3F0EE
:10397300A3F022125009A3A3E022C082C08374EAF9
:103983001211D97C167D007900AA21AB22121BC229
:1039930074081214597402F09018B31263F11239B7
:1039A300BD74091214591264097413121459E412E0
:1039B30060881223AE74160252D3E8F0A3E9F090A4
:1039C30018BD126ACD2274F7120B6674DA1211D97C
:1039D300EAFEEBFFEA4F602DAC21AD221228FA7408
:1039E30006121459E0601E7417121459E0FD740195
:1039F300121459E0FCEEFAEFFB79001227E0E960BC
:103A03000479A4800279007426024EBF74F7120B66
:103A130066EAFEEBFF8A82F583A3A3A3A3A3A3E035
:103A2300544060178A828B831268FE1251E260064B
:103A33007AFF7BFF80151268FA80039018B3126730
:103A4300D874FE6A700374FF6B60411268FA1269DE
:103A530024122990E98E828F83600B1264E712711E
:103A630010E4F0A380031270FFF07C107D288E8297
:103A73008F83124858E9F5087015EE4F60097901F4
:103A8300EEFAEFFB12288EA908024EC27508CDAAE2
:103A930008123A9CE960E380EE8E828F831264EB16
:103AA300240CF582E438F583E0F912281C2274F61D
:103AB300120B66E9FEEAFF7A0F7B00121BDAEA4B70
:103AC300601A8A828B83740CF0EEA3A3F0EF8A82D0
:103AD3008B83124C7D1260E67900802BEEF912285D
:103AE300B88B09A909EA49601C8A828B83A3A3A323
:103AF300A3A3A3A3A3A37406124C86E0F91225D0B3
:103B0300EEF91228947910025ED174F4120B668ACE
:103B1300088B098C0A8D0B9018C4E0640F701EEAA1
:103B23004B4C4D60189018BFE064086005E06404D6
:103B3300700B7808121126123B43121141023DA863
:103B43007A017B0090190AE0F9121D427404227471
:103B5300F4120B6674FC1211D9EAFEEBFF8A82F5AC
:103B630083A3A3E0F91228B88A088B09EA4B7003F0
:103B7300023C8B8E828F83A3A882A983E0C0E0EAF4
:103B83001260DCD0E0124AEC64F160288E828F83ED
:103B9300A3E064CD601E8E828F83A3E0641A601459
:103BA3008E828F83A3E064E9600A8E828F83A3E011
:103BB30064E17033790012288EE9602BE508240450
:103BC300F50AE43509F50B850882850983A3A3A3C8
:103BD300A3A3A3124BC2124ACA121B80850A828571
:103BE3000B8312692480708E828F83A3E0C0E074FC
:103BF30002121459D0E01252E1125404124572C059
:103C0300E07403121459D0E0F0E508126DCD1242AE
:103C13001BE0AA21AB227005122528800312297804
:103C23007402121459E064E9702D850882850983B2
:103C3300124381750A01780A121132750AE9780A6A
:103C4300121132124A9E12453FFCA3E0FD8A828B79
:103C530083124569121141850882850983A3A3A3B1
:103C6300A3A3A3A3A3A3E06402701285088285091A
:103C730083A3A3A3A3A3A3A3A3A37406F08E828FFA
:103C830083A3A3E0F9122894122882901B151241F2
:103C93008D7404023DA574F4120B66EAFEEBFF7506
:103CA30008008A82F583A3A3A3A3A3E06038750861
:103CB300081267CB79FF122660EA4B601075082C57
:103CC3008E828F83A3A3A3A3A3E0D2E0F08E828F7F
:103CD30083A3A3A3A3A3E0540364016003023D945D
:103CE300430811023D94EA24181256CA6036EA24A6
:103CF3001A1256CA6003F47013126AAD7003A3E07C
:103D0300696003023D94750822023D94EA241B1264
:103D13003D98241A1256CAFAEE24191256CAF912F9
:103D230025BE806D8A828B83A3A3A3A3A3A3A3A38E
:103D3300A312417870037508018E828F83126AB1D2
:103D43007003A3E0697006E508D2E1F508E50860B1
:103D5300158E828F83A3A3E07006E508D2E5800465
:103D6300E508D2E6F5081251D564017006E508D2DC
:103D7300E0F5088E828F83A3A3E06015EE241D1265
:103D830059E9F912297EE964016006E508C2E0F504
:103D930008A9088010F582E43FF583127168EA22CE
:103DA30074091211417F04020E8074F0120B6674C1
:103DB300D71211D9EAFEEBFF8A82F583A3A3A3A34B
:103DC300E0600E901B131269686006901B1312418A
:103DD3008D74031211D18E828F83A3A3A31262B4B5
:103DE3001267D61228FAE97003023F3E7801740580
:103DF300121459E0C3940240027800740712145954
:103E0300E0C3940240027800740C121459E064F881
:103E13007003A3E0F47003023F3E740C121459E0E4
:103E230064F97003A3E0F47003023F3E740C1214B0
:103E330059E064FA7003A3E0F47003023F3E740C8C
:103E4300121459E064FB7003A3E0F47003023F3ED5
:103E53007406121459E0F99018ADE0696003023F4B
:103E63003EE8A2E04003023F3E7427121459E0608B
:103E730003023F3EEE2413126AC374221214591232
:103E830062BE241C126AC37410121459126409749A
:103E930009121459E0601D741A121459E0FD7404D8
:103EA300121459E0FC8E828F831267D67901122790
:103EB300E0E9703B74031211C912282EE9F50C7462
:103EC30009121459E0702C9018A7E0602674225947
:103ED3006422601F7442596442701474201214598E
:103EE300124172600E742012145912416B60047AED
:103EF300CF804AE9A2E6504D74201214591259EFAB
:103F030024FD600F14600C24FD600824FD6004246C
:103F1300FE70287420121459124164700E7420121A
:103F23001459126015A3E0640D601A74031211C9C9
:103F33001229A8E96401700D0241547AD37B00125F
:103F43002126024154EE242DF582E43FF5831243EA
:103F5300787003A3E069701D7508007808121132A8
:103F63007808121132EE242F1256CAF912417E122A
:103F730045691211417409121459E0700302401C7F
:103F830012417E1267D81229F68A0E8B0FEA4B7004
:103F9300030240AD7404121459E0F88E828F83A398
:103FA300A3E028F8A3E03400F9E8240D12415CF8FB
:103FB3008A828B83A3A3A3E068600EE88A828B8343
:103FC300A3A3A3124C761239707904E9121459127F
:103FD30056E9A3E02AF8A3E034008882F583A3AA74
:103FE30082AB83121BCE8A088B098C0A8D0B850E3C
:103FF30082850F83A3A3A3A378081210CE400302E4
:10400300415490B74F780812130A850E82850F83A7
:10401300A3A312716EA312540D9018BFE064046041
:1040230008E064096003024154E50CA2E540030281
:1040330040E7EE242F1256D2F0EE24301256CAC0B7
:10404300E07401121459D0E0F0EE24311256CAC0C4
:10405300E07402121459D0E0F07414121459E0649D
:10406300017026740E121459124AC524131256CA2B
:10407300687003A3E0697011740C1214591241782B
:1040830070077414121459E4F0EE2425F582E43F0A
:10409300F583120F4B74041211D174071211C91254
:1040A300252E7404121141024154901904E0640155
:1040B300600302401C74201214591241727009E506
:1040C3000CA2E6500302401C7410121459E0F47061
:1040D30003A3E0F4607BEEFCEFFD74031211C9123D
:1040E300283A806DA2E6506974201214591264F7BD
:1040F3007016741A121459E0640270557403121185
:10410300C979001229728049742012145912416B23
:104113007014741A121459E0640470357403121184
:10412300C9122966802B7420121459124164700C31
:10413300790074031211C91229B480157420121462
:1041430059126015E0640C700874031211C9122926
:10415300C0742902693DE82406F582E439F583E059
:1041630022126904E0640322126904E06407221244
:1041730059F36406221251E6640222EE242BF582DF
:10418300E43F127166EE1251BB22E0F508A3E0AAE8
:1041930008FBE4FCFD1228222274F4120B66EAFEEB
:1041A300EBFF8C088D09901827E0600F126AAD7041
:1041B30003A3E06970051225AC805379001267CB25
:1041C3001225DC8A828B83E5824583602CA3A3A31B
:1041D300A3A3A3E054186021E508241C124218127B
:1041E3000F4F124214120F4FEE2418124550125C57
:1041F300B0126A85121141801579008E828F83A3D4
:10420300A3A31264DD125CB01267D81225B2023D7B
:10421300A8E5082413F582E43509F5832274F7121F
:104223000B6674F71211D9EAFEEBFF9018BFE06436
:1042330003600DE064016008E06409600302431E4B
:104243008A828B83A3E060030242EC7C007D007AC8
:10425300027B00121B7A126B2A8A82126AC7901899
:10426300B0126409795312239C9018BFE06409606B
:10427300099018BD1267D81229F0852182852283FF
:10428300740112602D9018BF7404F074011211C9E7
:10429300794A12239674011211D17AB57B18121D33
:1042A3007890173AE0640B70057406F08005790086
:1042B3001243239018B01264E37A037B00121B7A33
:1042C3009018B31264E37A047B00121B7A9018AA45
:1042D300E0A2E35004D2F08002C2F012601A901BF5
:1042E3000F121442122822802FFC7D007A037B10C8
:1042F300121B7A90173AE0640B7003740AF090185B
:104303002BE4F0FA7B40125E0A8E828F83A3E0F9DE
:104313001243239018BFE4F01228647409024EBFBD
:104323009018BD1267DC12254022C082C08390180A
:104333004712696870179018BFE024FB600514608A
:1043430007800A90184D801F90184F801AE8496023
:10435300071241596401700C8A828B83A3E0F9121E
:104363002534800E9019391269686006126016129E
:104373000D46025B61126ACD9018BDE06822126A95
:10438300CDE8FAE9FB2274F5120B6674D81211D941
:104393008A088B098A828B83A3A3A3A3A3A3A3A3C2
:1043A300E0C3940F500302453A8A828B83A3A3A3ED
:1043B300126AE574151211D18A828B83A3A3A3A376
:1043C300A3A3A3A312453FFAA3E0FB12287074151D
:1043D300121459E0702E850882850983A3A3A3A331
:1043E300A3A3A3A3E0C3940B401A8E828F83A3A33A
:1043F300A3A3A3A3A3A3E064027009EE240B1256A4
:10440300CAF4600302453A7417121459E060076452
:1044130002600302453A9018BFE06402601CE06446
:10442300066017901847126968700302453A1241F3
:10443300596401600302453A802590184712696860
:10444300701D75080078081211327808121132EEC7
:1044530024101245508E828F831245691211418EAA
:10446300828F8312713D124AF5126AC974021214C3
:10447300591262BE12396AC0E07404121459D0E0B2
:10448300124572F508A3E0F509740F78081213B901
:104493007405121459E508F07419121459E0C0E0B8
:1044A3007406121459D0E0F0741B121459E0C0E0E2
:1044B3007407121459D0E0F07416121459E0C0E0D6
:1044C3007409121459D0E0F07417121459E0C0E0C3
:1044D3007408121459D0E0F0EE24101256CAC0E04A
:1044E300740A121459D0E0F0741A121459E0C0E09F
:1044F300740B121459D0E0F07427121459E0C0E081
:10450300740C121459D0E0F0741C121459A982AA25
:104513008389088A09750A00780812112A7C087DA4
:10452300007410121459AA82AB831256C11211419E
:10453300AA21AB2212253A742802501DE0F98A827F
:104543008B83A3A3A3A3A3A3A3A3A3E022F582E442
:104553003FF583E0F98E828F83A3A3A3A3A3A3A331
:10456300A3A3127168221267DC122930740222F0AD
:10457300EE125CB5E02274F2120B6674F81211D9D4
:104583008A0A8B0B8C0C8D0D890890B6EEAC21AD8D
:1045930022740812106FC200AC0AAD0BAA21AB2221
:1045A3001267597002D20090190B8013AC0AAD0B3D
:1045B300EE240BFAE43FFB126759701B1251AC1245
:1045C3004E3F601EA20040E48E828F83E0650C7034
:1045D30004A3E0650D70E58E828F83A3A3E06508D5
:1045E30070DAEEFAEFFB7408024B02C082C08390CC
:1045F300190B025B5EC082C08390190BE4F0A30227
:10460300485474F7120B6690190B127056800FEA18
:104613002414F582E4126AE2121C94EEFAEFFBEA28
:104623004B70EC90190BE4F0A3F0024EC274F2123B
:104633000B668A0C8B0DEDFF890B8A828B83E08CD2
:10464300828D83F0A3A882A9838A828B831246F981
:10465300124C70E0C454F0FA88828983E04AF0EC8B
:104663002402F8E43FF9850C828B83A3A31246F955
:1046730012470CE0333354FC124700E03333335416
:10468300F8124700A3E0A2E0E4331313FA88828907
:1046930083E04AF0EC2403FE50010FE50C2407F5F8
:1046A30008E4350DF509750A00780812112A7C080B
:1046B3007D00EEFAEF1256C0121141EE2408FE50AF
:1046C300010FE50C240FF508E4350DF50978081200
:1046D300112A7C037D00EEFAEF1256C0121141E558
:1046E3000BC3940F400DE50C2412F582E4350D1233
:1046F3005CC4F0024B05A3E08882898322FA888296
:104703008983E04A12470CA322F0850C828B83A392
:10471300A3A3A32274F2120B66EBFF8C0C8D0D8AFC
:1047230082F583E08C828D83127127A3A882A983EB
:10473300E0125B09124AEBC4125B03F0EA12713117
:10474300125B10124AE9A2E2E4338C828D83124A8F
:10475300E8131313541F125B09A3124AE8A2E7E4F8
:10476300338C828D83A3A3A3A3A3A3F0EA2403FE24
:1047730050010FF5088F09750A00780812112A7C79
:10478300087D00E50C24071256BC121141EE2408E3
:10479300FE50010FF5088F09780812112A7C037D5A
:1047A30000E50C240F1256BC1211418E828F83A395
:1047B300A3A3E0C0E012714DD0E0F0024B0574F604
:1047C300120B66EAFEEBFF8A82F583A385820885D6
:1047D3008309E0F9122558850882850983E064EB93
:1047E300601E8E828F83A3E064E160148E828F83C8
:1047F300A3E064F1600A8E828F83A3E0641A7007DA
:104803008E828F83A3E4F0901B0F1214421228228E
:1048130075080178081211328E828F83A3E0F508A0
:10482300780812113279009018BD1264E39018B31E
:10483300124569121141122882025ED1C082C083DF
:10484300E990191D7003E4800274018004EAF0A367
:10485300EBF0025B611267DC1223B42274F6120BD5
:104863006690191DE0701B7C0079017A007B0012B1
:1048730028B2EA4B600C8A828B8312696860031248
:104883002816025ED1C082C083124D1F401079FFEB
:104893001228ACE9F8903556E493C3985004790193
:1048A30080027900025B6174F2120B668A0A8B0B39
:1048B3008909C2008A828B83A3A3A3A3A3A3A3A36F
:1048C300E0F91228B88A0C8B0DAE0CAF0D750801F8
:1048D300EA4F600302498B850A82850B831264DDEC
:1048E300850A82850B83A3A3A3A3A3A3A3124ACA06
:1048F3001228A08A0C8B0DAE0CAF0DEA4F70030289
:104903004A978A828B83A3A3A3A3E4F0A3F0E50AC7
:10491300240CFAE4350BFB8A82F583E0C0E0124AEB
:104923009ED0E0F0E50A240D124ABE240D12640362
:104933001229961251C4126924E50A2411124ABE9F
:104943002411126403E50A2413126AF4C0E012511D
:10495300B6D0E0F0D200EE2406F8E43FF9124AB1F3
:10496300124AEC540460030249FD901B21E0F50A4E
:10497300750B007407780A1212E48E828F83A3A347
:10498300A3A3A3A3124AA8F08E828F83A3A3A3A3F6
:10499300A3A3E0F50AA3E0F50B7407780A1213B991
:1049A300E50A5407FCE50960618E828F83A3A3A304
:1049B300A3A3A3A3A3A37402125017124DB4600BB5
:1049C3009018AB12574AA3A3126409EC7003024A6E
:1049D3006EEE2406F8E43FF9E8FAE9124AB1F0EC86
:1049E30024FFF50AE434FFF50B7407780A1212E486
:1049F3008A828983124AA8F080718E828F83A3A34F
:104A0300A3A3A3A3E0448002498AEC7005750800C0
:104A130080598E828F83A3A3A3A3A3A3E054206012
:104A23000C121BD4EA547F7900245F80198E828F85
:104A330083A3A3A3A3A3A3E05410601A121BD4EA75
:104A4300540F7900240A5001098E828F83A3A3A3F4
:104A5300A3F0A3E9800D8E828F83A3A3A3A3740184
:104A6300F0A3E4124AF57404124D35A20050288EC7
:104A7300828F83A3A3A3A31267E2F9EEFAEFFB12DB
:104A830028A6E960121269616003124AD7EEFAEFB1
:104A9300FB121C94750800A9088067EE240CF582AC
:104AA300E43FF58322E0450AF0A3E0450B22888228
:104AB300F583E0547FF0A3E054FC22F582E4350B48
:104AC300F583126ACDEE22A3E0F9850A82850B8372
:104AD3001267DC22124ADE124F3422EE240FF582D3
:104AE300E43FF58322A3A3A3A3124AF022126B107F
:104AF300E022124AF92212500DA3A3A32274031237
:104B030011417F06020E8074F4120B6674F71211C2
:104B1300D97E001228B8EA4B7003024BBD8A828B00
:104B230083A3A3A3A3A3A3A3A3A3E0640660030295
:104B33004BBD8A828B83A3A3A3A3A3A3A3E0FF8A72
:104B4300828B831270EFE0C0E07408121459D0E036
:104B5300124EE51263F61264091228CAEF54086074
:104B6300578521828522831264E37A007B00122811
:104B73009AEA4B70431271587C007D007A007B00E7
:104B830080228E828F831259EFF47003A3E0F460C6
:104B9300279018BD124BC2124EC7601C7C007D00CB
:104BA300EEFAEFFB12289A8A0A8B0BAE0AAF0BEED2
:104BB3004F70CF79001223CC7E01EEF9023DA31290
:104BC3004BC622E0FCA3E0FD8E828F8322C082C00D
:104BD300838A828B83E5824583700990192280063C
:104BE3008A828B83A3A3124DE860208A828B83A3DE
:104BF300A3A3A3A3A3A3E0540860E5EC4D601012A4
:104C03004DEE7003A3E06D70D780047A007B000241
:104C13005B6174F2120B668A088B09890AECFEED5C
:104C2300FF7A147B00121C8EEA4B60378A828B83D7
:104C3300A3A3A3A3A3A3A3A3A3E4124C86E50A12ED
:104C43004ED1EEF0A3EF124C76124EEC124C7D8A4D
:104C5300828B83127170124C6912685FA3124C70BD
:104C6300F0A3F0024B05EA240FF582E42212712B24
:104C7300A3A322124ED7E4F0A322A3F01270E812EA
:104C8300685F22124C8A22124EDBA3A3A3A32274D1
:104C9300F5120B66EAFEEBFF890A8C088D09EA4FD1
:104CA3006075740169701279011228ACE9F89035C6
:104CB30058E493C3985015800A7404697009124D1F
:104CC3001F500979118052740269704B8E828F8351
:104CD300A3A3A3A3A3A3A3A3A3E50A124D2E125434
:104CE300041269E9A3E4F0A3F09019221269686041
:104CF300188003126AC988828983A3A3124DE888A6
:104D0300828983A3A370EC8003901922EEF0A3EFB2
:104D1300124D357900800279C1025020790412289E
:104D2300ACE9F8903557E493C398221269EDA3A335
:104D3300A322F07A207B0090190AE0F9121C1C22AE
:104D4300C082C083E9F87900901922801D8A828B82
:104D530083A3A3A3A3A3A3A3A3A3E068600574FFF2
:104D6300687001098A828B83A3A3124DE870DE0267
:104D73005B6174F7120B66EA4B700590192280068B
:104D83008A828B83A3A3124DE8601F8A828B83A33D
:104D9300A3A3A3A3A3A3A3A3E06970E4EC600F8A76
:104DA300828B83124DB470D880047A007B00024E4C
:104DB300C2127108E0540422C082C0839019228079
:104DC300068A828B83A3A3124DE860128A828B83A7
:104DD300A3A3A3A3A3A3A3A3E06970E580047A001C
:104DE3007B00025B611267DCEA4B228A828B8312AF
:104DF30059F36C2274F2120B668A0A8B0B8C0C8D9E
:104E03000D750800750900EA4B602A901922800687
:104E13008E828F83A3A3124E3F601AAC0CAD0DEEAE
:104E2300FAEFFB850A82850B83120D46E964017054
:104E3300DF8E088F09AA08AB09024B05E0FEA3E049
:104E4300FFEE4F2274F7120B66901922126AC97C87
:104E5300007D00800DE8FCE9FD88828983A3A3120D
:104E63006AC9E8496030EA687002EB6970E7901933
:104E7300221267D8E86A7002E96B88828983A3A348
:104E83007008126AC99019228009126AC98C828D2E
:104E930083A3A3126409802774F7120B66EAFEEB5F
:104EA300FFEA4F60151228C4124F20126961600394
:104EB300124AD7EEFAEFFB121C9480031211417FC2
:104EC30001020E801267DC1223C0E9641A22124E1B
:104ED300D7A3A322124EDB22F08A828B83A3A3A340
:104EE300A32212712B1259F322124C8AA32274F6B5
:104EF300120B66901922126AE58014126B02124F8C
:104F030020124AD7EEFAEFFB121C94AE08AF09EE5B
:104F13004F70E8901922E4F0A3F0025ED18E828FE5
:104F2300831270DCF583124F348E828F83124F34D9
:104F330022E0FAA3E0FB121C9422C082C083EAFCA5
:104F4300EBFDEA4D6017EA24FBF582EB34FF1269AF
:104F5300667007124F92E0F46007121BE079058038
:104F63002B90190AE0C0E0124F92D0E0F090354F39
:104F7300E493F97A247B19121C16E96401700B7A05
:104F8300007B20124FA1790080027904025B61EA61
:104F930024FFF582EB34FFF583227A207B009019FE
:104FA3000AE0F9121C1C2274F4120B66A2AFE4335C
:104FB300F508C2AF901924124E3F6038EE24FBF57A
:104FC30082EF34FF1269667A007B2090190A60052C
:104FD300124FA48005E0F9121C22E4F50AF50B78C0
:104FE3000A12112EEEFCEFFD7A247B19121C1074A9
:104FF30002121141E508A2E092AFEEFAEFFB023D87
:10500300A8125009E02212500D22125017A3A3A395
:10501300A3A3A322F08E828F83221211417F030266
:105023000E8074F2120B6674FA1211D9EAFEEBFFCA
:105033007508FE7509FF122888E960057911025188
:10504300A71256C7603C901B3BE0C43354E0F8E022
:10505300333354FC48C0E0EE1260D63FF583D0E012
:10506300126B24FAA3E0FB79FF122660EA4B60126D
:105073007508FFEE240F1256CA4404F01256C7D225
:10508300E0F08E828F831251E06006EE2412126BE1
:105093003CEE24131256CA700D90354DE493C0E0D4
:1050A3001251B6D0E0F08E828F83E0A2E750045411
:1050B300038019EE24141256CA701290189CE0C093
:1050C300E01251ACD0E0F090189CE004F0EE241113
:1050D3001256CA64017016901B25E0600D9018A744
:1050E300E0700A8E828F83E07003126B398E828F99
:1050F30083E064017013EE240B1259E96402700912
:10510300EE240F1256CA4440F0AC21AD22EEFAEF62
:10511300FB1228F48A0A8B0B74FE6508700374FF74
:10512300F47003126B02EA4B60768E828F83E0C0C9
:10513300E07401121459D0E0F07404121459EEF023
:10514300A3EFF0EE241E126AC37402121459126400
:105153000974011211C1880C890D780C12112EEEFD
:1051630024201251C91211321251C4120F4FEE24CE
:105173000E1251C91211329018B0120F4F74081247
:105183001459E0F9AC08AD091228EE740812114164
:10519300E9FE74106E700BAA0AAB0B121C9480020A
:1051A3007E10EEF97406024B02EE2414F582E43FFE
:1051B300F58322EE1251BB222413F582E43FF583DB
:1051C30022EE124ADF22F582E43FF583E0F50C7804
:1051D3000C228E828F83A3A3A3A3A3A3A3A3A312AF
:1051E30051E622E0FAA3E0FB122990E922C082C033
:1051F3008374D71211D990AF6A74031211D1742634
:1052030012106F8A828B83A3A3A3A3126AC9740E9D
:1052130012145912696E126AC9740C12145912527B
:10522300E9240D1252D9C0E0741A121459D0E0F0D7
:10523300126865126AC774201214591252E92415B0
:105243001252D9C0E07408121459D0E0F0EA241CB9
:10525300F582E43B126AC774121214591252E924FC
:10526300111252D9C0E07409121459D0E0F0EA24A3
:10527300121252D9C0E07407121459D0E0F0EA2494
:105283001EF582E43B126AC774241214591252E9C0
:1052930024201252D9C0E07426121459D0E01252BD
:1052A300E174FFF0740112145974FFF074021214C4
:1052B3005974FFF090B82F120F4B74041211D1746C
:1052C300071211C912252E74041211417900742991
:1052D300121141025B61F582E43BF583E022F08524
:1052E300218285228322E8F0A3E9F0EA2274F412F2
:1052F3000B6674EC1211D98A0A8B0B8C088D09E9A1
:10530300FF7E107A217B00121C8E852182852283E9
:10531300EAF0A3EB126978E84970030253FD7C219C
:105323007D007900852182852283E0FA121BC290D9
:1053330018BD1267D88521828522831264E7240968
:10534300F582E438F5831269247420121459126A21
:10535300C97411121459E8125A5812692A38F5837C
:105363007402125A5B1270F67402125A45125404F4
:10537300125A5B1270D3EFF07422121459125A06A8
:10538300F9A3E0C9126DCD39F583E812571BA3E0E9
:10539300C9241FF582E43912540B742312145912D1
:1053A30067D874061214591269247408121459E840
:1053B300F074261214591268FEC082C083740C1252
:1053C3001459AC82AD83D083D082740512106F74EC
:1053D30025121459E0C0E07413121459D0E0F07987
:1053E30000AA21AB2212288EE9640170047E00809A
:1053F30009852182852283124ADAEEF97414023D6B
:10540300A5E508F0A3E50922F583E50AF0A3E50B7A
:10541300F02274F0120B6674FF1211D9EAFEEBFF4F
:105423008C088D098A82F583A37408F0EA24161286
:1054330056CA60088A828B83A37410F0EA24171279
:1054430056CA60098A828B83A3E02408F0EA1256C5
:10545300C860088A828B83A3E004F08A828B83A3CB
:10546300A3A3A3A3A3E060198A828B83A3A3A3A30B
:10547300A3A3A3E0C3332402F88A828B83A3E02887
:10548300F0EA24111256D26004740E8001E4F09005
:105493001B33E0640170168A828B83E06401600D24
:1054A30090182BE060071256B2740180041256B2B2
:1054B300E412571B8A828B83A3E0F8EA12396A2825
:1054C300298C828D83F0EA24111256CA6005125C7E
:1054D300F329F0850882850983E0C3947540097533
:1054E3000C00750D000256A9E0FA7B00121C8E8A8F
:1054F3000C8B0DEA4B70030256A98E828F83E0FA60
:105503009018AD125714740278081212E4EA450891
:10551300FAAB09EE241212570E740678081212E43D
:10552300A808EA48FCEBFD1256C760047801800224
:105533007800EE2416FAE43FFBE4C8F9ED49FDEEEA
:1055430024111256CAF5088809740978081212E45E
:10555300ED4509FD8A828B83125714740B78081268
:1055630012E4ED4509FDEE241712570E740C78086A
:105573001212E4ED4509FD8E828F83A3A3A3A3A397
:10558300A3125714740A78081212E4ED4509FDEECC
:10559300242312570E740D78081212E4ED4509F90D
:1055A300EC850C82850D83F0E9A3F0EE24021256FC
:1055B300F1125730F0EE24041256F1A3A312573020
:1055C300A3A3F0EE2413125701F0EE241412570193
:1055D300A3F0750B088A828B83E060151269DA12D7
:1055E30064E3E50C2408FAE4350DFB121D78750B12
:1055F30010EE24171256CA60191265661264E3A8E6
:105603000BE50C28FAE4350DFB121D787408250B05
:10561300F50B8E828F83A3A3A3A3A3A3E0604EEE17
:105623002407F50EE43FF50F850E82F583E0C0E015
:105633001256E0D0E0125720E0C0E0081256E2D044
:10564300E0125720A312695412112A850E82850F86
:1056530083E01259BAA80BE50C281256BC1211416B
:10566300850E82850F83E0C333250BF50B1256C7D6
:105673006008C0E01256E0D0E0F0125CB01269544A
:1056830012112A123969FC7D00740312145912563F
:10569300E9E0F8E50C28F8E4350DF9E82AFAE439ED
:1056A3001256C0121141AA0CAB0D740102693DEAF6
:1056B3002423F582E43FF58322FAE4350DFB121B24
:1056C300B6740322EE2415F582E43FF583E022F558
:1056D30082E43FF583E085218285228322A80BE5BE
:1056E3000C281259CD22E0FA8E828F83A322F8E48C
:1056F3003FF98882F583E0850C82850D8322F5824C
:10570300E43FF58312573AA3A3A322F582E43FF5BE
:1057130083E0F50875090022127119F922F0050BCF
:105723008E828F83A3A3A3A3A3A3A3A322A3A312C2
:105733006B10A312573A22E0850C82850D83A3A335
:10574300A3227403023DA5126ACD8E828F83A3A385
:105753002274F0120B6674FD1211D912691E7402C1
:10576300121459E9F08C0C8D0D750B017C267D000C
:105773007900AA0CAB0D121BC27402121459E0C3B8
:10578300940850030259431256F9F0AC0CAD0D8541
:1057930021828522831259EFFA8521828522831281
:1057A3006015125CECE96003750B0085218285228C
:1057B300831268FE125A10E0F9EA850C82850D8384
:1057C300A3A3A3A3A3A3A3A3A3F0A3E9125A45A34B
:1057D300A3125A10A3A3E0F9E50C12697DEA125A49
:1057E300581264D3C0E0E50C2411127151D0E012B9
:1057F3005A5B2407F582E438F583E0C0E012714D6B
:10580300D0E01269117408125A3CA3E06026852186
:1058130082852283E02408F8A3E03400F9E50C2410
:1058230013F582E4350D126407850C82850D83A37D
:10583300E02408F0850C82850D83A3A3A3A3A3A36F
:10584300A3A3E0602A850C82850D83A385820E8540
:10585300830F1259FDF8A3E03400F9E50C1260D66A
:10586300350D126407850E82850F83E02408F0123C
:1058730059C1E4F01259D5E4F0A3126911A3A3A30B
:10588300A3E06011125A21850C82850D83A3A3A383
:10589300A3A3125A4DE50C1259E2E0700302592FEB
:1058A300125A21FA1259C1EA125A4DF885218285FA
:1058B3002283E028FBA3E034008B82F583E0F8E544
:1058C3000C241A127151E8125A4DE8C39AE50C5090
:1058D300561259DDF8903550E493C39850047E0C6A
:1058E3008006E50C1259DDFE850C82850D83125965
:1058F300FCF508A3E03400F509750A0078081211D5
:105903002AEE1259BA7A9C7B0B1256C1121141121C
:1059130059D5749CF0A3740BF0EEC333F8850E8253
:10592300850F83E02880041259E2E4F0850C828518
:105933000D83A3E0F8850C82850D83E0C3985004A2
:10594300790080701259FCFAA3E03400FBE50C12D5
:105953006B33127154126924850C82850D83E0C365
:1059630098C0E0E50C2417127151D0E0125A3CE0C4
:105973006040E50C2417FEE4350DFF8E82F583E0CD
:1059830024F2F0E50C241DF8E4350DF98882F58343
:10599300E0240EFAA3E03400FB8882898312692491
:1059A3009018A8E0F91227E6E9F88E828F83E0C306
:1059B30098F0A90B02693B25E0FCE433FD22E50CDA
:1059C3001259C72224191259CD22F582E4350DF557
:1059D3008322E50C241B1259CD221259C7E022124F
:1059E300690B1259D022F582E43FF5831259F32251
:1059F300126AD2F5838882E022A3125A0122125A34
:105A0300062822E0F8852182852283E022A3A3E0F1
:105A1300FA852182852283126904A3A3A322850C1C
:105A230082850D83A385820E85830F125A01FAA303
:105A3300E034008A82F583E022126915A3A3A3A3AD
:105A4300A322125A60F583888222F0850E82850F85
:105A530083E004F022F0A3E9125A60C82212711DF8
:105A6300F8A3E02274F4120B668A088B09EA125B2E
:105A730010A3A3F0EA1313543F125B03A3F0EAC489
:105A83001313125B10125B1A7409780A1213B912FA
:105A93005AFAA3A3A3A3A3A3F0EB125AFC125B1914
:105AA300740A780A1213B9E50A5401C0E0EC1269CA
:105AB3000B3DF583D0E0125B1E740B780A1213B909
:105AC300125AFA125B17740C780A1213B9125AFAA3
:105AD300A3125B17740D780A1213B9E50A5401C0B7
:105AE300E0EC2424F582E43DF583D0E0F0740E78F5
:105AF300081213B9023D94E50A54018C828D832266
:105B0300125B09A3A322540F8C828D832254038C2E
:105B1300828D8322A3A3A3A3A3A3A3F08A0A8B0B3F
:105B230022C082C08379008A828B83A3A3A3A3A309
