:020000040000FA
:060000000213B10208A882
:03002B000211645B
:03003300020C2399
:0300430002103276
:030053000207DDC4
:03006B00020BDBAA
:03007B00020C0371
:1000830002083C010000000000F8FF07FFFF00002A
:100093000504000000030001FFFFFFFF00451014EB
:1000A3001027000018010000E001000000920B007F
:1000B3001000E09D10002000008018003000002098
:1000C300FD00020000521B000000000000B21B00F4
:1000D300000000000000000000000000000000001D
:1000E3000000000000000000000000000000000607
:1000F300FFFF1E20FEFFFEFFFEFFFEFFFEFFFEFFD3
:10010300FFFFFF0101FFFFFFFEFF841F0000FC1F35
:1001130000000000000000000000000000000000DC
:100123000000FF3C003C00450032000100E8030AE8
:10013300000A000A000A000A001E00030104010C61
:10014300000206C3BA06DBBA030401070102012A4F
:10015300BD0200BD0404010C0002011EBD0124BD4B
:10016300010400005F1A000000E8030000FFFFB075
:100173001A0188130000E803000064006400B8015A
:10018300A0BB0D00A0BB0D00020202070401051E67
:1001930002051E020A0A010108080103B80B0280C6
:1001A3003E0102FEFFE8030A050001FFFF020A14F5
:1001B30001E00100B0423BAAB83F8C906339AA0C1E
:1001C300A33A00941E3C8042633DCFFE753E1572F8
:1001D300313FF304353F8096184B000080BF2292D5
:1001E300D43EDD9B2A3F04000040FFFF7F7FFFFFDB
:1001F3007FFF010080341872313F020000000503C5
:1002030001010F03000300030003000300030003C5
:10021300000300030005000A00140028004F009E9D
:10022300000000963200000000CC3100000000FF07
:10023300000000FF001213DF60461213FD603DE96A
:10024300687008F618F618F618F622748067F71225
:10025300026C090909748067F7221213FD601D12ED
:1002630013DF7005191919801A12129D701F1212CB
:10027300B1C37003E6673319191940071818182218
:1002830008080874FFF618F618F618F6221212B1C9
:10029300601712147D702192F012146B70195017AD
:1002A30020F014080808090909E7F61819E7F618F1
:1002B30019E7F61819E7F62212146B60E6E869707D
:1002C3001F0808E62480F608E436F618547FB47F46
:1002D3000CE654806007F6E418F618F62218182284
:1002E300E9C6CC08C6CD08C6CE08C6CFC0E0E8C074
:1002F300E0EAC0E0EBC0E009E9F809E7FA09E7FB47
:10030300E6F918E6F8C3EC98ED99EE9AEBC2E7F537
:10031300F0EFC2E795F0500E600CEBCFFBEACEFA9C
:10032300E9CDF9E8CCF8EAA2E7D2E7FAEB33FB131D
:10033300F5F0EEA2E7D2E7FEEF33FFC5F013A2E735
:1003430030E601B313C5F0C3C0E0C0F07F00C39B28
:10035300FB605E9418600F401D14601AD0E023F90F
:10036300D0E0F802043E8AF0E9486003D2F0E4AF3B
:10037300F0FAF9F8803BEB30E40D89F0EA6003D240
:10038300F0E4AFF0F9CAF8EB30E30D88F0EF600268
:10039300D2F0AFF0E4CAC9F8EB54076014FBC3EA28
:1003A30013FAE913F9E813F8EF135002D2E0FFDB75
:1003B300EDD0E0C0E030E739C3E49FFFF5F0EC98FF
:1003C300FC42F0ED99FD42F0EE9AFE42F0D0E0F9E6
:1003D300D0E0F8E5F0607AE923F9EE20E742D802AD
:1003E3008067C3EF33FFEC33FCED33FDEE33FE8068
:1003F300EAEC28FCED39FDEE3AFED0E023F9D0E03B
:10040300F84002801BC3EE13FEED13FDEC13FCEF6B
:10041300135002D2E0FF08B800067F7F74FF802EDE
:10042300EF3350178CF020F00260100CBC000C0D61
:10043300BD00080EBE000408E860DFE933E813FFDF
:10044300EE2313FE4F4D4C8008E95480FFE4FEFD7C
:10045300FCEE33EF33F47004FCFD7E80D0E0FBD080
:10046300E0FAD0E0F8D0E0CFC618CEC618CDC61853
:10047300CCC6F9221213FD7004181818221213DFC8
:10048300700D74FFF61819F61819F61819F622E705
:10049300548066F612146B700F12147D70F014F60C
:1004A30008F608F608F680D112147D700CF608F6EB
:1004B30008768008E6447F80EC1212B4700C1212A6
:1004C300A060BFE65480F6E480BB1212A070051949
:1004D300191980A5E869700C763F18768018F6180C
:1004E300F6E8F922E6CDC0E018ECC0E0E633CD3300
:1004F300CDD313F6E719FCE7191933CC33C3947F33
:10050300400ECD9D502408E65480F6E418F6800F83
:10051300F4043D14501408E6447FF6187680E4187A
:10052300F618F6D0E0FCD0E0FD22CCD313CCFD18B6
:10053300E4C6CBC0E018E4C6CAC0E00808ED08C6AC
:1005430033E613F618E433C675F003C3CA97CA0932
:10055300CB97CB199C40047D08802EBD0003020677
:100563002016B6FF050606081618C3CA33CACB33CE
:10057300CB33CA27CA09CB37CB193CC37D08803E8E
:10058300187D0820E75CC633C6CA33CACB33CB33E6
:10059300DDF1D5F0EB30E77BCA97CA09CB974ACB9D
:1005A300199C406F4B7025E620E0218066187D087A
:1005B300C3CA97CA09CB97CB199CD3C633C6CA33D0
:1005C300CACB33CB3350C9DDE7D5F0E1D3E4C6362C
:1005D300C608C636C608C636C608C636C6181818AC
:1005E3008031C3CA97CA09CB97CB199CB34097C62E
:1005F30033C6CA33CACB33CB33DD34D5F02EC6A2D0
:10060300E0C640C8CA27CA09CB37194A70BECB3CDB
:10061300B480B90808E63308E633601F181818D009
:10062300E0FAD0E0FBD0E0FCD0E0FD22187D08CA60
:1006330027CA09CB37CB193CD3808013F618E4B60D
:100643007F11F618B6FF0EF618C60470D2080876A6
:100653008080CAF618F618F680C5001213FD604FA5
:100663001213DF6012E7548066F612129D701112A6
:10067300147D703B090909F4F618F618F618F622EA
:100683001212B1701512146B08080860EAE6447F71
:10069300F618768018E4F618F62212146B60161218
:1006A300147D7012E4F608F608F608E65480F6099D
:1006B300090918181822EAC0E0EBC0E0ECC0E0ED2D
:1006C300C0E0E687F0A4FBACF008E687F0A42CFCBE
:1006D300E435F0FA1809E687F0A42C4B60027401A4
:1006E300CA35F0FCE433FB09E687F0D2F7A42CCB40
:1006F30035F0FC1908E687F0A42BCC35F0FBE43386
:10070300FD0819E687F0D2E7A42C4ACB35F0CD34A7
:1007130000FC09E687F0D2E7A42DCC35F0FDE433E5
:10072300FA0918E687F0D2F7A42CCD35F0CA3400C5
:10073300FC08E687F0D2E7D2F7A42ACC35F07A7E1C
:1007430020E70B0ACB33CBCD33CDCC33CC33CB33F8
:1007530050147004ED30E00ED2F1E4CD3DCDCC3C2D
:10076300CC3B5005DA05C2F1EB547FC63308E633C0
:1007730092F0FBE73309E733C39A502D2B70190C22
:100783000D4C4D70151806E608C333700D20F10AA1
:10079300A2F013F6E418800B4024E4F630F002765E
:1007A3008018F618F618F68024D33B14501074FF03
:1007B300A2F013F6187680E418F618F6800FA2F06C
:1007C30013F618E63303F618ECF618EDF6D0E0FD51
:1007D300D0E0FCD0E0FBD0E0FA22C0E074F1120CD0
:1007E30043A2AFE433F509D2AF85A708AFA1EF5514
:1007F30008FE74105E60061218D675A1EF74085EC9
:1008030060081218DC75A1F78024EFA2E092F0E5EE
:1008130008A2E082F05017906198E0F8900A6FE028
:10082300C398A2D265D0335002E8F075A1FEE50962
:10083300A2E092AF7F02020CA2C0E074F2120C435A
:10084300A2AFE433FED2AF9061A4E0F8759B00E55C
:100853009158540860087591F712192A8023E5917D
:1008630058541060087591EF1219308014E591A265
:10087300E092F0E8A2E082F05007E0C2E0F0121A42
:100883007A9061A3E0F8E5E9585404600E121A5017
:1008930075E9FB906193E0A2E640F2EEA2E092AF2D
:1008A3007F01020CA2C0E074F2120C43A2AFE43346
:1008B300FED2AF9061A5E0F8E5BF58540460067519
:1008C300BFFB121A9280D412091F30F0431209643D
:1008D300803E8A088B098C0A8D0B780812091F2029
:1008E300F01430E72B74FFFCFBFA747F8022E4FCE6
:1008F300FBFA7480801AB48008BC00F2BB00EF805E
:100903000F50EBF9E4C39AFAE49BFBE49CFCE499F3
:10091300C6CC18C6CB18C6CA18C6F922E4C9C6087D
:10092300CAC608CBC6D3330308CCC63392F0C394EC
:100933007F402E94184019C9B90704CACBCC225062
:1009430025C309CA33CACB33CBCC33CC33D9F42236
:10095300F4600DC9CCC313CB13CBCA13CAD9F6CCDD
:1009630022E4FCFBFA2214FCFBFA22C3E498F8E429
:1009730099F91209AF8026C3E49AFAE49BFBE920B4
:10098300E7E91209AFE498F8E499F922C3E498F887
:10099300E499F91209AFE498F8E499F9C3E49AFAEF
:1009A300E49BFB22EB20E7CFE920E7E0B90010BB93
:1009B3000008E88AF084F8AAF022E4FBC8FA22EBE4
:1009C30070227B10C833C8C933C9335007C39AC3D5
:1009D300DBF280069A50012ADBEAC833F4C8C93334
:1009E300F4C9FA2275F008E4C833C8C933C933C956
:1009F3009AC99B5004C92AC93BD5F0ECFBC833F410
:100A0300C8E4C9FA22080808EAC0E0EBC0E086F0AF
:100A1300E7A4FA180986F0E7A42AFA180986F0E78A
:100A2300A42AFA180986F0E7A42AFA1986F0E7A49B
:100A3300FBE5F02AFA190886F0E7A42BFBE5F03A68
:100A4300FA190886F0E7A42BFBE5F03AFA1818091F
:100A530086F0E7A4C5F02BFBE43AFA1908E7C5F0E2
:100A6300C6A426F6E5F03BFBE43AFA1886F0E7A4C1
:100A7300F6E5F00826F6E43B08F6E43A08F6D0E09B
:100A8300FBD0E0FA22080808E630E71112126112DF
:100A93000AA0080808C64480C6181818221818188F
:100AA300E9799EC608CAC608CBC608CCC6C370205F
:100AB3007996CACBCC7019798ECBCC70137986CC4E
:100AC300700EF9802ACA33CACB33CBCC33CC33195B
:100AD30030E7F2CCCBCA3350147004EA30E00DE4B3
:100AE300CA3ACACB3BCBCC3CCC500209C3E913C6B0
:100AF300CC182313C6CB18C6CA18C6F922E4CFC034
:100B0300E0E4CEC0E0E4CDC0E0E4CCC0E075F0208A
:100B1300E626F608E633F608E633F608E633F61873
:100B23001818EC33FCED33FDEE33FEEF33FFC3EC6B
:100B33009709ED9709EE9709EF97191919400FFFD8
:100B4300EC97FC09ED97FD09EE97FE191906D5F010
:100B5300BFECF709EDF709EEF709EFF7191919D00B
:100B6300E0FCD0E0FDD0E0FED0E0FF222521C582ED
:100B7300C0E0E52234FFC583C0E0E521C3958224AC
:100B8300F810AF088583228582218008858322851A
:100B93008221D2AFCEF0A3E520F0A37808E608F0D7
:100BA300A3DEFAEFF0A3E58124FAF8E608F0A3E662
:100BB30008F0A3E608F0A30808E608F0A3E608F0A7
:100BC300A315811581D0E0FED0E0F81581158115BC
:100BD30081E8C0E0EEC0E022C0E074F2120C43A250
:100BE300AFE433FED2AFE589A2E4500579011218D0
:100BF30022758900C2C5EEA2E092AF7F01020CA26A
:100C0300C0E074F2120C43A2AFE433FED2AFE58A24
:100C1300A2E350057902121822758A00C2EB80D62E
:100C2300C0E074F2120C43A2AFE433FED2AFE58B03
:100C3300A2E050057904121822758B00C2E880B631
:100C4300C0D02521C582C0E0E52234FFC583C0E0C2
:100C5300E521C3958224F310AF0885832285822181
:100C63008008858322858221D2AFC8F0A3E9F0A34F
:100C7300EAF0A3EBF0A37908E709F0A3D8FAECF0C4
:100C8300A3EDF0A3EEF0A3EFF0A3D0E0F0A3D0E048
:100C9300F0A3D0E0F0A3E520F0A3E5F0F0A32285D4
:100CA3002283852182E0C0E0A3E0F9A3E0FAA3E078
:100CB300FBA37808E0F608A3DFFAE0FCA3E0FDA3BA
:100CC300E0FEA3E0FFA3E0C0E0A3E0C0E0A3E0F503
:100CD300D0A3E0F520A3E0A3F5F010AF08858322AD
:100CE3008582218008858322858221D2AFD082D05C
:100CF30083D0E0F8D0E032121456B90003020D3964
:100D0300E4900401784D791A8002F0A3D8FCD9FA53
:100D13007A4D7B1D90008678B379028015E493A306
:100D2300AD82AE838A828B83F0A3AA82AB838D824A
:100D33008E83D8E9D9E775821C7583A374061210D4
:100D4300F57582EA75832E74001210F5FF75F010A5
:100D53008E238F248582288583278521828522837C
:100D6300E0CEA3E0CF852882852783EBC9EAC8EDCF
:100D7300CBECCAC3E833C8E933C9EA33CAEB33CB94
:100D8300C3EA9EF526EB9FF525B35004AB25AA26AF
:100D9300EC33CCED33CDD5F0DAAE23AF24221213EE
:100DA300FD601C1213DF601712146B700712147DA1
:100DB3007001D322C0D012147D7006D0D0B322C3E9
:100DC3002233D0D0501430E0F6C3E7960809E796F3
:100DD3000809E7960809E796B32220E0D5E69708C5
:100DE30009E6970809E6970809E697B3221213FD67
:100DF300601B1213DF601612146B700712147D60F0
:100E03000CB322C0D012147D7005D0D022C322337C
:100E1300D0D0501330E0EBC3E7960809E7960809F2
:100E2300E7960809E7962220E0E4E6970809E697A3
:100E33000809E6970809E69722D083D082ECC0E040
:100E4300EDC0E0E493A3FCE493A3FDED4C600D122D
:100E53000F14EC24FFFCED34FFFD80EFE493A3FCBF
:100E6300E493A3FDED4C600D120FDDEC24FFFCEDCC
:100E730034FFFD80EFD0E0FDD0E0FCE493A3C0E0BD
:100E8300E493C0E022852283852182E0A3FEE0A3D0
:100E9300F5207808E0A3F608DFFAE0A3FFE0A3C09B
:100EA300E0E0A3C0E0E0A3C0E0E0A3C0E0E0A3C0B3
:100EB300E010AF0885822185832280088582218501
:100EC3008322D2AFD083D0820210FBD083D082E9B9
:100ED300C0E0E493A3C386F0C5F095F0F908E4936A
:100EE300A386F0C5F095F0700BE493A3C399400576
:100EF300E9048002A3E475F002A42582F582E5F0FB
:100F03003583F583D0E0F9E493A3C0E0E493C0E034
:100F130022C0E0C3E49396087401939618400FE44B
:100F23009366700808740193661870007019A3A380
:100F3300C3E49396087401939618A3A3400DD0E0DD
:100F4300D0E0D0E0020E78A3A3A3A3A3A3D0E02212
:100F53007404800474028000CCC0E0EDC0E0E5219D
:100F6300C39CCCAD2250011D10AF068C218D228075
:100F7300068C218D22D2AF121077D0E0FDD0E0FC99
:100F83002274028000CCC0E0EDC0E0E521C39CCC1C
:100F9300AD2250011D10AF068C218D2280068C21BD
:100FA3008D22D2AF121055D0E0FDD0E0FC221213F7
:100FB300FD60251213DF602012146B700302147D91
:100FC300080808E76670101819E766700A1819E729
:100FD3006670041819E76622F422C0E0C0F088F0B6
:100FE300E4936670080874019366187000A8F0A370
:100FF300A3700BD0F0D0E0D0E0D0E0020E78A3A332
:10100300D0F0D0E022D083D082CCC0E0E493A360C0
:10101300061210B71470FAE493A360061211F714C2
:1010230070FAD0E0FCE493A3C0E0E493C0E022C0F4
:10103300E074F2120C43A2AFE433FED2AFC2C0E5B8
:10104300D1A2E4500312185EEEA2E092AF7F010238
:101053000CA2CAC0E0E493A3C582CCC582C583CDEC
:10106300C583F0A3C582CCC582C583CDC583DAE52C
:10107300D0E0CA22CAC0E0E0A3C582CCC582C58342
:10108300CDC583F0A3C582CCC582C583CDC583DA24
:10109300E6D0E0CA2270090808082260161818185A
:1010A300C6C333C608C633C608C633C608C633C666
:1010B300D5E0EA22C0E0E493A3D39C5010E493A3C9
:1010C300C39C400AD0E0D0E0D0E0021025A3A3A344
:1010D300D0E022C008C3E096F50808A3E0964208D2
:1010E30008A3E096420808A3E09645087001D3D010
:1010F3000822C09FF59FE473D09F22D083D082C083
:101103009FE493C0E0740193C0E0740293F59F22BF
:101113002521F58210AF08F521400C15228008F532
:101123002140021522D2AF852283227404800A74DF
:10113300038006740280027401C0E0F404121113E8
:10114300D0E01214192200C0D0252110AF08F521D8
:10115300500C05228008F52150020522D2AFD0D0D1
:1011630022C0E0C0D0E8C0E0A8A8D2AFC2C7E8A2BE
:10117300E792AFD0E0F8D0D0D0E032BB0102E72253
:10118300C082C08389828A83BB0003E08002E49328
:10119300D083D082226016080808C6C313C618C6B7
:1011A30013C618C613C618C613C6D5E0EA22C3E091
:1011B300C696F608A3E0C696F608A3E0C696F60818
:1011C300A3E0C696F6222521F8E43522F92225214B
:1011D300FAE43522FB222521FCE43522FD222521D8
:1011E30010AF08F521400C15228008F521400215A7
:1011F30022D2AF22C0E0E493A36C7009D0E0D0E028
:10120300D0E0021025A3A3D0E022C3E7960809E7A4
:10121300960809E7960809E796A2D265D03322C358
:10122300E09608A3E09608A3E09608A3E096A2D26E
:1012330065D03322E76670100809E766700A08096B
:10124300E76670040809E76622E066701008A3E009
:1012530066700A08A3E066700408A3E06622181803
:1012630018E4C396F608E496F608E496F608E496BE
:10127300F622C3E096F008A3E096F008A3E096F008
:1012830008A3E096F022C3E697F60809E697F60866
:1012930009E697F60809E697F622181818E60846AD
:1012A300087009E626087005E633F42208221919A6
:1012B30019E70947097009E727097005E733F4229D
:1012C3000922C3E4939608740193960874029396D3
:1012D300087403939622E627F60809E637F6080909
:1012E300E637F60809E637F622700422600D18C6C1
:1012F300C333C608C633C6D5E0F41822E657F6084A
:1013030009E657F60809E657F60809E657F622E014
:1013130026F608A3E036F608A3E036F608A3E0367F
:10132300F622E026F008A3E036F008A3E036F00842
:10133300A3E036F022E056F008A3E056F008A3E05D
:1013430056F008A3E056F022E647F60809E647F60A
:101353000809E647F60809E647F622E056F608A329
:10136300E056F608A3E056F608A3E056F622600D11
:1013730008C6A2E713C618C613C6D5E0F322C6F4FF
:10138300C608C6F4C608C6F4C608C6F4C622C3E037
:101393009608A3E09608A3E09608A3E09622C3E785
:1013A300960809E7960809E7960809E7962275D093
:1013B3000075813F75210175220400020CFA600C4F
:1013C30008C6C313C618C613C6D5E0F422E6F00850
:1013D300A3E6F008A3E6F008A3E6F022E70947092D
:1013E300C3134709336002E733F422E0F608A3E0AE
:1013F300F608A3E0F608A3E0F622E6084608C313BE
:101403004608336002E633F422800100E9F874FFF2
:1014130028F90470F622CAC0E0E6F0A308DAFAD08D
:10142300E0FA22E0F8A3E0F9A3E0FAA3E0FB22E864
:10143300F0A3E9F0A3EAF0A3EBF022EAF0A3EBF0C8
:10144300A3ECF0A3EDF022E0FAA3E0FBA3E0FCA3FE
:10145300E0FD22E5C754F84401F5C77901222521AF
:10146300F582E43522F58322E62618461846184607
:1014730022C2AF75D69F02000022E72719471947FA
:101483001947221210FEC6DB031210FE4EDC0312B4
:1014930010FE09DD031210FE6CDD031210FEB0DD39
:1014A300031210FE4ADE031210FEC8DE031210FE02
:1014B300FBDE031210FE09E0031210FE29E0031203
:1014C30010FE7DE0031210FE65E1031210FE67E3D8
:1014D300031210FE09E4031210FE59E6031210FE74
:1014E300DDE6031210FEE2E9031210FE16EC03120E
:1014F30010FE4EEC031210FEADED031210FEB7ED1D
:10150300031210FE06EE031210FED8EF031210FEB4
:1015130001A5061210FE35A5061210FE88A50612B7
:1015230010FE8BA6061210FEEE9C061210FE4C9DBA
:10153300061210FE8E9D061210FEB09D061210FEBE
:101543006A9E061210FEAE9E061210FEE39E06125F
:1015530010FE6DF1031210FEE9F1031210FE1CF2EE
:10156300031210FE4AF2031210FE88F2031210FE59
:10157300C3F4031210FEE2F4031210FE27F5031264
:1015830010FEBDF5031210FE09F6031210FE9DF6C0
:10159300031210FE75F7031210FED1F7031210FEAB
:1015A3002FF8031210FEACF8031210FEE2F8031238
:1015B30010FE2DF9031210FE53F9031210FEE3F986
:1015C300031210FE7AFA031210FEC6FA031210FE7B
:1015D300F7FA031210FE2EFB031210FEB4FC0312E3
:1015E30010FE7EFD031210FE4EFE031210FEBFB965
:1015F300051210FEC9B9051210FEDAB9051210FE64
:10160300F2B9051210FE58BA051210FE83BA05127C
:1016130010FE9EBA051210FED3BA051210FEFBBAD5
:10162300051210FE23BB051210FE52BB051210FE5D
:101633004FBC051210FE9CBC051210FEB1BC051276
:1016430010FE43BD051210FE92BD051210FEBABD79
:10165300051210FEDFBE051210FEACC0051210FE0F
:101663004FC3051210FE69C3051210FECD86061284
:1016730010FEF986061210FE1987061210FE408727
:10168300061210FE8788061210FEA888061210FEA6
:101693006689061210FEFD89061210FE87B7061230
:1016A30010FE8CB7061210FEBFB7061210FE50F9DB
:1016B300021210FE50FA021210FE81FA021210FEFC
:1016C3008EFA021210FEACFA021210FEDBFA0212BC
:1016D30010FE0AFB021210FE76FC021210FE32FE0E
:1016E300021210FE4FFE021210FEB6FE021210FE90
:1016F300E8FE021210FEEBFE021210FEEEFE0212D4
:1017030010FEFFFE021210FEA1D6051210FEF6D641
:10171300051210FE3AD7051210FE44D7051210FE2B
:101723004ED7051210FEAAD7051210FE1ED80512B9
:1017330010FE05D9051210FE69DA051210FE94DBBE
:10174300051210FE9EDB051210FE63DC051210FE6F
:101753007DDC051210FE86DC051210FE8FDC0512FF
:1017630010FEEEDC051210FEB67D001210FE7D7E2B
:10177300001210FE8F7E001210FEE17E001210FE9A
:10178300FFB3061210FE10B4061210FEAEB406121A
:1017930010FEB9B4061210FED1B4061210FEF27F89
:1017A300001210FE65B8061210FE27FF031210FE8A
:1017B30037FF031210FE4FFF031210FEB7FF031291
:1017C30010FE0EB1061210FE91B1061210FEF7B113
:1017D300061210FE12A1061210FE26A1061210FE1A
:1017E3008DA1061210FED6A1061210FEFEA106124E
:1017F30010FE22A2061210FE45A2061210FE7DA2C2
:10180300061210FEA5A2061210FEE0A2061210FE9A
:1018130010B3061210FE5DB3061210FE72B3061269
:1018230010FEB7B3061210FE0080061210FE0E80E3
:10183300061210FE8780061210FE5F81061210FE4C
:101843002283061210FECDB7061210FEF192061285
:1018530010FE5E93061210FEED94061210FE5695CE
:10186300061210FEA195061210FEAF95061210FE89
:1018730072DD051210FE9EDD051210FEE2DF051279
:1018830010FE22E0051210FE62E0051210FE76E063
:10189300051210FE8FE0051210FE81E1051210FE05
:1018A30026E2051210FE3AE2051210FE92A8061275
:1018B30010FEB6A8061210FECFA8061210FE01A94C
:1018C300061210FE31A9061210FE5EA9061210FEC2
:1018D300C0A9061210FECFA9061210FED9A906123E
:1018E30010FEE6A9061210FEC295061210FEE2953E
:1018F300061210FE2196061210FE3C96061210FEEA
:101903005B96061210FEC196061210FECA960612C8
:1019130010FE2797061210FE3697061210FE5A97EE
:10192300061210FE1B98061210FE2898061210FECF
:101933003998061210FEE0B4061210FE28B50612FE
:1019430010FE54B5061210FE2DE7051210FE87E8AF
:10195300051210FE95E8051210FEA8E8051210FE08
:10196300BDE8051210FED2E8051210FEE5E80512E7
:1019730010FE59E9051210FEBEE9051210FE60EAD9
:10198300051210FE24EB051210FE34EB051210FEB7
:1019930043EB051210FE5CFF011210FE80FF0112E3
:1019A30010FEA8FF011210FED0FF011210FE67986F
:1019B300061210FE8E98061210FEAC98061210FE48
:1019C3001F99061210FE2890061210FE419006126F
:1019D30010FE4D90061210FE6190061210FE7F90CD
:1019E300061210FE8990061210FE9390061210FE46
:1019F300A690061210FE2C91061210FEA19106125B
:101A030010FED091061210FE1E92061210FE6D9269
:101A1300061210FE8892061210FE9292061210FE13
:101A2300A392061210FEE692061210FE34B70612B7
:101A330010FE40CD051210FE6ACD051210FE87CDB3
:101A4300051210FE9ACD051210FEB0CD051210FE40
:101A53000ECE051210FE46CE051210FE3AD2051226
:101A630010FE7FD3051210FEB2D3051210FE15D45B
:101A7300051210FE75D5051210FE9DD5051210FE38
:101A8300B2D5051210FEC2D5051210FE06D60512F8
:101A930010FE61D6051210FE71D6051210FEBCAD04
:101AA300061210FED6AD061210FEFEAD061210FE93
:101AB30017AE061210FE3BAE061210FE59AE06120A
:101AC30010FE70AE061210FE9EAE061210FEB9AEE8
:101AD300061210FEB7FF041210FE0CFC051210FED6
:101AE3001CFC051210FE21FD051210FE53FD05120C
:101AF30010FE83FD051210FEA6FD051210FEBDFDAE
:101B0300051210FEF7FD051210FE5CFE051210FE15
:101B13009EFE051210FEDDFE051210FE0EFF0512DD
:101B230010FE39FF051210FE8AAC061210FEA8AC97
:101B3300061210FE08AD061210FEA7AD061210FE27
:101B430009FF021210FE46AB061210FE6AAC061223
:101B530010FE8FAF051210FEF6B2051210FEE7B4A9
:101B6300051210FE1DB6051210FEFEB6051210FE7C
:101B73007AB8051210FE46B9051210FE9AB905127D
:101B830010FEE5A6061210FE06A7061210FE2BA8ED
:101B9300061210FE55A8061210FEC1FF031210FE16
:101BA300D1FF031210FEDBFF031210FE9393051205
:101BB30010FE9693051210FE2E9B051210FE3A9C02
:101BC300051210FEB99D051210FE7B9E051210FE34
:101BD300619F051210FE58A0051210FE46A10512C2
:101BE30010FE03A2051210FE33A2051210FEE4A399
:101BF300051210FEF0A9061210FE02AA061210FE2C
:101C030016AB061210FE19AB061210FE0AB006122E
:101C130010FE40B0061210FE56B0061210FE98B029
:101C2300061210FEA8B0061210FEECB0061210FE4B
:101C3300F6B0061210FE56F8011210FE99F80112C2
:101C430010FEFEF8011210FE1BF9011210FE34F90A
:101C5300011210FED6F9011210FEDFF9011210FE77
:101C630024FA011210FE4DFA011210FE5AFA011263
:101C730010FED5FA011210FE60FB011210FEA5FB47
:101C8300011210FEF0FB011210FE55FC011210FEB2
:101C930078FC011210FEE9FC011210FE3EFD011258
:101CA30010FE79FD011210FEAEFD011210FEC0FD03
:101CB300011210FED2FD011210FEF1FD011210FE01
:101CC300FAFD011210FEA8FE011210FEEBFE011236
:101CD30010FE29FF011210FECCB5061210FE4EE2D3
:101CE300051210FE8EE3051210FEB1E3051210FE7D
:101CF300C2E3051210FE94E5051210FEB4E50512C9
:101D030010FEB89A061210FEEE9A061210FE369BCB
:101D1300061210FE8F9C061210FE0080051210FEA4
:101D23001981051210FE5381051210FE018305125D
:101D330010FE2F83051210FE9585051210FED58522
:101D4300051210FE7987051210FE0988051210FE90
:101D53005D88051210FEFF88051210FE41890512E9
:101D630010FE8389051210FEE08A051210FE2E8CE8
:101D7300051210FE658E051210FE938E051210FEDD
:101D8300BA8E051210FEC38E051210FE1A8F0512AD
:101D930010FEB58F051210FEBD92051210FE44937E
:101DA300051210FE4FB8061210FE1DF4051210FEA8
:101DB30033F4051210FED7F4051210FE16F50512C2
:101DC30010FE33F5051210FE64F5051210FEB1F591
:101DD300051210FEE4F5051210FE1FF6051210FEA3
:101DE30014F8051210FE10B2061210FE6FB206129E
:101DF30010FEADB2061210FEEEB2061210FE29B6A8
:101E0300061210FEBDCC021210FEC9CC021210FE47
:101E13002BCD021210FE35CD021210FEC6CD0212DA
:101E230010FE02CE021210FEEBCE021210FEFECE08
:101E3300021210FE4BCF021210FEDACF021210FE76
:101E430010D0021210FE8BD0021210FE5AD20212D0
:101E530010FE54D4021210FE32D5021210FE50D6D8
:101E6300021210FE96D8021210FED9D9021210FEE9
:101E730088DA021210FE28DF021210FE1CE00212A2
:101E830010FEC0E0021210FEE5E0021210FE81E136
:101E9300021210FE96E1021210FEBAE1021210FEC7
:101EA30028E2021210FE45E2021210FE6FE2021255
:101EB30010FE05E4021210FE26E4021210FECCE42A
:101EC300021210FE14E5021210FE69E5021210FE62
:101ED30009E6021210FE6DE6021210FECBE60212B4
:101EE30010FE78E7021210FEE6E7021210FE19E870
:101EF300021210FE87E8021210FED8E9021210FE49
:101F03002EEA021210FECBEA021210FE25ED021297
:101F130010FE8EED021210FE04EF021210FE2EEFE1
:101F2300021210FE4AF1021210FEF5F3021210FE25
:101F33001EF5021210FE35BD011210FE66BF01121E
:101F430010FE3BC4011210FED1C4011210FE0EC5D7
:101F5300011210FEB6C5011210FEB9CB011210FE1C
:101F6300D1CC011210FEAACD011210FEBCCD01127C
:101F730010FEF2CD011210FE7DCE011210FE79CFBC
:101F8300011210FEF2CF011210FE05D0011210FE55
:101F930027D0011210FE85D0011210FEE9D00112E4
:101FA30010FEE3D1011210FEFAD1011210FE19D274
:101FB300011210FE34D2011210FEA0D5011210FE40
:101FC3005DD7011210FEBEDB011210FEA7DD011268
:101FD30010FEBBE1011210FEC2E3011210FE5BE72B
:101FE300011210FE71EB011210FE43EF011210FEFD
:101FF30052F3011210FEF0F3011210FED8F4011295
:1020030010FEFEF4011210FED8B6061210FE9BFA63
:10201300041210FE28FB041210FEA2FB041210FE91
:10202300C3FB041210FE9FFC041210FE0CFE0412EC
:1020330010FEC5E4041210FEF7E4041210FE6FE56F
:10204300041210FE72E6041210FECEE6041210FE15
:1020530045E8041210FE61E8041210FEB3E804120E
:1020630010FEF1E8041210FE04E9041210FE56E912
:10207300041210FEAFE9041210FE6AEA041210FE05
:10208300E4EA041210FE0EEB041210FE46EB0412F7
:1020930010FEB8EC041210FE91ED041210FEE0EEF7
:1020A300041210FEB3EF041210FE3BF0041210FEF4
:1020B30085F0041210FE9FF0041210FEE6F00412E5
:1020C30010FE06F1041210FE9CF1041210FE16CA53
:1020D300051210FE21F2041210FE76F2041210FE15
:1020E300D0F2041210FE21F3041210FE79DB031266
:1020F30010FED5F6041210FE11F7041210FE03F8B9
:10210300041210FE2BF8041210FE2EF8041210FE17
:1021130038F8041210FE4BF8041210FECAF8041229
:1021230010FE00F9041210FE2CF9041210FE53F9EC
:10213300041210FE77F9041210FEE8F9041210FEDF
:10214300F6F9041210FE0CFA041210FE2DFA041212
:1021530010FE0FD5031210FE71FA041210FE89FA55
:10216300041210FE57B5061210FE63B5061210FED8
:1021730097B5061210FEF57F001210FE00800412C0
:1021830010FE2380041210FE6981041210FEB28136
:10219300041210FE1A82041210FE7482041210FE3E
:1021A3007782041210FEC382041210FE36830412D7
:1021B30010FEBE83041210FEC183041210FE4B8472
:1021C300041210FE8C84041210FE6188041210FEA7
:1021D300F989041210FE338A041210FE9A8A04123B
:1021E30010FEE88D041210FE738E041210FE5E8F33
:1021F300041210FE9C90041210FEB991041210FEFA
:102203007C92041210FEE793041210FE83940412CE
:1022130010FE9095041210FE7C97041210FEB598E0
:10222300041210FEF999041210FE30B6041210FEC7
:10223300DAB6041210FE40B7041210FE59B70412A6
:1022430010FED5B7041210FE19B8041210FE34B9EB
:10225300041210FE70B9041210FEF0B9041210FE3D
:102263003BBA041210FEA2BA041210FE1DBC0412E3
:1022730010FE4BBD041210FED0BD041210FED6BFDB
:10228300041210FE7FC0041210FE23C1041210FEBC
:1022930082C1041210FEF7C1041210FE4FC30412D0
:1022A30010FE17C4041210FE61C4041210FE7DC494
:1022B300041210FE23C5041210FE6FC5041210FE93
:1022C300FBC5041210FE4BC7041210FEFDC8041216
:1022D30010FEBFCA041210FE70CB041210FEDACB3C
:1022E300041210FEFACC041210FEBF9B041210FE5F
:1022F300339C041210FE7B9C041210FEBF9C04123C
:1023030010FE089D041210FE529D041210FE8A9DB9
:10231300041210FE089E041210FE629E041210FEA8
:10232300B69F041210FE47A0041210FE9FA00412D1
:1023330010FEB9A0041210FEE1A0041210FE39A190
:10234300041210FEA8A3041210FEC7A3041210FE69
:10235300ABA4041210FEDBA5041210FE58A604124F
:1023630010FEA7A6041210FE08A7041210FEAEA7C3
:10237300041210FE7CA9041210FE7CAA041210FEA3
:10238300FAAB041210FEDBAD041210FE41B00412CE
:1023930010FEF1B1041210FEC1B2041210FE2FB3ED
:1023A300041210FE46B3041210FE3EB4041210FED3
:1023B3002EB5041210FE99B5041210FE678306129F
:1023C30010FEB384061210FE7085061210FED4852B
:1023D300061210FE4886061210FE2C8A061210FE04
:1023E300478A061210FE8B8A061210FEB18A061265
:1023F30010FED78A061210FEEF8A061210FE528BC9
:10240300061210FE678B061210FE8A8C061210FE4F
:10241300938C061210FE9C8C061210FEA58C0612DD
:1024230010FEAF8C061210FE7CEB051210FE7BEF44
:10243300051210FE80EF051210FE82EF051210FE4A
:102443008EA3061210FE31B8061210FE528D06122C
:1024530010FEECAE061210FE91FF051210FE039F54
:10246300061210FE05B8061210FE21F8051210FE22
:1024730081B6061210FE91B6061210FEE9EF0512A0
:1024830010FE35AC031210FE68AC031210FED4AC80
:10249300031210FE6FAD031210FE0CAE031210FEFA
:1024A30051AE031210FE73AE031210FE8CAE031274
:1024B30010FEB2AE031210FED4AE031210FE12AF22
:1024C300031210FE56AF031210FE78AF031210FE74
:1024D300DAAF031210FEA1B0031210FE58B10312BB
:1024E30010FECAB1031210FE95B2031210FEE8B239
:1024F300031210FE4EB3031210FE88B3031210FE34
:10250300DAB3031210FE48B4031210FEB3B403127D
:1025130010FEB6B4031210FE37B5031210FECEB58B
:10252300031210FE2FB6031210FE1FB7031210FE84
:102533003EB7031210FEA2B8031210FEAFB8031287
:1025430010FEBBB9031210FEC8B9031210FED1B9B5
:10255300031210FEA9BB031210FEC3BC031210FE2C
:102563003CBD031210FEAEBD031210FED0BD03121C
:1025730010FE64BE031210FE38C0031210FE0FC417
:10258300031210FE23C4031210FE33C4031210FE01
:102593003DC4031210FE46C4031210FE4FC40312BF
:1025A30010FE59C4031210FE86C4031210FEAFC4FA
:1025B300031210FEBAC4031210FEDEC4031210FE8F
:1025C30002C5031210FE6CC5031210FEB2C503123E
:1025D30010FECFC5031210FE4CC6031210FE83C6B5
:1025E300031210FEC2C6031210FE0FC7031210FE21
:1025F30095C7031210FE63C9031210FEF8C9031234
:1026030010FEDCCA031210FE43CD031210FE9CCD54
:10261300031210FEE6CD031210FE41CF031210FE8B
:102623007FCF031210FED1CF031210FE86D0031208
:1026330010FE35D1031210FE72D1031210FE07D221
:10264300031210FE73D2031210FE0080021210FE5A
:102653003280021210FE6080021210FE36820212D5
:1026630010FE1683021210FE6E83021210FEA9845E
:10267300021210FEF584021210FE1E88021210FED2
:10268300118B021210FE618C021210FEF78C0212E3
:1026930010FE038D021210FE358D021210FEB88E4D
:1026A300021210FE6990021210FEFD90021210FE3B
:1026B3004091021210FEBE91021210FEDB91021233
:1026C30010FE0B92021210FE4092021210FE1093A3
:1026D300021210FEB993021210FE3F96021210FE70
:1026E3005F97021210FE4A98021210FECC98021253
:1026F30010FE009D021210FE3D9D021210FE959DDC
:10270300021210FEC89D021210FE329E021210FE2B
:10271300689E021210FEF39E021210FE4B9F0212DD
:1027230010FE22A0021210FEDBA0021210FE76A100
:10273300021210FE7EA4021210FE9AA5021210FECF
:102743003DA9021210FE31AA021210FE34AA02128F
:1027530010FE63AA021210FE69AC021210FE42AD13
:10276300021210FE85AD021210FEDBAE021210FE45
:102773001AAF021210FEA3AF021210FED7AF02125D
:1027830010FE9CB0021210FEB4B2021210FE25B36A
:10279300021210FE65B3021210FEF3B3021210FE12
:1027A30015B5021210FED7B5021210FEDEB70212E3
:1027B30010FEF6B7021210FE0AB8021210FE42B85B
:1027C300021210FE70B8021210FEEFB9021210FED0
:1027D30014BB021210FE71BB021210FE23BC0212C4
:1027E30010FE4ABC021210FE11BD021210FEA9BD5A
:1027F300021210FECFBF021210FE04C0021210FE1E
:1028030067C0021210FE96C1021210FE3EC20212EF
:1028130010FE6FC2021210FE87C2021210FE16C310
:10282300021210FECAC5021210FEA2C7021210FE47
:10283300BEC7021210FEDAC7021210FEA8C80212A7
:1028430010FE9BCC021210FEAA35001210FEDC35DE
:10285300001210FECB39001210FE173A001210FEC0
:102863005D3A001210FEFF3A001210FE5B3B0012AD
:1028730010FEA03B001210FEE73C001210FEFB3DD1
:10288300001210FEEA41001210FE6E42001210FE0A
:102893007B43001210FED743001210FEC7450012FF
:1028A30010FE3C46001210FE4646001210FE534630
:1028B300001210FE7E46001210FE6547001210FE45
:1028C3000F48001210FE8D48001210FEAD48001292
:1028D30010FED648001210FEF848001210FE584BA6
:1028E300001210FE1E4C001210FE634C001210FE6C
:1028F300E04C001210FE914D001210FEC34D001269
:1029030010FE094E001210FE454E001210FE954EA9
:10291300001210FEE94E001210FE3F4F001210FE8F
:102923008B4F001210FEF84F001210FE735000126E
:1029330010FE3E52001210FE3E53001210FE63546E
:10294300001210FEA257001210FEB55A001210FE1C
:10295300725B001210FEB65B001210FE665D001281
:1029630010FE7A5D001210FE845D001210FE8E5D73
:10297300001210FE9A5D001210FEB65D001210FEEA
:10298300615E001210FEA05E001210FEAA5E00122D
:1029930010FEB45E001210FE245F001210FE6F5F83
:1029A300001210FE8460001210FEE060001210FEA0
:1029B3006161001210FE2062001210FE29630012F2
:1029C30010FE5D64001210FE4B65001210FE63657D
:1029D300001210FEBE65001210FEDC65001210FE30
:1029E3002466001210FE4B66001210FEE66600120B
:1029F30010FEAC67001210FE3E68001210FEB868AD
:102A0300001210FED269001210FE7F6A001210FE3F
:102A1300A76B001210FEF76B001210FE5B6C001226
:102A230010FEBD6C001210FEEB6C001210FE0F6D59
:102A3300001210FE446D001210FE756D001210FEA0
:102A4300A86D001210FEC86D001210FE306E001249
:102A530010FE246F001210FE7F6F001210FEA86F8D
:102A6300001210FE3070001210FEB370001210FE40
:102A7300DE70001210FEC371001210FEA17200126C
:102A830010FED972001210FEFA72001210FE3C738F
:102A9300001210FE9E73001210FEA873001210FEA7
:102AA300B873001210FEF373001210FED3770012F6
:102AB30010FEC079001210FEA67B001210FE3D7CB2
:102AC300001210FEDF7C001210FE2481031210FEA0
:102AD300A281031210FEFE81031210FE498203122B
:102AE30010FE6482031210FE8F82031210FEAC826A
:102AF300031210FEB882031210FE4F84031210FE5D
:102B03006884031210FEED84031210FE0085031285
:102B130010FE1F85031210FEC385031210FE4487A7
:102B2300031210FEF788031210FE8D89031210FEA4
:102B33009089031210FE008A031210FE1E8A0312EC
:102B430010FEB58A031210FEFD8A031210FE008BDD
:102B5300031210FEC68B031210FE338C031210FEF9
:102B6300598C031210FEE48C031210FE028D031223
:102B730010FE488D031210FEFC8D031210FE468ECC
:102B8300031210FE758E031210FED28E031210FE76
:102B9300078F031210FE338F031210FE418F0312AF
:102BA30010FE8E8F031210FEFE8F031210FE47904D
:102BB300031210FE9390031210FEBF90031210FE37
:102BC300CA90031210FEE890031210FED391031271
:102BD30010FEDD91031210FE1892031210FE2892CC
:102BE300031210FE3192031210FE8592031210FE9F
:102BF3009992031210FEC893031210FEDD93031281
:102C030010FE6B94031210FEB094031210FE3C9559
:102C1300031210FE4795031210FE8996031210FE4D
:102C2300A496031210FEF096031210FE5F97031290
:102C330010FE9897031210FEB297031210FEF4973A
:102C4300031210FEC49A031210FE719B031210FEAE
:102C5300DE9B031210FE1E9E031210FE369E03120D
:102C630010FE399E031210FE459E031210FE599E5C
:102C7300031210FE619E031210FE949E031210FEB7
:102C8300969F031210FE1DA0031210FE8DA00312C7
:102C930010FE0FA1031210FED0A1031210FEEFA12C
:102CA300031210FE90A2031210FEEDA2031210FEF7
:102CB300F0A2031210FE64A3031210FEB3A40312C6
:102CC30010FEB9A5031210FE44A6031210FE5FA75F
:102CD300031210FE27A8031210FE58A8031210FEB9
:102CE3007BA8031210FE84A8031210FEB3A80312DC
:102CF30010FE43A9031210FEF9A9031210FE6EAAD7
:102D0300031210FE15AB031210FE8AAB031210FE62
:102D1300C1AB031210FEFFAB031210FE4CDB031218
:102D230010FE79C9051210FE6FC9051210FE19C9EC
:102D3300051210FE05C9051210FE64C8051210FE27
:102D430068C7051210FE92C6051210FE9BC4051239
:102D530010FEEEC3051210FE80C3051210FE95E4AB
:102D6300041210FEB5DA031210FEB2F5041210FEBF
:102D73008BE4041210FE20E4041210FE50D403125C
:102D830010FEADD3031210FE74E2041210FE32E201
:102D9300041210FE52E1041210FE3CE1041210FE74
:102DA300FDE0041210FE58E0041210FE52DD04127E
:102DB30010FE40DB041210FE0DDB041210FEA8DA35
:102DC300041210FE3BDA041210FEFAD9041210FEAC
:102DD30033D9041210FECED8041210FE79D804128F
:102DE30010FE1CD8041210FEF3D6041210FE90D667
:102DF300041210FEDAD5041210FED5D5041210FE0B
:102E0300C9D5041210FE7CD2041210FE6CD3031237
:102E130010FE4DD3031210FE1AD3031210FE05D376
:102E2300031210FEDAD2031210FEFACC051210FEC2
:102E3300C2CC051210FE56D2041210FEFBD10412AE
:102E430010FEA6D1041210FE67D1041210FE6BCC43
:102E5300051210FE54D1041210FE49D1041210FEC3
:102E630025D1041210FE34CF041210FE56D80312DB
:102E730010FEB3CE041210FE5BFA041210FE6FCEE6
:102E8300041210FE43CE041210FE31AF051210FEE1
:102E9300F3AE051210FEC6AE051210FE92AE051279
:102EA30010FE31AE051210FE19AE051210FEF5AD7F
:102EB300051210FEBEAA051210FE8AA8051210FE06
:102EC30071A6051210FE00A6051210FEAFA505128D
:102ED30010FED2A4051210FE69A5051210FED4CA75
:102EE300051210FE16F20400000080FB000022E42D
:102EF3007387000100771E35000400401E25000281
:102F030000441E26000200461E27000200481E2819
:102F1300000100521E29000100531E840004003BDF
:102F23001B860001005B1D2A000100541E2B0001BB
:102F330000551E2C000100591E2D000800471B2EB2
:102F43000001005A1E2F0001005B1E300001005CCF
:102F53001E310001005D1E320001004F1B330001D2
:102F630000501B340001005E1E36000100511B3867
:102F73000001005F1E39000100581E830002007526
:102F83001E630001005D1B64000100561E65000105
:102F930000571E6D0001005E1B710008003F1B6699
:102FA300000100741E43000100651E440002006618
:102FB3001E45000100681E46000200691E47000806
:102FC30000551B480001006B1E4B0001006C1E04E2
:102FD300000100781EA10001007B1E370001007A6A
:102FE3001E88000100791E3C000100521B3D0001B8
:102FF30000601E490002006D1E670001005F1B4D4B
:103003000002006F1E4E000100711E4F000200728D
:103013001E3E000100641E51000100531B520001BB
:1030230000621E53000100631E54000100541B0084
:1030330000000000000000000020012EBD00000180
:1030430000200131BD00000200200132BD00000359
:1030530000200133BD00000400420120BB00000535
:10306300004201F9B90000060042010ABA00000754
:1030730000300134BD0000004042010ABA0000FDE7
:10308300FF210128BD010020002005631D0100214F
:10309300002005641D010003F02127031E06000024
:1030A300001005251A0A000000E2271F1A0A00076C
:1030B3000023271F1A040204F02027051E02040020
:1030C300002905171A020401F02127F31D02040247
:1030D300F02127FB1D030400002905191A0304101E
:1030E3000029051B1A030414002805EC1D03040121
:1030F300F02127F51D030402F02127FD1D0504001F
:103103000021051D1A050401F02127F71D050402FE
:10311300F02127FF1D0001363601010001020100E5
:103123000103010001040106060502000007010076
:10313300340801000F090401010D0100FF0E08000E
:103143000017020000190100FF1A0100011B010012
:10315300FE1C0100081D0200001F010001200100E8
:1031630001210200002301000F24020000260100B8
:103173000127010008280200FF2A0100072B010292
:10318300402C0100002D0100012E0100012F010040
:10319300FF30010B1D310800003A0100083B01001C
:1031A3000F3C0100013D0100FF3E0400004204000A
:1031B30000460400004A0400004E040000520400CC
:1031C30000560400005A04000001037103010301C7
:1031D300030103010301032203020301031003009C
:1031E3000300030003000300030003000342030082
:1031F300032403060300030003040312032503232C
:10320300032503230304030403000300030003440F
:103213000300030003230300036503210035038137
:103223000300030503000300030003000325032336
:1032330003030271023001600211027002010202F3
:103243000202028002100261023A0041006302732B
:1032530002720262024302000213023800000200FB
:10326300020402120200020002000200020402042D
:1032730002370037003C024402000239000002001A
:103283000265020002350281020002050282028306
:103293000200020300710030016000110070003170
:1032A300022003500480001000610000001400633A
:1032B3000073007200620043000000130006000068
:1032C30000000004001200000000000000000004E1
:1032D300000400370037003C0244000000000000F7
:1032E30000000065000000350081000000050000BB
:1032F30000830000000101710101010101110101BD
:10330300013101010101018001100161013B001440
:10331300006301730172016201430100011301069D
:10332300013D01350004011201000100010001000B
:103333000104010401330133013C0144013201362C
:103343000000010001650100013500810100010554
:103353000182018301000136000100060000000F15
:103363000000000000000000000000000003FFFF59
:1033730000000403FFFF0000FFFF0FF4010005C47A
:10338300040320000100000B000000000000000007
:1033930003010F0000000000000000000000000017
:1033A300000000000000000000000000000000001A
:1033B3000000000000EE1E1E1FF41E221EFA1E2433
:1033C3001FFA1E301F001F221EFA1E241F061F2273
:1033D3001E000000000C1F221E00000000121F220E
:1033E3001E181F221E000000000000000000000045
:1033F30000000000000000000000000000000000CA
:1034030000000000000000000000000000000000B9
:103413000000006622010066220200A02102809AB9
:10342300210300A6210400AC210480B2210500B8C9
:10343300210600C4213000E2213100DC213300EEFB
:10344300213400F4211100FA21140000221500D6C2
:1034530021FFFF0000030003000400080010001F09
:10346300003E007B00F600EC01D703AF075D0FB908
:103473001E713D0000060000001001251A0604001D
:10348300001805261A060410002127ED1D06041155
:10349300002127EF1D000400002105231A00040169
:1034A300F02127F91D000400F02127F11D0004027B
:1034B300F02127011E07ECFDFDFDECDCDCCCBCACF0
:1034C300AC9C9C8C7C7C6C6C5C5C5C4C4C3C3C2C69
:1034D3002C1C1C03EAF5E5D5D5C5B5A595958585C1
:1034E3007575656555554545353525251515050A04
:1034F300C028028A280596280790280C72280D7E7A
:1035030028FF000000160F00000B150B020002221B
:103513000F3300000E0F5A6967426565416C6C6991
:10352300616E63653039D0D1D2D3D4D5D6D7D8D94B
:10353300DADBDCDDDEDF303017181921301B1D1F0D
:103543003000034D4C4651181A2505020001191687
:1035530018161618230300303016181920231A1CC6
:103563001E30003C40423A3F3F392F47300C0E0299
:103573000B040B0A0708000F0204020101010109F1
:1035830002E803000000BE040A010024000300E86F
:103593000304091C0404031E1E030A0C0410082858
:1035A300020C0508150F0674F7120B6FE9901C3215
:1035B300F0901BE7E4F0121BF4901C4AE4F0A3F034
:1035C300901C33F0A3F0122A10121BFA901B6FE425
:1035D300F0A3F012240A024F1074F0120B6F74D38D
:1035E3001211E112696C54806066901C32E0F9128A
:1035F3001C728A088B09AF09EA4F604C7C0080017A
:103603000CEC75F003A4F8A9F074F228F582743475
:1036130039F583E493F46029E493F88A828B83E099
:103623006870DDEC75F003A4F874F328F582743444
:1036330039F583E493C0E0740193F583D082122EAD
:10364300F2AA08EFFB121C6012709E64800239AB71
:10365300852182852283A3E05420601F1229268AB4
:10366300088B09AF09EA4F600A12287EAA08EFFB0C
:10367300121C6012709E64200239AB852182852260
:1036830083E0A2E05042901BECE0640F702E900D9B
:10369300561270A9900D56C3E094E9A3E094034039
:1036A3000A7A007B80901A5F124FF2790012285435
:1036B300E96009901E4012144A12286C8521828504
:1036C3002283E06401023990542070030239957A11
:1036D300207B00901C32E0F9121DD4EA4B4C4D7054
:1036E3001A901C46121426E8494A4B700E750801BD
:1036F300750900750A00750B00806D750C00750D5A
:1037030000750E00750F00121DE08A088B098C0AE4
:103713008D0B901C46121426E8494A4B6031901CCD
:103723004678081210D6400E750CFF750DFF750E06
:10373300FF750F7F801985080C85090D8C0E8D0F81
:10374300901C46780C1211B17401780C12119885F3
:103753000C08850D09850E0A850F0BE508450945FB
:103763000A450B70030238EF7C0079047A007B0072
:103773001228FC8A0C8B0DAE0CAF0D023833740289
:1037830012146174FFF0740312146174FFF0740473
:1037930012146174FF12506512682674071211D94E
:1037A300126ADCE96401706A1239B74480F8A3E055
:1037B300F97428121461E8F0A3E9126D70E0C0E017
:1037C300742A121461D0E0125052540860167428FF
:1037D300121461A3E044011239C4C0E0742C121422
:1037E30061D0E0F01269AF6011E8240B1241AAF82E
:1037F3007416121461E8F0A3E4F090BCD4120F53D2
:1038030074061211D9740B1211D112257874041293
:1038130011498E828F83A3A3A3A3A3A3A3A3A374FA
:10382300061239C4F91228DE7405121461126B33BF
:10383300EE4F70030238EF7C007904EEFAEFFB12CF
:1038430028FC7405121461EAF0A3EB124D7CE0F539
:103853000CA3E0F50DE4F50EF50F7808790C1213BF
:10386300A14023EE2404F8E43FF985080C85090DF3
:103873008882F583C3E0950CF0A3E0950D12719354
:10388300E84970A4800C8E828F83A3A3A3A3E4F0E2
:10389300A3F08E828F83A3A3A3A3A3A3A3A3A3A312
:1038A300E064018E828F83A3A3A3A3A3A37020E06C
:1038B300540460030237818E828F83A3A3A3A3A33F
:1038C300A3A3A3A37406F07AB7123AEA02382BA390
:1038D300A3A3A3E060030237818E828F83A3A3A3F4
:1038E300A3A3A3A3A3A37401F002382B1228CC7CB7
:1038F3000079017A007B001228FCEA4B6003124F27
:10390300EB7C0079047A007B001228FCEA4B7013ED
:1039130080448A828B83A3A3A3A3126B4BEE98EFFD
:1039230099400B8A828B83A3A3A3A3126B337C00DE
:1039330079041228FC8B0BA90BEA4970D5C3E5085F
:103943009EE5099F500DC3EE9508FEEF9509FFEE26
:103953004F700D124FEB901C461239BDA3F080241B
:10396300EE2EFEEF338E08F509E4F50AF50B780821
:1039730012112E7A20123B93121149121DE0901C52
:103983004612143E852182852283E06420FAA3E057
:103993008016A3E054046013126203122E427901CD
:1039A30012437112709E6404FB80047A007B0074DE
:1039B3002D02698BEE126999E022E4F0A3F0A3F0E3
:1039C30022125057A3A3E022C082C08374EA1211CB
:1039D300E17C167D007900AA21AB22121C427408F7
:1039E3001214617402F0901BDB12643F123A0B74E1
:1039F300091214611264577413121461E41260D62D
:103A03001223FE7416025321E8F0A3E9F0901BE59C
:103A1300126B1B2274F7120B6F74DA1211E1EAFEB8
:103A2300EBFFEA4F602DAC21AD221229447406123C
:103A33001461E0601E7417121461E0FD7401121426
:103A430061E0FCEEFAEFFB790012282AE9600479C1
:103A5300A4800279007426024F0D74F7120B6FEAEB
:103A6300FEEBFF8A82F583A3A3A3A3A3A3E05440A1
:103A730060178A828B8312694C12523060067AFF78
:103A83007BFF80151269488003901BDB1268267444
:103A9300FE6A700374FF6B60411269481269721207
:103AA30029DAE98E828F83600B12653512715EE429
:103AB300F0A3800312714DF07C5A7D288E828F8390
:103AC3001248A6E9F5087015EE4F60097901EEFA80
:103AD300EFFB1228D8A908024F107508CDAA0812C7
:103AE3003AEAE960E380EE8E828F83126539240C13
:103AF300F582E438F583E0F91228662274F6120B96
:103B03006FE9FEEAFF7A0F7B00121C5AEA4B601A38
:103B13008A828B83740CF0EEA3A3F0EF8A828B83EB
:103B2300124CCB1261347900802BEEF91229028BEF
:103B330009A909EA49601C8A828B83A3A3A3A3A3CF
:103B4300A3A3A3A37406124CD4E0F912261AEEF928
:103B53001228DE7910025F1F74F4120B6F8A088B30
:103B6300098C0A8D0B901BECE0640F701EEA4B4C22
:103B73004D6018901BE7E064086005E06404700B77
:103B8300780812112E123B91121149023DF67A0167
:103B93007B00901C32E0F9121DC274042274F412EB
:103BA3000B6F74FC1211E1EAFEEBFF8A82F583A32B
:103BB300A3E0F91229028A088B09EA4B7003023C3D
:103BC300D98E828F83A3A882A983E0C0E0EA126121
:103BD3002AD0E0124B3A64F160288E828F83A3E0EF
:103BE30064CD601E8E828F83A3E0641A60148E827C
:103BF3008F83A3E064E9600A8E828F83A3E064E18C
:103C0300703379001228D8E9602BE5082404F50AFB
:103C1300E43509F50B850882850983A3A3A3A3A330
:103C2300A3124C10124B18121C06850A82850B83B3
:103C330012697280708E828F83A3E0C0E0740212D7
:103C43001461D0E012532F1254521245C0C0E074D5
:103C530003121461D0E0F0E508126E1B124269E012
:103C6300AA21AB22700512257280031229C27402A5
:103C7300121461E064E9702D85088285098312437B
:103C8300CF750A01780A12113A750AE9780A1211F6
:103C93003A124AEC12458DFCA3E0FD8A828B831213
:103CA30045B7121149850882850983A3A3A3A3A35A
:103CB300A3A3A3A3E064027012850882850983A3EA
:103CC300A3A3A3A3A3A3A3A37406F08E828F83A3AA
:103CD300A3E0F91228DE1228CC901E461241DB74B1
:103CE30004023DF374F4120B6FEAFEEBFF75080058
:103CF3008A82F583A3A3A3A3A3E0603875080812FF
:103D0300681979FF1226AAEA4B601075082C8E8277
:103D13008F83A3A3A3A3A3E0D2E0F08E828F83A318
:103D2300A3A3A3A3E0540364016003023DE2430899
:103D330011023DE2EA24181257186036EA241A12D7
:103D430057186003F47013126AFB7003A3E06960F1
:103D530003023DE2750822023DE2EA241B123DE61E
:103D6300241A125718FAEE2419125718F9122608B2
:103D7300806D8A828B83A3A3A3A3A3A3A3A3A3126C
:103D830041C670037508018E828F83126AFF700328
:103D9300A3E0697006E508D2E1F508E50860158E31
:103DA300828F83A3A3E07006E508D2E58004E508CB
:103DB300D2E6F50812522364017006E508D2E0F555
:103DC300088E828F83A3A3E06015EE241D125A3759
:103DD300F91229C8E964016006E508C2E0F508A9FB
:103DE300088010F582E43FF5831271B6EA22740964
:103DF3001211497F04020E8874F0120B6F74D712EC
:103E030011E1EAFEEBFF8A82F583A3A3A3A3E0609B
:103E13000E901E441269B66006901E441241DB7474
:103E2300031211D98E828F83A3A3A3126302126894
:103E330024122944E97003023F8C7801740512149B
:103E430061E0C39402400278007407121461E0C376
:103E5300940240027800740C121461E064F8700359
:103E6300A3E0F47003023F8C740C121461E064F954
:103E73007003A3E0F47003023F8C740C121461E02E
:103E830064FA7003A3E0F47003023F8C740C121401
:103E930061E064FB7003A3E0F47003023F8C7406DB
:103EA300121461E0F9901BD5E0696003023F8CE8CE
:103EB300A2E04003023F8C7427121461E060030206
:103EC3003F8CEE2413126B11742212146112630CD3
:103ED300241C126B117410121461126457740912AA
:103EE3001461E0601D741A121461E0FD740412146D
:103EF30061E0FC8E828F83126824790112282AE9FB
:103F0300703B74031211D1122878E9F50C7409126D
:103F13001461E0702C901BCFE06026742259642258
:103F2300601F744259644270147420121461124168
:103F3300C0600E74201214611241B960047ACF80FC
:103F43004AE9A2E6504D7420121461125A3D24FD31
:103F5300600F14600C24FD600824FD600424FE70CF
:103F63002874201214611241B2700E74201214616D
:103F7300126063A3E0640D601A74031211D1122955
:103F8300F2E96401700D0241A27AD37B001221761B
:103F93000241A2EE242DF582E43FF5831243C6705D
:103FA30003A3E069701D750800780812113A7808B8
:103FB30012113AEE242F125718F91241CC1245B7B9
:103FC3001211497409121461E0700302406A12412C
:103FD300CC126826122A408A0E8B0FEA4B7003021A
:103FE30040FB7404121461E0F88E828F83A3A3E074
:103FF30028F8A3E03400F9E8240D1241AAF88A82D4
:104003008B83A3A3A3E068600EE88A828B83A3A3B8
:10401300A3124CC41239BE7904E912146112573742
:10402300A3E02AF8A3E034008882F583A3AA82AB35
:1040330083121C4E8A088B098C0A8D0B850E828590
:104043000F83A3A3A3A378081210D640030241A2AF
:1040530090BCA87808121312850E82850F83A3A340
:104063001271BCA312545B901BE7E064046008E088
:10407300640960030241A2E50CA2E5400302413555
:10408300EE242F125720F0EE2430125718C0E0749C
:1040930001121461D0E0F0EE2431125718C0E0741D
:1040A30002121461D0E0F07414121461E064017020
:1040B30026740E121461124B1324131257186870CE
:1040C30003A3E0697011740C1214611241C67007E6
:1040D3007414121461E4F0EE2425F582E43FF583B1
:1040E300120F5374041211D974071211D1122578C7
:1040F30074041211490241A2901C2CE06401600374
:1041030002406A74201214611241C07009E50CA2C6
:10411300E6500302406A7410121461E0F47003A3C2
:10412300E0F4607BEEFCEFFD74031211D1122884DE
:10413300806DA2E6506974201214611265457016F1
:10414300741A121461E06402705574031211D17968
:10415300001229BC804974201214611241B97014F1
:10416300741A121461E06404703574031211D112CD
:1041730029B0802B74201214611241B2700C7900A3
:1041830074031211D11229FE8015742012146112C6
:104193006063E0640C700874031211D1122A0A746C
:1041A3002902698BE82406F582E439F583E02212BB
:1041B3006952E0640322126952E0640722125A41F1
:1041C300640622125234640222EE242BF582E43F69
:1041D3001271B4EE12520922E0F508A3E0AA08FB1B
:1041E300E4FCFD12286C2274F4120B6FEAFEEBFF61
:1041F3008C088D09901B4FE0600F126AFB7003A3BC
:10420300E06970051225F6805379001268191226A9
:10421300268A828B83E5824583602CA3A3A3A3A371
:10422300A3E054186021E508241C124266120F57BC
:10423300124262120F57EE241812459E125CFE12B0
:104243006AD3121149801579008E828F83A3A3A3A9
:1042530012652B125CFE1268261225FC023DF6E560
:10426300082413F582E43509F5832274F7120B6FE2
:1042730074F71211E1EAFEEBFF901BE7E0640360C1
:104283000DE064016008E06409600302436C8A8204
:104293008B83A3E0600302433A7C007D007A027BB8
:1042A30000121C00126B788A82126B15901BD812B5
:1042B300645779531223EC901BE7E064096009907B
:1042C3001BE5126826122A3A85218285228374010E
:1042D30012607B901BE77404F074011211D1794AC8
:1042E3001223E674011211D97ADD7B1B121DF8909B
:1042F3001A62E0640B70057406F0800579001243BE
:1043030071901BD81265317A037B00121C00901B3D
:10431300DB1265317A047B00121C00901BD2E0A2F1
:10432300E35004D2F08002C2F0126068901E401283
:10433300144A12286C802FFC7D007A037B10121C18
:1043430000901A62E0640B7003740AF0901B53E44C
:10435300F0FA7B40125E588E828F83A3E0F91243FA
:1043630071901BE7E4F01228AE7409024F0D901B05
:10437300E512682A12258A22C082C083901B6F121D
:1043830069B67017901BE7E024FB60051460078093
:104393000A901B75801F901B77801AE849600712EB
:1043A30041A76401700C8A828B83A3E0F912257EF6
:1043B300800E901C611269B66006126064122EF2C0
:1043C300025BAF126B1B901BE5E06822126B1BE8CC
:1043D300FAE9FB2274F5120B6F74D81211E18A0803
:1043E3008B098A828B83A3A3A3A3A3A3A3A3E0C361
:1043F300940F50030245888A828B83A3A3A3126B75
:104403003374151211D98A828B83A3A3A3A3A3A305
:10441300A3A312458DFAA3E0FB1228BA7415121454
:1044230061E0702E850882850983A3A3A3A3A3A3B8
:10443300A3A3E0C3940B401A8E828F83A3A3A3A3E9
:10444300A3A3A3A3E064027009EE240B125718F48C
:1044530060030245887417121461E0600764026008
:1044630003024588901BE7E06402601CE064066079
:1044730017901B6F1269B670030245881241A76437
:104483000160030245888025901B6F1269B6701D79
:10449300750800780812113A780812113AEE2410C0
:1044A30012459E8E828F831245B71211498E828FD9
:1044B3008312718B124B43126B1774021214611225
:1044C300630C1239B8C0E07404121461D0E01245D1
:1044D300C0F508A3E0F509740F78081213C1740539
:1044E300121461E508F07419121461E0C0E0740657
:1044F300121461D0E0F0741B121461E0C0E0740781
:10450300121461D0E0F07416121461E0C0E0740973
:10451300121461D0E0F07417121461E0C0E0740863
:10452300121461D0E0F0EE2410125718C0E0740AA0
:10453300121461D0E0F0741A121461E0C0E0740B3D
:10454300121461D0E0F07427121461E0C0E0740C1F
:10455300121461D0E0F0741C121461A982AA838939
:10456300088A09750A0078081211327C087D0074E4
:1045730010121461AA82AB8312570F121149AA2198
:10458300AB22122584742802506BE0F98A828B8354
:10459300A3A3A3A3A3A3A3A3A3E022F582E43FF5CC
:1045A30083E0F98E828F83A3A3A3A3A3A3A3A3A3CF
:1045B3001271B62212682A12297A740222F0EE12BC
:1045C3005D03E02274F2120B6F74F81211E18A0A90
:1045D3008B0B8C0C8D0D890890BB9BAC21AD227489
:1045E30008121077C200AC0AAD0BAA21AB221267E6
:1045F300A77002D200901C338013AC0AAD0BEE24DB
:104603000BFAE43FFB1267A7701B1251FA124E8D8F
:10461300601EA20040E48E828F83E0650C7004A3C9
:10462300E0650D70E58E828F83A3A3E0650870DAE1
:10463300EEFAEFFB7408024B50C082C083901C3328
:10464300025BACC082C083901C33E4F0A30248A297
:1046530074F7120B6F901C331270A4800FEA2414AA
:10466300F582E4126B30121D14EEFAEFFBEA4B7085
:10467300EC901C33E4F0A3F0024F1074F2120B6FB2
:104683008A0C8B0DEDFF890B8A828B83E08C828DE4
:1046930083F0A3A882A9838A828B83124747124C93
:1046A300BEE0C454F0FA88828983E04AF0EC240225
:1046B300F8E43FF9850C828B83A3A3124747124783
:1046C3005AE0333354FC12474EE033333354F81279
:1046D300474EA3E0A2E0E4331313FA88828983E010
:1046E3004AF0EC2403FE50010FE50C2407F508E41F
:1046F300350DF509750A0078081211327C087D0022
:10470300EEFAEF12570E121149EE2408FE50010F74
:10471300E50C240FF508E4350DF50978081211327C
:104723007C037D00EEFAEF12570E121149E50BC31D
:10473300940F400DE50C2412F582E4350D125D1241
:10474300F0024B53A3E08882898322FA888289830B
:10475300E04A12475AA322F0850C828B83A3A3A3BA
:10476300A32274F2120B6FEBFF8C0C8D0D8A82F572
:1047730083E08C828D83127175A3A882A983E012D2
:104783005B57124B39C4125B51F0EA12717F125B13
:104793005E124B37A2E2E4338C828D83124B3613C5
:1047A3001313541F125B57A3124B36A2E7E4338C47
:1047B300828D83A3A3A3A3A3A3F0EA2403FE500142
:1047C3000FF5088F09750A0078081211327C087DED
:1047D30000E50C240712570A121149EE2408FE5073
:1047E300010FF5088F0978081211327C037D00E56B
:1047F3000C240F12570A1211498E828F83A3A3A38D
:10480300E0C0E012719BD0E0F0024B5374F6120B40
:104813006FEAFEEBFF8A82F583A38582088583090D
:10482300E0F91225A2850882850983E064EB601E06
:104833008E828F83A3E064E160148E828F83A3E072
:1048430064F1600A8E828F83A3E0641A70078E82FC
:104853008F83A3E4F0901E4012144A12286C75084B
:1048630001780812113A8E828F83A3E0F508780845
:1048730012113A7900901BE5126531901BDB12454A
:10488300B71211491228CC025F1FC082C083E9907E
:104893001C457003E4800274018004EAF0A3EBF08A
:1048A300025BAF12682A1224042274F6120B6F9073
:1048B3001C45E0701B7C0079017A007B001228FC08
:1048C300EA4B600C8A828B831269B66003122860FC
:1048D300025F1FC082C083124D6D401079FF122802
:1048E300F6E9F89035A4E493C39850047901800263
:1048F3007900025BAF74F2120B6F8A0A8B0B890982
:10490300C2008A828B83A3A3A3A3A3A3A3A3E0F9D7
:104913001229028A0C8B0DAE0CAF0D750801EA4FFC
:1049230060030249D9850A82850B8312652B850AA8
:1049330082850B83A3A3A3A3A3A3A3124B181228BB
:10494300EA8A0C8B0DAE0CAF0DEA4F7003024AE5F9
:104953008A828B83A3A3A3A3E4F0A3F0E50A240C28
:10496300FAE4350BFB8A82F583E0C0E0124AECD00F
:10497300E0F0E50A240D124B0C240D1264511229A8
:10498300E0125212126972E50A2411124B0C24111F
:10499300126451E50A2413126B42C0E0125204D090
:1049A300E0F0D200EE2406F8E43FF9124AFF124B7E
:1049B3003A54046003024A4B901E52E0F50A750B09
:1049C300007407780A1212EC8E828F83A3A3A3A329
:1049D300A3A3124AF6F08E828F83A3A3A3A3A3A358
:1049E300E0F50AA3E0F50B7407780A1213C1E50A90
:1049F3005407FCE50960618E828F83A3A3A3A3A35D
:104A0300A3A3A3A37402125065124E02600B901B62
:104A1300D3125798A3A3126457EC7003024ABCEE57
:104A23002406F8E43FF9E8FAE9124AFFF0EC24FF20
:104A3300F50AE434FFF50B7407780A1212EC8A8244
:104A43008983124AF6F080718E828F83A3A3A3A376
:104A5300A3A3E044800249D8EC700575080080598F
:104A63008E828F83A3A3A3A3A3A3E05420600C127D
:104A73001C54EA547F7900245F80198E828F83A3AC
:104A8300A3A3A3A3A3E05410601A121C54EA540F67
:104A93007900240A5001098E828F83A3A3A3A3F074
:104AA300A3E9800D8E828F83A3A3A3A37401F0A334
:104AB300E4124B437404124D83A20050288E828F5C
:104AC30083A3A3A3A3126830F9EEFAEFFB1228F035
:104AD300E960121269AF6003124B25EEFAEFFB1285
:104AE3001D14750800A9088067EE240CF582E43FC5
:104AF300F58322E0450AF0A3E0450B228882F58383
:104B0300E0547FF0A3E054FC22F582E4350BF583F7
:104B1300126B1BEE22A3E0F9850A82850B831268D0
:104B23002A22124B2C124F8222EE240FF582E43FED
:104B3300F58322A3A3A3A3124B3E22126B5EE022B2
:104B4300124B472212505BA3A3A3227403121149F1
:104B53007F06020E8874F4120B6F74F71211E17E54
:104B630000122902EA4B7003024C0B8A828B83A347
:104B7300A3A3A3A3A3A3A3A3E064066003024C0B14
:104B83008A828B83A3A3A3A3A3A3A3E0FF8A828B1D
:104B93008312713DE0C0E07408121461D0E0124F3B
:104BA30033126444126457122914EF540860578572
:104BB30021828522831265317A007B001228E4EA80
:104BC3004B70431271A67C007D007A007B0080222B
:104BD3008E828F83125A3DF47003A3E0F460279012
:104BE3001BE5124C10124F15601C7C007D00EEFA81
:104BF300EFFB1228E48A0A8B0BAE0AAF0BEE4F7061
:104C0300CF790012241C7E01EEF9023DF1124C14FF
:104C130022E0FCA3E0FD8E828F8322C082C0838AC0
:104C2300828B83E58245837009901C4A80068A82C1
:104C33008B83A3A3124E3660208A828B83A3A3A304
:104C4300A3A3A3A3E0540860E5EC4D6010124E3C0F
:104C53007003A3E06D70D780047A007B00025BAF22
:104C630074F2120B6F8A088B09890AECFEEDFF7A46
:104C7300147B00121D0EEA4B60378A828B83A3A339
:104C8300A3A3A3A3A3A3A3E4124CD4E50A124F1F27
:104C9300EEF0A3EF124CC4124F3A124CCB8A828B24
:104CA300831271BE124CB71268ADA3124CBEF0A3AF
:104CB300F0024B53EA240FF582E422127179A3A385
:104CC30022124F25E4F0A322A3F01271361268AD2D
:104CD30022124CD822124F29A3A3A3A32274F512A4
:104CE3000B6FEAFEEBFF890A8C088D09EA4F6075AA
:104CF300740169701279011228F6E9F89035A6E477
:104D030093C3985015800A7404697009124D6D504D
:104D13000979118052740269704B8E828F83A3A329
:104D2300A3A3A3A3A3A3A3E50A124D7C1254521277
:104D33006A37A3E4F0A3F0901C4A1269B6601880A6
:104D430003126B1788828983A3A3124E3688828944
:104D530083A3A370EC8003901C4AEEF0A3EF124DE3
:104D6300837900800279C102506E79041228F6E932
:104D7300F89035A5E493C39822126A3BA3A3A32218
:104D8300F07A207B00901C32E0F9121C9C22C08236
:104D9300C083E9F87900901C4A801D8A828B83A323
:104DA300A3A3A3A3A3A3A3A3E068600574FF6870F0
:104DB30001098A828B83A3A3124E3670DE025BAF96
:104DC30074F7120B6FEA4B7005901C4A80068A82B7
:104DD3008B83A3A3124E36601F8A828B83A3A3A364
:104DE300A3A3A3A3A3A3E06970E4EC600F8A828B5F
:104DF30083124E0270D880047A007B00024F101297
:104E03007156E0540422C082C083901C4A80068AF3
:104E1300828B83A3A3124E3660128A828B83A3A351
:104E2300A3A3A3A3A3A3E06970E580047A007B0096
:104E3300025BAF12682AEA4B228A828B83125A41A1
:104E43006C2274F2120B6F8A0A8B0B8C0C8D0D750E
:104E53000800750900EA4B602A901C4A80068E827E
:104E63008F83A3A3124E8D601AAC0CAD0DEEFAEF37
:104E7300FB850A82850B83122EF2E9640170DF8EB3
:104E8300088F09AA08AB09024B53E0FEA3E0FFEE2B
:104E93004F2274F7120B6F901C4A126B177C007D24
:104EA30000800DE8FCE9FD88828983A3A3126B17B8
:104EB300E8496030EA687002EB6970E7901C4A12B7
:104EC3006826E86A7002E96B88828983A3A3700865
:104ED300126B17901C4A8009126B178C828D83A367
:104EE300A3126457802774F7120B6FEAFEEBFFEAF5
:104EF3004F601512290E124F6E1269AF6003124BE9
:104F030025EEFAEFFB121D1480031211497F0102F3
:104F13000E8812682A122410E9641A22124F25A35C
:104F2300A322124F2922F08A828B83A3A3A3A32255
:104F3300127179125A4122124CD8A32274F6120B21
:104F43006F901C4A126B338014126B50124F6E1207
:104F53004B25EEFAEFFB121D14AE08AF09EE4F70AE
:104F6300E8901C4AE4F0A3F0025F1F8E828F831245
:104F7300712AF583124F828E828F83124F8222E031
:104F8300FAA3E0FB121D1422C082C083EAFCEBFDEE
:104F9300EA4D6017EA24FBF582EB34FF1269B47023
:104FA30007124FE0E0F46007121C607905802B9034
:104FB3001C32E0C0E0124FE0D0E0F090359DE49366
:104FC300F97A4C7B1C121C96E96401700B7A007B06
:104FD30020124FEF790080027904025BAFEA24FFCD
:104FE300F582EB34FFF583227A207B00901C32E0BC
:104FF300F9121C9C2274F4120B6FA2AFE433F50870
:10500300C2AF901C4C124E8D6038EE24FBF582EF3C
:1050130034FF1269B47A007B20901C326005124F72
:10502300F28005E0F9121CA2E4F50AF50B780A12E6
:105033001136EEFCEFFD7A4C7B1C121C90740212AD
:105043001149E508A2E092AFEEFAEFFB023DF6123A
:105053005057E02212505B22125065A3A3A3A3A3CF
:10506300A322F08E828F83221211497F03020E88BE
:1050730074F2120B6F74FA1211E1EAFEEBFF75087A
:10508300FE7509FF1228D2E9600579110251F51264
:105093005715603C901E6CE0C43354E0F8E03333A2
:1050A30054FC48C0E0EE1261243FF583D0E0126B5C
:1050B30072FAA3E0FB79FF1226AAEA4B6012750885
:1050C300FFEE240F1257184404F0125715D2E0F0E4
:1050D3008E828F8312522E6006EE2412126B8AEE9A
:1050E3002413125718700D90359BE493C0E01252AD
:1050F30004D0E0F08E828F83E0A2E7500454038053
:1051030019EE24141257187012901BC4E0C0E01259
:1051130051FAD0E0F0901BC4E004F0EE24111257D2
:105123001864017016901E56E0600D901BCFE0705E
:105133000A8E828F83E07003126B878E828F83E0E7
:1051430064017013EE240B125A3764027009EE24C3
:105153000F1257184440F0AC21AD22EEFAEFFB12C8
:10516300293E8A0A8B0B74FE6508700374FFF47082
:1051730003126B50EA4B60768E828F83E0C0E0743B
:1051830001121461D0E0F07404121461EEF0A3EF85
:10519300F0EE241E126B1174021214611264577420
:1051A300011211C9880C890D780C121136EE2420D6
:1051B30012521712113A125212120F57EE240E12F4
:1051C300521712113A901BD8120F57740812146118
:1051D300E0F9AC08AD091229387408121149E9FE47
:1051E30074106E700BAA0AAB0B121D1480027E1092
:1051F300EEF97406024B50EE2414F582E43FF58376
:1052030022EE125209222413F582E43FF58322EEA3
:10521300124B2D22F582E43FF583E0F50C780C2246
:105223008E828F83A3A3A3A3A3A3A3A3A312523406
:1052330022E0FAA3E0FB1229DAE922C082C08374D8
:10524300D71211E190B3CA74031211D97426121044
:10525300778A828B83A3A3A3A3126B17740E1214F2
:10526300611269BC126B17740C1214611253372448
:105273000D125327C0E0741A121461D0E0F01268C3
:10528300B3126B1574201214611253372415125381
:1052930027C0E07408121461D0E0F0EA241CF58200
:1052A300E43B126B1574121214611253372411125A
:1052B3005327C0E07409121461D0E0F0EA241212FB
:1052C3005327C0E07407121461D0E0F0EA241EF5FE
:1052D30082E43B126B157424121461125337242099
:1052E300125327C0E07426121461D0E012532F74B6
:1052F300FFF0740112146174FFF0740212146174EC
:10530300FFF090BCD4120F5374041211D974071216
:1053130011D11225787404121149790074291211DC
:1053230049025BAFF582E43BF583E022F0852182FD
:1053330085228322E8F0A3E9F0EA2274F4120B6FCA
:1053430074EC1211E18A0A8B0B8C088D09E9FF7E3C
:10535300107A217B00121D0E852182852283EAF0BB
:10536300A3EB1269C6E849700302544B7C217D000C
:105373007900852182852283E0FA121C42901BE585
:105383001268268521828522831265352409F582D8
:10539300E438F5831269727420121461126B177466
:1053A30011121461E8125AA612697838F58374024F
:1053B300125AA91271447402125A93125452125A75
:1053C300A9127121EFF07422121461125A54F9A335
:1053D300E0C9126E1B39F583E8125769A3E0C924AB
:1053E3001FF582E43912545974231214611268268A
:1053F30074061214611269727408121461E8F0746D
:105403002612146112694CC082C083740C12146199
:10541300AC82AD83D083D0827405121077742512C9
:105423001461E0C0E07413121461D0E0F07900AAB3
:1054330021AB221228D8E9640170047E008009851B
:105443002182852283124B28EEF97414023DF3E581
:1054530008F0A3E50922F583E50AF0A3E50BF022A2
:1054630074F0120B6F74FF1211E1EAFEEBFF8C086C
:105473008D098A82F583A37408F0EA24161257185B
:1054830060088A828B83A37410F0EA2417125718DA
:1054930060098A828B83A3E02408F0EA125716601E
:1054A300088A828B83A3E004F08A828B83A3A3A35D
:1054B300A3A3A3E060198A828B83A3A3A3A3A3A3BB
:1054C300A3E0C3332402F88A828B83A3E028F0EAA3
:1054D30024111257206004740E8001E4F0901E64BE
:1054E300E0640170168A828B83E06401600D901B77
:1054F30053E0600712570074018004125700E4124E
:1055030057698A828B83A3E0F8EA1239B828298C79
:10551300828D83F0EA24111257186005125D412928
:10552300F0850882850983E0C394754009750C00F2
:10553300750D000256F7E0FA7B00121D0E8A0C8BE4
:105543000DEA4B70030256F78E828F83E0FA901BAD
:10555300D5125762740278081212ECEA4508FAABC6
:1055630009EE241212575C740678081212ECA8088C
:10557300EA48FCEBFD1257156004780180027800BD
:10558300EE2416FAE43FFBE4C8F9ED49FDEE2411DD
:10559300125718F5088809740978081212ECED45BA
:1055A30009FD8A828B83125762740B78081212ECFE
:1055B300ED4509FDEE241712575C740C780812129E
:1055C300ECED4509FD8E828F83A3A3A3A3A3A312AE
:1055D3005762740A78081212ECED4509FDEE242394
:1055E30012575C740D78081212ECED4509F9EC853D
:1055F3000C82850D83F0E9A3F0EE240212573F12CB
:10560300577EF0EE240412573FA3A312577EA3A3A1
:10561300F0EE241312574FF0EE241412574FA3F059
:10562300750B088A828B83E06015126A2812653134
:10563300E50C2408FAE4350DFB121DF8750B10EE8A
:10564300241712571860191265B4126531A80BE5B7
:105653000C28FAE4350DFB121DF87408250BF50B25
:105663008E828F83A3A3A3A3A3A3E0604EEE24079C
:10567300F50EE43FF50F850E82F583E0C0E0125787
:105683002ED0E012576EE0C0E008125730D0E0127F
:10569300576EA31269A2121132850E82850F83E021
:1056A300125A08A80BE50C2812570A121149850E45
:1056B30082850F83E0C333250BF50B125715600862
:1056C300C0E012572ED0E0F0125CFE1269A2121154
:1056D300321239B7FC7D007403121461125737E09C
:1056E300F8E50C28F8E4350DF9E82AFAE4391257FD
:1056F3000E121149AA0CAB0D740102698BEA242323
:10570300F582E43FF58322FAE4350DFB121C36746F
:105713000322EE2415F582E43FF583E022F582E4CB
:105723003FF583E085218285228322A80BE50C289F
:10573300125A1B22E0FA8E828F83A322F8E43FF9E8
:105743008882F583E0850C82850D8322F582E43F10
:10575300F583125788A3A3A322F582E43FF583E0E0
:10576300F50875090022127167F922F0050B8E8284
:105773008F83A3A3A3A3A3A3A3A322A3A3126B5EB9
:10578300A312578822E0850C82850D83A3A3A3224D
:105793007403023DF3126B1B8E828F83A3A32274C7
:1057A300F0120B6F74FD1211E112696C7402121482
:1057B30061E9F08C0C8D0D750B017C267D00790061
:1057C300AA0CAB0D121C427402121461E0C39408BC
:1057D3005003025991125747F0AC0CAD0D8521824D
:1057E300852283125A3DFA852182852283126063C2
:1057F300125D3AE96003750B0085218285228312CD
:10580300694C125A5EE0F9EA850C82850D83A3A3E5
:10581300A3A3A3A3A3A3A3F0A3E9125A93A3A3123D
:105823005A5EA3A3E0F9E50C1269CBEA125AA61259
:105833006521C0E0E50C241112719FD0E0125AA932
:105843002407F582E438F583E0C0E012719BD0E0D1
:1058530012695F7408125A8AA3E060268521828543
:105863002283E02408F8A3E03400F9E50C2413F5BF
:1058730082E4350D126455850C82850D83A3E024E3
:1058830008F0850C82850D83A3A3A3A3A3A3A3A3DD
:10589300E0602A850C82850D83A385820E85830FA4
:1058A300125A4BF8A3E03400F9E50C126124350DCC
:1058B300126455850E82850F83E02408F0125A0F77
:1058C300E4F0125A23E4F0A312695FA3A3A3A3E0B5
:1058D3006011125A6F850C82850D83A3A3A3A3A322
:1058E300125A9BE50C125A30E0700302597D125A8A
:1058F3006FFA125A0FEA125A9BF885218285228386
:10590300E028FBA3E034008B82F583E0F8E50C2468
:105913001A12719FE8125A9BE8C39AE50C5056126B
:105923005A2BF890359EE493C39850047E0C80065E
:10593300E50C125A2BFE850C82850D83125A4AF50B
:1059430008A3E03400F509750A007808121132EE55
:10595300125A087ACC7B0E12570F121149125A238E
:1059630074CCF0A3740EF0EEC333F8850E82850F6A
:1059730083E0288004125A30E4F0850C82850D837D
:10598300A3E0F8850C82850D83E0C3985004790069
:105993008070125A4AFAA3E03400FBE50C126B81C3
:1059A3001271A2126972850C82850D83E0C398C0BF
:1059B300E0E50C241712719FD0E0125A8AE0604090
:1059C300E50C2417FEE4350DFF8E82F583E024F207
:1059D300F0E50C241DF8E4350DF98882F583E02405
:1059E3000EFAA3E03400FB88828983126972901B4C
:1059F300D0E0F9122830E9F88E828F83E0C398F063
:105A0300A90B02698925E0FCE433FD22E50C125A57
:105A130015222419125A1B22F582E4350DF583222F
:105A2300E50C241B125A1B22125A15E02212695943
:105A3300125A1E22F582E43FF583125A4122126B59
:105A430020F5838882E022A3125A4F22125A542847
:105A530022E0F8852182852283E022A3A3E0FA8550
:105A63002182852283126952A3A3A322850C8285F6
:105A73000D83A385820E85830F125A4FFAA3E03458
:105A8300008A82F583E022126963A3A3A3A3A3225E
:105A9300125AAEF583888222F0850E82850F83E049
:105AA30004F022F0A3E9125AAEC82212716BF8A3D4
:105AB300E02274F4120B6F8A088B09EA125B5EA36F
:105AC300A3F0EA1313543F125B51A3F0EAC4131378
:105AD300125B5E125B687409780A1213C1125B4889
:105AE300A3A3A3A3A3A3F0EB125B4A125B67740AFD
:105AF300780A1213C1E50A5401C0E0EC1269593D5A
:105B0300F583D0E0125B6C740B780A1213C1125B3D
:105B130048125B65740C780A1213C1125B48A31216
:105B23005B65740D780A1213C1E50A5401C0E0ECF9
