:020000040000FA
:0600000002141A0208A818
:03002B000211BC03
:03003300020C2399
:0300430002108A1E
:030053000207DDC4
:03006B00020BDBAA
:03007B00020C0371
:1000830002083C010000000000F8FF07FFFF00002A
:100093000504000000030001FFFFFFFF00451014EB
:1000A3001027000018010000E001000000920B007F
:1000B3001000E09D10002000008018003000002098
:1000C300FD00020000CD1B0000000000002D1C00FD
:1000D300000000000000000000000000000000001D
:1000E3000000000000000000000000000000000607
:1000F300FFFF1E20FEFFFEFFFEFFFEFFFEFFFEFFD3
:10010300FFFFFF0101FFFFFFFEFFFF1F000077203E
:1001130000000000000000000000000000000000DC
:100123000000FF3C003C00450032000100E8030AE8
:10013300000A000A000A000A001E00030104010C61
:10014300000206F9BC06D5BC030401070102013015
:10015300BF0206BF0404010C00020124BF012ABF31
:10016300010400005F1A000000E8030000FFFFB075
:100173001A0188130000E803000064006400B8015A
:10018300A0BB0D00A0BB0D00020202070401051E67
:1001930002051E020A0A010108080103B80B0280C6
:1001A3003E0102FEFFE8030A050001FFFF020A14F5
:1001B30001E00100B0423BAAB83F8C906339AA0C1E
:1001C300A33A00941E3C8042633DCFFE753E1572F8
:1001D300313FF304353F8096184B000080BF2292D5
:1001E300D43EDD9B2A3F04000040FFFF7F7FFFFFDB
:1001F3007FFF010080341872313F020000000503C5
:1002030001010F03000300030003000300030003C5
:10021300000300030005000A00140028004F009E9D
:100223000000001B3300000000513200000000FFFB
:10023300000000FF001214486046121466603DE996
:10024300687008F618F618F618F622748067F71225
:10025300026C090909748067F722121466601D1283
:1002630014487005191919801A1212F5701F121308
:1002730009C37003E66733191919400718181822C0
:1002830008080874FFF618F618F618F62212130970
:1002930060171214E6702192F01214D470195017DB
:1002A30020F014080808090909E7F61819E7F618F1
:1002B30019E7F61819E7F6221214D460E6E8697014
:1002C3001F0808E62480F608E436F618547FB47F46
:1002D3000CE654806007F6E418F618F62218182284
:1002E300E9C6CC08C6CD08C6CE08C6CFC0E0E8C074
:1002F300E0EAC0E0EBC0E009E9F809E7FA09E7FB47
:10030300E6F918E6F8C3EC98ED99EE9AEBC2E7F537
:10031300F0EFC2E795F0500E600CEBCFFBEACEFA9C
:10032300E9CDF9E8CCF8EAA2E7D2E7FAEB33FB131D
:10033300F5F0EEA2E7D2E7FEEF33FFC5F013A2E735
:1003430030E601B313C5F0C3C0E0C0F07F00C39B28
:10035300FB605E9418600F401D14601AD0E023F90F
:10036300D0E0F802043E8AF0E9486003D2F0E4AF3B
:10037300F0FAF9F8803BEB30E40D89F0EA6003D240
:10038300F0E4AFF0F9CAF8EB30E30D88F0EF600268
:10039300D2F0AFF0E4CAC9F8EB54076014FBC3EA28
:1003A30013FAE913F9E813F8EF135002D2E0FFDB75
:1003B300EDD0E0C0E030E739C3E49FFFF5F0EC98FF
:1003C300FC42F0ED99FD42F0EE9AFE42F0D0E0F9E6
:1003D300D0E0F8E5F0607AE923F9EE20E742D802AD
:1003E3008067C3EF33FFEC33FCED33FDEE33FE8068
:1003F300EAEC28FCED39FDEE3AFED0E023F9D0E03B
:10040300F84002801BC3EE13FEED13FDEC13FCEF6B
:10041300135002D2E0FF08B800067F7F74FF802EDE
:10042300EF3350178CF020F00260100CBC000C0D61
:10043300BD00080EBE000408E860DFE933E813FFDF
:10044300EE2313FE4F4D4C8008E95480FFE4FEFD7C
:10045300FCEE33EF33F47004FCFD7E80D0E0FBD080
:10046300E0FAD0E0F8D0E0CFC618CEC618CDC61853
:10047300CCC6F922121466700418181822121448F4
:10048300700D74FFF61819F61819F61819F622E705
:10049300548066F61214D4700F1214E670F014F63A
:1004A30008F608F608F680D11214E6700CF608F682
:1004B30008768008E6447F80EC12130C700C12124D
:1004C300F860BFE65480F6E480BB1212F870051999
:1004D300191980A5E869700C763F18768018F6180C
:1004E300F6E8F922E6CDC0E018ECC0E0E633CD3300
:1004F300CDD313F6E719FCE7191933CC33C3947F33
:10050300400ECD9D502408E65480F6E418F6800F83
:10051300F4043D14501408E6447FF6187680E4187A
:10052300F618F6D0E0FCD0E0FD22CCD313CCFD18B6
:10053300E4C6CBC0E018E4C6CAC0E00808ED08C6AC
:1005430033E613F618E433C675F003C3CA97CA0932
:10055300CB97CB199C40047D08802EBD0003020677
:100563002016B6FF050606081618C3CA33CACB33CE
:10057300CB33CA27CA09CB37CB193CC37D08803E8E
:10058300187D0820E75CC633C6CA33CACB33CB33E6
:10059300DDF1D5F0EB30E77BCA97CA09CB974ACB9D
:1005A300199C406F4B7025E620E0218066187D087A
:1005B300C3CA97CA09CB97CB199CD3C633C6CA33D0
:1005C300CACB33CB3350C9DDE7D5F0E1D3E4C6362C
:1005D300C608C636C608C636C608C636C6181818AC
:1005E3008031C3CA97CA09CB97CB199CB34097C62E
:1005F30033C6CA33CACB33CB33DD34D5F02EC6A2D0
:10060300E0C640C8CA27CA09CB37194A70BECB3CDB
:10061300B480B90808E63308E633601F181818D009
:10062300E0FAD0E0FBD0E0FCD0E0FD22187D08CA60
:1006330027CA09CB37CB193CD3808013F618E4B60D
:100643007F11F618B6FF0EF618C60470D2080876A6
:100653008080CAF618F618F680C500121466604F3B
:100663001214486012E7548066F61212F5701112E4
:1006730014E6703B090909F4F618F618F618F62281
:1006830012130970151214D408080860EAE6447FAF
:10069300F618768018E4F618F6221214D4601612AF
:1006A30014E67012E4F608F608F608E65480F60934
:1006B300090918181822EAC0E0EBC0E0ECC0E0ED2D
:1006C300C0E0E687F0A4FBACF008E687F0A42CFCBE
:1006D300E435F0FA1809E687F0A42C4B60027401A4
:1006E300CA35F0FCE433FB09E687F0D2F7A42CCB40
:1006F30035F0FC1908E687F0A42BCC35F0FBE43386
:10070300FD0819E687F0D2E7A42C4ACB35F0CD34A7
:1007130000FC09E687F0D2E7A42DCC35F0FDE433E5
:10072300FA0918E687F0D2F7A42CCD35F0CA3400C5
:10073300FC08E687F0D2E7D2F7A42ACC35F07A7E1C
:1007430020E70B0ACB33CBCD33CDCC33CC33CB33F8
:1007530050147004ED30E00ED2F1E4CD3DCDCC3C2D
:10076300CC3B5005DA05C2F1EB547FC63308E633C0
:1007730092F0FBE73309E733C39A502D2B70190C22
:100783000D4C4D70151806E608C333700D20F10AA1
:10079300A2F013F6E418800B4024E4F630F002765E
:1007A3008018F618F618F68024D33B14501074FF03
:1007B300A2F013F6187680E418F618F6800FA2F06C
:1007C30013F618E63303F618ECF618EDF6D0E0FD51
:1007D300D0E0FCD0E0FBD0E0FA22C0E074F1120CD0
:1007E30043A2AFE433F509D2AF85A708AFA1EF5514
:1007F30008FE74105E600612195175A1EF74085E4D
:10080300600812195775A1F78024EFA2E092F0E572
:1008130008A2E082F05017906198E0F8900A73E024
:10082300C398A2D265D0335002E8F075A1FEE50962
:10083300A2E092AF7F02020CA2C0E074F2120C435A
:10084300A2AFE433FED2AF9061A4E0F8759B00E55C
:100853009158540860087591F71219A58023E59102
:1008630058541060087591EF1219AB8014E591A2EA
:10087300E092F0E8A2E082F05007E0C2E0F0121A42
:10088300F59061A3E0F8E5E9585404600E121ACB21
:1008930075E9FB906193E0A2E640F2EEA2E092AF2D
:1008A3007F01020CA2C0E074F2120C43A2AFE43346
:1008B300FED2AF9061A5E0F8E5BF58540460067519
:1008C300BFFB121B0D80D412091F30F043120964C1
:1008D300803E8A088B098C0A8D0B780812091F2029
:1008E300F01430E72B74FFFCFBFA747F8022E4FCE6
:1008F300FBFA7480801AB48008BC00F2BB00EF805E
:100903000F50EBF9E4C39AFAE49BFBE49CFCE499F3
:10091300C6CC18C6CB18C6CA18C6F922E4C9C6087D
:10092300CAC608CBC6D3330308CCC63392F0C394EC
:100933007F402E94184019C9B90704CACBCC225062
:1009430025C309CA33CACB33CBCC33CC33D9F42236
:10095300F4600DC9CCC313CB13CBCA13CAD9F6CCDD
:1009630022E4FCFBFA2214FCFBFA22C3E498F8E429
:1009730099F91209AF8026C3E49AFAE49BFBE920B4
:10098300E7E91209AFE498F8E499F922C3E498F887
:10099300E499F91209AFE498F8E499F9C3E49AFAEF
:1009A300E49BFB22EB20E7CFE920E7E0B90010BB93
:1009B3000008E88AF084F8AAF022E4FBC8FA22EBE4
:1009C30070227B10C833C8C933C9335007C39AC3D5
:1009D300DBF280069A50012ADBEAC833F4C8C93334
:1009E300F4C9FA2275F008E4C833C8C933C933C956
:1009F3009AC99B5004C92AC93BD5F0ECFBC833F410
:100A0300C8E4C9FA22080808EAC0E0EBC0E086F0AF
:100A1300E7A4FA180986F0E7A42AFA180986F0E78A
:100A2300A42AFA180986F0E7A42AFA1986F0E7A49B
:100A3300FBE5F02AFA190886F0E7A42BFBE5F03A68
:100A4300FA190886F0E7A42BFBE5F03AFA1818091F
:100A530086F0E7A4C5F02BFBE43AFA1908E7C5F0E2
:100A6300C6A426F6E5F03BFBE43AFA1886F0E7A4C1
:100A7300F6E5F00826F6E43B08F6E43A08F6D0E09B
:100A8300FBD0E0FA22080808E630E7111212CD1273
:100A93000AA0080808C64480C6181818221818188F
:100AA300E9799EC608CAC608CBC608CCC6C370205F
:100AB3007996CACBCC7019798ECBCC70137986CC4E
:100AC300700EF9802ACA33CACB33CBCC33CC33195B
:100AD30030E7F2CCCBCA3350147004EA30E00DE4B3
:100AE300CA3ACACB3BCBCC3CCC500209C3E913C6B0
:100AF300CC182313C6CB18C6CA18C6F922E4CFC034
:100B0300E0E4CEC0E0E4CDC0E0E4CCC0E075F0208A
:100B1300E626F608E633F608E633F608E633F61873
:100B23001818EC33FCED33FDEE33FEEF33FFC3EC6B
:100B33009709ED9709EE9709EF97191919400FFFD8
:100B4300EC97FC09ED97FD09EE97FE191906D5F010
:100B5300BFECF709EDF709EEF709EFF7191919D00B
:100B6300E0FCD0E0FDD0E0FED0E0FF222521C582ED
:100B7300C0E0E52234FFC583C0E0E521C3958224AC
:100B8300F810AF088583228582218008858322851A
:100B93008221D2AFCEF0A3E520F0A37808E608F0D7
:100BA300A3DEFAEFF0A3E58124FAF8E608F0A3E662
:100BB30008F0A3E608F0A30808E608F0A3E608F0A7
:100BC300A315811581D0E0FED0E0F81581158115BC
:100BD30081E8C0E0EEC0E022C0E074F2120C43A250
:100BE300AFE433FED2AFE589A2E4500579011218D0
:100BF3009D758900C2C5EEA2E092AF7F01020CA2EF
:100C0300C0E074F2120C43A2AFE433FED2AFE58A24
:100C1300A2E35005790212189D758A00C2EB80D6B3
:100C2300C0E074F2120C43A2AFE433FED2AFE58B03
:100C3300A2E05005790412189D758B00C2E880B6B6
:100C4300C0D02521C582C0E0E52234FFC583C0E0C2
:100C5300E521C3958224F310AF0885832285822181
:100C63008008858322858221D2AFC8F0A3E9F0A34F
:100C7300EAF0A3EBF0A37908E709F0A3D8FAECF0C4
:100C8300A3EDF0A3EEF0A3EFF0A3D0E0F0A3D0E048
:100C9300F0A3D0E0F0A3E520F0A3E5F0F0A32285D4
:100CA3002283852182E0C0E0A3E0F9A3E0FAA3E078
:100CB300FBA37808E0F608A3DFFAE0FCA3E0FDA3BA
:100CC300E0FEA3E0FFA3E0C0E0A3E0C0E0A3E0F503
:100CD300D0A3E0F520A3E0A3F5F010AF08858322AD
:100CE3008582218008858322858221D2AFD082D05C
:100CF30083D0E0F8D0E0321212D0181818120B008B
:100D03001213C9191919221213C919191908080834
:100D1300E618181820E7E0120B001212D018181862
:100D230022090909E719191920E7DC080808E61858
:100D3300181820E703020B001212D0181818120B10
:100D4300001212D01818181213C9191919221214E3
:100D5300BFB90003020D90E4900401784D791A8025
:100D630002F0A3D8FCD9FA7A4D7B1D90008678B3A4
:100D730079028015E493A3AD82AE838A828B83F0DC
:100D8300A3AA82AB838D828E83D8E9D9E77582DDEE
:100D93007583A8740612114D75827175832F7400C3
:100DA30012114DE47375F0108E238F2485822885EC
:100DB3008327852182852283E0CEA3E0CF85288205
:100DC300852783EBC9EAC8EDCBECCAC3E833C8E98E
:100DD30033C9EA33CAEB33CBC3EA9EF526EB9FF55F
:100DE30025B35004AB25AA26EC33CCED33CDD5F097
:100DF300DAAE23AF2422121466601C121448601763
:100E03001214D470071214E67001D322C0D0121446
:100E1300E67006D0D0B322C32233D0D0501430E0D2
:100E2300F6C3E7960809E7960809E7960809E796DF
:100E3300B32220E0D5E6970809E6970809E6970864
:100E430009E697B322121466601B12144860161247
:100E530014D470071214E6600CB322C0D01214E647
:100E63007005D0D022C32233D0D0501330E0EBC36F
:100E7300E7960809E7960809E7960809E796222006
:100E8300E0E4E6970809E6970809E6970809E69774
:100E930022D083D082ECC0E0EDC0E0E493A3FCE475
:100EA30093A3FDED4C600D120F6CEC24FFFCED34AD
:100EB300FFFD80EFE493A3FCE493A3FDED4C600DF1
:100EC300121035EC24FFFCED34FFFD80EFD0E0FD84
:100ED300D0E0FCE493A3C0E0E493C0E022D083D04D
:100EE30082E9C0E0E493A3C386F0C5F095F0F90866
:100EF300E493A386F0C5F095F0700BE493A3C39934
:100F03004005E9048002A3E475F002A42582F5827A
:100F1300E5F03583F583D0E0F9E493A3C0E0E493EF
:100F2300C0E022852283852182E0A3FEE0A3F52091
:100F33007808E0A3F608DFFAE0A3FFE0A3C0E0E04F
:100F4300A3C0E0E0A3C0E0E0A3C0E0E0A3C0E010E2
:100F5300AF088582218583228008858221858322AB
:100F6300D2AFD083D082021153C0E0C3E49396087A
:100F73007401939618400FE4936670080874019304
:100F8300661870007019A3A3C3E4939608740193C1
:100F93009618A3A3400DD0E0D0E0D0E0020ED0A37A
:100FA300A3A3A3A3A3D0E02274048004740280004B
:100FB300CCC0E0EDC0E0E521C39CCCAD2250011DC7
:100FC30010AF068C218D2280068C218D22D2AF1288
:100FD30010CFD0E0FDD0E0FC2274028000CCC0E052
:100FE300EDC0E0E521C39CCCAD2250011D10AF063E
:100FF3008C218D2280068C218D22D2AF1210ADD090
:10100300E0FDD0E0FC221214666025121448602033
:101013001214D470030214E6080808E76670101867
:1010230019E766700A1819E76670041819E766224B
:10103300F422C0E0C0F088F0E493667008087401FD
:101043009366187000A8F0A3A3700BD0F0D0E0D083
:10105300E0D0E0020ED0A3A3D0F0D0E022D083D022
:1010630082CCC0E0E493A3600612110F1470FAE47B
:1010730093A360061212391470FAD0E0FCE493A330
:10108300C0E0E493C0E022C0E074F2120C43A2AFCC
:10109300E433FED2AFC2C0E5D1A2E450031218D9A3
:1010A300EEA2E092AF7F01020CA2CAC0E0E493A3D8
:1010B300C582CCC582C583CDC583F0A3C582CCC50B
:1010C30082C583CDC583DAE5D0E0CA22CAC0E0E099
:1010D300A3C582CCC582C583CDC583F0A3C582CC0D
:1010E300C582C583CDC583DAE6D0E0CA22C008C372
:1010F300E096F50808A3E096420808A3E0964208A4
:1011030008A3E09645087001D3D00822C0E0E49319
:10111300A3D39C5010E493A3C39C400AD0E0D0E037
:10112300D0E002107DA3A3A3D0E022700908080831
:10113300226016181818C6C333C608C633C608C6B5
:1011430033C608C633C6D5E0EA22C09FF59FE473D1
:10115300D09F22D083D082C09FE493C0E0740193D8
:10116300C0E0740293F59F2200C0D0252110AF0880
:10117300F521500C05228008F52150020522D2AF3B
:10118300D0D0222521F58210AF08F521400C15227D
:101193008008F52140021522D2AF852283227404F0
:1011A300800A74038006740280027401C0E0F404B0
:1011B300121186D0E012148222C0E0C0D0E8C0E051
:1011C300A8A8D2AFC2C7E8A2E792AFD0E0F8D0D0C8
:1011D300D0E032BB0102E722C082C08389828A83C6
:1011E300BB0003E08002E493D083D0822260160820
:1011F3000808C6C313C618C613C618C613C618C62E
:1012030013C6D5E0EA222521F8E43522F922252167
:10121300FAE43522FB222521FCE43522FD22C3E03A
:10122300C696F608A3E0C696F608A3E0C696F608A7
:10123300A3E0C696F622C0E0E493A36C7009D0E065
:10124300D0E0D0E002107DA3A3D0E022252110AF8F
:1012530008F521400C15228008F52140021522D201
:10126300AF22E066701008A3E066700A08A3E06688
:10127300700408A3E06622E76670100809E7667049
:101283000A0809E76670040809E76622C3E09608BE
:10129300A3E09608A3E09608A3E096A2D265D03314
:1012A30022C3E7960809E7960809E7960809E7962F
:1012B300A2D265D03322C3E096F008A3E096F008EB
:1012C300A3E096F008A3E096F022181818E4C3965A
:1012D300F608E496F608E496F608E496F622C3E6E2
:1012E30097F60809E697F60809E697F60809E697D8
:1012F300F622181818E60846087009E6260870054D
:10130300E633F4220822191919E70947097009E796
:1013130027097005E733F4220922C3E4939608747E
:101323000193960874029396087403939622E62712
:10133300F60809E637F60809E637F60809E637F648
:1013430022700422600D18C6C333C608C633C6D53F
:10135300E0F41822E657F60809E657F60809E657B7
:10136300F60809E657F622E056F608A3E056F60813
:10137300A3E056F608A3E056F622E026F608A3E01B
:1013830036F608A3E036F608A3E036F622E026F0A8
:1013930008A3E036F008A3E036F008A3E036F02215
:1013A300E056F008A3E056F008A3E056F008A3E0E7
:1013B30056F022E647F60809E647F60809E647F637
:1013C3000809E647F622E4C397F709E497F709E427
:1013D30097F709E497F722600D08C6A2E713C6182A
:1013E300C613C6D5E0F322C6F4C608C6F4C608C6BB
:1013F300F4C608C6F4C622C3E09608A3E09608A381
:10140300E09608A3E09622C3E7960809E796080941
:10141300E7960809E7962275D00075813F7521018B
:1014230075220400020D51600C08C6C313C618C60A
:1014330013C6D5E0F422E6F008A3E6F008A3E6F02D
:1014430008A3E6F022E7094709C3134709336002FB
:10145300E733F422E0F608A3E0F608A3E0F608A3D6
:10146300E0F622E6084608C3134608336002E63373
:10147300F422800100E9F874FF28F90470F622CA07
:10148300C0E0E6F0A308DAFAD0E0FA22E0F8A3E03D
:10149300F9A3E0FAA3E0FB22E8F0A3E9F0A3EAF062
:1014A300A3EBF022EAF0A3EBF0A3ECF0A3EDF02220
:1014B300E0FAA3E0FBA3E0FCA3E0FD22E5C754F8B8
:1014C3004401F5C77901222521F582E43522F5830C
:1014D30022E62618461846184622C2AF75D69F0242
:1014E300000022E727194719471947221211560905
:1014F300DD031211566CDD03121156B0DD03121118
:10150300564ADE03121156C8DE03121156FBDE03E0
:1015130012115609E00312115629E0031211567DE8
:10152300E00312115665E10312115667E30312112A
:101533005609E40312115659E603121156DDE60368
:10154300121156E2E90312115616EC031211564E0C
:10155300EC03121156ADED03121156B7ED03121140
:101563005606EE03121156D8EF031211562FFE053D
:101573001211564DFE05121156C3FE05121156C91E
:10158300FE051211561FFF05121156C2AA061211AB
:1015930056F6AA0612115649AB061211564CAC0662
:1015A300121156AFA2061211560DA3061211564F71
:1015B300A30612115671A3061211562BA40612117B
:1015C300566FA406121156A4A4061211566DF10308
:1015D300121156E9F1031211561CF2031211564A65
:1015E300F20312115688F203121156C3F4031211B7
:1015F30056E2F40312115627F503121156BDF503F3
:1016030012115609F6031211569DF603121156755F
:10161300F703121156D1F7031211562FF8031211C3
:1016230056ACF803121156E2F8031211562DF903C2
:1016330012115653F903121156E3F9031211567A94
:10164300FA03121156C6FA03121156F7FA031211CE
:10165300562EFB03121156B4FC031211567EFD03E2
:101663001211564EFE03121156BFB905121156C977
:10167300B905121156DAB905121156F2B90512114C
:101683005658BA0512115683BA051211569EBA0559
:10169300121156D3BA05121156FBBA05121156236D
:1016A300BB0512115652BB051211564FBC05121140
:1016B300569CBC05121156B1BC0512115643BD050B
:1016C30012115692BD05121156BABD05121156DFFD
:1016D300BE05121156ACC0051211564FC3051211A7
:1016E3005669C305121156528A061211567E8A068E
:1016F3001211569E8A06121156C58A061211560CED
:101703008C061211562D8C06121156EB8C061211F3
:1017130056828D061211565BBB0612115660BB062C
:1017230012115693BB0612115650F902121156505C
:10173300FA0212115681FA021211568EFA0212118E
:1017430056ACFA02121156DBFA021211560AFB02C8
:1017530012115676FC0212115632FE021211564F26
:10176300FE02121156B6FE02121156E8FE021211C3
:1017730056EBFE02121156EEFE02121156FFFE0246
:10178300121156A0DD05121156F5DD051211563959
:10179300DE0512115643DE051211564DDE051211F8
:1017A30056A9DE051211561DDF0512115604E00578
:1017B30012115668E10512115693E2051211569D56
:1017C300E20512115662E3051211567CE30512116C
:1017D3005685E3051211568EE305121156EDE30506
:1017E3001211563D9E06121156049F0612115616EB
:1017F3009F06121156689F0612115613B80612114E
:101803005624B806121156C2B806121156CDB806A0
:10181300121156E5B806121156F2FF011211566A5B
:10182300BC06121156F4B80612115604B906121169
:10183300561CB90612115684B90612115622B50662
:10184300121156A5B5061211560BB606121156D330
:10185300A606121156E7A6061211564EA706121136
:101863005697A706121156BFA706121156E3A706ED
:1018730012115606A8061211563EA80612115666F4
:10188300A806121156A1A80612115624B706121162
:101893005671B70612115686B706121156CBB70604
:1018A3001211568583061211569383061211560C94
:1018B3008406121156E48406121156A786061211E5
:1018C30056C7FF03121156769606121156E3960673
:1018D300121156729806121156DB980612115626EB
:1018E30099061211563499061211569BFA041211D5
:1018F30056C7FA041211560BFD041211564BFD0480
:101903001211568BFD041211569FFD04121156B885
:10191300FD04121156AAFE041211564FFF041211B0
:101923005663FF04121156A6AC06121156CAAC0632
:10193300121156E3AC0612115615AD061211564597
:10194300AD0612115672AD06121156D4AD06121120
:1019530056E3AD06121156EDAD06121156FAAD0659
:10196300121156479906121156679906121156A677
:101973009906121156C19906121156E099061211D1
:1019830056469A061211564F9A06121156AC9A06EB
:10199300121156BB9A06121156DF9A06121156A05F
:1019A3009B06121156AD9B06121156BE9B061211D1
:1019B3005678FF01121156C0FF01121156ECFF01B8
:1019C30012115650E905121156AAEA05121156B81A
:1019D300EA05121156CBEA05121156E0EA05121177
:1019E30056F5EA0512115608EB051211567CEB0564
:1019F300121156E1EB0512115683EC0512115647ED
:101A0300ED0512115657ED0512115666ED0512112B
:101A1300562EFF0312115652FF031211567AFF037B
:101A2300121156A2FF03121156EC9B061211561304
:101A33009C06121156319C06121156A49C061211D3
:101A430056AD9306121156C69306121156D293063B
:101A5300121156E693061211560494061211560EED
:101A630094061211561894061211562B940612114D
:101A730056B194061211562695061211565595061F
:101A8300121156A39506121156F295061211560D10
:101A9300960612115617960612115628960612111B
:101AA300566B960612115608BB0612115640CD0509
:101AB3001211566ACD0512115687CD051211569A89
:101AC300CD05121156B0CD051211560ECE051211C9
:101AD3005646CE051211563AD2051211567FD3053A
:101AE300121156B2D30512115615D405121156759B
:101AF300D5051211569DD505121156B2D5051211F1
:101B030056C2D50512115606D60512115661D605D1
:101B130012115671D605121156D0B106121156EA9A
:101B2300B10612115612B2061211562BB206121139
:101B3300564FB2061211566DB20612115684B206F2
:101B4300121156B2B206121156CDB206121156A197
:101B5300BB06121156008006121156108006121190
:101B630056158106121156478106121156778106C2
:101B73001211569A8106121156B18106121156EBB3
:101B830081061211565082061211569282061211C4
:101B930056D182061211560283061211562D830660
:101BA3001211569EB006121156BCB0061211561CE5
:101BB300B106121156BBB10612115609FF021211DA
:101BC300565AAF061211567EB0061211568FAF0544
:101BD300121156F6B205121156E7B4051211561D2D
:101BE300B605121156FEB6051211567AB805121132
:101BF3005646B9051211569AB9051211563C7E0084
:101C03001211565D7E00121156827F00121156ACDE
:101C13007F00121156E5BB06121156F5BB061211D1
:101C230056FFBB0612115693930512115696930550
:101C33001211562E9B051211563A9C05121156B9D4
:101C43009D051211567B9E05121156619F051211B7
:101C53005658A00512115646A10512115603A205A6
:101C630012115633A205121156E4A305121156049C
:101C7300AE0612115616AE061211562AAF061211EF
:101C8300562DAF061211561EB40612115654B40641
:101C93001211566AB406121156ACB406121156BC90
:101CA300B40612115600B5061211560AB5061211E2
:101CB30056A1D605121156E4D60512115649D70579
:101CC30012115666D7051211567FD70512115621E8
:101CD300D8051211562AD8051211566FD8051211BC
:101CE3005698D805121156A5D80512115620D905B4
:101CF300121156ABD905121156F0D9051211563BE4
:101D0300DA05121156A0DA05121156C3DA051211BB
:101D13005634DB0512115689DB05121156C4DB0557
:101D2300121156F9DB051211560BDC051211561D63
:101D3300DC051211563CDC0512115645DC05121167
:101D430056F3DC0512115636DD0512115674DD0506
:101D53001211568EB90612115671E405121156B1BD
:101D6300E505121156D4E505121156E5E5051211E4
:101D730056B7E705121156D7E70512115679A00693
:101D8300121156AFA006121156F7A00612115650A3
:101D9300A20612115600800512115619810512115F
:101DA300565381051211560183051211562F8305CF
:101DB300121156958505121156D5850512115679BE
:101DC30087051211560988051211565D88051211EF
:101DD30056FF88051211564189051211568389054C
:101DE300121156E08A051211562E8C0512115665F2
:101DF3008E05121156938E05121156BA8E051211C5
:101E030056C38E051211561A8F05121156B58F053A
:101E1300121156BD9205121156449305121156E93B
:101E23007F0012115640F60512115656F60512118F
:101E330056FAF60512115639F70512115656F705DB
:101E430012115687F705121156D4F70512115607CA
:101E5300F80512115642F80512115637FA051211F8
:101E63005624B60612115683B606121156C1B6068B
:101E730012115602B70612115651BA06121156BD67
:101E8300CC02121156C9CC021211562BCD021211DB
:101E93005635CD02121156C6CD0212115602CE028C
:101EA300121156EBCE02121156FECE021211564BF0
:101EB300CF02121156DACF0212115610D0021211AC
:101EC300568BD0021211565AD20212115654D40212
:101ED30012115632D50212115650D60212115696CD
:101EE300D802121156D9D90212115688DA021211E8
:101EF3005628DF021211561CE002121156C0E002EE
:101F0300121156E5E00212115681E10212115696A2
:101F1300E102121156BAE10212115628E20212111D
:101F23005645E2021211566FE20212115605E402FF
:101F330012115626E402121156CCE4021211561461
:101F4300E50212115669E50212115609E602121151
:101F5300566DE602121156CBE60212115678E702CD
:101F6300121156E6E70212115619E80212115687AA
:101F7300E802121156D8E9021211562EEA02121182
:101F830056CBEA0212115625ED021211568EED02BE
:101F930012115604EF021211562EEF021211564A75
:101FA300F102121156F5F3021211561EF502121127
:101FB300563BBF011211566CC10112115641C601A5
:101FC300121156D7C60112115614C701121156BC6D
:101FD300C701121156BFCD01121156D7CE011211EE
:101FE30056B0CF01121156C2CF01121156F8CF01CC
:101FF30012115683D0011211567FD101121156F8D6
:10200300D1011211560BD2011211562DD201121108
:10201300568BD201121156EFD201121156E9D30198
:1020230012115600D4011211561FD4011211563A3F
:10203300D401121156A6D70112115663D9011211F8
:1020430056C4DD01121156ADDF01121156C1E30171
:10205300121156C8E50112115661E90112115677A2
:10206300ED0112115649F10112115658F5011211E1
:1020730056F6F501121156DEF60112115604F70158
:10208300121156AAFF051211565CFA01121156E9F4
:10209300FA0112115663FB0112115684FB0112114E
:1020A3005660FC01121156CDFD01121156C5E40410
:1020B300121156F7E4041211566FE5041211567209
:1020C300E604121156CEE60412115645E804121125
:1020D3005661E804121156B3E804121156F1E804EC
:1020E30012115604E90412115656E904121156AF9F
:1020F300E9041211566AEA04121156E4EA041211B1
:10210300560EEB0412115646EB04121156B8EC04AA
:1021130012115691ED04121156E0EE04121156B34A
:10212300EF041211563BF00412115685F0041211FC
:10213300569FF004121156E6F0041211566BCC05AB
:102143001211569CF10412115616F2041211562163
:10215300F20412115676F204121156D0F20412113F
:10216300564EDC03121156B2F504121156D5F6047D
:1021730012115611F70412115603F8041211562BBB
:10218300F8041211562EF80412115638F8041211DD
:10219300564BF804121156CAF80412115600F904EA
:1021A3001211562CF90412115653F90412115677D1
:1021B300F904121156E8F904121156F6F904121132
:1021C300560CFA04121156B5DA031211565BFA04CF
:1021D30012115671FA0412115689FA041211567724
:1021E300FF0412115683FF04121156B7FF04121194
:1021F30056EFFF011211560080041211562380047A
:10220300121156698104121156B281041211561A21
:102213008204121156748204121156778204121129
:1022230056C38204121156368304121156BE830418
:10223300121156C183041211564B84041211568C89
:102243008404121156618804121156F9890412117B
:1022530056338A041211569A8A04121156E88D04D1
:10226300121156738E041211565E8F041211569C6E
:102273009004121156B991041211567C9204121152
:1022830056E7930412115683940412115690950441
:102293001211567C9704121156B59804121156F96F
:1022A300990412115630B604121156DAB6041211FB
:1022B3005640B70412115659B704121156D5B70434
:1022C30012115619B80412115634B904121156706A
:1022D300B904121156F0B9041211563BBA04121183
:1022E30056A2BA041211561DBC041211564BBD045A
:1022F300121156D0BD04121156D6BF041211567FC7
:10230300C00412115623C10412115682C1041211C2
:1023130056F7C1041211564FC30412115617C404C1
:1023230012115661C4041211567DC40412115623AE
:10233300C5041211566FC504121156FBC5041211C0
:10234300564BC704121156FDC804121156BFCA04D6
:1023530012115670CB04121156DACB04121156FA2D
:10236300CC04121156BF9B04121156339C04121154
:10237300567B9C04121156BF9C04121156089D04EF
:10238300121156529D041211568A9D0412115608B9
:102393009E04121156629E04121156B69F04121126
:1023A3005647A0041211569FA004121156B9A00457
:1023B300121156E1A00412115639A104121156A8A4
:1023C300A304121156C7A304121156ABA40412118D
:1023D30056DBA50412115658A604121156A7A604DB
:1023E30012115608A704121156AEA7041211567CF7
:1023F300A9041211567CAA04121156FAAB04121145
:1024030056DBAD0412115641B004121156F1B1045A
:10241300121156C1B2041211562FB30412115646AB
:10242300B3041211563EB4041211562EB504121100
:102433005699B504121156EC8606121156388806C1
:10244300121156F58806121156598906121156CDE6
:102453008906121156B18D06121156CC8D06121132
:1024630056108E06121156368E061211565C8E06C3
:10247300121156748E06121156D78E06121156EC8F
:102483008E061211560F900612115618900612114D
:10249300562190061211562A9006121156349006B0
:1024A3001211569FED051211569EF105121156A3F6
:1024B300F105121156A5F1051211564FA906121175
:1024C300564CBC06121156D7900612115600B3068D
:1024D300121156F0B906121156C4A4061211562051
:1024E300BC0612115644FA05121156A9BA06121166
:1024F30056B9BA061211560CF20512115635AC0331
:1025030012115668AC03121156D4AC031211566F54
:10251300AD031211560CAE0312115651AE03121134
:102523005673AE031211568CAE03121156B2AE039C
:10253300121156D4AE0312115612AF03121156568E
:10254300AF0312115678AF03121156DAAF0312110B
:1025530056A1B00312115658B103121156CAB10352
:1025630012115695B203121156E8B2031211564EC8
:10257300B30312115688B303121156DAB3031211BF
:102583005648B403121156B3B403121156B6B4032A
:1025930012115637B503121156CEB5031211562F29
:1025A300B6031211561FB7031211563EB703121189
:1025B30056A2B803121156AFB803121156BBB90392
:1025C300121156C8B903121156D1B903121156A9E3
:1025D300BB03121156C3BC031211563CBD031211A7
:1025E30056AEBD03121156D0BD0312115664BE037D
:1025F30012115638C0031211560FC4031211562379
:10260300C40312115633C4031211563DC4031211ED
:102613005646C4031211564FC40312115659C4032C
:1026230012115686C403121156AFC403121156BABF
:10263300C403121156DEC40312115602C50312114C
:10264300566CC503121156B2C503121156CFC503FA
:102653001211564CC60312115683C603121156C2E9
:10266300C6031211560FC70312115695C703121151
:102673005663C903121156F8C903121156DCCA0373
:1026830012115643CD031211569CCD03121156E677
:10269300CD0312115641CF031211567FCF031211EE
:1026A30056D1CF0312115686D00312115635D103DA
:1026B30012115672D10312115607D2031211567317
:1026C300D2031211560080021211563280021211E7
:1026D3005660800212115636820212115616830278
:1026E3001211566E8302121156A98402121156F565
:1026F30084021211561E8802121156118B021211F6
:1027030056618C02121156F78C02121156038D0278
:10271300121156358D02121156B88E0212115669D6
:102723009002121156FD900212115640910212119D
:1027330056BE9102121156DB91021211560B9202F0
:10274300121156409202121156109302121156B9E9
:1027530093021211563F96021211565F97021211FD
:10276300564A9802121156CC9802121156009D0235
:102773001211563D9D02121156959D02121156C813
:102783009D02121156329E02121156689E021211B8
:1027930056F39E021211564B9F0212115622A002AB
:1027A300121156DBA00212115676A1021211567EA7
:1027B300A4021211569AA5021211563DA902121132
:1027C3005631AA0212115634AA0212115663AA02F2
:1027D30012115669AC0212115642AD0212115685FE
:1027E300AD02121156DBAE021211561AAF021211CC
:1027F30056A3AF02121156D7AF021211569CB00264
:10280300121156B4B20212115625B30212115665B3
:10281300B302121156F3B30212115615B502121177
:1028230056D7B502121156DEB702121156F6B70289
:102833001211560AB80212115642B80212115670FA
:10284300B802121156EFB90212115614BB0212113B
:102853005671BB0212115623BC021211564ABC0216
:1028630012115611BD02121156A9BD02121156CFF3
:10287300BF0212115604C00212115667C002121190
:102883005696C1021211563EC2021211566FC2026F
:1028930012115687C20212115616C302121156CADA
:1028A300C502121156A2C702121156BEC702121157
:1028B30056DAC702121156A8C8021211569BCC024F
:1028C300121156303600121156623600121156514B
:1028D3003A001211569D3A00121156E33A001211B2
:1028E30056853B00121156E13B00121156263C005F
:1028F3001211566D3D00121156813E001211567091
:102903004200121156F442001211560144001211F2
:10291300565D44001211564D4600121156C2460030
:10292300121156CC4600121156D946001211560404
:102933004700121156EB4700121156954800121129
:10294300561349001211563349001211565C4900BF
:102953001211567E4900121156DE4B00121156A475
:102963004C00121156E94C00121156664D0012111B
:1029730056174E00121156494E001211568F4E0033
:10298300121156CB4E001211561B4F001211566FE7
:102993004F00121156C54F0012115611500012115B
:1029A300567E5000121156F95000121156C45200AF
:1029B300121156C45300121156E95400121156282D
:1029C30058001211563B5B00121156F85B001211AE
:1029D300563C5C00121156EC5D00121156005E006D
:1029E3001211560A5E00121156145E00121156207F
:1029F3005E001211563C5E00121156E75E00121182
:102A030056265F00121156305F001211563A5F00CE
:102A1300121156AA5F00121156F55F001211560AE1
:102A23006100121156666100121156E7610012111E
:102A330056A66200121156AF6300121156E36400EA
:102A4300121156D16500121156E965001211564450
:102A53006600121156626600121156AA6600121120
:102A630056D166001211566C670012115632680077
:102A7300121156C468001211563E690012115658BD
:102A83006A00121156056B001211562D6C001211BB
:102A9300567D6C00121156E16C00121156436D0005
:102AA300121156716D00121156956D00121156CA0E
:102AB3006D00121156FB6D001211562E6E0012118D
:102AC300564E6E00121156B66E00121156AA6F00C2
:102AD3001211560570001211562E7000121156B6BF
:102AE30070001211563971001211566471001211DF
:102AF300564972001211562773001211565F730064
:102B0300121156807300121156C27300121156240B
:102B130074001211562E74001211563E74001211D5
:102B230056797400121156597800121156467A00DC
:102B33001211562C7C00121156C37C0012115665DB
:102B43007D00121156248103121156A28103121122
:102B530056FE8103121156498203121156648203F1
:102B63001211568F8203121156AC8203121156B8FA
:102B730082031211564F84031211566884031211F3
:102B830056ED84031211560085031211561F850357
:102B9300121156C38503121156448703121156F7B7
:102BA30088031211568D890312115690890312114D
:102BB30056008A031211561E8A03121156B58A0350
:102BC300121156FD8A03121156008B03121156C6B9
:102BD3008B03121156338C03121156598C031211A5
:102BE30056E48C03121156028D03121156488D03BD
:102BF300121156FC8D03121156468E03121156758F
:102C03008E03121156D28E03121156078F0312111F
:102C130056338F03121156418F031211568E8F03B1
:102C2300121156FE8F031211564790031211569339
:102C33009003121156BF9003121156CA900312113A
:102C430056E89003121156D39103121156DD9103E6
:102C5300121156189203121156289203121156316B
:102C6300920312115685920312115699920312116F
:102C730056C89303121156DD93031211566B940336
:102C8300121156B094031211563C95031211564774
:102C93009503121156899603121156A49603121125
:102CA30056F096031211565F970312115698970325
:102CB300121156B29703121156F49703121156C408
:102CC3009A03121156719B03121156DE9B031211C4
:102CD300561E9E03121156369E03121156399E0339
:102CE300121156459E03121156599E031211566135
:102CF3009E03121156949E03121156969F031211AE
:102D0300561DA0031211568DA0031211560FA103D5
:102D1300121156D0A103121156EFA10312115690AE
:102D2300A203121156EDA203121156F0A2031211BF
:102D33005664A303121156B3A403121156B9A50383
:102D430012115644A6031211565FA70312115627F8
:102D5300A80312115658A8031211567BA803121187
:102D63005684A803121156B3A80312115643A9039C
:102D7300121156F9A9031211566EAA031211561510
:102D8300AB031211568AAB03121156C1AB031211D6
:102D930056FFAB03121156C6DB03121156D4CA05F4
:102DA30012115616CA0512115679C9051211566F1A
:102DB300C90512115619C90512115605C905121173
:102DC3005664C80512115668C70512115692C605F6
:102DD3001211569BC405121156EEC30512115679F2
:102DE300DB0312115621F30412115680C30512118D
:102DF3005695E40412115656D8031211560FD503F3
:102E03001211568BE40412115620E4041211567465
:102E1300E20412115632E20412115652E104121165
:102E2300563CE104121156FDE00412115658E00419
:102E330012115652DD0412115640DB041211560DC5
:102E4300DB04121156A8DA041211563BDA041211EC
:102E530056FAD90412115633D904121156CED80496
:102E630012115679D8041211561CD804121156F3B4
:102E7300D60412115690D604121156DAD504121143
:102E830056D5D504121156C9D5041211567CD20455
:102E930012115650D403121156ADD3031211566CAE
:102EA300D3031211564DD3031211561AD303121121
:102EB3005605D303121156DAD20312115656D20411
:102EC300121156FBD104121156A6D10412115667E2
:102ED300D104121156FACC0512115654D104121111
:102EE3005649D10412115625D10412115634CF0478
:102EF3001211564CDB03121156B3CE041211562D88
:102F0300FA041211566FCE0412115643CE04121155
:102F13005631AF05121156F3AE05121156C6AE0562
:102F230012115692AE0512115631AE0512115619F1
:102F3300AE05121156F5AD05121156BEAA051211B2
:102F4300568AA80512115671A60512115600A60538
:102F5300121156AFA505121156D2A40512115669C6
:102F6300A505121156C2CC0512115606F104000034
:102F73000080FB00002287000100771E350004005B
:102F8300401E25000200441E26000200461E2700A4
:102F93000200481E28000100521E29000100531E92
:102FA300840004003B1B860001005B1D2A00010016
:102FB300541E2B000100551E2C000100591E2D002C
:102FC3000800471B2E0001005A1E2F0001005B1E44
:102FD300300001005C1E310001005D1E3200010063
:102FE3004F1B33000100501B340001005E1E3600EE
:102FF3000100511B380001005F1E39000100581EFB
:1030030083000200751E630001005D1B6400010064
:10301300561E65000100571E6D0001005E1B710006
:1030230008003F1B66000100741E43000100651E7B
:1030330044000200661E45000100681E46000200AF
:10304300691E47000800551B480001006B1E4B001A
:1030530001006C1E04000100781EA10001007B1E0C
:10306300370001007A1E88000100791E3C00010030
:10307300521B3D000100601E490002006D1E6700E7
:1030830001005F1B4D0002006F1E4E000100711E08
:103093004F000200721E3E000100641E5100010039
:1030A300531B52000100621E53000100631E5400B3
:1030B3000100541B0000000000000000000020017C
:1030C30034BF00000100200137BF000002002001CF
:1030D30038BF00000300200139BF00000400420193
:1030E30026BD000005004201EEBB000006004201C0
:1030F30010BC0000070030013ABF0000004042014D
:1031030010BC0000FDFF21012EBF0100200020059F
:10311300631D010021002005641D010003F0212728
:10312300031E060000001005251A0A000000E2270E
:103133001F1A0A00070023271F1A040204F020277E
:10314300051E020400002905171A020401F02127B5
:10315300F31D020402F02127FB1D030400002905CF
:10316300191A0304100029051B1A03041400280567
:10317300EC1D030401F02127F51D030402F02127B0
:10318300FD1D0504000021051D1A050401F021277A
:10319300F71D050402F02127FF1D0001363601014A
:1031A30000010201000103010001040106060502FA
:1031B3000000070100340801000F090401010D019B
:1031C30000FF0E08000017020000190100FF1A019A
:1031D30000011B0100FE1C0100081D0200001F016D
:1031E300000120010001210200002301000F24023D
:1031F30000002601000127010008280200FF2A0120
:1032030000072B0102402C0100002D0100012E01BB
:1032130000012F0100FF30010B1D310800003A01AE
:1032230000083B01000F3C0100013D0100FF3E048B
:10323300000042040000460400004A0400004E045B
:10324300000052040000560400005A040000010369
:1032530071030103010301030103010322030203B9
:103263000103100300030003000300030003000332
:1032730000034203000324030603000300030403C3
:103283001203250323032503230304030403000379
:103293000003000344030003000323030003650347
:1032A300210035038103000305030003000300032A
:1032B300000325032303030271023001600211029C
:1032C30070020102020202028002100261023A004D
:1032D300410063027302720262024302000213029C
:1032E300380000020002040212020002000200027F
:1032F300000204020402370037003C0244020002C9
:103303003900000200026502000235028102000258
:103313000502820283020002030071003001600093
:10332300110070003102200350048000100061007E
:103333000000140063007300720062004300000089
:10334300130006000000000004001200000000004B
:103353000000000004000400370037003C02440072
:10336300000000000000000065000000350081003F
:10337300000005000000830000000101710101014C
:10338300010111010101310101010101800110015C
:1033930061013B0014006301730172016201430187
:1033A3000001130106013D01350004011201000172
:1033B30000010001000104010401330133013C0158
:1033C30044013201360000010001650100013500AE
:1033D3008101000105018201830100013600010022
:1033E300060000000F0000000000000000000000C5
:1033F300000003FFFF00000403FFFF0000FFFF0FB7
:10340300F4010005C4040320000100000B000000C8
:10341300000000000003010F000000000000000096
:103423000000000000000000000000000000000099
:1034330000000000000000000000691F991F6F1FBB
:103443009D1E751F9F1F751FAB1F7B1F9D1E751F25
:103453009F1F811F9D1E00000000871F9D1E0000EF
:1034630000008D1F9D1E931F9D1E00000000000085
:103473000000000000000000000000000000000049
:103483000000000000000000000000000000000039
:103493000000000000000000E1220100E122020020
:1034A3001B2202801522030021220400272204800C
:1034B3002D220500332206003F2230005D22310019
:1034C30057223300692234006F2211007522140041
:1034D3007B2215005122FFFF0000030003000400BC
:1034E300080010001F003E007B00F600EC01D7032C
:1034F300AF075D0FB91E713D00000600000010010B
:10350300251A060400001805261A060410002127B0
:10351300ED1D060411002127EF1D00040000210505
:10352300231A000401F02127F91D000400F02127CC
:10353300F11D000402F02127011E07ECFDFDFDEC47
:10354300DCDCCCBCACAC9C9C8C7C7C6C6C5C5C5C38
:103553004C4C3C3C2C2C1C1C03EAF5E5D5D5C5B5DD
:10356300A595958585757565655555454535352508
:10357300251515050A3B29020529051129070B29DC
:103583000CED280DF928FF000000160F00000B15A5
:103593000B020002220F3300000E0F5A69674265C7
:1035A30065416C6C69616E63653039D0D1D2D3D417
:1035B300D5D6D7D8D9DADBDCDDDEDF303017181902
:1035C30021301B1D1F3000034D4C4651181A250591
:1035D30002000119161816161823030030301618A6
:1035E3001920231A1C1E30003C40423A3F3F392F1A
:1035F30047300C0E020B040B0A0708000F020402EB
:10360300010101010902E803000000BE040A0100F0
:1036130024000300E803FF04091C0404031E1E0323
:103623000A0C04100828020C0508150F0674F7127B
:103633000B6FE9901C32F0901BE7E4F0121C6F90C3
:103643001C4AE4F0A3F0901C33F0A3F0122A8B126F
:103653001C75901B6FE4F0A3F0122485024F96743F
:10366300F0120B6F74D312124F1269F2548060661A
:10367300901C32E0F9121CED8A088B09AF09EA4F5E
:10368300604C7C0080010CEC75F003A4F8A9F07485
:103693007728F582743539F583E493F46029E4934C
:1036A300F88A828B83E06870DDEC75F003A4F8740C
:1036B3007828F582743539F583E493C0E074019377
:1036C300F583D082120DA6AA08EFFB121CDB127140
:1036D300246480023A31852182852283A3E0542029
:1036E300601F1229A18A088B09AF09EA4F600A12E9
:1036F30028F9AA08EFFB121CDB1271246420023A9A
:1037030031852182852283E0A2E05042901BECE0C8
:10371300640F702E900D5A12712F900D5AC3E094BE
:10372300E9A3E09403400A7A007B80901A5F125069
:103733007879001228CFE96009901E401214B31261
:1037430028E7852182852283E06401023A1654200A
:103753007003023A1B7A207B00901C32E0F9121EA0
:103763004FEA4B4C4D701A901C4612148FE8494A8D
:103773004B700E750801750900750A00750B008002
:103783006D750C00750D00750E00750F00121E5B34
:103793008A088B098C0A8D0B901C4612148FE849FA
:1037A3004A4B6031901C4678081210F0400E750C9D
:1037B300FF750DFF750EFF750F7F801985080C854A
:1037C300090D8C0E8D0F901C46780C12122174017A
:1037D300780C1211F0850C08850D09850E0A850FEA
:1037E3000BE5084509450A450B70030239757C0052
:1037F30079047A007B001229778A0C8B0DAE0CAF0B
:103803000D0238B974021214CA74FFF0740312144F
:10381300CA74FFF074041214CA74FF1250EB1268D6
:10382300AC7407121219126B62E96401706A123ADE
:103833003D4480F8A3E0F974281214CAE8F0A3E920
:10384300126DF6E0C0E0742A1214CAD0E01250D808
:103853005408601674281214CAA3E04401123A4AA9
:10386300C0E0742C1214CAD0E0F0126A356011E87B
:10387300240B124230F874161214CAE8F0A3E4F0D1
:1038830090BE52120FAB7406121219740B1212115E
:103893001225F3740412116B8E828F83A3A3A3A347
:1038A300A3A3A3A3A37406123A4AF91229597405D0
:1038B3001214CA126BB9EE4F70030239757C00798A
:1038C30004EEFAEFFB12297774051214CAEAF0A387
:1038D300EB124E02E0F50CA3E0F50DE4F50EF50F47
:1038E3007808790C12140A4023EE2404F8E43FF913
:1038F30085080C85090D8882F583C3E0950CF0A338
:10390300E0950D127219E84970A4800C8E828F83A2
:10391300A3A3A3A3E4F0A3F08E828F83A3A3A3A303
:10392300A3A3A3A3A3A3E064018E828F83A3A3A372
:10393300A3A3A37020E0540460030238078E828F90
:1039430083A3A3A3A3A3A3A3A3A37406F07AB71289
:103953003B700238B1A3A3A3A3E060030238078E30
:10396300828F83A3A3A3A3A3A3A3A3A37401F0029E
:1039730038B11229477C0079017A007B001229773C
:10398300EA4B60031250717C0079047A007B0012C9
:103993002977EA4B701380448A828B83A3A3A3A362
:1039A300126BD1EE98EF99400B8A828B83A3A3A36A
:1039B300A3126BB97C0079041229778B0BA90BEA4C
:1039C3004970D5C3E5089EE5099F500DC3EE9508E0
:1039D300FEEF9509FFEE4F700D125071901C4612C9
:1039E3003A43A3F08024EE2EFEEF338E08F509E46C
:1039F300F50AF50B78081211A17A20123C1912115D
:103A03006B121E5B901C461214A7852182852283AC
:103A1300E06420FAA3E08016A3E05404601312626A
:103A230089122EC979011243F71271246404FB80B1
:103A3300047A007B00742D026A11EE126A1FE022E1
:103A4300E4F0A3F0A3F0221250DDA3A3E022C0828E
:103A5300C08374EA12124F7C167D007900AA21AB51
:103A630022121CBD74081214CA7402F0901BDB12DC
:103A730064C5123A9174091214CA1264DD741312E4
:103A830014CAE412615C12247974160253A7E8F095
:103A9300A3E9F0901BE5126BA12274F7120B6F746C
:103AA300DA12124FEAFEEBFFEA4F602DAC21AD2292
:103AB3001229BF74061214CAE0601E74171214CAC6
:103AC300E0FD74011214CAE0FCEEFAEFFB79001278
:103AD30028A5E9600479A4800279007426024F9333
:103AE30074F7120B6FEAFEEBFF8A82F583A3A3A39D
:103AF300A3A3A3E0544060178A828B831269D21276
:103B030052B660067AFF7BFF80151269CE80039060
:103B13001BDB1268AC74FE6A700374FF6B604112A6
:103B230069CE1269F8122A55E98E828F83600B12CF
:103B330065BB1271E4E4F0A380031271D3F07CD56A
:103B43007D288E828F8312492CE9F5087015EE4F7C
:103B530060097901EEFAEFFB122953A908024F9687
:103B63007508CDAA08123B70E960E380EE8E828F60
:103B7300831265BF240CF582E438F583E0F912283B
:103B8300E12274F6120B6FE9FEEAFF7A0F7B001253
:103B93001CD5EA4B601A8A828B83740CF0EEA3A3C4
:103BA300F0EF8A828B83124D511261BA7900802B18
:103BB300EEF912297D8B09A909EA49601C8A828BD7
:103BC30083A3A3A3A3A3A3A3A3A37406124D5AE0A1
:103BD300F9122695EEF91229597910025FA574F4AA
:103BE300120B6F8A088B098C0A8D0B901BECE06417
:103BF3000F701EEA4B4C4D6018901BE7E0640860A1
:103C030005E06404700B78081211A1123C1712111D
:103C13006B023E7C7A017B00901C32E0F9121E3D60
:103C230074042274F4120B6F74FC12124FEAFEEB4D
:103C3300FF8A82F583A3A3E0F912297D8A088B0901
:103C4300EA4B7003023D5F8E828F83A3A882A98310
:103C5300E0C0E0EA1261B0D0E0124BC064F160282A
:103C63008E828F83A3E064CD601E8E828F83A3E058
:103C7300641A60148E828F83A3E064E9600A8E82E3
:103C83008F83A3E064E170337900122953E9602B39
:103C9300E5082404F50AE43509F50B85088285094E
:103CA30083A3A3A3A3A3A3124C96124B9E121C811E
:103CB300850A82850B831269F880708E828F83A3B5
:103CC300E0C0E074021214CAD0E01253B51254D803
:103CD300124646C0E074031214CAD0E0F0E508129D
:103CE3006EA11242EFE0AA21AB2270051225ED80EE
:103CF30003122A3D74021214CAE064E9702D850888
:103D030082850983124455750A01780A1211AD752B
:103D13000AE9780A1211AD124B72124613FCA3E0A2
:103D2300FD8A828B8312463D12116B8508828509B9
:103D330083A3A3A3A3A3A3A3A3A3E06402701285F5
:103D43000882850983A3A3A3A3A3A3A3A3A37406A0
:103D5300F08E828F83A3A3E0F91229591229479089
:103D63001E461242617404023E7974F4120B6FEA28
:103D7300FEEBFF7508008A82F583A3A3A3A3A3E048
:103D8300603875080812689F79FF122725EA4B608F
:103D93001075082C8E828F83A3A3A3A3A3E0D2E084
:103DA300F08E828F83A3A3A3A3A3E05403640160D3
:103DB30003023E68430811023E68EA241812579E24
:103DC3006036EA241A12579E6003F47013126B8153
:103DD3007003A3E0696003023E68750822023E682F
:103DE300EA241B123E6C241A12579EFAEE2419126F
:103DF300579EF9122683806D8A828B83A3A3A3A384
:103E0300A3A3A3A3A312424C70037508018E828F50
:103E130083126B857003A3E0697006E508D2E1F5B0
:103E230008E50860158E828F83A3A3E07006E5087A
:103E3300D2E58004E508D2E6F5081252A9640170C0
:103E430006E508D2E0F5088E828F83A3A3E0601510
:103E5300EE241D125ABDF9122A43E964016006E5F6
:103E630008C2E0F508A9088010F582E43FF5831243
:103E7300723CEA22740912116B7F04020F2674F05C
:103E8300120B6F74D712124FEAFEEBFF8A82F5838F
:103E9300A3A3A3A3E0600E901E44126A3C600690A5
:103EA3001E4412426174031212198E828F83A3A3DC
:103EB300A31263881268AA1229BFE9700302401291
:103EC300780174051214CAE0C394024002780074A6
:103ED300071214CAE0C3940240027800740C12144F
:103EE300CAE064F87003A3E0F47003024012740C98
:103EF3001214CAE064F97003A3E0F47003024012E1
:103F0300740C1214CAE064FA7003A3E0F4700302A1
:103F13004012740C1214CAE064FB7003A3E0F47043
:103F23000302401274061214CAE0F9901BD5E0692B
:103F33006003024012E8A2E0400302401274271219
:103F430014CAE06003024012EE2413126B9774222A
:103F53001214CA126392241C126B9774101214CA9F
:103F63001264DD74091214CAE0601D741A1214CAB3
:103F7300E0FD74041214CAE0FC8E828F831268AAD7
:103F830079011228A5E9703B74031212111228F368
:103F9300E9F50C74091214CAE0702C901BCFE06091
:103FA300267422596422601F744259644270147447
:103FB300201214CA124246600E74201214CA12420E
:103FC3003F60047ACF804AE9A2E6504D7420121470
:103FD300CA125AC324FD600F14600C24FD60082428
:103FE300FD600424FE702874201214CA1242387033
:103FF3000E74201214CA1260E9A3E0640D601A74EF
:1040030003121211122A6DE96401700D0242287A1B
:10401300D37B001221F1024228EE242DF582E43FE6
:10402300F58312444C7003A3E069701D7508007892
:10403300081211AD78081211ADEE242F12579EF914
:1040430012425212463D12116B74091214CAE070E7
:10405300030240F01242521268AC122ABB8A0E8B42
:104063000FEA4B700302418174041214CAE0F88E04
:10407300828F83A3A3E028F8A3E03400F9E8240D9A
:10408300124230F88A828B83A3A3A3E068600EE810
:104093008A828B83A3A3A3124D4A123A447904E97B
:1040A3001214CA1257BDA3E02AF8A3E03400888291
:1040B300F583A3AA82AB83121CC98A088B098C0AD5
:1040C3008D0B850E82850F83A3A3A3A378081210FB
:1040D300F0400302422890BDFA780812137D850E42
:1040E30082850F83A3A3127242A31254E1901BE7AC
:1040F300E064046008E064096003024228E50CA25E
:10410300E540030241BBEE242F1257A6F0EE243004
:1041130012579EC0E074011214CAD0E0F0EE2431AD
:1041230012579EC0E074021214CAD0E0F074141245
:1041330014CAE064017026740E1214CA124B992437
:104143001312579E687003A3E0697011740C121464
:10415300CA12424C700774141214CAE4F0EE2425F8
:10416300F582E43FF583120FAB740412121974073E
:104173001212111225F3740412116B024228901CBF
:104183002CE0640160030240F074201214CA12424E
:10419300467009E50CA2E650030240F074101214B5
:1041A300CAE0F47003A3E0F4607BEEFCEFFD74035C
:1041B3001212111228FF806DA2E6506974201214A6
:1041C300CA1265CB7016741A1214CAE064027055D1
:1041D30074031212117900122A37804974201214C1
:1041E300CA12423F7014741A1214CAE06404703580
:1041F3007403121211122A2B802B74201214CA1268
:104203004238700C79007403121211122A79801546
:1042130074201214CA1260E9E0640C70087403126B
:104223001211122A857429026A11E82406F582E420
:1042330039F583E0221269D8E06403221269D8E0D9
:10424300640722125AC76406221252BA640222EE8B
:10425300242BF582E43F12723AEE12528F22E0F5DC
:1042630008A3E0AA08FBE4FCFD1228E72274F41279
:104273000B6FEAFEEBFF8C088D09901B4FE0600F7C
:10428300126B817003A3E069700512267180537964
:104293000012689F1226A18A828B83E58245836080
:1042A3002CA3A3A3A3A3A3E054186021E508241C13
:1042B3001242EC120FAF1242E8120FAFEE241812A3
:1042C3004624125D84126B5912116B801579008E8E
:1042D300828F83A3A3A31265B1125D841268AC120B
:1042E3002677023E7CE5082413F582E43509F5833D
:1042F3002274F7120B6F74F712124FEAFEEBFF9062
:104303001BE7E06403600DE064016008E06409609A
:10431300030243F28A828B83A3E060030243C07CDF
:10432300007D007A027B00121C7B126BFE8A8212D4
:104333006B9B901BD81264DD7953122467901BE7A3
:10434300E064096009901BE51268AC122AB5852167
:10435300828522837401126101901BE77404F07457
:1043630001121211794A12246174011212197ADDB1
:104373007B1B121E73901A62E0640B70057406F0C7
:10438300800579001243F7901BD81265B77A037B37
:1043930000121C7B901BDB1265B77A047B00121C96
:1043A3007B901BD2E0A2E35004D2F08002C2F01251
:1043B30060EE901E401214B31228E7802FFC7D009C
:1043C3007A037B10121C7B901A62E0640B700374F7
:1043D3000AF0901B53E4F0FA7B40125EDE8E828F6C
:1043E30083A3E0F91243F7901BE7E4F01229297441
:1043F30009024F93901BE51268B012260522C08272
:10440300C083901B6F126A3C7017901BE7E024FB7C
:104413006005146007800A901B75801F901B7780CE
:104423001AE849600712422D6401700C8A828B835B
:10443300A3E0F91225F9800E901C61126A3C600614
:104443001260EA120DA6025C35126BA1901BE5E027
:104453006822126BA1E8FAE9FB2274F5120B6F7460
:10446300D812124F8A088B098A828B83A3A3A3A332
:10447300A3A3A3A3E0C3940F500302460E8A828B27
:1044830083A3A3A3126BB974151212198A828B83A7
:10449300A3A3A3A3A3A3A3A3124613FAA3E0FB120C
:1044A300293574151214CAE0702E85088285098394
:1044B300A3A3A3A3A3A3A3A3E0C3940B401A8E8235
:1044C3008F83A3A3A3A3A3A3A3A3E064027009EE12
:1044D300240B12579EF4600302460E74171214CA7B
:1044E300E060076402600302460E901BE7E064028B
:1044F300601CE064066017901B6F126A3C70030235
:10450300460E12422D6401600302460E8025901B65
:104513006F126A3C701D75080078081211AD780897
:104523001211ADEE24101246248E828F8312463D63
:1045330012116B8E828F83127211124BC9126B9DF3
:1045430074021214CA126392123A3EC0E074041247
:1045530014CAD0E0124646F508A3E0F509740F78B3
:104563000812142A74051214CAE508F074191214F7
:10457300CAE0C0E074061214CAD0E0F0741B12142F
:10458300CAE0C0E074071214CAD0E0F07416121423
:10459300CAE0C0E074091214CAD0E0F07417121410
:1045A300CAE0C0E074081214CAD0E0F0EE2410127E
:1045B300579EC0E0740A1214CAD0E0F0741A1214A1
:1045C300CAE0C0E0740B1214CAD0E0F074271214CE
:1045D300CAE0C0E0740C1214CAD0E0F0741C1214C8
:1045E300CAA982AA8389088A09750A007808121160
:1045F300A57C087D0074101214CAAA82AB831257DB
:104603009512116BAA21AB221225FF74280250F1D7
:10461300E0F98A828B83A3A3A3A3A3A3A3A3A3E009
:1046230022F582E43FF583E0F98E828F83A3A3A36F
:10463300A3A3A3A3A3A312723C221268B01229F569
:10464300740222F0EE125D89E02274F2120B6F7491
:10465300F812124F8A0A8B0B8C0C8D0D890890BDB2
:10466300B1AC21AD2274081210CFC200AC0AAD0B5D
:10467300AA21AB2212682D7002D200901C33801342
:10468300AC0AAD0BEE240BFAE43FFB12682D701B52
:10469300125280124F13601EA20040E48E828F8359
:1046A300E0650C7004A3E0650D70E58E828F83A333
:1046B300A3E0650870DAEEFAEFFB7408024BD6C08C
:1046C30082C083901C33025C32C082C083901C334F
:1046D300E4F0A302492874F7120B6F901C33127194
:1046E3002A800FEA2414F582E4126BB6121D8FEEB2
:1046F300FAEFFBEA4B70EC901C33E4F0A3F0024FAB
:104703009674F2120B6F8A0C8B0DEDFF890B8A8264
:104713008B83E08C828D83F0A3A882A9838A828B0A
:10472300831247CD124D44E0C454F0FA8882898342
:10473300E04AF0EC2402F8E43FF9850C828B83A372
:10474300A31247CD1247E0E0333354FC1247D4E0C1
:1047530033333354F81247D4A3E0A2E0E433131302
:10476300FA88828983E04AF0EC2403FE50010FE5C6
:104773000C2407F508E4350DF509750A00780812CD
:1047830011A57C087D00EEFAEF12579412116BEE1F
:104793002408FE50010FE50C240FF508E4350DF550
:1047A3000978081211A57C037D00EEFAEF125794E5
:1047B30012116BE50BC3940F400DE50C2412F58227
:1047C300E4350D125D98F0024BD9A3E0888289830A
:1047D30022FA88828983E04A1247E0A322F0850CFB
:1047E300828B83A3A3A3A32274F2120B6FEBFF8C20
:1047F3000C8D0D8A82F583E08C828D831271FBA36D
:10480300A882A983E0125BDD124BBFC4125BD7F011
:10481300EA127205125BE4124BBDA2E2E4338C820E
:104823008D83124BBC131313541F125BDDA3124B66
:10483300BCA2E7E4338C828D83A3A3A3A3A3A3F039
:10484300EA2403FE50010FF5088F09750A00780862
:104853001211A57C087D00E50C2407125790121154
:104863006BEE2408FE50010FF5088F09780812112A
:10487300A57C037D00E50C240F12579012116B8E5B
:10488300828F83A3A3A3E0C0E0127221D0E0F002E1
:104893004BD974F6120B6FEAFEEBFF8A82F583A302
:1048A300858208858309E0F912261D85088285091A
:1048B30083E064EB601E8E828F83A3E064E1601467
:1048C3008E828F83A3E064F1600A8E828F83A3E0DC
:1048D300641A70078E828F83A3E4F0901E40121433
:1048E300B31228E775080178081211AD8E828F8301
:1048F300A3E0F50878081211AD7900901BE5126565
:10490300B7901BDB12463D12116B122947025FA5BC
:10491300C082C083E9901C457003E4800274018067
:1049230004EAF0A3EBF0025C351268B012247F2294
:1049330074F6120B6F901C45E0701B7C0079017AB2
:10494300007B00122977EA4B600C8A828B83126A00
:104953003C60031228DB025FA5C082C083124DF3C3
:10496300401079FF122971E9F890362AE493C3982D
:104973005004790180027900025C3574F2120B6FE6
:104983008A0A8B0B8909C2008A828B83A3A3A3A300
:10499300A3A3A3A3E0F912297D8A0C8B0DAE0CAF60
:1049A3000D750801EA4F6003024A5F850A82850B91
:1049B300831265B1850A82850B83A3A3A3A3A3A353
:1049C300A3124B9E1229658A0C8B0DAE0CAF0DEA18
:1049D3004F7003024B6B8A828B83A3A3A3A3E4F0E0
:1049E300A3F0E50A240CFAE4350BFB8A82F583E095
:1049F300C0E0124B72D0E0F0E50A240D124B922472
:104A03000D1264D7122A5B1252981269F8E50A2430
:104A130011124B9224111264D7E50A2413126BC8A6
:104A2300C0E012528AD0E0F0D200EE2406F8E43F50
:104A3300F9124B85124BC054046003024AD1901EF5
:104A430052E0F50A750B007407780A1213448E823C
:104A53008F83A3A3A3A3A3A3124B7CF08E828F8384
:104A6300A3A3A3A3A3A3E0F50AA3E0F50B7407781C
:104A73000A12142AE50A5407FCE50960618E828F45
:104A830083A3A3A3A3A3A3A3A3A374021250EB1210
:104A93004E88600B901BD312581EA3A31264DDEC47
:104AA3007003024B42EE2406F8E43FF9E8FAE912F8
:104AB3004B85F0EC24FFF50AE434FFF50B7407781B
:104AC3000A1213448A828983124B7CF080718E828E
:104AD3008F83A3A3A3A3A3A3E04480024A5EEC7045
:104AE3000575080080598E828F83A3A3A3A3A3A374
:104AF300E05420600C121CCFEA547F7900245F80BD
:104B0300198E828F83A3A3A3A3A3A3E05410601AD7
:104B1300121CCFEA540F7900240A5001098E828FA8
:104B230083A3A3A3A3F0A3E9800D8E828F83A3A302
:104B3300A3A37401F0A3E4124BC97404124E09A297
:104B43000050288E828F83A3A3A3A31268B6F9EE25
:104B5300FAEFFB12296BE96012126A356003124BFC
:104B6300ABEEFAEFFB121D8F750800A9088067EE04
:104B7300240CF582E43FF58322E0450AF0A3E045E7
:104B83000B228882F583E0547FF0A3E054FC22F5E6
:104B930082E4350BF583126BA1EE22A3E0F9850ABB
:104BA30082850B831268B022124BB212500822EE98
:104BB300240FF582E43FF58322A3A3A3A3124BC4DE
:104BC30022126BE4E022124BCD221250E1A3A3A3E5
:104BD30022740312116B7F06020F2674F4120B6FFB
:104BE30074F712124F7E0012297DEA4B7003024CB8
:104BF300918A828B83A3A3A3A3A3A3A3A3A3E06408
:104C0300066003024C918A828B83A3A3A3A3A3A36D
:104C1300A3E0FF8A828B831271C3E0C0E0740812A1
:104C230014CAD0E0124FB91264CA1264DD12298F7C
:104C3300EF540860578521828522831265B77A0075
:104C43007B0012295FEA4B704312722C7C007D00BB
:104C53007A007B0080228E828F83125AC3F4700302
:104C6300A3E0F46027901BE5124C96124F9B601C47
:104C73007C007D00EEFAEFFB12295F8A0A8B0BAEF4
:104C83000AAF0BEE4F70CF79001224977E01EEF935
:104C9300023E77124C9A22E0FCA3E0FD8E828F83C2
:104CA30022C082C0838A828B83E582458370099008
:104CB3001C4A80068A828B83A3A3124EBC60208A7F
:104CC300828B83A3A3A3A3A3A3A3E0540860E5EC6F
:104CD3004D6010124EC27003A3E06D70D780047A4A
:104CE300007B00025C3574F2120B6F8A088B098912
:104CF3000AECFEEDFF7A147B00121D89EA4B603744
:104D03008A828B83A3A3A3A3A3A3A3A3A3E4124D88
:104D13005AE50A124FA5EEF0A3EF124D4A124FC007
:104D2300124D518A828B83127244124D3D126933A4
:104D3300A3124D44F0A3F0024BD9EA240FF582E409
:104D4300221271FFA3A322124FABE4F0A322A3F01C
:104D53001271BC12693322124D5E22124FAFA3A30C
:104D6300A3A32274F5120B6FEAFEEBFF890A8C08EA
:104D73008D09EA4F60757401697012790112297106
:104D8300E9F890362CE493C3985015800A740469AB
:104D93007009124DF3500979118052740269704BF6
:104DA3008E828F83A3A3A3A3A3A3A3A3A3E50A1222
:104DB3004E021254D8126ABDA3E4F0A3F0901C4A29
:104DC300126A3C60188003126B9D88828983A3A3B7
:104DD300124EBC88828983A3A370EC8003901C4A83
:104DE300EEF0A3EF124E097900800279C10250F46C
:104DF3007904122971E9F890362BE493C3982212AF
:104E03006AC1A3A3A322F07A207B00901C32E0F9AD
:104E1300121D1722C082C083E9F87900901C4A80D2
:104E23001D8A828B83A3A3A3A3A3A3A3A3A3E06845
:104E3300600574FF687001098A828B83A3A3124EF5
:104E4300BC70DE025C3574F7120B6FEA4B70059091
:104E53001C4A80068A828B83A3A3124EBC601F8ADE
:104E6300828B83A3A3A3A3A3A3A3A3A3E06970E457
:104E7300EC600F8A828B83124E8870D880047A008C
:104E83007B00024F961271DCE0540422C082C0837F
:104E9300901C4A80068A828B83A3A3124EBC6012A5
:104EA3008A828B83A3A3A3A3A3A3A3A3E06970E52F
:104EB30080047A007B00025C351268B0EA4B228AD8
:104EC300828B83125AC76C2274F2120B6F8A0A8B7D
:104ED3000B8C0C8D0D750800750900EA4B602A9048
:104EE3001C4A80068E828F83A3A3124F13601AACD1
:104EF3000CAD0DEEFAEFFB850A82850B83120DA62E
:104F0300E9640170DF8E088F09AA08AB09024BD947
:104F1300E0FEA3E0FFEE4F2274F7120B6F901C4AE2
:104F2300126B9D7C007D00800DE8FCE9FD88828981
:104F330083A3A3126B9DE8496030EA687002EB69B2
:104F430070E7901C4A1268ACE86A7002E96B8882C9
:104F53008983A3A37008126B9D901C4A8009126B6E
:104F63009D8C828D83A3A31264DD802774F7120BBB
:104F73006FEAFEEBFFEA4F6015122989124FF41214
:104F83006A356003124BABEEFAEFFB121D8F800301
:104F930012116B7F01020F261268B012248BE96491
:104FA3001A22124FABA3A322124FAF22F08A828B95
:104FB30083A3A3A3A3221271FF125AC722124D5E29
:104FC300A32274F6120B6F901C4A126BB980141251
:104FD3006BD6124FF4124BABEEFAEFFB121D8FAEF2
:104FE30008AF09EE4F70E8901C4AE4F0A3F0025FAB
:104FF300A58E828F831271B0F5831250088E828F33
:105003008312500822E0FAA3E0FB121D8F22C08214
:10501300C083EAFCEBFDEA4D6017EA24FBF582EB63
:1050230034FF126A3A7007125066E0F46007121CEC
:10503300DB7905802B901C32E0C0E0125066D0E093
:10504300F0903623E493F97A4C7B1C121D11E9642A
:1050530001700B7A007B201250757900800279046D
:10506300025C35EA24FFF582EB34FFF583227A20D4
:105073007B00901C32E0F9121D172274F4120B6F9F
:10508300A2AFE433F508C2AF901C4C124F13603843
:10509300EE24FBF582EF34FF126A3A7A007B20900C
:1050A3001C3260051250788005E0F9121D1DE4F5ED
:1050B3000AF50B780A1211A9EEFCEFFD7A4C7B1C62
:1050C300121D0B740212116BE508A2E092AFEEFA07
:1050D300EFFB023E7C1250DDE0221250E12212501F
:1050E300EBA3A3A3A3A3A322F08E828F8322121187
:1050F3006B7F03020F2674F2120B6F74FA12124FB6
:10510300EAFEEBFF7508FE7509FF12294DE96005FC
:10511300791102527B12579B603C901E6CE0C433A2
:1051230054E0F8E0333354FC48C0E0EE1261AA3F88
:10513300F583D0E0126BF8FAA3E0FB79FF12272581
:10514300EA4B60127508FFEE240F12579E4404F0D9
:1051530012579BD2E0F08E828F831252B46006EE18
:105163002412126C10EE241312579E700D903621E8
:10517300E493C0E012528AD0E0F08E828F83E0A2E3
:10518300E7500454038019EE241412579E701290B2
:105193001BC4E0C0E0125280D0E0F0901BC4E004D6
:1051A300F0EE241112579E64017016901E56E060B3
:1051B3000D901BCFE0700A8E828F83E07003126C18
:1051C3000D8E828F83E064017013EE240B125ABD9F
:1051D30064027009EE240F12579E4440F0AC21ADD7
:1051E30022EEFAEFFB1229B98A0A8B0B74FE6508CB
:1051F300700374FFF47003126BD6EA4B60768E82F1
:105203008F83E0C0E074011214CAD0E0F07404127A
:1052130014CAEEF0A3EFF0EE241E126B9774021281
:1052230014CA1264DD7401121209880C890D780CFA
:105233001211A9EE242012529D1211AD125298128E
:105243000FAFEE240E12529D1211AD901BD8120F08
:10525300AF74081214CAE0F9AC08AD091229B3748B
:105263000812116BE9FE74106E700BAA0AAB0B12D5
:105273001D8F80027E10EEF97406024BD6EE2414C5
:10528300F582E43FF58322EE12528F222413F58236
:10529300E43FF58322EE124BB322F582E43FF5831C
:1052A300E0F50C780C228E828F83A3A3A3A3A3A380
:1052B300A3A3A31252BA22E0FAA3E0FB122A55E9F0
:1052C30022C082C08374D712124F90B5CE740312DA
:1052D300121974261210CF8A828B83A3A3A3A3125D
:1052E3006B9D740E1214CA126A42126B9D740C12D7
:1052F30014CA1253BD240D1253ADC0E0741A121414
:10530300CAD0E0F0126939126B9B74201214CA12CE
:1053130053BD24151253ADC0E074081214CAD0E073
:10532300F0EA241CF582E43B126B9B74121214CA3C
:105333001253BD24111253ADC0E074091214CAD024
:10534300E0F0EA24121253ADC0E074071214CAD07D
:10535300E0F0EA241EF582E43B126B9B74241214E2
:10536300CA1253BD24201253ADC0E074261214CACE
:10537300D0E01253B574FFF074011214CA74FFF035
:1053830074021214CA74FFF090BE52120FAB74046D
:1053930012121974071212111225F3740412116BED
:1053A3007900742912116B025C35F582E43BF583B5
:1053B300E022F085218285228322E8F0A3E9F0EA46
:1053C3002274F4120B6F74EC12124F8A0A8B0B8C3B
:1053D300088D09E9FF7E107A217B00121D89852142
:1053E30082852283EAF0A3EB126A4CE84970030238
:1053F30054D17C217D007900852182852283E0FAC6
:10540300121CBD901BE51268AC8521828522831294
:1054130065BB2409F582E438F5831269F874201218
:1054230014CA126B9D74111214CAE8125B2C126910
:10543300FE38F5837402125B2F1271CA7402125B79
:10544300191254D8125B2F1271A7EFF074221214A1
:10545300CA125ADAF9A3E0C9126EA139F583E81228
:1054630057EFA3E0C9241FF582E4391254DF7423F4
:105473001214CA1268AC74061214CA1269F87408BA
:105483001214CAE8F074261214CA1269D2C082C078
:1054930083740C1214CAAC82AD83D083D08274059A
:1054A3001210CF74251214CAE0C0E074131214CA88
:1054B300D0E0F07900AA21AB22122953E9640170EC
:1054C300047E008009852182852283124BAEEEF98A
:1054D3007414023E79E508F0A3E50922F583E50A91
:1054E300F0A3E50BF02274F0120B6F74FF12124F4E
:1054F300EAFEEBFF8C088D098A82F583A37408F01A
:10550300EA241612579E60088A828B83A37410F0D4
:10551300EA241712579E60098A828B83A3E024082A
:10552300F0EA12579C60088A828B83A3E004F08A16
:10553300828B83A3A3A3A3A3A3E060198A828B8393
:10554300A3A3A3A3A3A3A3E0C3332402F88A828B58
:1055530083A3E028F0EA24111257A66004740E8096
:1055630001E4F0901E64E0640170168A828B83E08C
:105573006401600D901B53E060071257867401802D
:1055830004125786E41257EF8A828B83A3E0F8EA6A
:10559300123A3E28298C828D83F0EA241112579EF9
:1055A3006005125DC729F0850882850983E0C394ED
:1055B300754009750C00750D0002577DE0FA7B00FC
:1055C300121D898A0C8B0DEA4B700302577D8E8264
:1055D3008F83E0FA901BD51257E8740278081213F0
:1055E30044EA4508FAAB09EE24121257E27406782E
:1055F30008121344A808EA48FCEBFD12579B600409
:10560300780180027800EE2416FAE43FFBE4C8F93F
:10561300ED49FDEE241112579EF5088809740978A7
:1056230008121344ED4509FD8A828B831257E874EF
:105633000B7808121344ED4509FDEE24171257E2C7
:10564300740C7808121344ED4509FD8E828F83A3F1
:10565300A3A3A3A3A31257E8740A7808121344ED73
:105663004509FDEE24231257E2740D780812134402
:10567300ED4509F9EC850C82850D83F0E9A3F0EE85
:1056830024021257C5125804F0EE24041257C5A37E
:10569300A3125804A3A3F0EE24131257D5F0EE245B
:1056A300141257D5A3F0750B088A828B83E060151B
:1056B300126AAE1265B7E50C2408FAE4350DFB1245
:1056C3001E73750B10EE241712579E601912663A5B
:1056D3001265B7A80BE50C28FAE4350DFB121E730F
:1056E3007408250BF50B8E828F83A3A3A3A3A3A317
:1056F300E0604EEE2407F50EE43FF50F850E82F5CC
:1057030083E0C0E01257B4D0E01257F4E0C0E008E1
:105713001257B6D0E01257F4A3126A281211A585C6
:105723000E82850F83E0125A8EA80BE50C281257C0
:105733009012116B850E82850F83E0C333250BF521
:105743000B12579B6008C0E01257B4D0E0F0125D13
:1057530084126A281211A5123A3DFC7D00740312CB
:1057630014CA1257BDE0F8E50C28F8E4350DF9E842
:105773002AFAE43912579412116BAA0CAB0D740177
:10578300026A11EA2423F582E43FF58322FAE43521
:105793000DFB121CB1740322EE2415F582E43FF5D0
:1057A30083E022F582E43FF583E08521828522832D
:1057B30022A80BE50C28125AA122E0FA8E828F83CD
:1057C300A322F8E43FF98882F583E0850C82850DF6
:1057D3008322F582E43FF58312580EA3A3A322F597
:1057E30082E43FF583E0F508750900221271EDF9B3
:1057F30022F0050B8E828F83A3A3A3A3A3A3A3A34A
:1058030022A3A3126BE4A312580E22E0850C828517
:105813000D83A3A3A3227403023E79126BA18E828C
:105823008F83A3A32274F0120B6F74FD12124F1215
:1058330069F274021214CAE9F08C0C8D0D750B0118
:105843007C267D007900AA0CAB0D121CBD740212DC
:1058530014CAE0C394085003025A171257CDF0AC90
:105863000CAD0D852182852283125AC3FA852182CC
:105873008522831260E9125DC0E96003750B008520
:1058830021828522831269D2125AE4E0F9EA850C57
:1058930082850D83A3A3A3A3A3A3A3A3A3F0A3E937
:1058A300125B19A3A3125AE4A3A3E0F9E50C126A4D
:1058B30051EA125B2C1265A7C0E0E50C24111272A9
:1058C30025D0E0125B2F2407F582E438F583E0C08E
:1058D300E0127221D0E01269E57408125B10A3E0B4
:1058E3006026852182852283E02408F8A3E0340022
:1058F300F9E50C2413F582E4350D1264DB850C8283
:10590300850D83A3E02408F0850C82850D83A3A372
:10591300A3A3A3A3A3A3E0602A850C82850D83A37D
:1059230085820E85830F125AD1F8A3E03400F9E57E
:105933000C1261AA350D1264DB850E82850F83E09C
:105943002408F0125A95E4F0125AA9E4F0A312695C
:10595300E5A3A3A3A3E06011125AF5850C82850D7C
:1059630083A3A3A3A3A3125B21E50C125AB6E07091
:1059730003025A03125AF5FA125A95EA125B21F8F6
:10598300852182852283E028FBA3E034008B82F506
:1059930083E0F8E50C241A127225E8125B21E8C3B0
:1059A3009AE50C5056125AB1F8903624E493C398F2
:1059B30050047E0C8006E50C125AB1FE850C8285DC
:1059C3000D83125AD0F508A3E03400F509750A00D7
:1059D30078081211A5EE125A8E7AD07B0E125795C3
:1059E30012116B125AA974D0F0A3740EF0EEC333E4
:1059F300F8850E82850F83E0288004125AB6E4F0FE
:105A0300850C82850D83A3E0F8850C82850D83E0E8
:105A1300C398500479008070125AD0FAA3E034007E
:105A2300FBE50C126C071272281269F8850C82854B
:105A33000D83E0C398C0E0E50C2417127225D0E073
:105A4300125B10E06040E50C2417FEE4350DFF8E79
:105A530082F583E024F2F0E50C241DF8E4350DF91A
:105A63008882F583E0240EFAA3E03400FB88828960
:105A7300831269F8901BD0E0F91228ABE9F88E8203
:105A83008F83E0C398F0A90B026A0F25E0FCE4338F
:105A9300FD22E50C125A9B222419125AA122F582E7
:105AA300E4350DF58322E50C241B125AA122125A68
:105AB3009BE0221269DF125AA422F582E43FF583A8
:105AC300125AC722126BA6F5838882E022A3125AC8
:105AD300D522125ADA2822E0F8852182852283E032
:105AE30022A3A3E0FA8521828522831269D8A3A386
:105AF300A322850C82850D83A385820E85830F12D5
:105B03005AD5FAA3E034008A82F583E0221269E9C8
:105B1300A3A3A3A3A322125B34F583888222F08577
:105B23000E82850F83E004F022F0A3E9125B34C8F0
